{
  "_format": "hh-sol-artifact-1",
  "contractName": "Staking",
  "sourceName": "contracts/SHRFStaking.sol",
  "abi": [
    {
      "inputs": [
        {
          "internalType": "address",
          "name": "_stakingToken",
          "type": "address"
        }
      ],
      "stateMutability": "nonpayable",
      "type": "constructor"
    },
    {
      "anonymous": false,
      "inputs": [
        {
          "indexed": true,
          "internalType": "address",
          "name": "previousOwner",
          "type": "address"
        },
        {
          "indexed": true,
          "internalType": "address",
          "name": "newOwner",
          "type": "address"
        }
      ],
      "name": "OwnershipTransferred",
      "type": "event"
    },
    {
      "anonymous": false,
      "inputs": [
        {
          "indexed": true,
          "internalType": "address",
          "name": "account",
          "type": "address"
        }
      ],
      "name": "Staked",
      "type": "event"
    },
    {
      "anonymous": false,
      "inputs": [
        {
          "indexed": true,
          "internalType": "address",
          "name": "account",
          "type": "address"
        }
      ],
      "name": "Unstaked",
      "type": "event"
    },
    {
      "inputs": [
        {
          "internalType": "address",
          "name": "",
          "type": "address"
        }
      ],
      "name": "addressMap",
      "outputs": [
        {
          "internalType": "uint256",
          "name": "stakeTime",
          "type": "uint256"
        },
        {
          "internalType": "uint256",
          "name": "stakeAmt",
          "type": "uint256"
        },
        {
          "internalType": "uint256",
          "name": "lastUpdateTime",
          "type": "uint256"
        },
        {
          "internalType": "uint256",
          "name": "accumulatedInterestToUpdateTime",
          "type": "uint256"
        },
        {
          "internalType": "uint256",
          "name": "amtWithdrawn",
          "type": "uint256"
        }
      ],
      "stateMutability": "view",
      "type": "function"
    },
    {
      "inputs": [
        {
          "internalType": "uint256",
          "name": "",
          "type": "uint256"
        }
      ],
      "name": "addressStore",
      "outputs": [
        {
          "internalType": "address",
          "name": "",
          "type": "address"
        }
      ],
      "stateMutability": "view",
      "type": "function"
    },
    {
      "inputs": [],
      "name": "apr",
      "outputs": [
        {
          "internalType": "uint256",
          "name": "",
          "type": "uint256"
        }
      ],
      "stateMutability": "view",
      "type": "function"
    },
    {
      "inputs": [
        {
          "internalType": "uint256",
          "name": "_apr",
          "type": "uint256"
        }
      ],
      "name": "modifyapr",
      "outputs": [],
      "stateMutability": "nonpayable",
      "type": "function"
    },
    {
      "inputs": [],
      "name": "owner",
      "outputs": [
        {
          "internalType": "address",
          "name": "",
          "type": "address"
        }
      ],
      "stateMutability": "view",
      "type": "function"
    },
    {
      "inputs": [
        {
          "internalType": "address",
          "name": "_address",
          "type": "address"
        }
      ],
      "name": "presentEarning",
      "outputs": [
        {
          "internalType": "uint256",
          "name": "",
          "type": "uint256"
        }
      ],
      "stateMutability": "view",
      "type": "function"
    },
    {
      "inputs": [],
      "name": "renounceOwnership",
      "outputs": [],
      "stateMutability": "nonpayable",
      "type": "function"
    },
    {
      "inputs": [
        {
          "internalType": "uint256",
          "name": "_stakeAmt",
          "type": "uint256"
        }
      ],
      "name": "stake",
      "outputs": [],
      "stateMutability": "nonpayable",
      "type": "function"
    },
    {
      "inputs": [],
      "name": "stakingAddresses",
      "outputs": [
        {
          "internalType": "uint256",
          "name": "",
          "type": "uint256"
        }
      ],
      "stateMutability": "view",
      "type": "function"
    },
    {
      "inputs": [],
      "name": "stakingToken",
      "outputs": [
        {
          "internalType": "contract IERC20",
          "name": "",
          "type": "address"
        }
      ],
      "stateMutability": "view",
      "type": "function"
    },
    {
      "inputs": [],
      "name": "totalAccumulatedInterest",
      "outputs": [
        {
          "internalType": "uint256",
          "name": "",
          "type": "uint256"
        }
      ],
      "stateMutability": "view",
      "type": "function"
    },
    {
      "inputs": [],
      "name": "totalStakedAmount",
      "outputs": [
        {
          "internalType": "uint256",
          "name": "",
          "type": "uint256"
        }
      ],
      "stateMutability": "view",
      "type": "function"
    },
    {
      "inputs": [],
      "name": "totalWithdrawals",
      "outputs": [
        {
          "internalType": "uint256",
          "name": "",
          "type": "uint256"
        }
      ],
      "stateMutability": "view",
      "type": "function"
    },
    {
      "inputs": [
        {
          "internalType": "address",
          "name": "newOwner",
          "type": "address"
        }
      ],
      "name": "transferOwnership",
      "outputs": [],
      "stateMutability": "nonpayable",
      "type": "function"
    },
    {
      "inputs": [
        {
          "internalType": "uint256",
          "name": "_unstakeAmt",
          "type": "uint256"
        }
      ],
      "name": "unstake",
      "outputs": [],
      "stateMutability": "nonpayable",
      "type": "function"
    },
    {
      "inputs": [
        {
          "internalType": "uint256",
          "name": "_amt",
          "type": "uint256"
        }
      ],
      "name": "withdrawNativeCurrency",
      "outputs": [],
      "stateMutability": "nonpayable",
      "type": "function"
    },
    {
      "inputs": [
        {
          "internalType": "uint256",
          "name": "_withdrawalAmt",
          "type": "uint256"
        }
      ],
      "name": "withdrawReward",
      "outputs": [],
      "stateMutability": "nonpayable",
      "type": "function"
    }
  ],
  "bytecode": "0x60806040526000600555600560065560006007556502de1d71ea0060085534801561002957600080fd5b50604051611685380380611685833981016040819052610048916100cd565b60016000556100563361007b565b600280546001600160a01b0319166001600160a01b03929092169190911790556100fd565b600180546001600160a01b038381166001600160a01b0319831681179093556040519116919082907f8be0079c531659141344cd1fd0a4f28419497f9722a3daafe3b4186f6b6457e090600090a35050565b6000602082840312156100df57600080fd5b81516001600160a01b03811681146100f657600080fd5b9392505050565b6115798061010c6000396000f3fe608060405234801561001057600080fd5b506004361061010b5760003560e01c8063715018a6116100a2578063a694fc3a11610071578063a694fc3a14610200578063b583ea5114610213578063d3cec8ba14610226578063da5633ef1461022f578063f2fde38b1461029557600080fd5b8063715018a6146101c157806372f702f3146101c95780637f787414146101dc5780638da5cb5b146101ef57600080fd5b8063523a3f08116100de578063523a3f0814610194578063567e98f9146101a757806357ded9c9146101af57806360464627146101b857600080fd5b806315f5254e146101105780632e17de78146101255780632e82c983146101385780634f0fd4ca14610153575b600080fd5b61012361011e366004611304565b6102a8565b005b610123610133366004611304565b61030a565b6101406107b1565b6040519081526020015b60405180910390f35b61017c610161366004611304565b6004602052600090815260409020546001600160a01b031681565b6040516001600160a01b03909116815260200161014a565b6101236101a2366004611304565b610805565b6101406109bc565b61014060065481565b61014060075481565b610123610a47565b60025461017c906001600160a01b031681565b6101236101ea366004611304565b610a5b565b6001546001600160a01b031661017c565b61012361020e366004611304565b610a70565b61014061022136600461131d565b610ce1565b61014060055481565b61026d61023d36600461131d565b60036020819052600091825260409091208054600182015460028301549383015460049093015491939092909185565b604080519586526020860194909452928401919091526060830152608082015260a00161014a565b6101236102a336600461131d565b610d81565b6102b0610df7565b804710156102d95760405162461bcd60e51b81526004016102d090611346565b60405180910390fd5b604051339082156108fc029083906000818181858888f19350505050158015610306573d6000803e3d6000fd5b5050565b610312610e51565b33600090815260036020818152604092839020835160a08101855281548152600182015492810183905260028201549481019490945291820154606084015260049091015460808301528211156103b75760405162461bcd60e51b815260206004820152602360248201527f5769746864726177696e67206d6f7265207468616e207374616b656420616d6f6044820152621d5b9d60ea1b60648201526084016102d0565b60006008546006548360400151426103cf9190611417565b84602001516103de9190611430565b6103e89190611430565b6103f29190611447565b82606001516104019190611469565b90506000826020015184836104169190611430565b6104209190611447565b9050804710156104425760405162461bcd60e51b81526004016102d090611346565b604051339082156108fc029083906000818181858888f1935050505015801561046f573d6000803e3d6000fd5b506002546040516370a0823160e01b815230600482015285916001600160a01b0316906370a0823190602401602060405180830381865afa1580156104b8573d6000803e3d6000fd5b505050506040513d601f19601f820116820180604052508101906104dc919061147c565b101561059c5760405162461bcd60e51b815260206004820152607960248201527f496e73756666696369656e7420616d6f756e74206f662074686520746f6b656e60448201527f20696e207468697320636f6e747261637420746f207472616e73666572206f7560648201527f742e20506c6561736520636f6e746163742074686520636f6e7472616374206f60848201527f776e657220746f20746f702075702074686520746f6b656e2e0000000000000060a482015260c4016102d0565b6002546001600160a01b031663a9059cbb336040516001600160e01b031960e084901b1681526001600160a01b039091166004820152602481018790526044016020604051808303816000875af11580156105fb573d6000803e3d6000fd5b505050506040513d601f19601f8201168201806040525081019061061f9190611495565b508060075461062e9190611469565b600755602083015184036106e35760005b6005548110156106e157600081815260046020526040902054336001600160a01b03909116036106cf5760046000600160055461067c9190611417565b8152602080820192909252604090810160009081205484825260049093522080546001600160a01b0319166001600160a01b039092169190911790556005546106c790600190611417565b6005556106e1565b806106d9816114b7565b91505061063f565b505b6040518060a00160405280846000015181526020018585602001516107089190611417565b81526040808601516020830152016107208385611417565b81526020018285608001516107359190611469565b905233600081815260036020818152604080842086518155918601516001830155858101516002830155606086015192820192909255608090940151600490940193909355915190917f908e667f6c2b13b8062954eb100253ea804c21222b190449e40d967a3ac0ff1391a25050506107ae6001600055565b50565b600080805b6005548110156107ff576000818152600460205260409020546107e1906001600160a01b0316610ce1565b6107eb9083611469565b9150806107f7816114b7565b9150506107b6565b50919050565b61080d610e51565b600061081833610ce1565b9050808211156108895760405162461bcd60e51b815260206004820152603660248201527f57697468647261776e20616d6f756e74206d757374206265206c657373207468604482015275185b881dda5d1a191c985dd8589b1948185b5bdd5b9d60521b60648201526084016102d0565b33600090815260036020818152604092839020835160a08082018652825482526001830154828501908152600284015483880152948301546060808401919091526004909301546080830152855190810186528151815293519284019290925242938301939093529181016108fe8585611417565b81526020018483608001516109139190611469565b90523360009081526003602081815260409283902084518155908401516001820155918301516002830155606083015190820155608090910151600490910155478311156109735760405162461bcd60e51b81526004016102d090611346565b604051339084156108fc029085906000818181858888f193505050501580156109a0573d6000803e3d6000fd5b50826007546109af9190611469565b6007555050600160005550565b600080805b6005548110156107ff576000818152600460208181526040808420546001600160a01b03168452600380835293819020815160a08101835281548152600182015493810184905260028201549281019290925293840154606082015292909101546080830152610a319084611469565b9250508080610a3f906114b7565b9150506109c1565b610a4f610df7565b610a596000610eaa565b565b610a63610df7565b610a6b610efc565b600655565b610a78610e51565b60008111610ad95760405162461bcd60e51b815260206004820152602860248201527f5374616b656420616d6f756e74206e6565647320746f20626520677265617465604482015267072207468616e20360c41b60648201526084016102d0565b33600090815260036020818152604092839020835160a0810185528154815260018201549281018390526002820154948101949094529182015460608401526004909101546080830152610bd5576040518060a0016040528042815260200183815260200142815260200160008152602001600081525060036000610b5b3390565b6001600160a01b031681526020808201929092526040908101600090812084518155848401516001808301919091558584015160028301556060860151600383015560809095015160049182015560058054835293522080546001600160a01b0319163317905554610bcd9190611469565b600555610c93565b6040518060a00160405280428152602001838360200151610bf69190611469565b8152602001428152602001600854600654846040015142610c179190611417565b8560200151610c269190611430565b610c309190611430565b610c3a9190611447565b8360600151610c499190611469565b815260808381015160209283015233600090815260038084526040918290208551815593850151600185015590840151600284015560608401519083015591909101516004909101555b610cab336002546001600160a01b031690308561103d565b60405133907f77338642d9284a44296d29a273e04b8ab6b15c7d2439094cd460b7e4f0b3307490600090a2506107ae6001600055565b6001600160a01b0381166000908152600360208181526040808420815160a08101835281548152600182015493810193909352600281015491830182905292830154606083015260049092015460808201526008546006549192909190610d489042611417565b8360200151610d579190611430565b610d619190611430565b610d6b9190611447565b8160600151610d7a9190611469565b9392505050565b610d89610df7565b6001600160a01b038116610dee5760405162461bcd60e51b815260206004820152602660248201527f4f776e61626c653a206e6577206f776e657220697320746865207a65726f206160448201526564647265737360d01b60648201526084016102d0565b6107ae81610eaa565b6001546001600160a01b03163314610a595760405162461bcd60e51b815260206004820181905260248201527f4f776e61626c653a2063616c6c6572206973206e6f7420746865206f776e657260448201526064016102d0565b600260005403610ea35760405162461bcd60e51b815260206004820152601f60248201527f5265656e7472616e637947756172643a207265656e7472616e742063616c6c0060448201526064016102d0565b6002600055565b600180546001600160a01b038381166001600160a01b0319831681179093556040519116919082907f8be0079c531659141344cd1fd0a4f28419497f9722a3daafe3b4186f6b6457e090600090a35050565b60005b6005548110156107ae576000818152600460208181526040808420546001600160a01b03168452600380835293819020815160a080820184528254825260018301548286019081526002840154838601908152978401546060808501919091529390960154608083015283519081018452815181529451938501939093524291840182905260085460065495519395918501939092610f9e9190611417565b8560200151610fad9190611430565b610fb79190611430565b610fc19190611447565b8360600151610fd09190611469565b8152608092830151602091820152600084815260048083526040808320546001600160a01b03168352600380855292819020855181559385015160018501558401516002840155606084015191830191909155919092015191015580611035816114b7565b915050610eff565b604080516001600160a01b0385811660248301528416604482015260648082018490528251808303909101815260849091019091526020810180516001600160e01b03166323b872dd60e01b17905261109790859061109d565b50505050565b60006110f2826040518060400160405280602081526020017f5361666545524332303a206c6f772d6c6576656c2063616c6c206661696c6564815250856001600160a01b03166111749092919063ffffffff16565b80519091501561116f57808060200190518101906111109190611495565b61116f5760405162461bcd60e51b815260206004820152602a60248201527f5361666545524332303a204552433230206f7065726174696f6e20646964206e6044820152691bdd081cdd58d8d9595960b21b60648201526084016102d0565b505050565b6060611183848460008561118b565b949350505050565b6060824710156111ec5760405162461bcd60e51b815260206004820152602660248201527f416464726573733a20696e73756666696369656e742062616c616e636520666f6044820152651c8818d85b1b60d21b60648201526084016102d0565b600080866001600160a01b0316858760405161120891906114f4565b60006040518083038185875af1925050503d8060008114611245576040519150601f19603f3d011682016040523d82523d6000602084013e61124a565b606091505b509150915061125b87838387611266565b979650505050505050565b606083156112d55782516000036112ce576001600160a01b0385163b6112ce5760405162461bcd60e51b815260206004820152601d60248201527f416464726573733a2063616c6c20746f206e6f6e2d636f6e747261637400000060448201526064016102d0565b5081611183565b61118383838151156112ea5781518083602001fd5b8060405162461bcd60e51b81526004016102d09190611510565b60006020828403121561131657600080fd5b5035919050565b60006020828403121561132f57600080fd5b81356001600160a01b0381168114610d7a57600080fd5b60208082526089908201527f496e73756666696369656e7420616d6f756e74206f66206e617469766520637560408201527f7272656e637920696e207468697320636f6e747261637420746f207472616e7360608201527f666572206f75742e20506c6561736520636f6e746163742074686520636f6e7460808201527f72616374206f776e657220746f20746f7020757020746865206e61746976652060a08201526831bab93932b731bc9760b91b60c082015260e00190565b634e487b7160e01b600052601160045260246000fd5b8181038181111561142a5761142a611401565b92915050565b808202811582820484141761142a5761142a611401565b60008261146457634e487b7160e01b600052601260045260246000fd5b500490565b8082018082111561142a5761142a611401565b60006020828403121561148e57600080fd5b5051919050565b6000602082840312156114a757600080fd5b81518015158114610d7a57600080fd5b6000600182016114c9576114c9611401565b5060010190565b60005b838110156114eb5781810151838201526020016114d3565b50506000910152565b600082516115068184602087016114d0565b9190910192915050565b602081526000825180602084015261152f8160408501602087016114d0565b601f01601f1916919091016040019291505056fea2646970667358221220f411e223c09412914cc2e83ce4db8c484988a34b54f0b7cfaf5b3fe06c95248364736f6c63430008110033",
  "linkReferences": {},
  "deployedLinkReferences": {}
}