{
  "_format": "hh-sol-artifact-1",
  "contractName": "Staking",
  "sourceName": "contracts/SHRFStaking.sol",
  "abi": [
    {
      "inputs": [
        {
          "internalType": "address",
          "name": "_stakingToken",
          "type": "address"
        }
      ],
      "stateMutability": "nonpayable",
      "type": "constructor"
    },
    {
      "anonymous": false,
      "inputs": [
        {
          "indexed": true,
          "internalType": "address",
          "name": "previousOwner",
          "type": "address"
        },
        {
          "indexed": true,
          "internalType": "address",
          "name": "newOwner",
          "type": "address"
        }
      ],
      "name": "OwnershipTransferred",
      "type": "event"
    },
    {
      "anonymous": false,
      "inputs": [
        {
          "indexed": true,
          "internalType": "address",
          "name": "from",
          "type": "address"
        },
        {
          "indexed": false,
          "internalType": "uint256",
          "name": "value",
          "type": "uint256"
        }
      ],
      "name": "Recieved",
      "type": "event"
    },
    {
      "anonymous": false,
      "inputs": [
        {
          "indexed": true,
          "internalType": "address",
          "name": "account",
          "type": "address"
        }
      ],
      "name": "Staked",
      "type": "event"
    },
    {
      "anonymous": false,
      "inputs": [
        {
          "indexed": true,
          "internalType": "address",
          "name": "account",
          "type": "address"
        }
      ],
      "name": "Unstaked",
      "type": "event"
    },
    {
      "inputs": [
        {
          "internalType": "address",
          "name": "",
          "type": "address"
        }
      ],
      "name": "addressMap",
      "outputs": [
        {
          "internalType": "uint256",
          "name": "stakeTime",
          "type": "uint256"
        },
        {
          "internalType": "uint256",
          "name": "stakeAmt",
          "type": "uint256"
        },
        {
          "internalType": "uint256",
          "name": "lastUpdateTime",
          "type": "uint256"
        },
        {
          "internalType": "uint256",
          "name": "accumulatedInterestToUpdateTime",
          "type": "uint256"
        },
        {
          "internalType": "uint256",
          "name": "amtWithdrawn",
          "type": "uint256"
        }
      ],
      "stateMutability": "view",
      "type": "function"
    },
    {
      "inputs": [],
      "name": "apr",
      "outputs": [
        {
          "internalType": "uint256",
          "name": "",
          "type": "uint256"
        }
      ],
      "stateMutability": "view",
      "type": "function"
    },
    {
      "inputs": [
        {
          "internalType": "uint256",
          "name": "_apr",
          "type": "uint256"
        }
      ],
      "name": "modifyAPR",
      "outputs": [],
      "stateMutability": "nonpayable",
      "type": "function"
    },
    {
      "inputs": [],
      "name": "owner",
      "outputs": [
        {
          "internalType": "address",
          "name": "",
          "type": "address"
        }
      ],
      "stateMutability": "view",
      "type": "function"
    },
    {
      "inputs": [
        {
          "internalType": "address",
          "name": "_address",
          "type": "address"
        }
      ],
      "name": "presentEarning",
      "outputs": [
        {
          "internalType": "uint256",
          "name": "",
          "type": "uint256"
        }
      ],
      "stateMutability": "view",
      "type": "function"
    },
    {
      "inputs": [],
      "name": "renounceOwnership",
      "outputs": [],
      "stateMutability": "nonpayable",
      "type": "function"
    },
    {
      "inputs": [
        {
          "internalType": "uint256",
          "name": "_stakeAmt",
          "type": "uint256"
        }
      ],
      "name": "stake",
      "outputs": [],
      "stateMutability": "nonpayable",
      "type": "function"
    },
    {
      "inputs": [],
      "name": "stakingAddresses",
      "outputs": [
        {
          "internalType": "uint256",
          "name": "",
          "type": "uint256"
        }
      ],
      "stateMutability": "view",
      "type": "function"
    },
    {
      "inputs": [],
      "name": "stakingToken",
      "outputs": [
        {
          "internalType": "contract IERC20",
          "name": "",
          "type": "address"
        }
      ],
      "stateMutability": "view",
      "type": "function"
    },
    {
      "inputs": [],
      "name": "totalAccumulatedInterest",
      "outputs": [
        {
          "internalType": "uint256",
          "name": "",
          "type": "uint256"
        }
      ],
      "stateMutability": "view",
      "type": "function"
    },
    {
      "inputs": [],
      "name": "totalStakedAmount",
      "outputs": [
        {
          "internalType": "uint256",
          "name": "",
          "type": "uint256"
        }
      ],
      "stateMutability": "view",
      "type": "function"
    },
    {
      "inputs": [],
      "name": "totalWithdrawals",
      "outputs": [
        {
          "internalType": "uint256",
          "name": "",
          "type": "uint256"
        }
      ],
      "stateMutability": "view",
      "type": "function"
    },
    {
      "inputs": [
        {
          "internalType": "address",
          "name": "newOwner",
          "type": "address"
        }
      ],
      "name": "transferOwnership",
      "outputs": [],
      "stateMutability": "nonpayable",
      "type": "function"
    },
    {
      "inputs": [
        {
          "internalType": "uint256",
          "name": "_unstakeAmt",
          "type": "uint256"
        }
      ],
      "name": "unstake",
      "outputs": [],
      "stateMutability": "nonpayable",
      "type": "function"
    },
    {
      "inputs": [
        {
          "internalType": "uint256",
          "name": "_amt",
          "type": "uint256"
        }
      ],
      "name": "withdrawNativeCurrency",
      "outputs": [],
      "stateMutability": "nonpayable",
      "type": "function"
    },
    {
      "inputs": [
        {
          "internalType": "uint256",
          "name": "_withdrawalAmt",
          "type": "uint256"
        }
      ],
      "name": "withdrawReward",
      "outputs": [],
      "stateMutability": "nonpayable",
      "type": "function"
    },
    {
      "stateMutability": "payable",
      "type": "receive"
    }
  ],
  "bytecode": "0x60806040526000600555600560065560006007556502de1d71ea0060085534801561002957600080fd5b50604051611754380380611754833981016040819052610048916100cd565b60016000556100563361007b565b600280546001600160a01b0319166001600160a01b03929092169190911790556100fd565b600180546001600160a01b038381166001600160a01b0319831681179093556040519116919082907f8be0079c531659141344cd1fd0a4f28419497f9722a3daafe3b4186f6b6457e090600090a35050565b6000602082840312156100df57600080fd5b81516001600160a01b03811681146100f657600080fd5b9392505050565b6116488061010c6000396000f3fe6080604052600436106100f75760003560e01c806372f702f31161008a578063b583ea5111610059578063b583ea51146102ae578063d3cec8ba146102ce578063da5633ef146102e4578063f2fde38b1461035757600080fd5b806372f702f3146102185780638da5cb5b146102505780639668f3081461026e578063a694fc3a1461028e57600080fd5b8063567e98f9116100c6578063567e98f9146101c257806357ded9c9146101d757806360464627146101ed578063715018a61461020357600080fd5b806315f5254e146101385780632e17de781461015a5780632e82c9831461017a578063523a3f08146101a257600080fd5b366101335760405134815233907fe03f2fbffd55aceaa08b8e27b348ae6b7607e8a520dfe6a92b053c2ce0ac850a9060200160405180910390a2005b600080fd5b34801561014457600080fd5b506101586101533660046113d3565b610377565b005b34801561016657600080fd5b506101586101753660046113d3565b6103d9565b34801561018657600080fd5b5061018f610880565b6040519081526020015b60405180910390f35b3480156101ae57600080fd5b506101586101bd3660046113d3565b6108d4565b3480156101ce57600080fd5b5061018f610a8b565b3480156101e357600080fd5b5061018f60065481565b3480156101f957600080fd5b5061018f60075481565b34801561020f57600080fd5b50610158610b16565b34801561022457600080fd5b50600254610238906001600160a01b031681565b6040516001600160a01b039091168152602001610199565b34801561025c57600080fd5b506001546001600160a01b0316610238565b34801561027a57600080fd5b506101586102893660046113d3565b610b2a565b34801561029a57600080fd5b506101586102a93660046113d3565b610b3f565b3480156102ba57600080fd5b5061018f6102c93660046113ec565b610db0565b3480156102da57600080fd5b5061018f60055481565b3480156102f057600080fd5b5061032f6102ff3660046113ec565b60036020819052600091825260409091208054600182015460028301549383015460049093015491939092909185565b604080519586526020860194909452928401919091526060830152608082015260a001610199565b34801561036357600080fd5b506101586103723660046113ec565b610e50565b61037f610ec6565b804710156103a85760405162461bcd60e51b815260040161039f90611415565b60405180910390fd5b604051339082156108fc029083906000818181858888f193505050501580156103d5573d6000803e3d6000fd5b5050565b6103e1610f20565b33600090815260036020818152604092839020835160a08101855281548152600182015492810183905260028201549481019490945291820154606084015260049091015460808301528211156104865760405162461bcd60e51b815260206004820152602360248201527f5769746864726177696e67206d6f7265207468616e207374616b656420616d6f6044820152621d5b9d60ea1b606482015260840161039f565b600060085460065483604001514261049e91906114e6565b84602001516104ad91906114ff565b6104b791906114ff565b6104c19190611516565b82606001516104d09190611538565b90506000826020015184836104e591906114ff565b6104ef9190611516565b9050804710156105115760405162461bcd60e51b815260040161039f90611415565b604051339082156108fc029083906000818181858888f1935050505015801561053e573d6000803e3d6000fd5b506002546040516370a0823160e01b815230600482015285916001600160a01b0316906370a0823190602401602060405180830381865afa158015610587573d6000803e3d6000fd5b505050506040513d601f19601f820116820180604052508101906105ab919061154b565b101561066b5760405162461bcd60e51b815260206004820152607960248201527f496e73756666696369656e7420616d6f756e74206f662074686520746f6b656e60448201527f20696e207468697320636f6e747261637420746f207472616e73666572206f7560648201527f742e20506c6561736520636f6e746163742074686520636f6e7472616374206f60848201527f776e657220746f20746f702075702074686520746f6b656e2e0000000000000060a482015260c40161039f565b6002546001600160a01b031663a9059cbb336040516001600160e01b031960e084901b1681526001600160a01b039091166004820152602481018790526044016020604051808303816000875af11580156106ca573d6000803e3d6000fd5b505050506040513d601f19601f820116820180604052508101906106ee9190611564565b50806007546106fd9190611538565b600755602083015184036107b25760005b6005548110156107b057600081815260046020526040902054336001600160a01b039091160361079e5760046000600160055461074b91906114e6565b8152602080820192909252604090810160009081205484825260049093522080546001600160a01b0319166001600160a01b03909216919091179055600554610796906001906114e6565b6005556107b0565b806107a881611586565b91505061070e565b505b6040518060a00160405280846000015181526020018585602001516107d791906114e6565b81526040808601516020830152016107ef83856114e6565b81526020018285608001516108049190611538565b905233600081815260036020818152604080842086518155918601516001830155858101516002830155606086015192820192909255608090940151600490940193909355915190917f908e667f6c2b13b8062954eb100253ea804c21222b190449e40d967a3ac0ff1391a250505061087d6001600055565b50565b600080805b6005548110156108ce576000818152600460205260409020546108b0906001600160a01b0316610db0565b6108ba9083611538565b9150806108c681611586565b915050610885565b50919050565b6108dc610f20565b60006108e733610db0565b9050808211156109585760405162461bcd60e51b815260206004820152603660248201527f57697468647261776e20616d6f756e74206d757374206265206c657373207468604482015275185b881dda5d1a191c985dd8589b1948185b5bdd5b9d60521b606482015260840161039f565b33600090815260036020818152604092839020835160a08082018652825482526001830154828501908152600284015483880152948301546060808401919091526004909301546080830152855190810186528151815293519284019290925242938301939093529181016109cd85856114e6565b81526020018483608001516109e29190611538565b9052336000908152600360208181526040928390208451815590840151600182015591830151600283015560608301519082015560809091015160049091015547831115610a425760405162461bcd60e51b815260040161039f90611415565b604051339084156108fc029085906000818181858888f19350505050158015610a6f573d6000803e3d6000fd5b5082600754610a7e9190611538565b6007555050600160005550565b600080805b6005548110156108ce576000818152600460208181526040808420546001600160a01b03168452600380835293819020815160a08101835281548152600182015493810184905260028201549281019290925293840154606082015292909101546080830152610b009084611538565b9250508080610b0e90611586565b915050610a90565b610b1e610ec6565b610b286000610f79565b565b610b32610ec6565b610b3a610fcb565b600655565b610b47610f20565b60008111610ba85760405162461bcd60e51b815260206004820152602860248201527f5374616b656420616d6f756e74206e6565647320746f20626520677265617465604482015267072207468616e20360c41b606482015260840161039f565b33600090815260036020818152604092839020835160a0810185528154815260018201549281018390526002820154948101949094529182015460608401526004909101546080830152610ca4576040518060a0016040528042815260200183815260200142815260200160008152602001600081525060036000610c2a3390565b6001600160a01b031681526020808201929092526040908101600090812084518155848401516001808301919091558584015160028301556060860151600383015560809095015160049182015560058054835293522080546001600160a01b0319163317905554610c9c9190611538565b600555610d62565b6040518060a00160405280428152602001838360200151610cc59190611538565b8152602001428152602001600854600654846040015142610ce691906114e6565b8560200151610cf591906114ff565b610cff91906114ff565b610d099190611516565b8360600151610d189190611538565b815260808381015160209283015233600090815260038084526040918290208551815593850151600185015590840151600284015560608401519083015591909101516004909101555b610d7a336002546001600160a01b031690308561110c565b60405133907f77338642d9284a44296d29a273e04b8ab6b15c7d2439094cd460b7e4f0b3307490600090a25061087d6001600055565b6001600160a01b0381166000908152600360208181526040808420815160a08101835281548152600182015493810193909352600281015491830182905292830154606083015260049092015460808201526008546006549192909190610e1790426114e6565b8360200151610e2691906114ff565b610e3091906114ff565b610e3a9190611516565b8160600151610e499190611538565b9392505050565b610e58610ec6565b6001600160a01b038116610ebd5760405162461bcd60e51b815260206004820152602660248201527f4f776e61626c653a206e6577206f776e657220697320746865207a65726f206160448201526564647265737360d01b606482015260840161039f565b61087d81610f79565b6001546001600160a01b03163314610b285760405162461bcd60e51b815260206004820181905260248201527f4f776e61626c653a2063616c6c6572206973206e6f7420746865206f776e6572604482015260640161039f565b600260005403610f725760405162461bcd60e51b815260206004820152601f60248201527f5265656e7472616e637947756172643a207265656e7472616e742063616c6c00604482015260640161039f565b6002600055565b600180546001600160a01b038381166001600160a01b0319831681179093556040519116919082907f8be0079c531659141344cd1fd0a4f28419497f9722a3daafe3b4186f6b6457e090600090a35050565b60005b60055481101561087d576000818152600460208181526040808420546001600160a01b03168452600380835293819020815160a08082018452825482526001830154828601908152600284015483860190815297840154606080850191909152939096015460808301528351908101845281518152945193850193909352429184018290526008546006549551939591850193909261106d91906114e6565b856020015161107c91906114ff565b61108691906114ff565b6110909190611516565b836060015161109f9190611538565b8152608092830151602091820152600084815260048083526040808320546001600160a01b0316835260038085529281902085518155938501516001850155840151600284015560608401519183019190915591909201519101558061110481611586565b915050610fce565b604080516001600160a01b0385811660248301528416604482015260648082018490528251808303909101815260849091019091526020810180516001600160e01b03166323b872dd60e01b17905261116690859061116c565b50505050565b60006111c1826040518060400160405280602081526020017f5361666545524332303a206c6f772d6c6576656c2063616c6c206661696c6564815250856001600160a01b03166112439092919063ffffffff16565b80519091501561123e57808060200190518101906111df9190611564565b61123e5760405162461bcd60e51b815260206004820152602a60248201527f5361666545524332303a204552433230206f7065726174696f6e20646964206e6044820152691bdd081cdd58d8d9595960b21b606482015260840161039f565b505050565b6060611252848460008561125a565b949350505050565b6060824710156112bb5760405162461bcd60e51b815260206004820152602660248201527f416464726573733a20696e73756666696369656e742062616c616e636520666f6044820152651c8818d85b1b60d21b606482015260840161039f565b600080866001600160a01b031685876040516112d791906115c3565b60006040518083038185875af1925050503d8060008114611314576040519150601f19603f3d011682016040523d82523d6000602084013e611319565b606091505b509150915061132a87838387611335565b979650505050505050565b606083156113a457825160000361139d576001600160a01b0385163b61139d5760405162461bcd60e51b815260206004820152601d60248201527f416464726573733a2063616c6c20746f206e6f6e2d636f6e7472616374000000604482015260640161039f565b5081611252565b61125283838151156113b95781518083602001fd5b8060405162461bcd60e51b815260040161039f91906115df565b6000602082840312156113e557600080fd5b5035919050565b6000602082840312156113fe57600080fd5b81356001600160a01b0381168114610e4957600080fd5b60208082526089908201527f496e73756666696369656e7420616d6f756e74206f66206e617469766520637560408201527f7272656e637920696e207468697320636f6e747261637420746f207472616e7360608201527f666572206f75742e20506c6561736520636f6e746163742074686520636f6e7460808201527f72616374206f776e657220746f20746f7020757020746865206e61746976652060a08201526831bab93932b731bc9760b91b60c082015260e00190565b634e487b7160e01b600052601160045260246000fd5b818103818111156114f9576114f96114d0565b92915050565b80820281158282048414176114f9576114f96114d0565b60008261153357634e487b7160e01b600052601260045260246000fd5b500490565b808201808211156114f9576114f96114d0565b60006020828403121561155d57600080fd5b5051919050565b60006020828403121561157657600080fd5b81518015158114610e4957600080fd5b600060018201611598576115986114d0565b5060010190565b60005b838110156115ba5781810151838201526020016115a2565b50506000910152565b600082516115d581846020870161159f565b9190910192915050565b60208152600082518060208401526115fe81604085016020870161159f565b601f01601f1916919091016040019291505056fea264697066735822122066a07c4fdb0393a2ad9e26926efcd5dc2ba6302fbd761d169ddec783144c6d7564736f6c63430008110033",
  "linkReferences": {},
  "deployedLinkReferences": {}
}