{"contracts/SHRFStaking.sol":{"Staking":{"abi":[{"inputs":[{"internalType":"address","name":"_stakingToken","type":"address"}],"stateMutability":"nonpayable","type":"constructor"},{"anonymous":false,"inputs":[{"indexed":true,"internalType":"address","name":"previousOwner","type":"address"},{"indexed":true,"internalType":"address","name":"newOwner","type":"address"}],"name":"OwnershipTransferred","type":"event"},{"anonymous":false,"inputs":[{"indexed":true,"internalType":"address","name":"account","type":"address"}],"name":"Staked","type":"event"},{"anonymous":false,"inputs":[{"indexed":true,"internalType":"address","name":"account","type":"address"}],"name":"Unstaked","type":"event"},{"inputs":[{"internalType":"address","name":"","type":"address"}],"name":"addressMap","outputs":[{"internalType":"uint256","name":"stakeTime","type":"uint256"},{"internalType":"uint256","name":"stakeAmt","type":"uint256"},{"internalType":"uint256","name":"lastUpdateTime","type":"uint256"},{"internalType":"uint256","name":"accumulatedInterestToUpdateTime","type":"uint256"},{"internalType":"uint256","name":"amtWithdrawn","type":"uint256"}],"stateMutability":"view","type":"function"},{"inputs":[{"internalType":"uint256","name":"","type":"uint256"}],"name":"addressStore","outputs":[{"internalType":"address","name":"","type":"address"}],"stateMutability":"view","type":"function"},{"inputs":[],"name":"apr","outputs":[{"internalType":"uint256","name":"","type":"uint256"}],"stateMutability":"view","type":"function"},{"inputs":[{"internalType":"uint256","name":"_apr","type":"uint256"}],"name":"modifyapr","outputs":[],"stateMutability":"nonpayable","type":"function"},{"inputs":[],"name":"owner","outputs":[{"internalType":"address","name":"","type":"address"}],"stateMutability":"view","type":"function"},{"inputs":[{"internalType":"address","name":"_address","type":"address"}],"name":"presentEarning","outputs":[{"internalType":"uint256","name":"","type":"uint256"}],"stateMutability":"view","type":"function"},{"inputs":[],"name":"renounceOwnership","outputs":[],"stateMutability":"nonpayable","type":"function"},{"inputs":[{"internalType":"uint256","name":"_stakeAmt","type":"uint256"}],"name":"stake","outputs":[],"stateMutability":"nonpayable","type":"function"},{"inputs":[],"name":"stakingAddresses","outputs":[{"internalType":"uint256","name":"","type":"uint256"}],"stateMutability":"view","type":"function"},{"inputs":[],"name":"stakingToken","outputs":[{"internalType":"contract IERC20","name":"","type":"address"}],"stateMutability":"view","type":"function"},{"inputs":[],"name":"totalAccumulatedInterest","outputs":[{"internalType":"uint256","name":"","type":"uint256"}],"stateMutability":"view","type":"function"},{"inputs":[],"name":"totalStakedAmount","outputs":[{"internalType":"uint256","name":"","type":"uint256"}],"stateMutability":"view","type":"function"},{"inputs":[],"name":"totalWithdrawals","outputs":[{"internalType":"uint256","name":"","type":"uint256"}],"stateMutability":"view","type":"function"},{"inputs":[{"internalType":"address","name":"newOwner","type":"address"}],"name":"transferOwnership","outputs":[],"stateMutability":"nonpayable","type":"function"},{"inputs":[{"internalType":"uint256","name":"_unstakeAmt","type":"uint256"}],"name":"unstake","outputs":[],"stateMutability":"nonpayable","type":"function"},{"inputs":[{"internalType":"uint256","name":"_amt","type":"uint256"}],"name":"withdrawNativeCurrency","outputs":[],"stateMutability":"nonpayable","type":"function"},{"inputs":[{"internalType":"uint256","name":"_withdrawalAmt","type":"uint256"}],"name":"withdrawReward","outputs":[],"stateMutability":"nonpayable","type":"function"}],"evm":{"bytecode":{"linkReferences":{},"object":"60806040526000600555600560065560006007556502de1d71ea0060085534801561002957600080fd5b50604051611685380380611685833981016040819052610048916100cd565b60016000556100563361007b565b600280546001600160a01b0319166001600160a01b03929092169190911790556100fd565b600180546001600160a01b038381166001600160a01b0319831681179093556040519116919082907f8be0079c531659141344cd1fd0a4f28419497f9722a3daafe3b4186f6b6457e090600090a35050565b6000602082840312156100df57600080fd5b81516001600160a01b03811681146100f657600080fd5b9392505050565b6115798061010c6000396000f3fe608060405234801561001057600080fd5b506004361061010b5760003560e01c8063715018a6116100a2578063a694fc3a11610071578063a694fc3a14610200578063b583ea5114610213578063d3cec8ba14610226578063da5633ef1461022f578063f2fde38b1461029557600080fd5b8063715018a6146101c157806372f702f3146101c95780637f787414146101dc5780638da5cb5b146101ef57600080fd5b8063523a3f08116100de578063523a3f0814610194578063567e98f9146101a757806357ded9c9146101af57806360464627146101b857600080fd5b806315f5254e146101105780632e17de78146101255780632e82c983146101385780634f0fd4ca14610153575b600080fd5b61012361011e366004611304565b6102a8565b005b610123610133366004611304565b61030a565b6101406107b1565b6040519081526020015b60405180910390f35b61017c610161366004611304565b6004602052600090815260409020546001600160a01b031681565b6040516001600160a01b03909116815260200161014a565b6101236101a2366004611304565b610805565b6101406109bc565b61014060065481565b61014060075481565b610123610a47565b60025461017c906001600160a01b031681565b6101236101ea366004611304565b610a5b565b6001546001600160a01b031661017c565b61012361020e366004611304565b610a70565b61014061022136600461131d565b610ce1565b61014060055481565b61026d61023d36600461131d565b60036020819052600091825260409091208054600182015460028301549383015460049093015491939092909185565b604080519586526020860194909452928401919091526060830152608082015260a00161014a565b6101236102a336600461131d565b610d81565b6102b0610df7565b804710156102d95760405162461bcd60e51b81526004016102d090611346565b60405180910390fd5b604051339082156108fc029083906000818181858888f19350505050158015610306573d6000803e3d6000fd5b5050565b610312610e51565b33600090815260036020818152604092839020835160a08101855281548152600182015492810183905260028201549481019490945291820154606084015260049091015460808301528211156103b75760405162461bcd60e51b815260206004820152602360248201527f5769746864726177696e67206d6f7265207468616e207374616b656420616d6f6044820152621d5b9d60ea1b60648201526084016102d0565b60006008546006548360400151426103cf9190611417565b84602001516103de9190611430565b6103e89190611430565b6103f29190611447565b82606001516104019190611469565b90506000826020015184836104169190611430565b6104209190611447565b9050804710156104425760405162461bcd60e51b81526004016102d090611346565b604051339082156108fc029083906000818181858888f1935050505015801561046f573d6000803e3d6000fd5b506002546040516370a0823160e01b815230600482015285916001600160a01b0316906370a0823190602401602060405180830381865afa1580156104b8573d6000803e3d6000fd5b505050506040513d601f19601f820116820180604052508101906104dc919061147c565b101561059c5760405162461bcd60e51b815260206004820152607960248201527f496e73756666696369656e7420616d6f756e74206f662074686520746f6b656e60448201527f20696e207468697320636f6e747261637420746f207472616e73666572206f7560648201527f742e20506c6561736520636f6e746163742074686520636f6e7472616374206f60848201527f776e657220746f20746f702075702074686520746f6b656e2e0000000000000060a482015260c4016102d0565b6002546001600160a01b031663a9059cbb336040516001600160e01b031960e084901b1681526001600160a01b039091166004820152602481018790526044016020604051808303816000875af11580156105fb573d6000803e3d6000fd5b505050506040513d601f19601f8201168201806040525081019061061f9190611495565b508060075461062e9190611469565b600755602083015184036106e35760005b6005548110156106e157600081815260046020526040902054336001600160a01b03909116036106cf5760046000600160055461067c9190611417565b8152602080820192909252604090810160009081205484825260049093522080546001600160a01b0319166001600160a01b039092169190911790556005546106c790600190611417565b6005556106e1565b806106d9816114b7565b91505061063f565b505b6040518060a00160405280846000015181526020018585602001516107089190611417565b81526040808601516020830152016107208385611417565b81526020018285608001516107359190611469565b905233600081815260036020818152604080842086518155918601516001830155858101516002830155606086015192820192909255608090940151600490940193909355915190917f908e667f6c2b13b8062954eb100253ea804c21222b190449e40d967a3ac0ff1391a25050506107ae6001600055565b50565b600080805b6005548110156107ff576000818152600460205260409020546107e1906001600160a01b0316610ce1565b6107eb9083611469565b9150806107f7816114b7565b9150506107b6565b50919050565b61080d610e51565b600061081833610ce1565b9050808211156108895760405162461bcd60e51b815260206004820152603660248201527f57697468647261776e20616d6f756e74206d757374206265206c657373207468604482015275185b881dda5d1a191c985dd8589b1948185b5bdd5b9d60521b60648201526084016102d0565b33600090815260036020818152604092839020835160a08082018652825482526001830154828501908152600284015483880152948301546060808401919091526004909301546080830152855190810186528151815293519284019290925242938301939093529181016108fe8585611417565b81526020018483608001516109139190611469565b90523360009081526003602081815260409283902084518155908401516001820155918301516002830155606083015190820155608090910151600490910155478311156109735760405162461bcd60e51b81526004016102d090611346565b604051339084156108fc029085906000818181858888f193505050501580156109a0573d6000803e3d6000fd5b50826007546109af9190611469565b6007555050600160005550565b600080805b6005548110156107ff576000818152600460208181526040808420546001600160a01b03168452600380835293819020815160a08101835281548152600182015493810184905260028201549281019290925293840154606082015292909101546080830152610a319084611469565b9250508080610a3f906114b7565b9150506109c1565b610a4f610df7565b610a596000610eaa565b565b610a63610df7565b610a6b610efc565b600655565b610a78610e51565b60008111610ad95760405162461bcd60e51b815260206004820152602860248201527f5374616b656420616d6f756e74206e6565647320746f20626520677265617465604482015267072207468616e20360c41b60648201526084016102d0565b33600090815260036020818152604092839020835160a0810185528154815260018201549281018390526002820154948101949094529182015460608401526004909101546080830152610bd5576040518060a0016040528042815260200183815260200142815260200160008152602001600081525060036000610b5b3390565b6001600160a01b031681526020808201929092526040908101600090812084518155848401516001808301919091558584015160028301556060860151600383015560809095015160049182015560058054835293522080546001600160a01b0319163317905554610bcd9190611469565b600555610c93565b6040518060a00160405280428152602001838360200151610bf69190611469565b8152602001428152602001600854600654846040015142610c179190611417565b8560200151610c269190611430565b610c309190611430565b610c3a9190611447565b8360600151610c499190611469565b815260808381015160209283015233600090815260038084526040918290208551815593850151600185015590840151600284015560608401519083015591909101516004909101555b610cab336002546001600160a01b031690308561103d565b60405133907f77338642d9284a44296d29a273e04b8ab6b15c7d2439094cd460b7e4f0b3307490600090a2506107ae6001600055565b6001600160a01b0381166000908152600360208181526040808420815160a08101835281548152600182015493810193909352600281015491830182905292830154606083015260049092015460808201526008546006549192909190610d489042611417565b8360200151610d579190611430565b610d619190611430565b610d6b9190611447565b8160600151610d7a9190611469565b9392505050565b610d89610df7565b6001600160a01b038116610dee5760405162461bcd60e51b815260206004820152602660248201527f4f776e61626c653a206e6577206f776e657220697320746865207a65726f206160448201526564647265737360d01b60648201526084016102d0565b6107ae81610eaa565b6001546001600160a01b03163314610a595760405162461bcd60e51b815260206004820181905260248201527f4f776e61626c653a2063616c6c6572206973206e6f7420746865206f776e657260448201526064016102d0565b600260005403610ea35760405162461bcd60e51b815260206004820152601f60248201527f5265656e7472616e637947756172643a207265656e7472616e742063616c6c0060448201526064016102d0565b6002600055565b600180546001600160a01b038381166001600160a01b0319831681179093556040519116919082907f8be0079c531659141344cd1fd0a4f28419497f9722a3daafe3b4186f6b6457e090600090a35050565b60005b6005548110156107ae576000818152600460208181526040808420546001600160a01b03168452600380835293819020815160a080820184528254825260018301548286019081526002840154838601908152978401546060808501919091529390960154608083015283519081018452815181529451938501939093524291840182905260085460065495519395918501939092610f9e9190611417565b8560200151610fad9190611430565b610fb79190611430565b610fc19190611447565b8360600151610fd09190611469565b8152608092830151602091820152600084815260048083526040808320546001600160a01b03168352600380855292819020855181559385015160018501558401516002840155606084015191830191909155919092015191015580611035816114b7565b915050610eff565b604080516001600160a01b0385811660248301528416604482015260648082018490528251808303909101815260849091019091526020810180516001600160e01b03166323b872dd60e01b17905261109790859061109d565b50505050565b60006110f2826040518060400160405280602081526020017f5361666545524332303a206c6f772d6c6576656c2063616c6c206661696c6564815250856001600160a01b03166111749092919063ffffffff16565b80519091501561116f57808060200190518101906111109190611495565b61116f5760405162461bcd60e51b815260206004820152602a60248201527f5361666545524332303a204552433230206f7065726174696f6e20646964206e6044820152691bdd081cdd58d8d9595960b21b60648201526084016102d0565b505050565b6060611183848460008561118b565b949350505050565b6060824710156111ec5760405162461bcd60e51b815260206004820152602660248201527f416464726573733a20696e73756666696369656e742062616c616e636520666f6044820152651c8818d85b1b60d21b60648201526084016102d0565b600080866001600160a01b0316858760405161120891906114f4565b60006040518083038185875af1925050503d8060008114611245576040519150601f19603f3d011682016040523d82523d6000602084013e61124a565b606091505b509150915061125b87838387611266565b979650505050505050565b606083156112d55782516000036112ce576001600160a01b0385163b6112ce5760405162461bcd60e51b815260206004820152601d60248201527f416464726573733a2063616c6c20746f206e6f6e2d636f6e747261637400000060448201526064016102d0565b5081611183565b61118383838151156112ea5781518083602001fd5b8060405162461bcd60e51b81526004016102d09190611510565b60006020828403121561131657600080fd5b5035919050565b60006020828403121561132f57600080fd5b81356001600160a01b0381168114610d7a57600080fd5b60208082526089908201527f496e73756666696369656e7420616d6f756e74206f66206e617469766520637560408201527f7272656e637920696e207468697320636f6e747261637420746f207472616e7360608201527f666572206f75742e20506c6561736520636f6e746163742074686520636f6e7460808201527f72616374206f776e657220746f20746f7020757020746865206e61746976652060a08201526831bab93932b731bc9760b91b60c082015260e00190565b634e487b7160e01b600052601160045260246000fd5b8181038181111561142a5761142a611401565b92915050565b808202811582820484141761142a5761142a611401565b60008261146457634e487b7160e01b600052601260045260246000fd5b500490565b8082018082111561142a5761142a611401565b60006020828403121561148e57600080fd5b5051919050565b6000602082840312156114a757600080fd5b81518015158114610d7a57600080fd5b6000600182016114c9576114c9611401565b5060010190565b60005b838110156114eb5781810151838201526020016114d3565b50506000910152565b600082516115068184602087016114d0565b9190910192915050565b602081526000825180602084015261152f8160408501602087016114d0565b601f01601f1916919091016040019291505056fea2646970667358221220f411e223c09412914cc2e83ce4db8c484988a34b54f0b7cfaf5b3fe06c95248364736f6c63430008110033","opcodes":"PUSH1 0x80 PUSH1 0x40 MSTORE PUSH1 0x0 PUSH1 0x5 SSTORE PUSH1 0x5 PUSH1 0x6 SSTORE PUSH1 0x0 PUSH1 0x7 SSTORE PUSH6 0x2DE1D71EA00 PUSH1 0x8 SSTORE CALLVALUE DUP1 ISZERO PUSH2 0x29 JUMPI PUSH1 0x0 DUP1 REVERT JUMPDEST POP PUSH1 0x40 MLOAD PUSH2 0x1685 CODESIZE SUB DUP1 PUSH2 0x1685 DUP4 CODECOPY DUP2 ADD PUSH1 0x40 DUP2 SWAP1 MSTORE PUSH2 0x48 SWAP2 PUSH2 0xCD JUMP JUMPDEST PUSH1 0x1 PUSH1 0x0 SSTORE PUSH2 0x56 CALLER PUSH2 0x7B JUMP JUMPDEST PUSH1 0x2 DUP1 SLOAD PUSH1 0x1 PUSH1 0x1 PUSH1 0xA0 SHL SUB NOT AND PUSH1 0x1 PUSH1 0x1 PUSH1 0xA0 SHL SUB SWAP3 SWAP1 SWAP3 AND SWAP2 SWAP1 SWAP2 OR SWAP1 SSTORE PUSH2 0xFD JUMP JUMPDEST PUSH1 0x1 DUP1 SLOAD PUSH1 0x1 PUSH1 0x1 PUSH1 0xA0 SHL SUB DUP4 DUP2 AND PUSH1 0x1 PUSH1 0x1 PUSH1 0xA0 SHL SUB NOT DUP4 AND DUP2 OR SWAP1 SWAP4 SSTORE PUSH1 0x40 MLOAD SWAP2 AND SWAP2 SWAP1 DUP3 SWAP1 PUSH32 0x8BE0079C531659141344CD1FD0A4F28419497F9722A3DAAFE3B4186F6B6457E0 SWAP1 PUSH1 0x0 SWAP1 LOG3 POP POP JUMP JUMPDEST PUSH1 0x0 PUSH1 0x20 DUP3 DUP5 SUB SLT ISZERO PUSH2 0xDF JUMPI PUSH1 0x0 DUP1 REVERT JUMPDEST DUP2 MLOAD PUSH1 0x1 PUSH1 0x1 PUSH1 0xA0 SHL SUB DUP2 AND DUP2 EQ PUSH2 0xF6 JUMPI PUSH1 0x0 DUP1 REVERT JUMPDEST SWAP4 SWAP3 POP POP POP JUMP JUMPDEST PUSH2 0x1579 DUP1 PUSH2 0x10C PUSH1 0x0 CODECOPY PUSH1 0x0 RETURN INVALID PUSH1 0x80 PUSH1 0x40 MSTORE CALLVALUE DUP1 ISZERO PUSH2 0x10 JUMPI PUSH1 0x0 DUP1 REVERT JUMPDEST POP PUSH1 0x4 CALLDATASIZE LT PUSH2 0x10B JUMPI PUSH1 0x0 CALLDATALOAD PUSH1 0xE0 SHR DUP1 PUSH4 0x715018A6 GT PUSH2 0xA2 JUMPI DUP1 PUSH4 0xA694FC3A GT PUSH2 0x71 JUMPI DUP1 PUSH4 0xA694FC3A EQ PUSH2 0x200 JUMPI DUP1 PUSH4 0xB583EA51 EQ PUSH2 0x213 JUMPI DUP1 PUSH4 0xD3CEC8BA EQ PUSH2 0x226 JUMPI DUP1 PUSH4 0xDA5633EF EQ PUSH2 0x22F JUMPI DUP1 PUSH4 0xF2FDE38B EQ PUSH2 0x295 JUMPI PUSH1 0x0 DUP1 REVERT JUMPDEST DUP1 PUSH4 0x715018A6 EQ PUSH2 0x1C1 JUMPI DUP1 PUSH4 0x72F702F3 EQ PUSH2 0x1C9 JUMPI DUP1 PUSH4 0x7F787414 EQ PUSH2 0x1DC JUMPI DUP1 PUSH4 0x8DA5CB5B EQ PUSH2 0x1EF JUMPI PUSH1 0x0 DUP1 REVERT JUMPDEST DUP1 PUSH4 0x523A3F08 GT PUSH2 0xDE JUMPI DUP1 PUSH4 0x523A3F08 EQ PUSH2 0x194 JUMPI DUP1 PUSH4 0x567E98F9 EQ PUSH2 0x1A7 JUMPI DUP1 PUSH4 0x57DED9C9 EQ PUSH2 0x1AF JUMPI DUP1 PUSH4 0x60464627 EQ PUSH2 0x1B8 JUMPI PUSH1 0x0 DUP1 REVERT JUMPDEST DUP1 PUSH4 0x15F5254E EQ PUSH2 0x110 JUMPI DUP1 PUSH4 0x2E17DE78 EQ PUSH2 0x125 JUMPI DUP1 PUSH4 0x2E82C983 EQ PUSH2 0x138 JUMPI DUP1 PUSH4 0x4F0FD4CA EQ PUSH2 0x153 JUMPI JUMPDEST PUSH1 0x0 DUP1 REVERT JUMPDEST PUSH2 0x123 PUSH2 0x11E CALLDATASIZE PUSH1 0x4 PUSH2 0x1304 JUMP JUMPDEST PUSH2 0x2A8 JUMP JUMPDEST STOP JUMPDEST PUSH2 0x123 PUSH2 0x133 CALLDATASIZE PUSH1 0x4 PUSH2 0x1304 JUMP JUMPDEST PUSH2 0x30A JUMP JUMPDEST PUSH2 0x140 PUSH2 0x7B1 JUMP JUMPDEST PUSH1 0x40 MLOAD SWAP1 DUP2 MSTORE PUSH1 0x20 ADD JUMPDEST PUSH1 0x40 MLOAD DUP1 SWAP2 SUB SWAP1 RETURN JUMPDEST PUSH2 0x17C PUSH2 0x161 CALLDATASIZE PUSH1 0x4 PUSH2 0x1304 JUMP JUMPDEST PUSH1 0x4 PUSH1 0x20 MSTORE PUSH1 0x0 SWAP1 DUP2 MSTORE PUSH1 0x40 SWAP1 KECCAK256 SLOAD PUSH1 0x1 PUSH1 0x1 PUSH1 0xA0 SHL SUB AND DUP2 JUMP JUMPDEST PUSH1 0x40 MLOAD PUSH1 0x1 PUSH1 0x1 PUSH1 0xA0 SHL SUB SWAP1 SWAP2 AND DUP2 MSTORE PUSH1 0x20 ADD PUSH2 0x14A JUMP JUMPDEST PUSH2 0x123 PUSH2 0x1A2 CALLDATASIZE PUSH1 0x4 PUSH2 0x1304 JUMP JUMPDEST PUSH2 0x805 JUMP JUMPDEST PUSH2 0x140 PUSH2 0x9BC JUMP JUMPDEST PUSH2 0x140 PUSH1 0x6 SLOAD DUP2 JUMP JUMPDEST PUSH2 0x140 PUSH1 0x7 SLOAD DUP2 JUMP JUMPDEST PUSH2 0x123 PUSH2 0xA47 JUMP JUMPDEST PUSH1 0x2 SLOAD PUSH2 0x17C SWAP1 PUSH1 0x1 PUSH1 0x1 PUSH1 0xA0 SHL SUB AND DUP2 JUMP JUMPDEST PUSH2 0x123 PUSH2 0x1EA CALLDATASIZE PUSH1 0x4 PUSH2 0x1304 JUMP JUMPDEST PUSH2 0xA5B JUMP JUMPDEST PUSH1 0x1 SLOAD PUSH1 0x1 PUSH1 0x1 PUSH1 0xA0 SHL SUB AND PUSH2 0x17C JUMP JUMPDEST PUSH2 0x123 PUSH2 0x20E CALLDATASIZE PUSH1 0x4 PUSH2 0x1304 JUMP JUMPDEST PUSH2 0xA70 JUMP JUMPDEST PUSH2 0x140 PUSH2 0x221 CALLDATASIZE PUSH1 0x4 PUSH2 0x131D JUMP JUMPDEST PUSH2 0xCE1 JUMP JUMPDEST PUSH2 0x140 PUSH1 0x5 SLOAD DUP2 JUMP JUMPDEST PUSH2 0x26D PUSH2 0x23D CALLDATASIZE PUSH1 0x4 PUSH2 0x131D JUMP JUMPDEST PUSH1 0x3 PUSH1 0x20 DUP2 SWAP1 MSTORE PUSH1 0x0 SWAP2 DUP3 MSTORE PUSH1 0x40 SWAP1 SWAP2 KECCAK256 DUP1 SLOAD PUSH1 0x1 DUP3 ADD SLOAD PUSH1 0x2 DUP4 ADD SLOAD SWAP4 DUP4 ADD SLOAD PUSH1 0x4 SWAP1 SWAP4 ADD SLOAD SWAP2 SWAP4 SWAP1 SWAP3 SWAP1 SWAP2 DUP6 JUMP JUMPDEST PUSH1 0x40 DUP1 MLOAD SWAP6 DUP7 MSTORE PUSH1 0x20 DUP7 ADD SWAP5 SWAP1 SWAP5 MSTORE SWAP3 DUP5 ADD SWAP2 SWAP1 SWAP2 MSTORE PUSH1 0x60 DUP4 ADD MSTORE PUSH1 0x80 DUP3 ADD MSTORE PUSH1 0xA0 ADD PUSH2 0x14A JUMP JUMPDEST PUSH2 0x123 PUSH2 0x2A3 CALLDATASIZE PUSH1 0x4 PUSH2 0x131D JUMP JUMPDEST PUSH2 0xD81 JUMP JUMPDEST PUSH2 0x2B0 PUSH2 0xDF7 JUMP JUMPDEST DUP1 SELFBALANCE LT ISZERO PUSH2 0x2D9 JUMPI PUSH1 0x40 MLOAD PUSH3 0x461BCD PUSH1 0xE5 SHL DUP2 MSTORE PUSH1 0x4 ADD PUSH2 0x2D0 SWAP1 PUSH2 0x1346 JUMP JUMPDEST PUSH1 0x40 MLOAD DUP1 SWAP2 SUB SWAP1 REVERT JUMPDEST PUSH1 0x40 MLOAD CALLER SWAP1 DUP3 ISZERO PUSH2 0x8FC MUL SWAP1 DUP4 SWAP1 PUSH1 0x0 DUP2 DUP2 DUP2 DUP6 DUP9 DUP9 CALL SWAP4 POP POP POP POP ISZERO DUP1 ISZERO PUSH2 0x306 JUMPI RETURNDATASIZE PUSH1 0x0 DUP1 RETURNDATACOPY RETURNDATASIZE PUSH1 0x0 REVERT JUMPDEST POP POP JUMP JUMPDEST PUSH2 0x312 PUSH2 0xE51 JUMP JUMPDEST CALLER PUSH1 0x0 SWAP1 DUP2 MSTORE PUSH1 0x3 PUSH1 0x20 DUP2 DUP2 MSTORE PUSH1 0x40 SWAP3 DUP4 SWAP1 KECCAK256 DUP4 MLOAD PUSH1 0xA0 DUP2 ADD DUP6 MSTORE DUP2 SLOAD DUP2 MSTORE PUSH1 0x1 DUP3 ADD SLOAD SWAP3 DUP2 ADD DUP4 SWAP1 MSTORE PUSH1 0x2 DUP3 ADD SLOAD SWAP5 DUP2 ADD SWAP5 SWAP1 SWAP5 MSTORE SWAP2 DUP3 ADD SLOAD PUSH1 0x60 DUP5 ADD MSTORE PUSH1 0x4 SWAP1 SWAP2 ADD SLOAD PUSH1 0x80 DUP4 ADD MSTORE DUP3 GT ISZERO PUSH2 0x3B7 JUMPI PUSH1 0x40 MLOAD PUSH3 0x461BCD PUSH1 0xE5 SHL DUP2 MSTORE PUSH1 0x20 PUSH1 0x4 DUP3 ADD MSTORE PUSH1 0x23 PUSH1 0x24 DUP3 ADD MSTORE PUSH32 0x5769746864726177696E67206D6F7265207468616E207374616B656420616D6F PUSH1 0x44 DUP3 ADD MSTORE PUSH3 0x1D5B9D PUSH1 0xEA SHL PUSH1 0x64 DUP3 ADD MSTORE PUSH1 0x84 ADD PUSH2 0x2D0 JUMP JUMPDEST PUSH1 0x0 PUSH1 0x8 SLOAD PUSH1 0x6 SLOAD DUP4 PUSH1 0x40 ADD MLOAD TIMESTAMP PUSH2 0x3CF SWAP2 SWAP1 PUSH2 0x1417 JUMP JUMPDEST DUP5 PUSH1 0x20 ADD MLOAD PUSH2 0x3DE SWAP2 SWAP1 PUSH2 0x1430 JUMP JUMPDEST PUSH2 0x3E8 SWAP2 SWAP1 PUSH2 0x1430 JUMP JUMPDEST PUSH2 0x3F2 SWAP2 SWAP1 PUSH2 0x1447 JUMP JUMPDEST DUP3 PUSH1 0x60 ADD MLOAD PUSH2 0x401 SWAP2 SWAP1 PUSH2 0x1469 JUMP JUMPDEST SWAP1 POP PUSH1 0x0 DUP3 PUSH1 0x20 ADD MLOAD DUP5 DUP4 PUSH2 0x416 SWAP2 SWAP1 PUSH2 0x1430 JUMP JUMPDEST PUSH2 0x420 SWAP2 SWAP1 PUSH2 0x1447 JUMP JUMPDEST SWAP1 POP DUP1 SELFBALANCE LT ISZERO PUSH2 0x442 JUMPI PUSH1 0x40 MLOAD PUSH3 0x461BCD PUSH1 0xE5 SHL DUP2 MSTORE PUSH1 0x4 ADD PUSH2 0x2D0 SWAP1 PUSH2 0x1346 JUMP JUMPDEST PUSH1 0x40 MLOAD CALLER SWAP1 DUP3 ISZERO PUSH2 0x8FC MUL SWAP1 DUP4 SWAP1 PUSH1 0x0 DUP2 DUP2 DUP2 DUP6 DUP9 DUP9 CALL SWAP4 POP POP POP POP ISZERO DUP1 ISZERO PUSH2 0x46F JUMPI RETURNDATASIZE PUSH1 0x0 DUP1 RETURNDATACOPY RETURNDATASIZE PUSH1 0x0 REVERT JUMPDEST POP PUSH1 0x2 SLOAD PUSH1 0x40 MLOAD PUSH4 0x70A08231 PUSH1 0xE0 SHL DUP2 MSTORE ADDRESS PUSH1 0x4 DUP3 ADD MSTORE DUP6 SWAP2 PUSH1 0x1 PUSH1 0x1 PUSH1 0xA0 SHL SUB AND SWAP1 PUSH4 0x70A08231 SWAP1 PUSH1 0x24 ADD PUSH1 0x20 PUSH1 0x40 MLOAD DUP1 DUP4 SUB DUP2 DUP7 GAS STATICCALL ISZERO DUP1 ISZERO PUSH2 0x4B8 JUMPI RETURNDATASIZE PUSH1 0x0 DUP1 RETURNDATACOPY RETURNDATASIZE PUSH1 0x0 REVERT JUMPDEST POP POP POP POP PUSH1 0x40 MLOAD RETURNDATASIZE PUSH1 0x1F NOT PUSH1 0x1F DUP3 ADD AND DUP3 ADD DUP1 PUSH1 0x40 MSTORE POP DUP2 ADD SWAP1 PUSH2 0x4DC SWAP2 SWAP1 PUSH2 0x147C JUMP JUMPDEST LT ISZERO PUSH2 0x59C JUMPI PUSH1 0x40 MLOAD PUSH3 0x461BCD PUSH1 0xE5 SHL DUP2 MSTORE PUSH1 0x20 PUSH1 0x4 DUP3 ADD MSTORE PUSH1 0x79 PUSH1 0x24 DUP3 ADD MSTORE PUSH32 0x496E73756666696369656E7420616D6F756E74206F662074686520746F6B656E PUSH1 0x44 DUP3 ADD MSTORE PUSH32 0x20696E207468697320636F6E747261637420746F207472616E73666572206F75 PUSH1 0x64 DUP3 ADD MSTORE PUSH32 0x742E20506C6561736520636F6E746163742074686520636F6E7472616374206F PUSH1 0x84 DUP3 ADD MSTORE PUSH32 0x776E657220746F20746F702075702074686520746F6B656E2E00000000000000 PUSH1 0xA4 DUP3 ADD MSTORE PUSH1 0xC4 ADD PUSH2 0x2D0 JUMP JUMPDEST PUSH1 0x2 SLOAD PUSH1 0x1 PUSH1 0x1 PUSH1 0xA0 SHL SUB AND PUSH4 0xA9059CBB CALLER PUSH1 0x40 MLOAD PUSH1 0x1 PUSH1 0x1 PUSH1 0xE0 SHL SUB NOT PUSH1 0xE0 DUP5 SWAP1 SHL AND DUP2 MSTORE PUSH1 0x1 PUSH1 0x1 PUSH1 0xA0 SHL SUB SWAP1 SWAP2 AND PUSH1 0x4 DUP3 ADD MSTORE PUSH1 0x24 DUP2 ADD DUP8 SWAP1 MSTORE PUSH1 0x44 ADD PUSH1 0x20 PUSH1 0x40 MLOAD DUP1 DUP4 SUB DUP2 PUSH1 0x0 DUP8 GAS CALL ISZERO DUP1 ISZERO PUSH2 0x5FB JUMPI RETURNDATASIZE PUSH1 0x0 DUP1 RETURNDATACOPY RETURNDATASIZE PUSH1 0x0 REVERT JUMPDEST POP POP POP POP PUSH1 0x40 MLOAD RETURNDATASIZE PUSH1 0x1F NOT PUSH1 0x1F DUP3 ADD AND DUP3 ADD DUP1 PUSH1 0x40 MSTORE POP DUP2 ADD SWAP1 PUSH2 0x61F SWAP2 SWAP1 PUSH2 0x1495 JUMP JUMPDEST POP DUP1 PUSH1 0x7 SLOAD PUSH2 0x62E SWAP2 SWAP1 PUSH2 0x1469 JUMP JUMPDEST PUSH1 0x7 SSTORE PUSH1 0x20 DUP4 ADD MLOAD DUP5 SUB PUSH2 0x6E3 JUMPI PUSH1 0x0 JUMPDEST PUSH1 0x5 SLOAD DUP2 LT ISZERO PUSH2 0x6E1 JUMPI PUSH1 0x0 DUP2 DUP2 MSTORE PUSH1 0x4 PUSH1 0x20 MSTORE PUSH1 0x40 SWAP1 KECCAK256 SLOAD CALLER PUSH1 0x1 PUSH1 0x1 PUSH1 0xA0 SHL SUB SWAP1 SWAP2 AND SUB PUSH2 0x6CF JUMPI PUSH1 0x4 PUSH1 0x0 PUSH1 0x1 PUSH1 0x5 SLOAD PUSH2 0x67C SWAP2 SWAP1 PUSH2 0x1417 JUMP JUMPDEST DUP2 MSTORE PUSH1 0x20 DUP1 DUP3 ADD SWAP3 SWAP1 SWAP3 MSTORE PUSH1 0x40 SWAP1 DUP2 ADD PUSH1 0x0 SWAP1 DUP2 KECCAK256 SLOAD DUP5 DUP3 MSTORE PUSH1 0x4 SWAP1 SWAP4 MSTORE KECCAK256 DUP1 SLOAD PUSH1 0x1 PUSH1 0x1 PUSH1 0xA0 SHL SUB NOT AND PUSH1 0x1 PUSH1 0x1 PUSH1 0xA0 SHL SUB SWAP1 SWAP3 AND SWAP2 SWAP1 SWAP2 OR SWAP1 SSTORE PUSH1 0x5 SLOAD PUSH2 0x6C7 SWAP1 PUSH1 0x1 SWAP1 PUSH2 0x1417 JUMP JUMPDEST PUSH1 0x5 SSTORE PUSH2 0x6E1 JUMP JUMPDEST DUP1 PUSH2 0x6D9 DUP2 PUSH2 0x14B7 JUMP JUMPDEST SWAP2 POP POP PUSH2 0x63F JUMP JUMPDEST POP JUMPDEST PUSH1 0x40 MLOAD DUP1 PUSH1 0xA0 ADD PUSH1 0x40 MSTORE DUP1 DUP5 PUSH1 0x0 ADD MLOAD DUP2 MSTORE PUSH1 0x20 ADD DUP6 DUP6 PUSH1 0x20 ADD MLOAD PUSH2 0x708 SWAP2 SWAP1 PUSH2 0x1417 JUMP JUMPDEST DUP2 MSTORE PUSH1 0x40 DUP1 DUP7 ADD MLOAD PUSH1 0x20 DUP4 ADD MSTORE ADD PUSH2 0x720 DUP4 DUP6 PUSH2 0x1417 JUMP JUMPDEST DUP2 MSTORE PUSH1 0x20 ADD DUP3 DUP6 PUSH1 0x80 ADD MLOAD PUSH2 0x735 SWAP2 SWAP1 PUSH2 0x1469 JUMP JUMPDEST SWAP1 MSTORE CALLER PUSH1 0x0 DUP2 DUP2 MSTORE PUSH1 0x3 PUSH1 0x20 DUP2 DUP2 MSTORE PUSH1 0x40 DUP1 DUP5 KECCAK256 DUP7 MLOAD DUP2 SSTORE SWAP2 DUP7 ADD MLOAD PUSH1 0x1 DUP4 ADD SSTORE DUP6 DUP2 ADD MLOAD PUSH1 0x2 DUP4 ADD SSTORE PUSH1 0x60 DUP7 ADD MLOAD SWAP3 DUP3 ADD SWAP3 SWAP1 SWAP3 SSTORE PUSH1 0x80 SWAP1 SWAP5 ADD MLOAD PUSH1 0x4 SWAP1 SWAP5 ADD SWAP4 SWAP1 SWAP4 SSTORE SWAP2 MLOAD SWAP1 SWAP2 PUSH32 0x908E667F6C2B13B8062954EB100253EA804C21222B190449E40D967A3AC0FF13 SWAP2 LOG2 POP POP POP PUSH2 0x7AE PUSH1 0x1 PUSH1 0x0 SSTORE JUMP JUMPDEST POP JUMP JUMPDEST PUSH1 0x0 DUP1 DUP1 JUMPDEST PUSH1 0x5 SLOAD DUP2 LT ISZERO PUSH2 0x7FF JUMPI PUSH1 0x0 DUP2 DUP2 MSTORE PUSH1 0x4 PUSH1 0x20 MSTORE PUSH1 0x40 SWAP1 KECCAK256 SLOAD PUSH2 0x7E1 SWAP1 PUSH1 0x1 PUSH1 0x1 PUSH1 0xA0 SHL SUB AND PUSH2 0xCE1 JUMP JUMPDEST PUSH2 0x7EB SWAP1 DUP4 PUSH2 0x1469 JUMP JUMPDEST SWAP2 POP DUP1 PUSH2 0x7F7 DUP2 PUSH2 0x14B7 JUMP JUMPDEST SWAP2 POP POP PUSH2 0x7B6 JUMP JUMPDEST POP SWAP2 SWAP1 POP JUMP JUMPDEST PUSH2 0x80D PUSH2 0xE51 JUMP JUMPDEST PUSH1 0x0 PUSH2 0x818 CALLER PUSH2 0xCE1 JUMP JUMPDEST SWAP1 POP DUP1 DUP3 GT ISZERO PUSH2 0x889 JUMPI PUSH1 0x40 MLOAD PUSH3 0x461BCD PUSH1 0xE5 SHL DUP2 MSTORE PUSH1 0x20 PUSH1 0x4 DUP3 ADD MSTORE PUSH1 0x36 PUSH1 0x24 DUP3 ADD MSTORE PUSH32 0x57697468647261776E20616D6F756E74206D757374206265206C657373207468 PUSH1 0x44 DUP3 ADD MSTORE PUSH22 0x185B881DDA5D1A191C985DD8589B1948185B5BDD5B9D PUSH1 0x52 SHL PUSH1 0x64 DUP3 ADD MSTORE PUSH1 0x84 ADD PUSH2 0x2D0 JUMP JUMPDEST CALLER PUSH1 0x0 SWAP1 DUP2 MSTORE PUSH1 0x3 PUSH1 0x20 DUP2 DUP2 MSTORE PUSH1 0x40 SWAP3 DUP4 SWAP1 KECCAK256 DUP4 MLOAD PUSH1 0xA0 DUP1 DUP3 ADD DUP7 MSTORE DUP3 SLOAD DUP3 MSTORE PUSH1 0x1 DUP4 ADD SLOAD DUP3 DUP6 ADD SWAP1 DUP2 MSTORE PUSH1 0x2 DUP5 ADD SLOAD DUP4 DUP9 ADD MSTORE SWAP5 DUP4 ADD SLOAD PUSH1 0x60 DUP1 DUP5 ADD SWAP2 SWAP1 SWAP2 MSTORE PUSH1 0x4 SWAP1 SWAP4 ADD SLOAD PUSH1 0x80 DUP4 ADD MSTORE DUP6 MLOAD SWAP1 DUP2 ADD DUP7 MSTORE DUP2 MLOAD DUP2 MSTORE SWAP4 MLOAD SWAP3 DUP5 ADD SWAP3 SWAP1 SWAP3 MSTORE TIMESTAMP SWAP4 DUP4 ADD SWAP4 SWAP1 SWAP4 MSTORE SWAP2 DUP2 ADD PUSH2 0x8FE DUP6 DUP6 PUSH2 0x1417 JUMP JUMPDEST DUP2 MSTORE PUSH1 0x20 ADD DUP5 DUP4 PUSH1 0x80 ADD MLOAD PUSH2 0x913 SWAP2 SWAP1 PUSH2 0x1469 JUMP JUMPDEST SWAP1 MSTORE CALLER PUSH1 0x0 SWAP1 DUP2 MSTORE PUSH1 0x3 PUSH1 0x20 DUP2 DUP2 MSTORE PUSH1 0x40 SWAP3 DUP4 SWAP1 KECCAK256 DUP5 MLOAD DUP2 SSTORE SWAP1 DUP5 ADD MLOAD PUSH1 0x1 DUP3 ADD SSTORE SWAP2 DUP4 ADD MLOAD PUSH1 0x2 DUP4 ADD SSTORE PUSH1 0x60 DUP4 ADD MLOAD SWAP1 DUP3 ADD SSTORE PUSH1 0x80 SWAP1 SWAP2 ADD MLOAD PUSH1 0x4 SWAP1 SWAP2 ADD SSTORE SELFBALANCE DUP4 GT ISZERO PUSH2 0x973 JUMPI PUSH1 0x40 MLOAD PUSH3 0x461BCD PUSH1 0xE5 SHL DUP2 MSTORE PUSH1 0x4 ADD PUSH2 0x2D0 SWAP1 PUSH2 0x1346 JUMP JUMPDEST PUSH1 0x40 MLOAD CALLER SWAP1 DUP5 ISZERO PUSH2 0x8FC MUL SWAP1 DUP6 SWAP1 PUSH1 0x0 DUP2 DUP2 DUP2 DUP6 DUP9 DUP9 CALL SWAP4 POP POP POP POP ISZERO DUP1 ISZERO PUSH2 0x9A0 JUMPI RETURNDATASIZE PUSH1 0x0 DUP1 RETURNDATACOPY RETURNDATASIZE PUSH1 0x0 REVERT JUMPDEST POP DUP3 PUSH1 0x7 SLOAD PUSH2 0x9AF SWAP2 SWAP1 PUSH2 0x1469 JUMP JUMPDEST PUSH1 0x7 SSTORE POP POP PUSH1 0x1 PUSH1 0x0 SSTORE POP JUMP JUMPDEST PUSH1 0x0 DUP1 DUP1 JUMPDEST PUSH1 0x5 SLOAD DUP2 LT ISZERO PUSH2 0x7FF JUMPI PUSH1 0x0 DUP2 DUP2 MSTORE PUSH1 0x4 PUSH1 0x20 DUP2 DUP2 MSTORE PUSH1 0x40 DUP1 DUP5 KECCAK256 SLOAD PUSH1 0x1 PUSH1 0x1 PUSH1 0xA0 SHL SUB AND DUP5 MSTORE PUSH1 0x3 DUP1 DUP4 MSTORE SWAP4 DUP2 SWAP1 KECCAK256 DUP2 MLOAD PUSH1 0xA0 DUP2 ADD DUP4 MSTORE DUP2 SLOAD DUP2 MSTORE PUSH1 0x1 DUP3 ADD SLOAD SWAP4 DUP2 ADD DUP5 SWAP1 MSTORE PUSH1 0x2 DUP3 ADD SLOAD SWAP3 DUP2 ADD SWAP3 SWAP1 SWAP3 MSTORE SWAP4 DUP5 ADD SLOAD PUSH1 0x60 DUP3 ADD MSTORE SWAP3 SWAP1 SWAP2 ADD SLOAD PUSH1 0x80 DUP4 ADD MSTORE PUSH2 0xA31 SWAP1 DUP5 PUSH2 0x1469 JUMP JUMPDEST SWAP3 POP POP DUP1 DUP1 PUSH2 0xA3F SWAP1 PUSH2 0x14B7 JUMP JUMPDEST SWAP2 POP POP PUSH2 0x9C1 JUMP JUMPDEST PUSH2 0xA4F PUSH2 0xDF7 JUMP JUMPDEST PUSH2 0xA59 PUSH1 0x0 PUSH2 0xEAA JUMP JUMPDEST JUMP JUMPDEST PUSH2 0xA63 PUSH2 0xDF7 JUMP JUMPDEST PUSH2 0xA6B PUSH2 0xEFC JUMP JUMPDEST PUSH1 0x6 SSTORE JUMP JUMPDEST PUSH2 0xA78 PUSH2 0xE51 JUMP JUMPDEST PUSH1 0x0 DUP2 GT PUSH2 0xAD9 JUMPI PUSH1 0x40 MLOAD PUSH3 0x461BCD PUSH1 0xE5 SHL DUP2 MSTORE PUSH1 0x20 PUSH1 0x4 DUP3 ADD MSTORE PUSH1 0x28 PUSH1 0x24 DUP3 ADD MSTORE PUSH32 0x5374616B656420616D6F756E74206E6565647320746F20626520677265617465 PUSH1 0x44 DUP3 ADD MSTORE PUSH8 0x72207468616E203 PUSH1 0xC4 SHL PUSH1 0x64 DUP3 ADD MSTORE PUSH1 0x84 ADD PUSH2 0x2D0 JUMP JUMPDEST CALLER PUSH1 0x0 SWAP1 DUP2 MSTORE PUSH1 0x3 PUSH1 0x20 DUP2 DUP2 MSTORE PUSH1 0x40 SWAP3 DUP4 SWAP1 KECCAK256 DUP4 MLOAD PUSH1 0xA0 DUP2 ADD DUP6 MSTORE DUP2 SLOAD DUP2 MSTORE PUSH1 0x1 DUP3 ADD SLOAD SWAP3 DUP2 ADD DUP4 SWAP1 MSTORE PUSH1 0x2 DUP3 ADD SLOAD SWAP5 DUP2 ADD SWAP5 SWAP1 SWAP5 MSTORE SWAP2 DUP3 ADD SLOAD PUSH1 0x60 DUP5 ADD MSTORE PUSH1 0x4 SWAP1 SWAP2 ADD SLOAD PUSH1 0x80 DUP4 ADD MSTORE PUSH2 0xBD5 JUMPI PUSH1 0x40 MLOAD DUP1 PUSH1 0xA0 ADD PUSH1 0x40 MSTORE DUP1 TIMESTAMP DUP2 MSTORE PUSH1 0x20 ADD DUP4 DUP2 MSTORE PUSH1 0x20 ADD TIMESTAMP DUP2 MSTORE PUSH1 0x20 ADD PUSH1 0x0 DUP2 MSTORE PUSH1 0x20 ADD PUSH1 0x0 DUP2 MSTORE POP PUSH1 0x3 PUSH1 0x0 PUSH2 0xB5B CALLER SWAP1 JUMP JUMPDEST PUSH1 0x1 PUSH1 0x1 PUSH1 0xA0 SHL SUB AND DUP2 MSTORE PUSH1 0x20 DUP1 DUP3 ADD SWAP3 SWAP1 SWAP3 MSTORE PUSH1 0x40 SWAP1 DUP2 ADD PUSH1 0x0 SWAP1 DUP2 KECCAK256 DUP5 MLOAD DUP2 SSTORE DUP5 DUP5 ADD MLOAD PUSH1 0x1 DUP1 DUP4 ADD SWAP2 SWAP1 SWAP2 SSTORE DUP6 DUP5 ADD MLOAD PUSH1 0x2 DUP4 ADD SSTORE PUSH1 0x60 DUP7 ADD MLOAD PUSH1 0x3 DUP4 ADD SSTORE PUSH1 0x80 SWAP1 SWAP6 ADD MLOAD PUSH1 0x4 SWAP2 DUP3 ADD SSTORE PUSH1 0x5 DUP1 SLOAD DUP4 MSTORE SWAP4 MSTORE KECCAK256 DUP1 SLOAD PUSH1 0x1 PUSH1 0x1 PUSH1 0xA0 SHL SUB NOT AND CALLER OR SWAP1 SSTORE SLOAD PUSH2 0xBCD SWAP2 SWAP1 PUSH2 0x1469 JUMP JUMPDEST PUSH1 0x5 SSTORE PUSH2 0xC93 JUMP JUMPDEST PUSH1 0x40 MLOAD DUP1 PUSH1 0xA0 ADD PUSH1 0x40 MSTORE DUP1 TIMESTAMP DUP2 MSTORE PUSH1 0x20 ADD DUP4 DUP4 PUSH1 0x20 ADD MLOAD PUSH2 0xBF6 SWAP2 SWAP1 PUSH2 0x1469 JUMP JUMPDEST DUP2 MSTORE PUSH1 0x20 ADD TIMESTAMP DUP2 MSTORE PUSH1 0x20 ADD PUSH1 0x8 SLOAD PUSH1 0x6 SLOAD DUP5 PUSH1 0x40 ADD MLOAD TIMESTAMP PUSH2 0xC17 SWAP2 SWAP1 PUSH2 0x1417 JUMP JUMPDEST DUP6 PUSH1 0x20 ADD MLOAD PUSH2 0xC26 SWAP2 SWAP1 PUSH2 0x1430 JUMP JUMPDEST PUSH2 0xC30 SWAP2 SWAP1 PUSH2 0x1430 JUMP JUMPDEST PUSH2 0xC3A SWAP2 SWAP1 PUSH2 0x1447 JUMP JUMPDEST DUP4 PUSH1 0x60 ADD MLOAD PUSH2 0xC49 SWAP2 SWAP1 PUSH2 0x1469 JUMP JUMPDEST DUP2 MSTORE PUSH1 0x80 DUP4 DUP2 ADD MLOAD PUSH1 0x20 SWAP3 DUP4 ADD MSTORE CALLER PUSH1 0x0 SWAP1 DUP2 MSTORE PUSH1 0x3 DUP1 DUP5 MSTORE PUSH1 0x40 SWAP2 DUP3 SWAP1 KECCAK256 DUP6 MLOAD DUP2 SSTORE SWAP4 DUP6 ADD MLOAD PUSH1 0x1 DUP6 ADD SSTORE SWAP1 DUP5 ADD MLOAD PUSH1 0x2 DUP5 ADD SSTORE PUSH1 0x60 DUP5 ADD MLOAD SWAP1 DUP4 ADD SSTORE SWAP2 SWAP1 SWAP2 ADD MLOAD PUSH1 0x4 SWAP1 SWAP2 ADD SSTORE JUMPDEST PUSH2 0xCAB CALLER PUSH1 0x2 SLOAD PUSH1 0x1 PUSH1 0x1 PUSH1 0xA0 SHL SUB AND SWAP1 ADDRESS DUP6 PUSH2 0x103D JUMP JUMPDEST PUSH1 0x40 MLOAD CALLER SWAP1 PUSH32 0x77338642D9284A44296D29A273E04B8AB6B15C7D2439094CD460B7E4F0B33074 SWAP1 PUSH1 0x0 SWAP1 LOG2 POP PUSH2 0x7AE PUSH1 0x1 PUSH1 0x0 SSTORE JUMP JUMPDEST PUSH1 0x1 PUSH1 0x1 PUSH1 0xA0 SHL SUB DUP2 AND PUSH1 0x0 SWAP1 DUP2 MSTORE PUSH1 0x3 PUSH1 0x20 DUP2 DUP2 MSTORE PUSH1 0x40 DUP1 DUP5 KECCAK256 DUP2 MLOAD PUSH1 0xA0 DUP2 ADD DUP4 MSTORE DUP2 SLOAD DUP2 MSTORE PUSH1 0x1 DUP3 ADD SLOAD SWAP4 DUP2 ADD SWAP4 SWAP1 SWAP4 MSTORE PUSH1 0x2 DUP2 ADD SLOAD SWAP2 DUP4 ADD DUP3 SWAP1 MSTORE SWAP3 DUP4 ADD SLOAD PUSH1 0x60 DUP4 ADD MSTORE PUSH1 0x4 SWAP1 SWAP3 ADD SLOAD PUSH1 0x80 DUP3 ADD MSTORE PUSH1 0x8 SLOAD PUSH1 0x6 SLOAD SWAP2 SWAP3 SWAP1 SWAP2 SWAP1 PUSH2 0xD48 SWAP1 TIMESTAMP PUSH2 0x1417 JUMP JUMPDEST DUP4 PUSH1 0x20 ADD MLOAD PUSH2 0xD57 SWAP2 SWAP1 PUSH2 0x1430 JUMP JUMPDEST PUSH2 0xD61 SWAP2 SWAP1 PUSH2 0x1430 JUMP JUMPDEST PUSH2 0xD6B SWAP2 SWAP1 PUSH2 0x1447 JUMP JUMPDEST DUP2 PUSH1 0x60 ADD MLOAD PUSH2 0xD7A SWAP2 SWAP1 PUSH2 0x1469 JUMP JUMPDEST SWAP4 SWAP3 POP POP POP JUMP JUMPDEST PUSH2 0xD89 PUSH2 0xDF7 JUMP JUMPDEST PUSH1 0x1 PUSH1 0x1 PUSH1 0xA0 SHL SUB DUP2 AND PUSH2 0xDEE JUMPI PUSH1 0x40 MLOAD PUSH3 0x461BCD PUSH1 0xE5 SHL DUP2 MSTORE PUSH1 0x20 PUSH1 0x4 DUP3 ADD MSTORE PUSH1 0x26 PUSH1 0x24 DUP3 ADD MSTORE PUSH32 0x4F776E61626C653A206E6577206F776E657220697320746865207A65726F2061 PUSH1 0x44 DUP3 ADD MSTORE PUSH6 0x646472657373 PUSH1 0xD0 SHL PUSH1 0x64 DUP3 ADD MSTORE PUSH1 0x84 ADD PUSH2 0x2D0 JUMP JUMPDEST PUSH2 0x7AE DUP2 PUSH2 0xEAA JUMP JUMPDEST PUSH1 0x1 SLOAD PUSH1 0x1 PUSH1 0x1 PUSH1 0xA0 SHL SUB AND CALLER EQ PUSH2 0xA59 JUMPI PUSH1 0x40 MLOAD PUSH3 0x461BCD PUSH1 0xE5 SHL DUP2 MSTORE PUSH1 0x20 PUSH1 0x4 DUP3 ADD DUP2 SWAP1 MSTORE PUSH1 0x24 DUP3 ADD MSTORE PUSH32 0x4F776E61626C653A2063616C6C6572206973206E6F7420746865206F776E6572 PUSH1 0x44 DUP3 ADD MSTORE PUSH1 0x64 ADD PUSH2 0x2D0 JUMP JUMPDEST PUSH1 0x2 PUSH1 0x0 SLOAD SUB PUSH2 0xEA3 JUMPI PUSH1 0x40 MLOAD PUSH3 0x461BCD PUSH1 0xE5 SHL DUP2 MSTORE PUSH1 0x20 PUSH1 0x4 DUP3 ADD MSTORE PUSH1 0x1F PUSH1 0x24 DUP3 ADD MSTORE PUSH32 0x5265656E7472616E637947756172643A207265656E7472616E742063616C6C00 PUSH1 0x44 DUP3 ADD MSTORE PUSH1 0x64 ADD PUSH2 0x2D0 JUMP JUMPDEST PUSH1 0x2 PUSH1 0x0 SSTORE JUMP JUMPDEST PUSH1 0x1 DUP1 SLOAD PUSH1 0x1 PUSH1 0x1 PUSH1 0xA0 SHL SUB DUP4 DUP2 AND PUSH1 0x1 PUSH1 0x1 PUSH1 0xA0 SHL SUB NOT DUP4 AND DUP2 OR SWAP1 SWAP4 SSTORE PUSH1 0x40 MLOAD SWAP2 AND SWAP2 SWAP1 DUP3 SWAP1 PUSH32 0x8BE0079C531659141344CD1FD0A4F28419497F9722A3DAAFE3B4186F6B6457E0 SWAP1 PUSH1 0x0 SWAP1 LOG3 POP POP JUMP JUMPDEST PUSH1 0x0 JUMPDEST PUSH1 0x5 SLOAD DUP2 LT ISZERO PUSH2 0x7AE JUMPI PUSH1 0x0 DUP2 DUP2 MSTORE PUSH1 0x4 PUSH1 0x20 DUP2 DUP2 MSTORE PUSH1 0x40 DUP1 DUP5 KECCAK256 SLOAD PUSH1 0x1 PUSH1 0x1 PUSH1 0xA0 SHL SUB AND DUP5 MSTORE PUSH1 0x3 DUP1 DUP4 MSTORE SWAP4 DUP2 SWAP1 KECCAK256 DUP2 MLOAD PUSH1 0xA0 DUP1 DUP3 ADD DUP5 MSTORE DUP3 SLOAD DUP3 MSTORE PUSH1 0x1 DUP4 ADD SLOAD DUP3 DUP7 ADD SWAP1 DUP2 MSTORE PUSH1 0x2 DUP5 ADD SLOAD DUP4 DUP7 ADD SWAP1 DUP2 MSTORE SWAP8 DUP5 ADD SLOAD PUSH1 0x60 DUP1 DUP6 ADD SWAP2 SWAP1 SWAP2 MSTORE SWAP4 SWAP1 SWAP7 ADD SLOAD PUSH1 0x80 DUP4 ADD MSTORE DUP4 MLOAD SWAP1 DUP2 ADD DUP5 MSTORE DUP2 MLOAD DUP2 MSTORE SWAP5 MLOAD SWAP4 DUP6 ADD SWAP4 SWAP1 SWAP4 MSTORE TIMESTAMP SWAP2 DUP5 ADD DUP3 SWAP1 MSTORE PUSH1 0x8 SLOAD PUSH1 0x6 SLOAD SWAP6 MLOAD SWAP4 SWAP6 SWAP2 DUP6 ADD SWAP4 SWAP1 SWAP3 PUSH2 0xF9E SWAP2 SWAP1 PUSH2 0x1417 JUMP JUMPDEST DUP6 PUSH1 0x20 ADD MLOAD PUSH2 0xFAD SWAP2 SWAP1 PUSH2 0x1430 JUMP JUMPDEST PUSH2 0xFB7 SWAP2 SWAP1 PUSH2 0x1430 JUMP JUMPDEST PUSH2 0xFC1 SWAP2 SWAP1 PUSH2 0x1447 JUMP JUMPDEST DUP4 PUSH1 0x60 ADD MLOAD PUSH2 0xFD0 SWAP2 SWAP1 PUSH2 0x1469 JUMP JUMPDEST DUP2 MSTORE PUSH1 0x80 SWAP3 DUP4 ADD MLOAD PUSH1 0x20 SWAP2 DUP3 ADD MSTORE PUSH1 0x0 DUP5 DUP2 MSTORE PUSH1 0x4 DUP1 DUP4 MSTORE PUSH1 0x40 DUP1 DUP4 KECCAK256 SLOAD PUSH1 0x1 PUSH1 0x1 PUSH1 0xA0 SHL SUB AND DUP4 MSTORE PUSH1 0x3 DUP1 DUP6 MSTORE SWAP3 DUP2 SWAP1 KECCAK256 DUP6 MLOAD DUP2 SSTORE SWAP4 DUP6 ADD MLOAD PUSH1 0x1 DUP6 ADD SSTORE DUP5 ADD MLOAD PUSH1 0x2 DUP5 ADD SSTORE PUSH1 0x60 DUP5 ADD MLOAD SWAP2 DUP4 ADD SWAP2 SWAP1 SWAP2 SSTORE SWAP2 SWAP1 SWAP3 ADD MLOAD SWAP2 ADD SSTORE DUP1 PUSH2 0x1035 DUP2 PUSH2 0x14B7 JUMP JUMPDEST SWAP2 POP POP PUSH2 0xEFF JUMP JUMPDEST PUSH1 0x40 DUP1 MLOAD PUSH1 0x1 PUSH1 0x1 PUSH1 0xA0 SHL SUB DUP6 DUP2 AND PUSH1 0x24 DUP4 ADD MSTORE DUP5 AND PUSH1 0x44 DUP3 ADD MSTORE PUSH1 0x64 DUP1 DUP3 ADD DUP5 SWAP1 MSTORE DUP3 MLOAD DUP1 DUP4 SUB SWAP1 SWAP2 ADD DUP2 MSTORE PUSH1 0x84 SWAP1 SWAP2 ADD SWAP1 SWAP2 MSTORE PUSH1 0x20 DUP2 ADD DUP1 MLOAD PUSH1 0x1 PUSH1 0x1 PUSH1 0xE0 SHL SUB AND PUSH4 0x23B872DD PUSH1 0xE0 SHL OR SWAP1 MSTORE PUSH2 0x1097 SWAP1 DUP6 SWAP1 PUSH2 0x109D JUMP JUMPDEST POP POP POP POP JUMP JUMPDEST PUSH1 0x0 PUSH2 0x10F2 DUP3 PUSH1 0x40 MLOAD DUP1 PUSH1 0x40 ADD PUSH1 0x40 MSTORE DUP1 PUSH1 0x20 DUP2 MSTORE PUSH1 0x20 ADD PUSH32 0x5361666545524332303A206C6F772D6C6576656C2063616C6C206661696C6564 DUP2 MSTORE POP DUP6 PUSH1 0x1 PUSH1 0x1 PUSH1 0xA0 SHL SUB AND PUSH2 0x1174 SWAP1 SWAP3 SWAP2 SWAP1 PUSH4 0xFFFFFFFF AND JUMP JUMPDEST DUP1 MLOAD SWAP1 SWAP2 POP ISZERO PUSH2 0x116F JUMPI DUP1 DUP1 PUSH1 0x20 ADD SWAP1 MLOAD DUP2 ADD SWAP1 PUSH2 0x1110 SWAP2 SWAP1 PUSH2 0x1495 JUMP JUMPDEST PUSH2 0x116F JUMPI PUSH1 0x40 MLOAD PUSH3 0x461BCD PUSH1 0xE5 SHL DUP2 MSTORE PUSH1 0x20 PUSH1 0x4 DUP3 ADD MSTORE PUSH1 0x2A PUSH1 0x24 DUP3 ADD MSTORE PUSH32 0x5361666545524332303A204552433230206F7065726174696F6E20646964206E PUSH1 0x44 DUP3 ADD MSTORE PUSH10 0x1BDD081CDD58D8D95959 PUSH1 0xB2 SHL PUSH1 0x64 DUP3 ADD MSTORE PUSH1 0x84 ADD PUSH2 0x2D0 JUMP JUMPDEST POP POP POP JUMP JUMPDEST PUSH1 0x60 PUSH2 0x1183 DUP5 DUP5 PUSH1 0x0 DUP6 PUSH2 0x118B JUMP JUMPDEST SWAP5 SWAP4 POP POP POP POP JUMP JUMPDEST PUSH1 0x60 DUP3 SELFBALANCE LT ISZERO PUSH2 0x11EC JUMPI PUSH1 0x40 MLOAD PUSH3 0x461BCD PUSH1 0xE5 SHL DUP2 MSTORE PUSH1 0x20 PUSH1 0x4 DUP3 ADD MSTORE PUSH1 0x26 PUSH1 0x24 DUP3 ADD MSTORE PUSH32 0x416464726573733A20696E73756666696369656E742062616C616E636520666F PUSH1 0x44 DUP3 ADD MSTORE PUSH6 0x1C8818D85B1B PUSH1 0xD2 SHL PUSH1 0x64 DUP3 ADD MSTORE PUSH1 0x84 ADD PUSH2 0x2D0 JUMP JUMPDEST PUSH1 0x0 DUP1 DUP7 PUSH1 0x1 PUSH1 0x1 PUSH1 0xA0 SHL SUB AND DUP6 DUP8 PUSH1 0x40 MLOAD PUSH2 0x1208 SWAP2 SWAP1 PUSH2 0x14F4 JUMP JUMPDEST PUSH1 0x0 PUSH1 0x40 MLOAD DUP1 DUP4 SUB DUP2 DUP6 DUP8 GAS CALL SWAP3 POP POP POP RETURNDATASIZE DUP1 PUSH1 0x0 DUP2 EQ PUSH2 0x1245 JUMPI PUSH1 0x40 MLOAD SWAP2 POP PUSH1 0x1F NOT PUSH1 0x3F RETURNDATASIZE ADD AND DUP3 ADD PUSH1 0x40 MSTORE RETURNDATASIZE DUP3 MSTORE RETURNDATASIZE PUSH1 0x0 PUSH1 0x20 DUP5 ADD RETURNDATACOPY PUSH2 0x124A JUMP JUMPDEST PUSH1 0x60 SWAP2 POP JUMPDEST POP SWAP2 POP SWAP2 POP PUSH2 0x125B DUP8 DUP4 DUP4 DUP8 PUSH2 0x1266 JUMP JUMPDEST SWAP8 SWAP7 POP POP POP POP POP POP POP JUMP JUMPDEST PUSH1 0x60 DUP4 ISZERO PUSH2 0x12D5 JUMPI DUP3 MLOAD PUSH1 0x0 SUB PUSH2 0x12CE JUMPI PUSH1 0x1 PUSH1 0x1 PUSH1 0xA0 SHL SUB DUP6 AND EXTCODESIZE PUSH2 0x12CE JUMPI PUSH1 0x40 MLOAD PUSH3 0x461BCD PUSH1 0xE5 SHL DUP2 MSTORE PUSH1 0x20 PUSH1 0x4 DUP3 ADD MSTORE PUSH1 0x1D PUSH1 0x24 DUP3 ADD MSTORE PUSH32 0x416464726573733A2063616C6C20746F206E6F6E2D636F6E7472616374000000 PUSH1 0x44 DUP3 ADD MSTORE PUSH1 0x64 ADD PUSH2 0x2D0 JUMP JUMPDEST POP DUP2 PUSH2 0x1183 JUMP JUMPDEST PUSH2 0x1183 DUP4 DUP4 DUP2 MLOAD ISZERO PUSH2 0x12EA JUMPI DUP2 MLOAD DUP1 DUP4 PUSH1 0x20 ADD REVERT JUMPDEST DUP1 PUSH1 0x40 MLOAD PUSH3 0x461BCD PUSH1 0xE5 SHL DUP2 MSTORE PUSH1 0x4 ADD PUSH2 0x2D0 SWAP2 SWAP1 PUSH2 0x1510 JUMP JUMPDEST PUSH1 0x0 PUSH1 0x20 DUP3 DUP5 SUB SLT ISZERO PUSH2 0x1316 JUMPI PUSH1 0x0 DUP1 REVERT JUMPDEST POP CALLDATALOAD SWAP2 SWAP1 POP JUMP JUMPDEST PUSH1 0x0 PUSH1 0x20 DUP3 DUP5 SUB SLT ISZERO PUSH2 0x132F JUMPI PUSH1 0x0 DUP1 REVERT JUMPDEST DUP2 CALLDATALOAD PUSH1 0x1 PUSH1 0x1 PUSH1 0xA0 SHL SUB DUP2 AND DUP2 EQ PUSH2 0xD7A JUMPI PUSH1 0x0 DUP1 REVERT JUMPDEST PUSH1 0x20 DUP1 DUP3 MSTORE PUSH1 0x89 SWAP1 DUP3 ADD MSTORE PUSH32 0x496E73756666696369656E7420616D6F756E74206F66206E6174697665206375 PUSH1 0x40 DUP3 ADD MSTORE PUSH32 0x7272656E637920696E207468697320636F6E747261637420746F207472616E73 PUSH1 0x60 DUP3 ADD MSTORE PUSH32 0x666572206F75742E20506C6561736520636F6E746163742074686520636F6E74 PUSH1 0x80 DUP3 ADD MSTORE PUSH32 0x72616374206F776E657220746F20746F7020757020746865206E617469766520 PUSH1 0xA0 DUP3 ADD MSTORE PUSH9 0x31BAB93932B731BC97 PUSH1 0xB9 SHL PUSH1 0xC0 DUP3 ADD MSTORE PUSH1 0xE0 ADD SWAP1 JUMP JUMPDEST PUSH4 0x4E487B71 PUSH1 0xE0 SHL PUSH1 0x0 MSTORE PUSH1 0x11 PUSH1 0x4 MSTORE PUSH1 0x24 PUSH1 0x0 REVERT JUMPDEST DUP2 DUP2 SUB DUP2 DUP2 GT ISZERO PUSH2 0x142A JUMPI PUSH2 0x142A PUSH2 0x1401 JUMP JUMPDEST SWAP3 SWAP2 POP POP JUMP JUMPDEST DUP1 DUP3 MUL DUP2 ISZERO DUP3 DUP3 DIV DUP5 EQ OR PUSH2 0x142A JUMPI PUSH2 0x142A PUSH2 0x1401 JUMP JUMPDEST PUSH1 0x0 DUP3 PUSH2 0x1464 JUMPI PUSH4 0x4E487B71 PUSH1 0xE0 SHL PUSH1 0x0 MSTORE PUSH1 0x12 PUSH1 0x4 MSTORE PUSH1 0x24 PUSH1 0x0 REVERT JUMPDEST POP DIV SWAP1 JUMP JUMPDEST DUP1 DUP3 ADD DUP1 DUP3 GT ISZERO PUSH2 0x142A JUMPI PUSH2 0x142A PUSH2 0x1401 JUMP JUMPDEST PUSH1 0x0 PUSH1 0x20 DUP3 DUP5 SUB SLT ISZERO PUSH2 0x148E JUMPI PUSH1 0x0 DUP1 REVERT JUMPDEST POP MLOAD SWAP2 SWAP1 POP JUMP JUMPDEST PUSH1 0x0 PUSH1 0x20 DUP3 DUP5 SUB SLT ISZERO PUSH2 0x14A7 JUMPI PUSH1 0x0 DUP1 REVERT JUMPDEST DUP2 MLOAD DUP1 ISZERO ISZERO DUP2 EQ PUSH2 0xD7A JUMPI PUSH1 0x0 DUP1 REVERT JUMPDEST PUSH1 0x0 PUSH1 0x1 DUP3 ADD PUSH2 0x14C9 JUMPI PUSH2 0x14C9 PUSH2 0x1401 JUMP JUMPDEST POP PUSH1 0x1 ADD SWAP1 JUMP JUMPDEST PUSH1 0x0 JUMPDEST DUP4 DUP2 LT ISZERO PUSH2 0x14EB JUMPI DUP2 DUP2 ADD MLOAD DUP4 DUP3 ADD MSTORE PUSH1 0x20 ADD PUSH2 0x14D3 JUMP JUMPDEST POP POP PUSH1 0x0 SWAP2 ADD MSTORE JUMP JUMPDEST PUSH1 0x0 DUP3 MLOAD PUSH2 0x1506 DUP2 DUP5 PUSH1 0x20 DUP8 ADD PUSH2 0x14D0 JUMP JUMPDEST SWAP2 SWAP1 SWAP2 ADD SWAP3 SWAP2 POP POP JUMP JUMPDEST PUSH1 0x20 DUP2 MSTORE PUSH1 0x0 DUP3 MLOAD DUP1 PUSH1 0x20 DUP5 ADD MSTORE PUSH2 0x152F DUP2 PUSH1 0x40 DUP6 ADD PUSH1 0x20 DUP8 ADD PUSH2 0x14D0 JUMP JUMPDEST PUSH1 0x1F ADD PUSH1 0x1F NOT AND SWAP2 SWAP1 SWAP2 ADD PUSH1 0x40 ADD SWAP3 SWAP2 POP POP JUMP INVALID LOG2 PUSH5 0x6970667358 0x22 SLT KECCAK256 DELEGATECALL GT 0xE2 0x23 0xC0 SWAP5 SLT SWAP2 0x4C 0xC2 0xE8 EXTCODECOPY 0xE4 0xDB DUP13 BASEFEE 0x49 DUP9 LOG3 0x4B SLOAD CREATE 0xB7 0xCF 0xAF JUMPDEST EXTCODEHASH 0xE0 PUSH13 0x95248364736F6C634300081100 CALLER "},"methodIdentifiers":{"addressMap(address)":"da5633ef","addressStore(uint256)":"4f0fd4ca","apr()":"57ded9c9","modifyapr(uint256)":"7f787414","owner()":"8da5cb5b","presentEarning(address)":"b583ea51","renounceOwnership()":"715018a6","stake(uint256)":"a694fc3a","stakingAddresses()":"d3cec8ba","stakingToken()":"72f702f3","totalAccumulatedInterest()":"2e82c983","totalStakedAmount()":"567e98f9","totalWithdrawals()":"60464627","transferOwnership(address)":"f2fde38b","unstake(uint256)":"2e17de78","withdrawNativeCurrency(uint256)":"15f5254e","withdrawReward(uint256)":"523a3f08"}}}}}