{"contracts/StandardICO.sol":{"Presale":{"abi":[{"inputs":[{"internalType":"address","name":"_token","type":"address"},{"internalType":"uint256","name":"_decimals","type":"uint256"},{"internalType":"uint256","name":"_poolFee","type":"uint256"},{"internalType":"uint256","name":"_affiliate","type":"uint256"},{"internalType":"uint256","name":"_softCap","type":"uint256"},{"internalType":"uint256","name":"_anticipatedRate","type":"uint256"},{"internalType":"uint256","name":"_startTime","type":"uint256"},{"internalType":"uint256","name":"_endTime","type":"uint256"},{"internalType":"uint256","name":"tokens","type":"uint256"}],"stateMutability":"payable","type":"constructor"},{"anonymous":false,"inputs":[{"indexed":false,"internalType":"address","name":"icoContract","type":"address"},{"indexed":false,"internalType":"address","name":"owner","type":"address"},{"indexed":false,"internalType":"uint256","name":"raised","type":"uint256"},{"indexed":false,"internalType":"string","name":"why","type":"string"}],"name":"Failed","type":"event"},{"anonymous":false,"inputs":[{"indexed":true,"internalType":"address","name":"previousOwner","type":"address"},{"indexed":true,"internalType":"address","name":"newOwner","type":"address"}],"name":"OwnershipTransferred","type":"event"},{"anonymous":false,"inputs":[{"indexed":false,"internalType":"address","name":"icoContract","type":"address"},{"indexed":false,"internalType":"address","name":"owner","type":"address"},{"indexed":false,"internalType":"uint256","name":"raised","type":"uint256"}],"name":"Success","type":"event"},{"inputs":[{"internalType":"address","name":"_admin","type":"address"}],"name":"addAdmin","outputs":[],"stateMutability":"nonpayable","type":"function"},{"inputs":[],"name":"cancelPool","outputs":[],"stateMutability":"nonpayable","type":"function"},{"inputs":[],"name":"claimTokens","outputs":[],"stateMutability":"nonpayable","type":"function"},{"inputs":[{"internalType":"address","name":"rewardAddress","type":"address"}],"name":"contribute","outputs":[],"stateMutability":"payable","type":"function"},{"inputs":[],"name":"contribute","outputs":[],"stateMutability":"payable","type":"function"},{"inputs":[],"name":"emergencyWithdraw","outputs":[],"stateMutability":"nonpayable","type":"function"},{"inputs":[],"name":"finalize","outputs":[],"stateMutability":"nonpayable","type":"function"},{"inputs":[],"name":"getAffiliatePercentage","outputs":[{"internalType":"uint256","name":"","type":"uint256"}],"stateMutability":"view","type":"function"},{"inputs":[],"name":"getAnticipatedRate","outputs":[{"internalType":"uint256","name":"","type":"uint256"}],"stateMutability":"view","type":"function"},{"inputs":[{"internalType":"address","name":"beneficiary","type":"address"}],"name":"getContribution","outputs":[{"internalType":"uint256","name":"","type":"uint256"}],"stateMutability":"view","type":"function"},{"inputs":[],"name":"getContributors","outputs":[{"internalType":"uint256","name":"","type":"uint256"}],"stateMutability":"view","type":"function"},{"inputs":[],"name":"getCurrentRate","outputs":[{"internalType":"uint256","name":"","type":"uint256"}],"stateMutability":"view","type":"function"},{"inputs":[],"name":"getCurrentRewards","outputs":[{"internalType":"uint256","name":"","type":"uint256"}],"stateMutability":"view","type":"function"},{"inputs":[],"name":"getEndTime","outputs":[{"internalType":"uint256","name":"","type":"uint256"}],"stateMutability":"view","type":"function"},{"inputs":[],"name":"getHardCap","outputs":[{"internalType":"uint256","name":"","type":"uint256"}],"stateMutability":"view","type":"function"},{"inputs":[],"name":"getPresaleTokens","outputs":[{"internalType":"uint256","name":"","type":"uint256"}],"stateMutability":"view","type":"function"},{"inputs":[],"name":"getRaised","outputs":[{"internalType":"uint256","name":"","type":"uint256"}],"stateMutability":"view","type":"function"},{"inputs":[],"name":"getReferrerCount","outputs":[{"internalType":"uint256","name":"","type":"uint256"}],"stateMutability":"view","type":"function"},{"inputs":[],"name":"getRefund","outputs":[{"internalType":"bool","name":"","type":"bool"}],"stateMutability":"view","type":"function"},{"inputs":[{"internalType":"address","name":"beneficiary","type":"address"}],"name":"getReward","outputs":[{"internalType":"uint256","name":"","type":"uint256"}],"stateMutability":"view","type":"function"},{"inputs":[],"name":"getSoftCap","outputs":[{"internalType":"uint256","name":"","type":"uint256"}],"stateMutability":"view","type":"function"},{"inputs":[],"name":"getStartTime","outputs":[{"internalType":"uint256","name":"","type":"uint256"}],"stateMutability":"view","type":"function"},{"inputs":[],"name":"getStatus","outputs":[{"internalType":"uint256","name":"","type":"uint256"}],"stateMutability":"view","type":"function"},{"inputs":[],"name":"getTimeStamp","outputs":[{"internalType":"uint256","name":"","type":"uint256"}],"stateMutability":"view","type":"function"},{"inputs":[],"name":"getToken","outputs":[{"internalType":"address","name":"","type":"address"}],"stateMutability":"view","type":"function"},{"inputs":[],"name":"getTotalRefund","outputs":[{"internalType":"uint256","name":"","type":"uint256"}],"stateMutability":"view","type":"function"},{"inputs":[],"name":"owner","outputs":[{"internalType":"address","name":"","type":"address"}],"stateMutability":"view","type":"function"},{"inputs":[{"internalType":"address","name":"_admin","type":"address"}],"name":"removeAdmin","outputs":[],"stateMutability":"nonpayable","type":"function"},{"inputs":[],"name":"renounceOwnership","outputs":[],"stateMutability":"nonpayable","type":"function"},{"inputs":[{"internalType":"uint256","name":"value","type":"uint256"}],"name":"setAffiliatePercentage","outputs":[],"stateMutability":"nonpayable","type":"function"},{"inputs":[{"internalType":"uint256","name":"value","type":"uint256"}],"name":"setAnticipatedRate","outputs":[],"stateMutability":"nonpayable","type":"function"},{"inputs":[{"internalType":"uint256","name":"value","type":"uint256"}],"name":"setEndTime","outputs":[],"stateMutability":"nonpayable","type":"function"},{"inputs":[{"internalType":"uint256","name":"value","type":"uint256"}],"name":"setSoftCap","outputs":[],"stateMutability":"nonpayable","type":"function"},{"inputs":[{"internalType":"uint256","name":"value","type":"uint256"}],"name":"setStartTime","outputs":[],"stateMutability":"nonpayable","type":"function"},{"inputs":[],"name":"takeEthers","outputs":[],"stateMutability":"nonpayable","type":"function"},{"inputs":[],"name":"takeTokens","outputs":[],"stateMutability":"nonpayable","type":"function"},{"inputs":[{"internalType":"address","name":"newOwner","type":"address"}],"name":"transferOwnership","outputs":[],"stateMutability":"nonpayable","type":"function"},{"inputs":[],"name":"withdrawRefund","outputs":[],"stateMutability":"nonpayable","type":"function"},{"inputs":[],"name":"withdrawTokens","outputs":[],"stateMutability":"nonpayable","type":"function"},{"stateMutability":"payable","type":"receive"}],"evm":{"bytecode":{"linkReferences":{},"object":"608060408190526015805460ff191690556200230c388190039081908339810160408190526200002f91620001f6565b60016000556200003f33620001a4565b6001600160a01b038916620000a75760405162461bcd60e51b815260206004820152602360248201527f5072652d53616c653a20746f6b656e20697320746865207a65726f206164647260448201526265737360e81b60648201526084015b60405180910390fd5b60003411620000ee5760405162461bcd60e51b8152602060048201526012602482015271496e73756666696369656e742046756e647360701b60448201526064016200009e565b6040517375280424f429fef999c56eb0c2cc2f9095c0cf05903480156108fc02916000818181858888f193505050501580156200012f573d6000803e3d6000fd5b50600c8054336001600160a01b031991821617909155600b80549091166001600160a01b039a8b16179055600d97909755600e95909555600f93909355601091909155601355601155601255601455600180549091166000908152600260205260409020805460ff1916909117905562000278565b600180546001600160a01b038381166001600160a01b0319831681179093556040519116919082907f8be0079c531659141344cd1fd0a4f28419497f9722a3daafe3b4186f6b6457e090600090a35050565b60008060008060008060008060006101208a8c0312156200021657600080fd5b89516001600160a01b03811681146200022e57600080fd5b8099505060208a0151975060408a0151965060608a0151955060808a0151945060a08a0151935060c08a0151925060e08a015191506101008a015190509295985092959850929598565b61208480620002886000396000f3fe6080604052600436106102345760003560e01c8063715018a61161012e578063c00007b0116100ab578063da235b221161006f578063da235b221461062a578063db2e21bc1461063d578063f2fde38b14610652578063f7fb07b014610672578063fac5dbc61461068757600080fd5b8063c00007b014610597578063c828371e146105cd578063ccb98ffc146105e2578063d5cf5c7214610602578063d7bb99ba1461062257600080fd5b80639a7e6441116100f25780639a7e644114610520578063af157c1914610535578063b2d5ae441461054a578063b692c89d1461056d578063bf0a07bd1461058257600080fd5b8063715018a6146104a557806373e888fd146104ba5780638d8f2adb146104cd5780638da5cb5b146104e25780638dad18b41461050057600080fd5b8063439f5ac2116101bc5780634e69d560116101805780634e69d56014610431578063559659fa1461044657806356e76aa31461045b578063638723bf14610470578063704802751461048557600080fd5b8063439f5ac2146103c857806344048f23146103dd57806348c54b9d146103f25780634bb278f3146104075780634d52a5121461041c57600080fd5b806321eff7fc1161020357806321eff7fc14610325578063318c00fc14610369578063344dad401461037e5780633e0a322d146103935780633efe1ff9146103b357600080fd5b8063110f8874146102a45780631785f53c146102b95780631b55b2a8146102d957806321df0da7146102ee57600080fd5b3661029f576102416106a7565b6002036102615761025f335b6001546001600160a01b0316346106f9565b005b60405162461bcd60e51b815260206004820152600e60248201526d49434f204e6f742041637469766560901b60448201526064015b60405180910390fd5b600080fd5b3480156102b057600080fd5b5061025f61098a565b3480156102c557600080fd5b5061025f6102d4366004611da8565b610aad565b3480156102e557600080fd5b5061025f610b1e565b3480156102fa57600080fd5b50600b546001600160a01b03165b6040516001600160a01b0390911681526020015b60405180910390f35b34801561033157600080fd5b5061035b610340366004611da8565b6001600160a01b031660009081526003602052604090205490565b60405190815260200161031c565b34801561037557600080fd5b5061025f610ce0565b34801561038a57600080fd5b5060095461035b565b34801561039f57600080fd5b5061025f6103ae366004611dd8565b610eba565b3480156103bf57600080fd5b50600a5461035b565b3480156103d457600080fd5b5060125461035b565b3480156103e957600080fd5b50600f5461035b565b3480156103fe57600080fd5b5061025f610f39565b34801561041357600080fd5b5061025f611083565b34801561042857600080fd5b5060105461035b565b34801561043d57600080fd5b5061035b6106a7565b34801561045257600080fd5b5060065461035b565b34801561046757600080fd5b5060145461035b565b34801561047c57600080fd5b5061025f611234565b34801561049157600080fd5b5061025f6104a0366004611da8565b6112eb565b3480156104b157600080fd5b5061025f61135f565b61025f6104c8366004611da8565b611371565b3480156104d957600080fd5b5061025f6113b5565b3480156104ee57600080fd5b506001546001600160a01b0316610308565b34801561050c57600080fd5b5061025f61051b366004611dd8565b61159b565b34801561052c57600080fd5b5060135461035b565b34801561054157600080fd5b5060045461035b565b34801561055657600080fd5b5060155460ff16604051901515815260200161031c565b34801561057957600080fd5b5060055461035b565b34801561058e57600080fd5b5061035b6115cf565b3480156105a357600080fd5b5061035b6105b2366004611da8565b6001600160a01b031660009081526007602052604090205490565b3480156105d957600080fd5b5060115461035b565b3480156105ee57600080fd5b5061025f6105fd366004611dd8565b6115ed565b34801561060e57600080fd5b5061025f61061d366004611dd8565b611621565b61025f611655565b34801561063657600080fd5b504261035b565b34801561064957600080fd5b5061025f611697565b34801561065e57600080fd5b5061025f61066d366004611da8565b6119cb565b34801561067e57600080fd5b5061035b611a41565b34801561069357600080fd5b5061025f6106a2366004611dd8565b611a64565b60155460009060ff16156106bb5750600490565b6011546106ca906103e8611a98565b4210156106d75750600190565b6012546106e6906103e8611a98565b4210156106f35750600290565b50600390565b6107038382611aad565b6001600160a01b038316600090815260036020526040902054610736576004805490600061073083611e07565b91905055505b6005546107439082611b6a565b6005556001600160a01b0383166000908152600360205260409020546107699082611b6a565b6001600160a01b038416600090815260036020526040902055600f5415610985576001600160a01b0382166000908152600760205260409020546107bd57600980549060006107b783611e07565b91905055505b60006107df60646107d9600f5485611b7690919063ffffffff16565b90611a98565b6001600160a01b0384166000908152600760205260409020549091506108059082611b6a565b6001600160a01b038085166000908152600760209081526040808320949094559187168152600890915290812090805b82548110156108ed57856001600160a01b031683828154811061085a5761085a611e20565b60009182526020909120600290910201546001600160a01b0316036108db576108af8584838154811061088f5761088f611e20565b906000526020600020906002020160010154611b6a90919063ffffffff16565b8382815481106108c1576108c1611e20565b906000526020600020906002020160010181905550600191505b806108e581611e07565b915050610835565b508061094a57604080518082019091526001600160a01b03868116825260208083018781528554600180820188556000888152939093209451600290910290940180546001600160a01b0319169490931693909317825591519101555b6001600160a01b0386166000908152600860205260409020825461097091908490611d0a565b50600a5461097e9084611b6a565b600a555050505b505050565b60155460ff16806109c2575061099e6106a7565b60031480156109c257506010546109bd90670de0b6b3a7640000611b76565b600554105b610a035760405162461bcd60e51b81526020600482015260126024820152711499599d5b99081b9bdd081cdd185c9d195960721b6044820152606401610296565b3360009081526003602052604090205480610a565760405162461bcd60e51b81526020600482015260136024820152724e6f20526566756e6420417661696c61626c6560681b6044820152606401610296565b804710610aaa5733600081815260036020526040808220829055516108fc84150291849190818181858888f19350505050158015610a98573d6000803e3d6000fd5b50600654610aa69082611b82565b6006555b50565b610ab5611b8e565b6001600160a01b038116610afd5760405162461bcd60e51b815260206004820152600f60248201526e61646472657373206973207a65726f60881b6044820152606401610296565b6001600160a01b03166000908152600260205260409020805460ff19169055565b610b26611be8565b610b2e6106a7565b600214610b4d5760405162461bcd60e51b815260040161029690611e36565b610b55611b8e565b6005546006556015805460ff191660011790556000601255600b546040516370a0823160e01b81523060048201526001600160a01b039091169063a9059cbb90339083906370a0823190602401602060405180830381865afa158015610bbf573d6000803e3d6000fd5b505050506040513d601f19601f82011682018060405250810190610be39190611e62565b6040516001600160e01b031960e085901b1681526001600160a01b03909216600483015260248201526044016020604051808303816000875af1158015610c2e573d6000803e3d6000fd5b505050506040513d601f19601f82011682018060405250810190610c529190611e7b565b507f6f9aa0523f9d8c5443c3c3ff14e19708756d32d385962578a1f60a8adcfa617030610c876001546001600160a01b031690565b600654604080516001600160a01b039485168152939092166020840152908201526080606082018190526009908201526810d85b98d95b1b195960ba1b60a082015260c00160405180910390a1610cde6001600055565b565b337375280424f429fef999c56eb0c2cc2f9095c0cf0514610d2f5760405162461bcd60e51b81526020600482015260096024820152684f6e6c7920426f737360b81b6044820152606401610296565b600b546040516370a0823160e01b81523060048201526000916001600160a01b0316906370a0823190602401602060405180830381865afa158015610d78573d6000803e3d6000fd5b505050506040513d601f19601f82011682018060405250810190610d9c9190611e62565b11610dd55760405162461bcd60e51b81526020600482015260096024820152684e6f20546f6b656e7360b81b6044820152606401610296565b600b546040516370a0823160e01b81523060048201526001600160a01b039091169063a9059cbb90339083906370a0823190602401602060405180830381865afa158015610e27573d6000803e3d6000fd5b505050506040513d601f19601f82011682018060405250810190610e4b9190611e62565b6040516001600160e01b031960e085901b1681526001600160a01b03909216600483015260248201526044016020604051808303816000875af1158015610e96573d6000803e3d6000fd5b505050506040513d601f19601f82011682018060405250810190610aaa9190611e7b565b3360009081526002602052604090205460ff16610ee95760405162461bcd60e51b815260040161029690611e9d565b610ef16106a7565b600114610f345760405162461bcd60e51b815260206004820152601160248201527024a1a79030b63932b0b23c903132b3b0b760791b6044820152606401610296565b601155565b610f41611be8565b610f496106a7565b600314610f8c5760405162461bcd60e51b815260206004820152601160248201527024b73b30b634b21027b832b930ba34b7b760791b6044820152606401610296565b601054610fa190670de0b6b3a7640000611b76565b6005541015610fe85760405162461bcd60e51b815260206004820152601360248201527214dbd99d18d85c081b9bdd081c995858da1959606a1b6044820152606401610296565b3360009081526003602052604090205461103c5760405162461bcd60e51b8152602060048201526015602482015274139bc818dbdb9d1c9a589d5d1a5bdb88199bdd5b99605a1b6044820152606401610296565b33600090815260036020526040812054611054611a41565b61105e9190611fcc565b905061106a3382611c41565b5033600090815260036020526040812081905560019055565b61108b6106a7565b6003146110ce5760405162461bcd60e51b815260206004820152601160248201527024b73b30b634b21027b832b930ba34b7b760791b6044820152606401610296565b6010546110e390670de0b6b3a7640000611b76565b600554101561112a5760405162461bcd60e51b815260206004820152601360248201527214dbd99d18d85c081b9bdd081c995858da1959606a1b6044820152606401610296565b611132611b8e565b600061115060646107d9600554600e54611b7690919063ffffffff16565b6040519091507375280424f429fef999c56eb0c2cc2f9095c0cf059082156108fc029083906000818181858888f19350505050158015611194573d6000803e3d6000fd5b5060055433906108fc906111a89084611b82565b6040518115909202916000818181858888f193505050501580156111d0573d6000803e3d6000fd5b507f874f886a60392abb180676546b433d61143fdc5753868148c3ec0edf699cda7e306112056001546001600160a01b031690565b600554604080516001600160a01b0394851681529390921660208401529082015260600160405180910390a150565b337375280424f429fef999c56eb0c2cc2f9095c0cf05146112835760405162461bcd60e51b81526020600482015260096024820152684f6e6c7920426f737360b81b6044820152606401610296565b600047116112bf5760405162461bcd60e51b81526020600482015260096024820152684e6f2045746865727360b81b6044820152606401610296565b60405133904780156108fc02916000818181858888f19350505050158015610aaa573d6000803e3d6000fd5b6112f3611b8e565b6001600160a01b03811661133b5760405162461bcd60e51b815260206004820152600f60248201526e61646472657373206973207a65726f60881b6044820152606401610296565b6001600160a01b03166000908152600260205260409020805460ff19166001179055565b611367611b8e565b610cde6000611cb8565b611379611be8565b6113816106a7565b6002146113a05760405162461bcd60e51b815260040161029690611e36565b6113ab3382346106f9565b610aaa6001600055565b60155460ff16806113ed57506113c96106a7565b60031480156113ed57506010546113e890670de0b6b3a7640000611b76565b600554105b61142e5760405162461bcd60e51b81526020600482015260126024820152711499599d5b99081b9bdd081cdd185c9d195960721b6044820152606401610296565b611436611b8e565b600b546040516370a0823160e01b81523060048201526001600160a01b039091169063a9059cbb90339083906370a0823190602401602060405180830381865afa158015611488573d6000803e3d6000fd5b505050506040513d601f19601f820116820180604052508101906114ac9190611e62565b6040516001600160e01b031960e085901b1681526001600160a01b03909216600483015260248201526044016020604051808303816000875af11580156114f7573d6000803e3d6000fd5b505050506040513d601f19601f8201168201806040525081019061151b9190611e7b565b507f6f9aa0523f9d8c5443c3c3ff14e19708756d32d385962578a1f60a8adcfa6170306115506001546001600160a01b031690565b600654604080516001600160a01b0394851681529390921660208401529082015260806060820181905260059082015264115b99195960da1b60a082015260c00160405180910390a1565b3360009081526002602052604090205460ff166115ca5760405162461bcd60e51b815260040161029690611e9d565b601355565b60006115e8601354601454611a9890919063ffffffff16565b905090565b3360009081526002602052604090205460ff1661161c5760405162461bcd60e51b815260040161029690611e9d565b601255565b3360009081526002602052604090205460ff166116505760405162461bcd60e51b815260040161029690611e9d565b601055565b61165d611be8565b6116656106a7565b6002146116845760405162461bcd60e51b815260040161029690611e36565b61168d3361024d565b610cde6001600055565b61169f611be8565b6116a76106a7565b6002146116c65760405162461bcd60e51b815260040161029690611e36565b3360009081526003602052604090205461171a5760405162461bcd60e51b8152602060048201526015602482015274139bc818dbdb9d1c9a589d5d1a5bdb88199bdd5b99605a1b6044820152606401610296565b336000908152600360205260408120549061173b60646107d9600a85611b76565b905060006117498383611b82565b6040519091507375280424f429fef999c56eb0c2cc2f9095c0cf059083156108fc029084906000818181858888f1935050505015801561178d573d6000803e3d6000fd5b50604051339082156108fc029083906000818181858888f193505050501580156117bb573d6000803e3d6000fd5b50600480549060006117cc83611fd8565b90915550506005546117de9084611b82565b60055533600090815260036020526040812055600f54156119be57336000908152600860205260408120905b81548110156119745761189961185360646107d985858154811061183057611830611e20565b906000526020600020906002020160010154600f54611b7690919063ffffffff16565b6007600085858154811061186957611869611e20565b600091825260208083206002909202909101546001600160a01b0316835282019290925260400190205490611b82565b600760008484815481106118af576118af611e20565b600091825260208083206002909202909101546001600160a01b03168352820192909252604001812091909155825460079082908590859081106118f5576118f5611e20565b600091825260208083206002909202909101546001600160a01b031683528201929092526040019020541161193a576009805490600061193483611fd8565b91905055505b600082828154811061194e5761194e611e20565b60009182526020909120600160029092020101558061196c81611e07565b91505061180a565b50336000908152600860205260409020815461199291908390611d0a565b506119b96119b060646107d987600f54611b7690919063ffffffff16565b600a5490611b82565b600a55505b505050610cde6001600055565b6119d3611b8e565b6001600160a01b038116611a385760405162461bcd60e51b815260206004820152602660248201527f4f776e61626c653a206e6577206f776e657220697320746865207a65726f206160448201526564647265737360d01b6064820152608401610296565b610aaa81611cb8565b60006115e86005546107d9600d54600a611a5b9190611fcc565b60145490611b76565b3360009081526002602052604090205460ff16611a935760405162461bcd60e51b815260040161029690611e9d565b600f55565b6000611aa48284611fef565b90505b92915050565b6001600160a01b038216611b165760405162461bcd60e51b815260206004820152602a60248201527f43726f776473616c653a2062656e656669636961727920697320746865207a65604482015269726f206164647265737360b01b6064820152608401610296565b60008111611b665760405162461bcd60e51b815260206004820152601b60248201527f496e76616c696420636f6e747269627574696f6e20616d6f756e7400000000006044820152606401610296565b5050565b6000611aa48284612011565b6000611aa48284612024565b6000611aa4828461203b565b6001546001600160a01b03163314610cde5760405162461bcd60e51b815260206004820181905260248201527f4f776e61626c653a2063616c6c6572206973206e6f7420746865206f776e65726044820152606401610296565b600260005403611c3a5760405162461bcd60e51b815260206004820152601f60248201527f5265656e7472616e637947756172643a207265656e7472616e742063616c6c006044820152606401610296565b6002600055565b600b5460405163a9059cbb60e01b81526001600160a01b038481166004830152602482018490529091169063a9059cbb906044016020604051808303816000875af1158015611c94573d6000803e3d6000fd5b505050506040513d601f19601f820116820180604052508101906109859190611e7b565b600180546001600160a01b038381166001600160a01b0319831681179093556040519116919082907f8be0079c531659141344cd1fd0a4f28419497f9722a3daafe3b4186f6b6457e090600090a35050565b828054828255906000526020600020906002028101928215611d725760005260206000209160020282015b82811115611d7257825482546001600160a01b0319166001600160a01b039091161782556001808401549083015560029283019290910190611d35565b50611d7e929150611d82565b5090565b5b80821115611d7e5780546001600160a01b031916815560006001820155600201611d83565b600060208284031215611dba57600080fd5b81356001600160a01b0381168114611dd157600080fd5b9392505050565b600060208284031215611dea57600080fd5b5035919050565b634e487b7160e01b600052601160045260246000fd5b600060018201611e1957611e19611df1565b5060010190565b634e487b7160e01b600052603260045260246000fd5b60208082526012908201527149434f206d7573742062652061637469766560701b604082015260600190565b600060208284031215611e7457600080fd5b5051919050565b600060208284031215611e8d57600080fd5b81518015158114611dd157600080fd5b6020808252602b908201527f49434f3a206f6e6c792041646d696e2063616e2063616c6c207468697320667560408201526a6e6374696f6e616c69747960a81b606082015260800190565b600181815b80851115611f23578160001904821115611f0957611f09611df1565b80851615611f1657918102915b93841c9390800290611eed565b509250929050565b600082611f3a57506001611aa7565b81611f4757506000611aa7565b8160018114611f5d5760028114611f6757611f83565b6001915050611aa7565b60ff841115611f7857611f78611df1565b50506001821b611aa7565b5060208310610133831016604e8410600b8410161715611fa6575081810a611aa7565b611fb08383611ee8565b8060001904821115611fc457611fc4611df1565b029392505050565b6000611aa48383611f2b565b600081611fe757611fe7611df1565b506000190190565b60008261200c57634e487b7160e01b600052601260045260246000fd5b500490565b80820180821115611aa757611aa7611df1565b8082028115828204841417611aa757611aa7611df1565b81810381811115611aa757611aa7611df156fea26469706673582212204905168fbb4a59cb1f58d1ae25dc9dc246734e599f898d392adb624ad269d39164736f6c63430008110033","opcodes":"PUSH1 0x80 PUSH1 0x40 DUP2 SWAP1 MSTORE PUSH1 0x15 DUP1 SLOAD PUSH1 0xFF NOT AND SWAP1 SSTORE PUSH3 0x230C CODESIZE DUP2 SWAP1 SUB SWAP1 DUP2 SWAP1 DUP4 CODECOPY DUP2 ADD PUSH1 0x40 DUP2 SWAP1 MSTORE PUSH3 0x2F SWAP2 PUSH3 0x1F6 JUMP JUMPDEST PUSH1 0x1 PUSH1 0x0 SSTORE PUSH3 0x3F CALLER PUSH3 0x1A4 JUMP JUMPDEST PUSH1 0x1 PUSH1 0x1 PUSH1 0xA0 SHL SUB DUP10 AND PUSH3 0xA7 JUMPI PUSH1 0x40 MLOAD PUSH3 0x461BCD PUSH1 0xE5 SHL DUP2 MSTORE PUSH1 0x20 PUSH1 0x4 DUP3 ADD MSTORE PUSH1 0x23 PUSH1 0x24 DUP3 ADD MSTORE PUSH32 0x5072652D53616C653A20746F6B656E20697320746865207A65726F2061646472 PUSH1 0x44 DUP3 ADD MSTORE PUSH3 0x657373 PUSH1 0xE8 SHL PUSH1 0x64 DUP3 ADD MSTORE PUSH1 0x84 ADD JUMPDEST PUSH1 0x40 MLOAD DUP1 SWAP2 SUB SWAP1 REVERT JUMPDEST PUSH1 0x0 CALLVALUE GT PUSH3 0xEE JUMPI PUSH1 0x40 MLOAD PUSH3 0x461BCD PUSH1 0xE5 SHL DUP2 MSTORE PUSH1 0x20 PUSH1 0x4 DUP3 ADD MSTORE PUSH1 0x12 PUSH1 0x24 DUP3 ADD MSTORE PUSH18 0x496E73756666696369656E742046756E6473 PUSH1 0x70 SHL PUSH1 0x44 DUP3 ADD MSTORE PUSH1 0x64 ADD PUSH3 0x9E JUMP JUMPDEST PUSH1 0x40 MLOAD PUSH20 0x75280424F429FEF999C56EB0C2CC2F9095C0CF05 SWAP1 CALLVALUE DUP1 ISZERO PUSH2 0x8FC MUL SWAP2 PUSH1 0x0 DUP2 DUP2 DUP2 DUP6 DUP9 DUP9 CALL SWAP4 POP POP POP POP ISZERO DUP1 ISZERO PUSH3 0x12F JUMPI RETURNDATASIZE PUSH1 0x0 DUP1 RETURNDATACOPY RETURNDATASIZE PUSH1 0x0 REVERT JUMPDEST POP PUSH1 0xC DUP1 SLOAD CALLER PUSH1 0x1 PUSH1 0x1 PUSH1 0xA0 SHL SUB NOT SWAP2 DUP3 AND OR SWAP1 SWAP2 SSTORE PUSH1 0xB DUP1 SLOAD SWAP1 SWAP2 AND PUSH1 0x1 PUSH1 0x1 PUSH1 0xA0 SHL SUB SWAP11 DUP12 AND OR SWAP1 SSTORE PUSH1 0xD SWAP8 SWAP1 SWAP8 SSTORE PUSH1 0xE SWAP6 SWAP1 SWAP6 SSTORE PUSH1 0xF SWAP4 SWAP1 SWAP4 SSTORE PUSH1 0x10 SWAP2 SWAP1 SWAP2 SSTORE PUSH1 0x13 SSTORE PUSH1 0x11 SSTORE PUSH1 0x12 SSTORE PUSH1 0x14 SSTORE PUSH1 0x1 DUP1 SLOAD SWAP1 SWAP2 AND PUSH1 0x0 SWAP1 DUP2 MSTORE PUSH1 0x2 PUSH1 0x20 MSTORE PUSH1 0x40 SWAP1 KECCAK256 DUP1 SLOAD PUSH1 0xFF NOT AND SWAP1 SWAP2 OR SWAP1 SSTORE PUSH3 0x278 JUMP JUMPDEST PUSH1 0x1 DUP1 SLOAD PUSH1 0x1 PUSH1 0x1 PUSH1 0xA0 SHL SUB DUP4 DUP2 AND PUSH1 0x1 PUSH1 0x1 PUSH1 0xA0 SHL SUB NOT DUP4 AND DUP2 OR SWAP1 SWAP4 SSTORE PUSH1 0x40 MLOAD SWAP2 AND SWAP2 SWAP1 DUP3 SWAP1 PUSH32 0x8BE0079C531659141344CD1FD0A4F28419497F9722A3DAAFE3B4186F6B6457E0 SWAP1 PUSH1 0x0 SWAP1 LOG3 POP POP JUMP JUMPDEST PUSH1 0x0 DUP1 PUSH1 0x0 DUP1 PUSH1 0x0 DUP1 PUSH1 0x0 DUP1 PUSH1 0x0 PUSH2 0x120 DUP11 DUP13 SUB SLT ISZERO PUSH3 0x216 JUMPI PUSH1 0x0 DUP1 REVERT JUMPDEST DUP10 MLOAD PUSH1 0x1 PUSH1 0x1 PUSH1 0xA0 SHL SUB DUP2 AND DUP2 EQ PUSH3 0x22E JUMPI PUSH1 0x0 DUP1 REVERT JUMPDEST DUP1 SWAP10 POP POP PUSH1 0x20 DUP11 ADD MLOAD SWAP8 POP PUSH1 0x40 DUP11 ADD MLOAD SWAP7 POP PUSH1 0x60 DUP11 ADD MLOAD SWAP6 POP PUSH1 0x80 DUP11 ADD MLOAD SWAP5 POP PUSH1 0xA0 DUP11 ADD MLOAD SWAP4 POP PUSH1 0xC0 DUP11 ADD MLOAD SWAP3 POP PUSH1 0xE0 DUP11 ADD MLOAD SWAP2 POP PUSH2 0x100 DUP11 ADD MLOAD SWAP1 POP SWAP3 SWAP6 SWAP9 POP SWAP3 SWAP6 SWAP9 POP SWAP3 SWAP6 SWAP9 JUMP JUMPDEST PUSH2 0x2084 DUP1 PUSH3 0x288 PUSH1 0x0 CODECOPY PUSH1 0x0 RETURN INVALID PUSH1 0x80 PUSH1 0x40 MSTORE PUSH1 0x4 CALLDATASIZE LT PUSH2 0x234 JUMPI PUSH1 0x0 CALLDATALOAD PUSH1 0xE0 SHR DUP1 PUSH4 0x715018A6 GT PUSH2 0x12E JUMPI DUP1 PUSH4 0xC00007B0 GT PUSH2 0xAB JUMPI DUP1 PUSH4 0xDA235B22 GT PUSH2 0x6F JUMPI DUP1 PUSH4 0xDA235B22 EQ PUSH2 0x62A JUMPI DUP1 PUSH4 0xDB2E21BC EQ PUSH2 0x63D JUMPI DUP1 PUSH4 0xF2FDE38B EQ PUSH2 0x652 JUMPI DUP1 PUSH4 0xF7FB07B0 EQ PUSH2 0x672 JUMPI DUP1 PUSH4 0xFAC5DBC6 EQ PUSH2 0x687 JUMPI PUSH1 0x0 DUP1 REVERT JUMPDEST DUP1 PUSH4 0xC00007B0 EQ PUSH2 0x597 JUMPI DUP1 PUSH4 0xC828371E EQ PUSH2 0x5CD JUMPI DUP1 PUSH4 0xCCB98FFC EQ PUSH2 0x5E2 JUMPI DUP1 PUSH4 0xD5CF5C72 EQ PUSH2 0x602 JUMPI DUP1 PUSH4 0xD7BB99BA EQ PUSH2 0x622 JUMPI PUSH1 0x0 DUP1 REVERT JUMPDEST DUP1 PUSH4 0x9A7E6441 GT PUSH2 0xF2 JUMPI DUP1 PUSH4 0x9A7E6441 EQ PUSH2 0x520 JUMPI DUP1 PUSH4 0xAF157C19 EQ PUSH2 0x535 JUMPI DUP1 PUSH4 0xB2D5AE44 EQ PUSH2 0x54A JUMPI DUP1 PUSH4 0xB692C89D EQ PUSH2 0x56D JUMPI DUP1 PUSH4 0xBF0A07BD EQ PUSH2 0x582 JUMPI PUSH1 0x0 DUP1 REVERT JUMPDEST DUP1 PUSH4 0x715018A6 EQ PUSH2 0x4A5 JUMPI DUP1 PUSH4 0x73E888FD EQ PUSH2 0x4BA JUMPI DUP1 PUSH4 0x8D8F2ADB EQ PUSH2 0x4CD JUMPI DUP1 PUSH4 0x8DA5CB5B EQ PUSH2 0x4E2 JUMPI DUP1 PUSH4 0x8DAD18B4 EQ PUSH2 0x500 JUMPI PUSH1 0x0 DUP1 REVERT JUMPDEST DUP1 PUSH4 0x439F5AC2 GT PUSH2 0x1BC JUMPI DUP1 PUSH4 0x4E69D560 GT PUSH2 0x180 JUMPI DUP1 PUSH4 0x4E69D560 EQ PUSH2 0x431 JUMPI DUP1 PUSH4 0x559659FA EQ PUSH2 0x446 JUMPI DUP1 PUSH4 0x56E76AA3 EQ PUSH2 0x45B JUMPI DUP1 PUSH4 0x638723BF EQ PUSH2 0x470 JUMPI DUP1 PUSH4 0x70480275 EQ PUSH2 0x485 JUMPI PUSH1 0x0 DUP1 REVERT JUMPDEST DUP1 PUSH4 0x439F5AC2 EQ PUSH2 0x3C8 JUMPI DUP1 PUSH4 0x44048F23 EQ PUSH2 0x3DD JUMPI DUP1 PUSH4 0x48C54B9D EQ PUSH2 0x3F2 JUMPI DUP1 PUSH4 0x4BB278F3 EQ PUSH2 0x407 JUMPI DUP1 PUSH4 0x4D52A512 EQ PUSH2 0x41C JUMPI PUSH1 0x0 DUP1 REVERT JUMPDEST DUP1 PUSH4 0x21EFF7FC GT PUSH2 0x203 JUMPI DUP1 PUSH4 0x21EFF7FC EQ PUSH2 0x325 JUMPI DUP1 PUSH4 0x318C00FC EQ PUSH2 0x369 JUMPI DUP1 PUSH4 0x344DAD40 EQ PUSH2 0x37E JUMPI DUP1 PUSH4 0x3E0A322D EQ PUSH2 0x393 JUMPI DUP1 PUSH4 0x3EFE1FF9 EQ PUSH2 0x3B3 JUMPI PUSH1 0x0 DUP1 REVERT JUMPDEST DUP1 PUSH4 0x110F8874 EQ PUSH2 0x2A4 JUMPI DUP1 PUSH4 0x1785F53C EQ PUSH2 0x2B9 JUMPI DUP1 PUSH4 0x1B55B2A8 EQ PUSH2 0x2D9 JUMPI DUP1 PUSH4 0x21DF0DA7 EQ PUSH2 0x2EE JUMPI PUSH1 0x0 DUP1 REVERT JUMPDEST CALLDATASIZE PUSH2 0x29F JUMPI PUSH2 0x241 PUSH2 0x6A7 JUMP JUMPDEST PUSH1 0x2 SUB PUSH2 0x261 JUMPI PUSH2 0x25F CALLER JUMPDEST PUSH1 0x1 SLOAD PUSH1 0x1 PUSH1 0x1 PUSH1 0xA0 SHL SUB AND CALLVALUE PUSH2 0x6F9 JUMP JUMPDEST STOP JUMPDEST PUSH1 0x40 MLOAD PUSH3 0x461BCD PUSH1 0xE5 SHL DUP2 MSTORE PUSH1 0x20 PUSH1 0x4 DUP3 ADD MSTORE PUSH1 0xE PUSH1 0x24 DUP3 ADD MSTORE PUSH14 0x49434F204E6F7420416374697665 PUSH1 0x90 SHL PUSH1 0x44 DUP3 ADD MSTORE PUSH1 0x64 ADD JUMPDEST PUSH1 0x40 MLOAD DUP1 SWAP2 SUB SWAP1 REVERT JUMPDEST PUSH1 0x0 DUP1 REVERT JUMPDEST CALLVALUE DUP1 ISZERO PUSH2 0x2B0 JUMPI PUSH1 0x0 DUP1 REVERT JUMPDEST POP PUSH2 0x25F PUSH2 0x98A JUMP JUMPDEST CALLVALUE DUP1 ISZERO PUSH2 0x2C5 JUMPI PUSH1 0x0 DUP1 REVERT JUMPDEST POP PUSH2 0x25F PUSH2 0x2D4 CALLDATASIZE PUSH1 0x4 PUSH2 0x1DA8 JUMP JUMPDEST PUSH2 0xAAD JUMP JUMPDEST CALLVALUE DUP1 ISZERO PUSH2 0x2E5 JUMPI PUSH1 0x0 DUP1 REVERT JUMPDEST POP PUSH2 0x25F PUSH2 0xB1E JUMP JUMPDEST CALLVALUE DUP1 ISZERO PUSH2 0x2FA JUMPI PUSH1 0x0 DUP1 REVERT JUMPDEST POP PUSH1 0xB SLOAD PUSH1 0x1 PUSH1 0x1 PUSH1 0xA0 SHL SUB AND JUMPDEST PUSH1 0x40 MLOAD PUSH1 0x1 PUSH1 0x1 PUSH1 0xA0 SHL SUB SWAP1 SWAP2 AND DUP2 MSTORE PUSH1 0x20 ADD JUMPDEST PUSH1 0x40 MLOAD DUP1 SWAP2 SUB SWAP1 RETURN JUMPDEST CALLVALUE DUP1 ISZERO PUSH2 0x331 JUMPI PUSH1 0x0 DUP1 REVERT JUMPDEST POP PUSH2 0x35B PUSH2 0x340 CALLDATASIZE PUSH1 0x4 PUSH2 0x1DA8 JUMP JUMPDEST PUSH1 0x1 PUSH1 0x1 PUSH1 0xA0 SHL SUB AND PUSH1 0x0 SWAP1 DUP2 MSTORE PUSH1 0x3 PUSH1 0x20 MSTORE PUSH1 0x40 SWAP1 KECCAK256 SLOAD SWAP1 JUMP JUMPDEST PUSH1 0x40 MLOAD SWAP1 DUP2 MSTORE PUSH1 0x20 ADD PUSH2 0x31C JUMP JUMPDEST CALLVALUE DUP1 ISZERO PUSH2 0x375 JUMPI PUSH1 0x0 DUP1 REVERT JUMPDEST POP PUSH2 0x25F PUSH2 0xCE0 JUMP JUMPDEST CALLVALUE DUP1 ISZERO PUSH2 0x38A JUMPI PUSH1 0x0 DUP1 REVERT JUMPDEST POP PUSH1 0x9 SLOAD PUSH2 0x35B JUMP JUMPDEST CALLVALUE DUP1 ISZERO PUSH2 0x39F JUMPI PUSH1 0x0 DUP1 REVERT JUMPDEST POP PUSH2 0x25F PUSH2 0x3AE CALLDATASIZE PUSH1 0x4 PUSH2 0x1DD8 JUMP JUMPDEST PUSH2 0xEBA JUMP JUMPDEST CALLVALUE DUP1 ISZERO PUSH2 0x3BF JUMPI PUSH1 0x0 DUP1 REVERT JUMPDEST POP PUSH1 0xA SLOAD PUSH2 0x35B JUMP JUMPDEST CALLVALUE DUP1 ISZERO PUSH2 0x3D4 JUMPI PUSH1 0x0 DUP1 REVERT JUMPDEST POP PUSH1 0x12 SLOAD PUSH2 0x35B JUMP JUMPDEST CALLVALUE DUP1 ISZERO PUSH2 0x3E9 JUMPI PUSH1 0x0 DUP1 REVERT JUMPDEST POP PUSH1 0xF SLOAD PUSH2 0x35B JUMP JUMPDEST CALLVALUE DUP1 ISZERO PUSH2 0x3FE JUMPI PUSH1 0x0 DUP1 REVERT JUMPDEST POP PUSH2 0x25F PUSH2 0xF39 JUMP JUMPDEST CALLVALUE DUP1 ISZERO PUSH2 0x413 JUMPI PUSH1 0x0 DUP1 REVERT JUMPDEST POP PUSH2 0x25F PUSH2 0x1083 JUMP JUMPDEST CALLVALUE DUP1 ISZERO PUSH2 0x428 JUMPI PUSH1 0x0 DUP1 REVERT JUMPDEST POP PUSH1 0x10 SLOAD PUSH2 0x35B JUMP JUMPDEST CALLVALUE DUP1 ISZERO PUSH2 0x43D JUMPI PUSH1 0x0 DUP1 REVERT JUMPDEST POP PUSH2 0x35B PUSH2 0x6A7 JUMP JUMPDEST CALLVALUE DUP1 ISZERO PUSH2 0x452 JUMPI PUSH1 0x0 DUP1 REVERT JUMPDEST POP PUSH1 0x6 SLOAD PUSH2 0x35B JUMP JUMPDEST CALLVALUE DUP1 ISZERO PUSH2 0x467 JUMPI PUSH1 0x0 DUP1 REVERT JUMPDEST POP PUSH1 0x14 SLOAD PUSH2 0x35B JUMP JUMPDEST CALLVALUE DUP1 ISZERO PUSH2 0x47C JUMPI PUSH1 0x0 DUP1 REVERT JUMPDEST POP PUSH2 0x25F PUSH2 0x1234 JUMP JUMPDEST CALLVALUE DUP1 ISZERO PUSH2 0x491 JUMPI PUSH1 0x0 DUP1 REVERT JUMPDEST POP PUSH2 0x25F PUSH2 0x4A0 CALLDATASIZE PUSH1 0x4 PUSH2 0x1DA8 JUMP JUMPDEST PUSH2 0x12EB JUMP JUMPDEST CALLVALUE DUP1 ISZERO PUSH2 0x4B1 JUMPI PUSH1 0x0 DUP1 REVERT JUMPDEST POP PUSH2 0x25F PUSH2 0x135F JUMP JUMPDEST PUSH2 0x25F PUSH2 0x4C8 CALLDATASIZE PUSH1 0x4 PUSH2 0x1DA8 JUMP JUMPDEST PUSH2 0x1371 JUMP JUMPDEST CALLVALUE DUP1 ISZERO PUSH2 0x4D9 JUMPI PUSH1 0x0 DUP1 REVERT JUMPDEST POP PUSH2 0x25F PUSH2 0x13B5 JUMP JUMPDEST CALLVALUE DUP1 ISZERO PUSH2 0x4EE JUMPI PUSH1 0x0 DUP1 REVERT JUMPDEST POP PUSH1 0x1 SLOAD PUSH1 0x1 PUSH1 0x1 PUSH1 0xA0 SHL SUB AND PUSH2 0x308 JUMP JUMPDEST CALLVALUE DUP1 ISZERO PUSH2 0x50C JUMPI PUSH1 0x0 DUP1 REVERT JUMPDEST POP PUSH2 0x25F PUSH2 0x51B CALLDATASIZE PUSH1 0x4 PUSH2 0x1DD8 JUMP JUMPDEST PUSH2 0x159B JUMP JUMPDEST CALLVALUE DUP1 ISZERO PUSH2 0x52C JUMPI PUSH1 0x0 DUP1 REVERT JUMPDEST POP PUSH1 0x13 SLOAD PUSH2 0x35B JUMP JUMPDEST CALLVALUE DUP1 ISZERO PUSH2 0x541 JUMPI PUSH1 0x0 DUP1 REVERT JUMPDEST POP PUSH1 0x4 SLOAD PUSH2 0x35B JUMP JUMPDEST CALLVALUE DUP1 ISZERO PUSH2 0x556 JUMPI PUSH1 0x0 DUP1 REVERT JUMPDEST POP PUSH1 0x15 SLOAD PUSH1 0xFF AND PUSH1 0x40 MLOAD SWAP1 ISZERO ISZERO DUP2 MSTORE PUSH1 0x20 ADD PUSH2 0x31C JUMP JUMPDEST CALLVALUE DUP1 ISZERO PUSH2 0x579 JUMPI PUSH1 0x0 DUP1 REVERT JUMPDEST POP PUSH1 0x5 SLOAD PUSH2 0x35B JUMP JUMPDEST CALLVALUE DUP1 ISZERO PUSH2 0x58E JUMPI PUSH1 0x0 DUP1 REVERT JUMPDEST POP PUSH2 0x35B PUSH2 0x15CF JUMP JUMPDEST CALLVALUE DUP1 ISZERO PUSH2 0x5A3 JUMPI PUSH1 0x0 DUP1 REVERT JUMPDEST POP PUSH2 0x35B PUSH2 0x5B2 CALLDATASIZE PUSH1 0x4 PUSH2 0x1DA8 JUMP JUMPDEST PUSH1 0x1 PUSH1 0x1 PUSH1 0xA0 SHL SUB AND PUSH1 0x0 SWAP1 DUP2 MSTORE PUSH1 0x7 PUSH1 0x20 MSTORE PUSH1 0x40 SWAP1 KECCAK256 SLOAD SWAP1 JUMP JUMPDEST CALLVALUE DUP1 ISZERO PUSH2 0x5D9 JUMPI PUSH1 0x0 DUP1 REVERT JUMPDEST POP PUSH1 0x11 SLOAD PUSH2 0x35B JUMP JUMPDEST CALLVALUE DUP1 ISZERO PUSH2 0x5EE JUMPI PUSH1 0x0 DUP1 REVERT JUMPDEST POP PUSH2 0x25F PUSH2 0x5FD CALLDATASIZE PUSH1 0x4 PUSH2 0x1DD8 JUMP JUMPDEST PUSH2 0x15ED JUMP JUMPDEST CALLVALUE DUP1 ISZERO PUSH2 0x60E JUMPI PUSH1 0x0 DUP1 REVERT JUMPDEST POP PUSH2 0x25F PUSH2 0x61D CALLDATASIZE PUSH1 0x4 PUSH2 0x1DD8 JUMP JUMPDEST PUSH2 0x1621 JUMP JUMPDEST PUSH2 0x25F PUSH2 0x1655 JUMP JUMPDEST CALLVALUE DUP1 ISZERO PUSH2 0x636 JUMPI PUSH1 0x0 DUP1 REVERT JUMPDEST POP TIMESTAMP PUSH2 0x35B JUMP JUMPDEST CALLVALUE DUP1 ISZERO PUSH2 0x649 JUMPI PUSH1 0x0 DUP1 REVERT JUMPDEST POP PUSH2 0x25F PUSH2 0x1697 JUMP JUMPDEST CALLVALUE DUP1 ISZERO PUSH2 0x65E JUMPI PUSH1 0x0 DUP1 REVERT JUMPDEST POP PUSH2 0x25F PUSH2 0x66D CALLDATASIZE PUSH1 0x4 PUSH2 0x1DA8 JUMP JUMPDEST PUSH2 0x19CB JUMP JUMPDEST CALLVALUE DUP1 ISZERO PUSH2 0x67E JUMPI PUSH1 0x0 DUP1 REVERT JUMPDEST POP PUSH2 0x35B PUSH2 0x1A41 JUMP JUMPDEST CALLVALUE DUP1 ISZERO PUSH2 0x693 JUMPI PUSH1 0x0 DUP1 REVERT JUMPDEST POP PUSH2 0x25F PUSH2 0x6A2 CALLDATASIZE PUSH1 0x4 PUSH2 0x1DD8 JUMP JUMPDEST PUSH2 0x1A64 JUMP JUMPDEST PUSH1 0x15 SLOAD PUSH1 0x0 SWAP1 PUSH1 0xFF AND ISZERO PUSH2 0x6BB JUMPI POP PUSH1 0x4 SWAP1 JUMP JUMPDEST PUSH1 0x11 SLOAD PUSH2 0x6CA SWAP1 PUSH2 0x3E8 PUSH2 0x1A98 JUMP JUMPDEST TIMESTAMP LT ISZERO PUSH2 0x6D7 JUMPI POP PUSH1 0x1 SWAP1 JUMP JUMPDEST PUSH1 0x12 SLOAD PUSH2 0x6E6 SWAP1 PUSH2 0x3E8 PUSH2 0x1A98 JUMP JUMPDEST TIMESTAMP LT ISZERO PUSH2 0x6F3 JUMPI POP PUSH1 0x2 SWAP1 JUMP JUMPDEST POP PUSH1 0x3 SWAP1 JUMP JUMPDEST PUSH2 0x703 DUP4 DUP3 PUSH2 0x1AAD JUMP JUMPDEST PUSH1 0x1 PUSH1 0x1 PUSH1 0xA0 SHL SUB DUP4 AND PUSH1 0x0 SWAP1 DUP2 MSTORE PUSH1 0x3 PUSH1 0x20 MSTORE PUSH1 0x40 SWAP1 KECCAK256 SLOAD PUSH2 0x736 JUMPI PUSH1 0x4 DUP1 SLOAD SWAP1 PUSH1 0x0 PUSH2 0x730 DUP4 PUSH2 0x1E07 JUMP JUMPDEST SWAP2 SWAP1 POP SSTORE POP JUMPDEST PUSH1 0x5 SLOAD PUSH2 0x743 SWAP1 DUP3 PUSH2 0x1B6A JUMP JUMPDEST PUSH1 0x5 SSTORE PUSH1 0x1 PUSH1 0x1 PUSH1 0xA0 SHL SUB DUP4 AND PUSH1 0x0 SWAP1 DUP2 MSTORE PUSH1 0x3 PUSH1 0x20 MSTORE PUSH1 0x40 SWAP1 KECCAK256 SLOAD PUSH2 0x769 SWAP1 DUP3 PUSH2 0x1B6A JUMP JUMPDEST PUSH1 0x1 PUSH1 0x1 PUSH1 0xA0 SHL SUB DUP5 AND PUSH1 0x0 SWAP1 DUP2 MSTORE PUSH1 0x3 PUSH1 0x20 MSTORE PUSH1 0x40 SWAP1 KECCAK256 SSTORE PUSH1 0xF SLOAD ISZERO PUSH2 0x985 JUMPI PUSH1 0x1 PUSH1 0x1 PUSH1 0xA0 SHL SUB DUP3 AND PUSH1 0x0 SWAP1 DUP2 MSTORE PUSH1 0x7 PUSH1 0x20 MSTORE PUSH1 0x40 SWAP1 KECCAK256 SLOAD PUSH2 0x7BD JUMPI PUSH1 0x9 DUP1 SLOAD SWAP1 PUSH1 0x0 PUSH2 0x7B7 DUP4 PUSH2 0x1E07 JUMP JUMPDEST SWAP2 SWAP1 POP SSTORE POP JUMPDEST PUSH1 0x0 PUSH2 0x7DF PUSH1 0x64 PUSH2 0x7D9 PUSH1 0xF SLOAD DUP6 PUSH2 0x1B76 SWAP1 SWAP2 SWAP1 PUSH4 0xFFFFFFFF AND JUMP JUMPDEST SWAP1 PUSH2 0x1A98 JUMP JUMPDEST PUSH1 0x1 PUSH1 0x1 PUSH1 0xA0 SHL SUB DUP5 AND PUSH1 0x0 SWAP1 DUP2 MSTORE PUSH1 0x7 PUSH1 0x20 MSTORE PUSH1 0x40 SWAP1 KECCAK256 SLOAD SWAP1 SWAP2 POP PUSH2 0x805 SWAP1 DUP3 PUSH2 0x1B6A JUMP JUMPDEST PUSH1 0x1 PUSH1 0x1 PUSH1 0xA0 SHL SUB DUP1 DUP6 AND PUSH1 0x0 SWAP1 DUP2 MSTORE PUSH1 0x7 PUSH1 0x20 SWAP1 DUP2 MSTORE PUSH1 0x40 DUP1 DUP4 KECCAK256 SWAP5 SWAP1 SWAP5 SSTORE SWAP2 DUP8 AND DUP2 MSTORE PUSH1 0x8 SWAP1 SWAP2 MSTORE SWAP1 DUP2 KECCAK256 SWAP1 DUP1 JUMPDEST DUP3 SLOAD DUP2 LT ISZERO PUSH2 0x8ED JUMPI DUP6 PUSH1 0x1 PUSH1 0x1 PUSH1 0xA0 SHL SUB AND DUP4 DUP3 DUP2 SLOAD DUP2 LT PUSH2 0x85A JUMPI PUSH2 0x85A PUSH2 0x1E20 JUMP JUMPDEST PUSH1 0x0 SWAP2 DUP3 MSTORE PUSH1 0x20 SWAP1 SWAP2 KECCAK256 PUSH1 0x2 SWAP1 SWAP2 MUL ADD SLOAD PUSH1 0x1 PUSH1 0x1 PUSH1 0xA0 SHL SUB AND SUB PUSH2 0x8DB JUMPI PUSH2 0x8AF DUP6 DUP5 DUP4 DUP2 SLOAD DUP2 LT PUSH2 0x88F JUMPI PUSH2 0x88F PUSH2 0x1E20 JUMP JUMPDEST SWAP1 PUSH1 0x0 MSTORE PUSH1 0x20 PUSH1 0x0 KECCAK256 SWAP1 PUSH1 0x2 MUL ADD PUSH1 0x1 ADD SLOAD PUSH2 0x1B6A SWAP1 SWAP2 SWAP1 PUSH4 0xFFFFFFFF AND JUMP JUMPDEST DUP4 DUP3 DUP2 SLOAD DUP2 LT PUSH2 0x8C1 JUMPI PUSH2 0x8C1 PUSH2 0x1E20 JUMP JUMPDEST SWAP1 PUSH1 0x0 MSTORE PUSH1 0x20 PUSH1 0x0 KECCAK256 SWAP1 PUSH1 0x2 MUL ADD PUSH1 0x1 ADD DUP2 SWAP1 SSTORE POP PUSH1 0x1 SWAP2 POP JUMPDEST DUP1 PUSH2 0x8E5 DUP2 PUSH2 0x1E07 JUMP JUMPDEST SWAP2 POP POP PUSH2 0x835 JUMP JUMPDEST POP DUP1 PUSH2 0x94A JUMPI PUSH1 0x40 DUP1 MLOAD DUP1 DUP3 ADD SWAP1 SWAP2 MSTORE PUSH1 0x1 PUSH1 0x1 PUSH1 0xA0 SHL SUB DUP7 DUP2 AND DUP3 MSTORE PUSH1 0x20 DUP1 DUP4 ADD DUP8 DUP2 MSTORE DUP6 SLOAD PUSH1 0x1 DUP1 DUP3 ADD DUP9 SSTORE PUSH1 0x0 DUP9 DUP2 MSTORE SWAP4 SWAP1 SWAP4 KECCAK256 SWAP5 MLOAD PUSH1 0x2 SWAP1 SWAP2 MUL SWAP1 SWAP5 ADD DUP1 SLOAD PUSH1 0x1 PUSH1 0x1 PUSH1 0xA0 SHL SUB NOT AND SWAP5 SWAP1 SWAP4 AND SWAP4 SWAP1 SWAP4 OR DUP3 SSTORE SWAP2 MLOAD SWAP2 ADD SSTORE JUMPDEST PUSH1 0x1 PUSH1 0x1 PUSH1 0xA0 SHL SUB DUP7 AND PUSH1 0x0 SWAP1 DUP2 MSTORE PUSH1 0x8 PUSH1 0x20 MSTORE PUSH1 0x40 SWAP1 KECCAK256 DUP3 SLOAD PUSH2 0x970 SWAP2 SWAP1 DUP5 SWAP1 PUSH2 0x1D0A JUMP JUMPDEST POP PUSH1 0xA SLOAD PUSH2 0x97E SWAP1 DUP5 PUSH2 0x1B6A JUMP JUMPDEST PUSH1 0xA SSTORE POP POP POP JUMPDEST POP POP POP JUMP JUMPDEST PUSH1 0x15 SLOAD PUSH1 0xFF AND DUP1 PUSH2 0x9C2 JUMPI POP PUSH2 0x99E PUSH2 0x6A7 JUMP JUMPDEST PUSH1 0x3 EQ DUP1 ISZERO PUSH2 0x9C2 JUMPI POP PUSH1 0x10 SLOAD PUSH2 0x9BD SWAP1 PUSH8 0xDE0B6B3A7640000 PUSH2 0x1B76 JUMP JUMPDEST PUSH1 0x5 SLOAD LT JUMPDEST PUSH2 0xA03 JUMPI PUSH1 0x40 MLOAD PUSH3 0x461BCD PUSH1 0xE5 SHL DUP2 MSTORE PUSH1 0x20 PUSH1 0x4 DUP3 ADD MSTORE PUSH1 0x12 PUSH1 0x24 DUP3 ADD MSTORE PUSH18 0x1499599D5B99081B9BDD081CDD185C9D1959 PUSH1 0x72 SHL PUSH1 0x44 DUP3 ADD MSTORE PUSH1 0x64 ADD PUSH2 0x296 JUMP JUMPDEST CALLER PUSH1 0x0 SWAP1 DUP2 MSTORE PUSH1 0x3 PUSH1 0x20 MSTORE PUSH1 0x40 SWAP1 KECCAK256 SLOAD DUP1 PUSH2 0xA56 JUMPI PUSH1 0x40 MLOAD PUSH3 0x461BCD PUSH1 0xE5 SHL DUP2 MSTORE PUSH1 0x20 PUSH1 0x4 DUP3 ADD MSTORE PUSH1 0x13 PUSH1 0x24 DUP3 ADD MSTORE PUSH19 0x4E6F20526566756E6420417661696C61626C65 PUSH1 0x68 SHL PUSH1 0x44 DUP3 ADD MSTORE PUSH1 0x64 ADD PUSH2 0x296 JUMP JUMPDEST DUP1 SELFBALANCE LT PUSH2 0xAAA JUMPI CALLER PUSH1 0x0 DUP2 DUP2 MSTORE PUSH1 0x3 PUSH1 0x20 MSTORE PUSH1 0x40 DUP1 DUP3 KECCAK256 DUP3 SWAP1 SSTORE MLOAD PUSH2 0x8FC DUP5 ISZERO MUL SWAP2 DUP5 SWAP2 SWAP1 DUP2 DUP2 DUP2 DUP6 DUP9 DUP9 CALL SWAP4 POP POP POP POP ISZERO DUP1 ISZERO PUSH2 0xA98 JUMPI RETURNDATASIZE PUSH1 0x0 DUP1 RETURNDATACOPY RETURNDATASIZE PUSH1 0x0 REVERT JUMPDEST POP PUSH1 0x6 SLOAD PUSH2 0xAA6 SWAP1 DUP3 PUSH2 0x1B82 JUMP JUMPDEST PUSH1 0x6 SSTORE JUMPDEST POP JUMP JUMPDEST PUSH2 0xAB5 PUSH2 0x1B8E JUMP JUMPDEST PUSH1 0x1 PUSH1 0x1 PUSH1 0xA0 SHL SUB DUP2 AND PUSH2 0xAFD JUMPI PUSH1 0x40 MLOAD PUSH3 0x461BCD PUSH1 0xE5 SHL DUP2 MSTORE PUSH1 0x20 PUSH1 0x4 DUP3 ADD MSTORE PUSH1 0xF PUSH1 0x24 DUP3 ADD MSTORE PUSH15 0x61646472657373206973207A65726F PUSH1 0x88 SHL PUSH1 0x44 DUP3 ADD MSTORE PUSH1 0x64 ADD PUSH2 0x296 JUMP JUMPDEST PUSH1 0x1 PUSH1 0x1 PUSH1 0xA0 SHL SUB AND PUSH1 0x0 SWAP1 DUP2 MSTORE PUSH1 0x2 PUSH1 0x20 MSTORE PUSH1 0x40 SWAP1 KECCAK256 DUP1 SLOAD PUSH1 0xFF NOT AND SWAP1 SSTORE JUMP JUMPDEST PUSH2 0xB26 PUSH2 0x1BE8 JUMP JUMPDEST PUSH2 0xB2E PUSH2 0x6A7 JUMP JUMPDEST PUSH1 0x2 EQ PUSH2 0xB4D JUMPI PUSH1 0x40 MLOAD PUSH3 0x461BCD PUSH1 0xE5 SHL DUP2 MSTORE PUSH1 0x4 ADD PUSH2 0x296 SWAP1 PUSH2 0x1E36 JUMP JUMPDEST PUSH2 0xB55 PUSH2 0x1B8E JUMP JUMPDEST PUSH1 0x5 SLOAD PUSH1 0x6 SSTORE PUSH1 0x15 DUP1 SLOAD PUSH1 0xFF NOT AND PUSH1 0x1 OR SWAP1 SSTORE PUSH1 0x0 PUSH1 0x12 SSTORE PUSH1 0xB SLOAD PUSH1 0x40 MLOAD PUSH4 0x70A08231 PUSH1 0xE0 SHL DUP2 MSTORE ADDRESS PUSH1 0x4 DUP3 ADD MSTORE PUSH1 0x1 PUSH1 0x1 PUSH1 0xA0 SHL SUB SWAP1 SWAP2 AND SWAP1 PUSH4 0xA9059CBB SWAP1 CALLER SWAP1 DUP4 SWAP1 PUSH4 0x70A08231 SWAP1 PUSH1 0x24 ADD PUSH1 0x20 PUSH1 0x40 MLOAD DUP1 DUP4 SUB DUP2 DUP7 GAS STATICCALL ISZERO DUP1 ISZERO PUSH2 0xBBF JUMPI RETURNDATASIZE PUSH1 0x0 DUP1 RETURNDATACOPY RETURNDATASIZE PUSH1 0x0 REVERT JUMPDEST POP POP POP POP PUSH1 0x40 MLOAD RETURNDATASIZE PUSH1 0x1F NOT PUSH1 0x1F DUP3 ADD AND DUP3 ADD DUP1 PUSH1 0x40 MSTORE POP DUP2 ADD SWAP1 PUSH2 0xBE3 SWAP2 SWAP1 PUSH2 0x1E62 JUMP JUMPDEST PUSH1 0x40 MLOAD PUSH1 0x1 PUSH1 0x1 PUSH1 0xE0 SHL SUB NOT PUSH1 0xE0 DUP6 SWAP1 SHL AND DUP2 MSTORE PUSH1 0x1 PUSH1 0x1 PUSH1 0xA0 SHL SUB SWAP1 SWAP3 AND PUSH1 0x4 DUP4 ADD MSTORE PUSH1 0x24 DUP3 ADD MSTORE PUSH1 0x44 ADD PUSH1 0x20 PUSH1 0x40 MLOAD DUP1 DUP4 SUB DUP2 PUSH1 0x0 DUP8 GAS CALL ISZERO DUP1 ISZERO PUSH2 0xC2E JUMPI RETURNDATASIZE PUSH1 0x0 DUP1 RETURNDATACOPY RETURNDATASIZE PUSH1 0x0 REVERT JUMPDEST POP POP POP POP PUSH1 0x40 MLOAD RETURNDATASIZE PUSH1 0x1F NOT PUSH1 0x1F DUP3 ADD AND DUP3 ADD DUP1 PUSH1 0x40 MSTORE POP DUP2 ADD SWAP1 PUSH2 0xC52 SWAP2 SWAP1 PUSH2 0x1E7B JUMP JUMPDEST POP PUSH32 0x6F9AA0523F9D8C5443C3C3FF14E19708756D32D385962578A1F60A8ADCFA6170 ADDRESS PUSH2 0xC87 PUSH1 0x1 SLOAD PUSH1 0x1 PUSH1 0x1 PUSH1 0xA0 SHL SUB AND SWAP1 JUMP JUMPDEST PUSH1 0x6 SLOAD PUSH1 0x40 DUP1 MLOAD PUSH1 0x1 PUSH1 0x1 PUSH1 0xA0 SHL SUB SWAP5 DUP6 AND DUP2 MSTORE SWAP4 SWAP1 SWAP3 AND PUSH1 0x20 DUP5 ADD MSTORE SWAP1 DUP3 ADD MSTORE PUSH1 0x80 PUSH1 0x60 DUP3 ADD DUP2 SWAP1 MSTORE PUSH1 0x9 SWAP1 DUP3 ADD MSTORE PUSH9 0x10D85B98D95B1B1959 PUSH1 0xBA SHL PUSH1 0xA0 DUP3 ADD MSTORE PUSH1 0xC0 ADD PUSH1 0x40 MLOAD DUP1 SWAP2 SUB SWAP1 LOG1 PUSH2 0xCDE PUSH1 0x1 PUSH1 0x0 SSTORE JUMP JUMPDEST JUMP JUMPDEST CALLER PUSH20 0x75280424F429FEF999C56EB0C2CC2F9095C0CF05 EQ PUSH2 0xD2F JUMPI PUSH1 0x40 MLOAD PUSH3 0x461BCD PUSH1 0xE5 SHL DUP2 MSTORE PUSH1 0x20 PUSH1 0x4 DUP3 ADD MSTORE PUSH1 0x9 PUSH1 0x24 DUP3 ADD MSTORE PUSH9 0x4F6E6C7920426F7373 PUSH1 0xB8 SHL PUSH1 0x44 DUP3 ADD MSTORE PUSH1 0x64 ADD PUSH2 0x296 JUMP JUMPDEST PUSH1 0xB SLOAD PUSH1 0x40 MLOAD PUSH4 0x70A08231 PUSH1 0xE0 SHL DUP2 MSTORE ADDRESS PUSH1 0x4 DUP3 ADD MSTORE PUSH1 0x0 SWAP2 PUSH1 0x1 PUSH1 0x1 PUSH1 0xA0 SHL SUB AND SWAP1 PUSH4 0x70A08231 SWAP1 PUSH1 0x24 ADD PUSH1 0x20 PUSH1 0x40 MLOAD DUP1 DUP4 SUB DUP2 DUP7 GAS STATICCALL ISZERO DUP1 ISZERO PUSH2 0xD78 JUMPI RETURNDATASIZE PUSH1 0x0 DUP1 RETURNDATACOPY RETURNDATASIZE PUSH1 0x0 REVERT JUMPDEST POP POP POP POP PUSH1 0x40 MLOAD RETURNDATASIZE PUSH1 0x1F NOT PUSH1 0x1F DUP3 ADD AND DUP3 ADD DUP1 PUSH1 0x40 MSTORE POP DUP2 ADD SWAP1 PUSH2 0xD9C SWAP2 SWAP1 PUSH2 0x1E62 JUMP JUMPDEST GT PUSH2 0xDD5 JUMPI PUSH1 0x40 MLOAD PUSH3 0x461BCD PUSH1 0xE5 SHL DUP2 MSTORE PUSH1 0x20 PUSH1 0x4 DUP3 ADD MSTORE PUSH1 0x9 PUSH1 0x24 DUP3 ADD MSTORE PUSH9 0x4E6F20546F6B656E73 PUSH1 0xB8 SHL PUSH1 0x44 DUP3 ADD MSTORE PUSH1 0x64 ADD PUSH2 0x296 JUMP JUMPDEST PUSH1 0xB SLOAD PUSH1 0x40 MLOAD PUSH4 0x70A08231 PUSH1 0xE0 SHL DUP2 MSTORE ADDRESS PUSH1 0x4 DUP3 ADD MSTORE PUSH1 0x1 PUSH1 0x1 PUSH1 0xA0 SHL SUB SWAP1 SWAP2 AND SWAP1 PUSH4 0xA9059CBB SWAP1 CALLER SWAP1 DUP4 SWAP1 PUSH4 0x70A08231 SWAP1 PUSH1 0x24 ADD PUSH1 0x20 PUSH1 0x40 MLOAD DUP1 DUP4 SUB DUP2 DUP7 GAS STATICCALL ISZERO DUP1 ISZERO PUSH2 0xE27 JUMPI RETURNDATASIZE PUSH1 0x0 DUP1 RETURNDATACOPY RETURNDATASIZE PUSH1 0x0 REVERT JUMPDEST POP POP POP POP PUSH1 0x40 MLOAD RETURNDATASIZE PUSH1 0x1F NOT PUSH1 0x1F DUP3 ADD AND DUP3 ADD DUP1 PUSH1 0x40 MSTORE POP DUP2 ADD SWAP1 PUSH2 0xE4B SWAP2 SWAP1 PUSH2 0x1E62 JUMP JUMPDEST PUSH1 0x40 MLOAD PUSH1 0x1 PUSH1 0x1 PUSH1 0xE0 SHL SUB NOT PUSH1 0xE0 DUP6 SWAP1 SHL AND DUP2 MSTORE PUSH1 0x1 PUSH1 0x1 PUSH1 0xA0 SHL SUB SWAP1 SWAP3 AND PUSH1 0x4 DUP4 ADD MSTORE PUSH1 0x24 DUP3 ADD MSTORE PUSH1 0x44 ADD PUSH1 0x20 PUSH1 0x40 MLOAD DUP1 DUP4 SUB DUP2 PUSH1 0x0 DUP8 GAS CALL ISZERO DUP1 ISZERO PUSH2 0xE96 JUMPI RETURNDATASIZE PUSH1 0x0 DUP1 RETURNDATACOPY RETURNDATASIZE PUSH1 0x0 REVERT JUMPDEST POP POP POP POP PUSH1 0x40 MLOAD RETURNDATASIZE PUSH1 0x1F NOT PUSH1 0x1F DUP3 ADD AND DUP3 ADD DUP1 PUSH1 0x40 MSTORE POP DUP2 ADD SWAP1 PUSH2 0xAAA SWAP2 SWAP1 PUSH2 0x1E7B JUMP JUMPDEST CALLER PUSH1 0x0 SWAP1 DUP2 MSTORE PUSH1 0x2 PUSH1 0x20 MSTORE PUSH1 0x40 SWAP1 KECCAK256 SLOAD PUSH1 0xFF AND PUSH2 0xEE9 JUMPI PUSH1 0x40 MLOAD PUSH3 0x461BCD PUSH1 0xE5 SHL DUP2 MSTORE PUSH1 0x4 ADD PUSH2 0x296 SWAP1 PUSH2 0x1E9D JUMP JUMPDEST PUSH2 0xEF1 PUSH2 0x6A7 JUMP JUMPDEST PUSH1 0x1 EQ PUSH2 0xF34 JUMPI PUSH1 0x40 MLOAD PUSH3 0x461BCD PUSH1 0xE5 SHL DUP2 MSTORE PUSH1 0x20 PUSH1 0x4 DUP3 ADD MSTORE PUSH1 0x11 PUSH1 0x24 DUP3 ADD MSTORE PUSH17 0x24A1A79030B63932B0B23C903132B3B0B7 PUSH1 0x79 SHL PUSH1 0x44 DUP3 ADD MSTORE PUSH1 0x64 ADD PUSH2 0x296 JUMP JUMPDEST PUSH1 0x11 SSTORE JUMP JUMPDEST PUSH2 0xF41 PUSH2 0x1BE8 JUMP JUMPDEST PUSH2 0xF49 PUSH2 0x6A7 JUMP JUMPDEST PUSH1 0x3 EQ PUSH2 0xF8C JUMPI PUSH1 0x40 MLOAD PUSH3 0x461BCD PUSH1 0xE5 SHL DUP2 MSTORE PUSH1 0x20 PUSH1 0x4 DUP3 ADD MSTORE PUSH1 0x11 PUSH1 0x24 DUP3 ADD MSTORE PUSH17 0x24B73B30B634B21027B832B930BA34B7B7 PUSH1 0x79 SHL PUSH1 0x44 DUP3 ADD MSTORE PUSH1 0x64 ADD PUSH2 0x296 JUMP JUMPDEST PUSH1 0x10 SLOAD PUSH2 0xFA1 SWAP1 PUSH8 0xDE0B6B3A7640000 PUSH2 0x1B76 JUMP JUMPDEST PUSH1 0x5 SLOAD LT ISZERO PUSH2 0xFE8 JUMPI PUSH1 0x40 MLOAD PUSH3 0x461BCD PUSH1 0xE5 SHL DUP2 MSTORE PUSH1 0x20 PUSH1 0x4 DUP3 ADD MSTORE PUSH1 0x13 PUSH1 0x24 DUP3 ADD MSTORE PUSH19 0x14DBD99D18D85C081B9BDD081C995858DA1959 PUSH1 0x6A SHL PUSH1 0x44 DUP3 ADD MSTORE PUSH1 0x64 ADD PUSH2 0x296 JUMP JUMPDEST CALLER PUSH1 0x0 SWAP1 DUP2 MSTORE PUSH1 0x3 PUSH1 0x20 MSTORE PUSH1 0x40 SWAP1 KECCAK256 SLOAD PUSH2 0x103C JUMPI PUSH1 0x40 MLOAD PUSH3 0x461BCD PUSH1 0xE5 SHL DUP2 MSTORE PUSH1 0x20 PUSH1 0x4 DUP3 ADD MSTORE PUSH1 0x15 PUSH1 0x24 DUP3 ADD MSTORE PUSH21 0x139BC818DBDB9D1C9A589D5D1A5BDB88199BDD5B99 PUSH1 0x5A SHL PUSH1 0x44 DUP3 ADD MSTORE PUSH1 0x64 ADD PUSH2 0x296 JUMP JUMPDEST CALLER PUSH1 0x0 SWAP1 DUP2 MSTORE PUSH1 0x3 PUSH1 0x20 MSTORE PUSH1 0x40 DUP2 KECCAK256 SLOAD PUSH2 0x1054 PUSH2 0x1A41 JUMP JUMPDEST PUSH2 0x105E SWAP2 SWAP1 PUSH2 0x1FCC JUMP JUMPDEST SWAP1 POP PUSH2 0x106A CALLER DUP3 PUSH2 0x1C41 JUMP JUMPDEST POP CALLER PUSH1 0x0 SWAP1 DUP2 MSTORE PUSH1 0x3 PUSH1 0x20 MSTORE PUSH1 0x40 DUP2 KECCAK256 DUP2 SWAP1 SSTORE PUSH1 0x1 SWAP1 SSTORE JUMP JUMPDEST PUSH2 0x108B PUSH2 0x6A7 JUMP JUMPDEST PUSH1 0x3 EQ PUSH2 0x10CE JUMPI PUSH1 0x40 MLOAD PUSH3 0x461BCD PUSH1 0xE5 SHL DUP2 MSTORE PUSH1 0x20 PUSH1 0x4 DUP3 ADD MSTORE PUSH1 0x11 PUSH1 0x24 DUP3 ADD MSTORE PUSH17 0x24B73B30B634B21027B832B930BA34B7B7 PUSH1 0x79 SHL PUSH1 0x44 DUP3 ADD MSTORE PUSH1 0x64 ADD PUSH2 0x296 JUMP JUMPDEST PUSH1 0x10 SLOAD PUSH2 0x10E3 SWAP1 PUSH8 0xDE0B6B3A7640000 PUSH2 0x1B76 JUMP JUMPDEST PUSH1 0x5 SLOAD LT ISZERO PUSH2 0x112A JUMPI PUSH1 0x40 MLOAD PUSH3 0x461BCD PUSH1 0xE5 SHL DUP2 MSTORE PUSH1 0x20 PUSH1 0x4 DUP3 ADD MSTORE PUSH1 0x13 PUSH1 0x24 DUP3 ADD MSTORE PUSH19 0x14DBD99D18D85C081B9BDD081C995858DA1959 PUSH1 0x6A SHL PUSH1 0x44 DUP3 ADD MSTORE PUSH1 0x64 ADD PUSH2 0x296 JUMP JUMPDEST PUSH2 0x1132 PUSH2 0x1B8E JUMP JUMPDEST PUSH1 0x0 PUSH2 0x1150 PUSH1 0x64 PUSH2 0x7D9 PUSH1 0x5 SLOAD PUSH1 0xE SLOAD PUSH2 0x1B76 SWAP1 SWAP2 SWAP1 PUSH4 0xFFFFFFFF AND JUMP JUMPDEST PUSH1 0x40 MLOAD SWAP1 SWAP2 POP PUSH20 0x75280424F429FEF999C56EB0C2CC2F9095C0CF05 SWAP1 DUP3 ISZERO PUSH2 0x8FC MUL SWAP1 DUP4 SWAP1 PUSH1 0x0 DUP2 DUP2 DUP2 DUP6 DUP9 DUP9 CALL SWAP4 POP POP POP POP ISZERO DUP1 ISZERO PUSH2 0x1194 JUMPI RETURNDATASIZE PUSH1 0x0 DUP1 RETURNDATACOPY RETURNDATASIZE PUSH1 0x0 REVERT JUMPDEST POP PUSH1 0x5 SLOAD CALLER SWAP1 PUSH2 0x8FC SWAP1 PUSH2 0x11A8 SWAP1 DUP5 PUSH2 0x1B82 JUMP JUMPDEST PUSH1 0x40 MLOAD DUP2 ISZERO SWAP1 SWAP3 MUL SWAP2 PUSH1 0x0 DUP2 DUP2 DUP2 DUP6 DUP9 DUP9 CALL SWAP4 POP POP POP POP ISZERO DUP1 ISZERO PUSH2 0x11D0 JUMPI RETURNDATASIZE PUSH1 0x0 DUP1 RETURNDATACOPY RETURNDATASIZE PUSH1 0x0 REVERT JUMPDEST POP PUSH32 0x874F886A60392ABB180676546B433D61143FDC5753868148C3EC0EDF699CDA7E ADDRESS PUSH2 0x1205 PUSH1 0x1 SLOAD PUSH1 0x1 PUSH1 0x1 PUSH1 0xA0 SHL SUB AND SWAP1 JUMP JUMPDEST PUSH1 0x5 SLOAD PUSH1 0x40 DUP1 MLOAD PUSH1 0x1 PUSH1 0x1 PUSH1 0xA0 SHL SUB SWAP5 DUP6 AND DUP2 MSTORE SWAP4 SWAP1 SWAP3 AND PUSH1 0x20 DUP5 ADD MSTORE SWAP1 DUP3 ADD MSTORE PUSH1 0x60 ADD PUSH1 0x40 MLOAD DUP1 SWAP2 SUB SWAP1 LOG1 POP JUMP JUMPDEST CALLER PUSH20 0x75280424F429FEF999C56EB0C2CC2F9095C0CF05 EQ PUSH2 0x1283 JUMPI PUSH1 0x40 MLOAD PUSH3 0x461BCD PUSH1 0xE5 SHL DUP2 MSTORE PUSH1 0x20 PUSH1 0x4 DUP3 ADD MSTORE PUSH1 0x9 PUSH1 0x24 DUP3 ADD MSTORE PUSH9 0x4F6E6C7920426F7373 PUSH1 0xB8 SHL PUSH1 0x44 DUP3 ADD MSTORE PUSH1 0x64 ADD PUSH2 0x296 JUMP JUMPDEST PUSH1 0x0 SELFBALANCE GT PUSH2 0x12BF JUMPI PUSH1 0x40 MLOAD PUSH3 0x461BCD PUSH1 0xE5 SHL DUP2 MSTORE PUSH1 0x20 PUSH1 0x4 DUP3 ADD MSTORE PUSH1 0x9 PUSH1 0x24 DUP3 ADD MSTORE PUSH9 0x4E6F20457468657273 PUSH1 0xB8 SHL PUSH1 0x44 DUP3 ADD MSTORE PUSH1 0x64 ADD PUSH2 0x296 JUMP JUMPDEST PUSH1 0x40 MLOAD CALLER SWAP1 SELFBALANCE DUP1 ISZERO PUSH2 0x8FC MUL SWAP2 PUSH1 0x0 DUP2 DUP2 DUP2 DUP6 DUP9 DUP9 CALL SWAP4 POP POP POP POP ISZERO DUP1 ISZERO PUSH2 0xAAA JUMPI RETURNDATASIZE PUSH1 0x0 DUP1 RETURNDATACOPY RETURNDATASIZE PUSH1 0x0 REVERT JUMPDEST PUSH2 0x12F3 PUSH2 0x1B8E JUMP JUMPDEST PUSH1 0x1 PUSH1 0x1 PUSH1 0xA0 SHL SUB DUP2 AND PUSH2 0x133B JUMPI PUSH1 0x40 MLOAD PUSH3 0x461BCD PUSH1 0xE5 SHL DUP2 MSTORE PUSH1 0x20 PUSH1 0x4 DUP3 ADD MSTORE PUSH1 0xF PUSH1 0x24 DUP3 ADD MSTORE PUSH15 0x61646472657373206973207A65726F PUSH1 0x88 SHL PUSH1 0x44 DUP3 ADD MSTORE PUSH1 0x64 ADD PUSH2 0x296 JUMP JUMPDEST PUSH1 0x1 PUSH1 0x1 PUSH1 0xA0 SHL SUB AND PUSH1 0x0 SWAP1 DUP2 MSTORE PUSH1 0x2 PUSH1 0x20 MSTORE PUSH1 0x40 SWAP1 KECCAK256 DUP1 SLOAD PUSH1 0xFF NOT AND PUSH1 0x1 OR SWAP1 SSTORE JUMP JUMPDEST PUSH2 0x1367 PUSH2 0x1B8E JUMP JUMPDEST PUSH2 0xCDE PUSH1 0x0 PUSH2 0x1CB8 JUMP JUMPDEST PUSH2 0x1379 PUSH2 0x1BE8 JUMP JUMPDEST PUSH2 0x1381 PUSH2 0x6A7 JUMP JUMPDEST PUSH1 0x2 EQ PUSH2 0x13A0 JUMPI PUSH1 0x40 MLOAD PUSH3 0x461BCD PUSH1 0xE5 SHL DUP2 MSTORE PUSH1 0x4 ADD PUSH2 0x296 SWAP1 PUSH2 0x1E36 JUMP JUMPDEST PUSH2 0x13AB CALLER DUP3 CALLVALUE PUSH2 0x6F9 JUMP JUMPDEST PUSH2 0xAAA PUSH1 0x1 PUSH1 0x0 SSTORE JUMP JUMPDEST PUSH1 0x15 SLOAD PUSH1 0xFF AND DUP1 PUSH2 0x13ED JUMPI POP PUSH2 0x13C9 PUSH2 0x6A7 JUMP JUMPDEST PUSH1 0x3 EQ DUP1 ISZERO PUSH2 0x13ED JUMPI POP PUSH1 0x10 SLOAD PUSH2 0x13E8 SWAP1 PUSH8 0xDE0B6B3A7640000 PUSH2 0x1B76 JUMP JUMPDEST PUSH1 0x5 SLOAD LT JUMPDEST PUSH2 0x142E JUMPI PUSH1 0x40 MLOAD PUSH3 0x461BCD PUSH1 0xE5 SHL DUP2 MSTORE PUSH1 0x20 PUSH1 0x4 DUP3 ADD MSTORE PUSH1 0x12 PUSH1 0x24 DUP3 ADD MSTORE PUSH18 0x1499599D5B99081B9BDD081CDD185C9D1959 PUSH1 0x72 SHL PUSH1 0x44 DUP3 ADD MSTORE PUSH1 0x64 ADD PUSH2 0x296 JUMP JUMPDEST PUSH2 0x1436 PUSH2 0x1B8E JUMP JUMPDEST PUSH1 0xB SLOAD PUSH1 0x40 MLOAD PUSH4 0x70A08231 PUSH1 0xE0 SHL DUP2 MSTORE ADDRESS PUSH1 0x4 DUP3 ADD MSTORE PUSH1 0x1 PUSH1 0x1 PUSH1 0xA0 SHL SUB SWAP1 SWAP2 AND SWAP1 PUSH4 0xA9059CBB SWAP1 CALLER SWAP1 DUP4 SWAP1 PUSH4 0x70A08231 SWAP1 PUSH1 0x24 ADD PUSH1 0x20 PUSH1 0x40 MLOAD DUP1 DUP4 SUB DUP2 DUP7 GAS STATICCALL ISZERO DUP1 ISZERO PUSH2 0x1488 JUMPI RETURNDATASIZE PUSH1 0x0 DUP1 RETURNDATACOPY RETURNDATASIZE PUSH1 0x0 REVERT JUMPDEST POP POP POP POP PUSH1 0x40 MLOAD RETURNDATASIZE PUSH1 0x1F NOT PUSH1 0x1F DUP3 ADD AND DUP3 ADD DUP1 PUSH1 0x40 MSTORE POP DUP2 ADD SWAP1 PUSH2 0x14AC SWAP2 SWAP1 PUSH2 0x1E62 JUMP JUMPDEST PUSH1 0x40 MLOAD PUSH1 0x1 PUSH1 0x1 PUSH1 0xE0 SHL SUB NOT PUSH1 0xE0 DUP6 SWAP1 SHL AND DUP2 MSTORE PUSH1 0x1 PUSH1 0x1 PUSH1 0xA0 SHL SUB SWAP1 SWAP3 AND PUSH1 0x4 DUP4 ADD MSTORE PUSH1 0x24 DUP3 ADD MSTORE PUSH1 0x44 ADD PUSH1 0x20 PUSH1 0x40 MLOAD DUP1 DUP4 SUB DUP2 PUSH1 0x0 DUP8 GAS CALL ISZERO DUP1 ISZERO PUSH2 0x14F7 JUMPI RETURNDATASIZE PUSH1 0x0 DUP1 RETURNDATACOPY RETURNDATASIZE PUSH1 0x0 REVERT JUMPDEST POP POP POP POP PUSH1 0x40 MLOAD RETURNDATASIZE PUSH1 0x1F NOT PUSH1 0x1F DUP3 ADD AND DUP3 ADD DUP1 PUSH1 0x40 MSTORE POP DUP2 ADD SWAP1 PUSH2 0x151B SWAP2 SWAP1 PUSH2 0x1E7B JUMP JUMPDEST POP PUSH32 0x6F9AA0523F9D8C5443C3C3FF14E19708756D32D385962578A1F60A8ADCFA6170 ADDRESS PUSH2 0x1550 PUSH1 0x1 SLOAD PUSH1 0x1 PUSH1 0x1 PUSH1 0xA0 SHL SUB AND SWAP1 JUMP JUMPDEST PUSH1 0x6 SLOAD PUSH1 0x40 DUP1 MLOAD PUSH1 0x1 PUSH1 0x1 PUSH1 0xA0 SHL SUB SWAP5 DUP6 AND DUP2 MSTORE SWAP4 SWAP1 SWAP3 AND PUSH1 0x20 DUP5 ADD MSTORE SWAP1 DUP3 ADD MSTORE PUSH1 0x80 PUSH1 0x60 DUP3 ADD DUP2 SWAP1 MSTORE PUSH1 0x5 SWAP1 DUP3 ADD MSTORE PUSH5 0x115B991959 PUSH1 0xDA SHL PUSH1 0xA0 DUP3 ADD MSTORE PUSH1 0xC0 ADD PUSH1 0x40 MLOAD DUP1 SWAP2 SUB SWAP1 LOG1 JUMP JUMPDEST CALLER PUSH1 0x0 SWAP1 DUP2 MSTORE PUSH1 0x2 PUSH1 0x20 MSTORE PUSH1 0x40 SWAP1 KECCAK256 SLOAD PUSH1 0xFF AND PUSH2 0x15CA JUMPI PUSH1 0x40 MLOAD PUSH3 0x461BCD PUSH1 0xE5 SHL DUP2 MSTORE PUSH1 0x4 ADD PUSH2 0x296 SWAP1 PUSH2 0x1E9D JUMP JUMPDEST PUSH1 0x13 SSTORE JUMP JUMPDEST PUSH1 0x0 PUSH2 0x15E8 PUSH1 0x13 SLOAD PUSH1 0x14 SLOAD PUSH2 0x1A98 SWAP1 SWAP2 SWAP1 PUSH4 0xFFFFFFFF AND JUMP JUMPDEST SWAP1 POP SWAP1 JUMP JUMPDEST CALLER PUSH1 0x0 SWAP1 DUP2 MSTORE PUSH1 0x2 PUSH1 0x20 MSTORE PUSH1 0x40 SWAP1 KECCAK256 SLOAD PUSH1 0xFF AND PUSH2 0x161C JUMPI PUSH1 0x40 MLOAD PUSH3 0x461BCD PUSH1 0xE5 SHL DUP2 MSTORE PUSH1 0x4 ADD PUSH2 0x296 SWAP1 PUSH2 0x1E9D JUMP JUMPDEST PUSH1 0x12 SSTORE JUMP JUMPDEST CALLER PUSH1 0x0 SWAP1 DUP2 MSTORE PUSH1 0x2 PUSH1 0x20 MSTORE PUSH1 0x40 SWAP1 KECCAK256 SLOAD PUSH1 0xFF AND PUSH2 0x1650 JUMPI PUSH1 0x40 MLOAD PUSH3 0x461BCD PUSH1 0xE5 SHL DUP2 MSTORE PUSH1 0x4 ADD PUSH2 0x296 SWAP1 PUSH2 0x1E9D JUMP JUMPDEST PUSH1 0x10 SSTORE JUMP JUMPDEST PUSH2 0x165D PUSH2 0x1BE8 JUMP JUMPDEST PUSH2 0x1665 PUSH2 0x6A7 JUMP JUMPDEST PUSH1 0x2 EQ PUSH2 0x1684 JUMPI PUSH1 0x40 MLOAD PUSH3 0x461BCD PUSH1 0xE5 SHL DUP2 MSTORE PUSH1 0x4 ADD PUSH2 0x296 SWAP1 PUSH2 0x1E36 JUMP JUMPDEST PUSH2 0x168D CALLER PUSH2 0x24D JUMP JUMPDEST PUSH2 0xCDE PUSH1 0x1 PUSH1 0x0 SSTORE JUMP JUMPDEST PUSH2 0x169F PUSH2 0x1BE8 JUMP JUMPDEST PUSH2 0x16A7 PUSH2 0x6A7 JUMP JUMPDEST PUSH1 0x2 EQ PUSH2 0x16C6 JUMPI PUSH1 0x40 MLOAD PUSH3 0x461BCD PUSH1 0xE5 SHL DUP2 MSTORE PUSH1 0x4 ADD PUSH2 0x296 SWAP1 PUSH2 0x1E36 JUMP JUMPDEST CALLER PUSH1 0x0 SWAP1 DUP2 MSTORE PUSH1 0x3 PUSH1 0x20 MSTORE PUSH1 0x40 SWAP1 KECCAK256 SLOAD PUSH2 0x171A JUMPI PUSH1 0x40 MLOAD PUSH3 0x461BCD PUSH1 0xE5 SHL DUP2 MSTORE PUSH1 0x20 PUSH1 0x4 DUP3 ADD MSTORE PUSH1 0x15 PUSH1 0x24 DUP3 ADD MSTORE PUSH21 0x139BC818DBDB9D1C9A589D5D1A5BDB88199BDD5B99 PUSH1 0x5A SHL PUSH1 0x44 DUP3 ADD MSTORE PUSH1 0x64 ADD PUSH2 0x296 JUMP JUMPDEST CALLER PUSH1 0x0 SWAP1 DUP2 MSTORE PUSH1 0x3 PUSH1 0x20 MSTORE PUSH1 0x40 DUP2 KECCAK256 SLOAD SWAP1 PUSH2 0x173B PUSH1 0x64 PUSH2 0x7D9 PUSH1 0xA DUP6 PUSH2 0x1B76 JUMP JUMPDEST SWAP1 POP PUSH1 0x0 PUSH2 0x1749 DUP4 DUP4 PUSH2 0x1B82 JUMP JUMPDEST PUSH1 0x40 MLOAD SWAP1 SWAP2 POP PUSH20 0x75280424F429FEF999C56EB0C2CC2F9095C0CF05 SWAP1 DUP4 ISZERO PUSH2 0x8FC MUL SWAP1 DUP5 SWAP1 PUSH1 0x0 DUP2 DUP2 DUP2 DUP6 DUP9 DUP9 CALL SWAP4 POP POP POP POP ISZERO DUP1 ISZERO PUSH2 0x178D JUMPI RETURNDATASIZE PUSH1 0x0 DUP1 RETURNDATACOPY RETURNDATASIZE PUSH1 0x0 REVERT JUMPDEST POP PUSH1 0x40 MLOAD CALLER SWAP1 DUP3 ISZERO PUSH2 0x8FC MUL SWAP1 DUP4 SWAP1 PUSH1 0x0 DUP2 DUP2 DUP2 DUP6 DUP9 DUP9 CALL SWAP4 POP POP POP POP ISZERO DUP1 ISZERO PUSH2 0x17BB JUMPI RETURNDATASIZE PUSH1 0x0 DUP1 RETURNDATACOPY RETURNDATASIZE PUSH1 0x0 REVERT JUMPDEST POP PUSH1 0x4 DUP1 SLOAD SWAP1 PUSH1 0x0 PUSH2 0x17CC DUP4 PUSH2 0x1FD8 JUMP JUMPDEST SWAP1 SWAP2 SSTORE POP POP PUSH1 0x5 SLOAD PUSH2 0x17DE SWAP1 DUP5 PUSH2 0x1B82 JUMP JUMPDEST PUSH1 0x5 SSTORE CALLER PUSH1 0x0 SWAP1 DUP2 MSTORE PUSH1 0x3 PUSH1 0x20 MSTORE PUSH1 0x40 DUP2 KECCAK256 SSTORE PUSH1 0xF SLOAD ISZERO PUSH2 0x19BE JUMPI CALLER PUSH1 0x0 SWAP1 DUP2 MSTORE PUSH1 0x8 PUSH1 0x20 MSTORE PUSH1 0x40 DUP2 KECCAK256 SWAP1 JUMPDEST DUP2 SLOAD DUP2 LT ISZERO PUSH2 0x1974 JUMPI PUSH2 0x1899 PUSH2 0x1853 PUSH1 0x64 PUSH2 0x7D9 DUP6 DUP6 DUP2 SLOAD DUP2 LT PUSH2 0x1830 JUMPI PUSH2 0x1830 PUSH2 0x1E20 JUMP JUMPDEST SWAP1 PUSH1 0x0 MSTORE PUSH1 0x20 PUSH1 0x0 KECCAK256 SWAP1 PUSH1 0x2 MUL ADD PUSH1 0x1 ADD SLOAD PUSH1 0xF SLOAD PUSH2 0x1B76 SWAP1 SWAP2 SWAP1 PUSH4 0xFFFFFFFF AND JUMP JUMPDEST PUSH1 0x7 PUSH1 0x0 DUP6 DUP6 DUP2 SLOAD DUP2 LT PUSH2 0x1869 JUMPI PUSH2 0x1869 PUSH2 0x1E20 JUMP JUMPDEST PUSH1 0x0 SWAP2 DUP3 MSTORE PUSH1 0x20 DUP1 DUP4 KECCAK256 PUSH1 0x2 SWAP1 SWAP3 MUL SWAP1 SWAP2 ADD SLOAD PUSH1 0x1 PUSH1 0x1 PUSH1 0xA0 SHL SUB AND DUP4 MSTORE DUP3 ADD SWAP3 SWAP1 SWAP3 MSTORE PUSH1 0x40 ADD SWAP1 KECCAK256 SLOAD SWAP1 PUSH2 0x1B82 JUMP JUMPDEST PUSH1 0x7 PUSH1 0x0 DUP5 DUP5 DUP2 SLOAD DUP2 LT PUSH2 0x18AF JUMPI PUSH2 0x18AF PUSH2 0x1E20 JUMP JUMPDEST PUSH1 0x0 SWAP2 DUP3 MSTORE PUSH1 0x20 DUP1 DUP4 KECCAK256 PUSH1 0x2 SWAP1 SWAP3 MUL SWAP1 SWAP2 ADD SLOAD PUSH1 0x1 PUSH1 0x1 PUSH1 0xA0 SHL SUB AND DUP4 MSTORE DUP3 ADD SWAP3 SWAP1 SWAP3 MSTORE PUSH1 0x40 ADD DUP2 KECCAK256 SWAP2 SWAP1 SWAP2 SSTORE DUP3 SLOAD PUSH1 0x7 SWAP1 DUP3 SWAP1 DUP6 SWAP1 DUP6 SWAP1 DUP2 LT PUSH2 0x18F5 JUMPI PUSH2 0x18F5 PUSH2 0x1E20 JUMP JUMPDEST PUSH1 0x0 SWAP2 DUP3 MSTORE PUSH1 0x20 DUP1 DUP4 KECCAK256 PUSH1 0x2 SWAP1 SWAP3 MUL SWAP1 SWAP2 ADD SLOAD PUSH1 0x1 PUSH1 0x1 PUSH1 0xA0 SHL SUB AND DUP4 MSTORE DUP3 ADD SWAP3 SWAP1 SWAP3 MSTORE PUSH1 0x40 ADD SWAP1 KECCAK256 SLOAD GT PUSH2 0x193A JUMPI PUSH1 0x9 DUP1 SLOAD SWAP1 PUSH1 0x0 PUSH2 0x1934 DUP4 PUSH2 0x1FD8 JUMP JUMPDEST SWAP2 SWAP1 POP SSTORE POP JUMPDEST PUSH1 0x0 DUP3 DUP3 DUP2 SLOAD DUP2 LT PUSH2 0x194E JUMPI PUSH2 0x194E PUSH2 0x1E20 JUMP JUMPDEST PUSH1 0x0 SWAP2 DUP3 MSTORE PUSH1 0x20 SWAP1 SWAP2 KECCAK256 PUSH1 0x1 PUSH1 0x2 SWAP1 SWAP3 MUL ADD ADD SSTORE DUP1 PUSH2 0x196C DUP2 PUSH2 0x1E07 JUMP JUMPDEST SWAP2 POP POP PUSH2 0x180A JUMP JUMPDEST POP CALLER PUSH1 0x0 SWAP1 DUP2 MSTORE PUSH1 0x8 PUSH1 0x20 MSTORE PUSH1 0x40 SWAP1 KECCAK256 DUP2 SLOAD PUSH2 0x1992 SWAP2 SWAP1 DUP4 SWAP1 PUSH2 0x1D0A JUMP JUMPDEST POP PUSH2 0x19B9 PUSH2 0x19B0 PUSH1 0x64 PUSH2 0x7D9 DUP8 PUSH1 0xF SLOAD PUSH2 0x1B76 SWAP1 SWAP2 SWAP1 PUSH4 0xFFFFFFFF AND JUMP JUMPDEST PUSH1 0xA SLOAD SWAP1 PUSH2 0x1B82 JUMP JUMPDEST PUSH1 0xA SSTORE POP JUMPDEST POP POP POP PUSH2 0xCDE PUSH1 0x1 PUSH1 0x0 SSTORE JUMP JUMPDEST PUSH2 0x19D3 PUSH2 0x1B8E JUMP JUMPDEST PUSH1 0x1 PUSH1 0x1 PUSH1 0xA0 SHL SUB DUP2 AND PUSH2 0x1A38 JUMPI PUSH1 0x40 MLOAD PUSH3 0x461BCD PUSH1 0xE5 SHL DUP2 MSTORE PUSH1 0x20 PUSH1 0x4 DUP3 ADD MSTORE PUSH1 0x26 PUSH1 0x24 DUP3 ADD MSTORE PUSH32 0x4F776E61626C653A206E6577206F776E657220697320746865207A65726F2061 PUSH1 0x44 DUP3 ADD MSTORE PUSH6 0x646472657373 PUSH1 0xD0 SHL PUSH1 0x64 DUP3 ADD MSTORE PUSH1 0x84 ADD PUSH2 0x296 JUMP JUMPDEST PUSH2 0xAAA DUP2 PUSH2 0x1CB8 JUMP JUMPDEST PUSH1 0x0 PUSH2 0x15E8 PUSH1 0x5 SLOAD PUSH2 0x7D9 PUSH1 0xD SLOAD PUSH1 0xA PUSH2 0x1A5B SWAP2 SWAP1 PUSH2 0x1FCC JUMP JUMPDEST PUSH1 0x14 SLOAD SWAP1 PUSH2 0x1B76 JUMP JUMPDEST CALLER PUSH1 0x0 SWAP1 DUP2 MSTORE PUSH1 0x2 PUSH1 0x20 MSTORE PUSH1 0x40 SWAP1 KECCAK256 SLOAD PUSH1 0xFF AND PUSH2 0x1A93 JUMPI PUSH1 0x40 MLOAD PUSH3 0x461BCD PUSH1 0xE5 SHL DUP2 MSTORE PUSH1 0x4 ADD PUSH2 0x296 SWAP1 PUSH2 0x1E9D JUMP JUMPDEST PUSH1 0xF SSTORE JUMP JUMPDEST PUSH1 0x0 PUSH2 0x1AA4 DUP3 DUP5 PUSH2 0x1FEF JUMP JUMPDEST SWAP1 POP JUMPDEST SWAP3 SWAP2 POP POP JUMP JUMPDEST PUSH1 0x1 PUSH1 0x1 PUSH1 0xA0 SHL SUB DUP3 AND PUSH2 0x1B16 JUMPI PUSH1 0x40 MLOAD PUSH3 0x461BCD PUSH1 0xE5 SHL DUP2 MSTORE PUSH1 0x20 PUSH1 0x4 DUP3 ADD MSTORE PUSH1 0x2A PUSH1 0x24 DUP3 ADD MSTORE PUSH32 0x43726F776473616C653A2062656E656669636961727920697320746865207A65 PUSH1 0x44 DUP3 ADD MSTORE PUSH10 0x726F2061646472657373 PUSH1 0xB0 SHL PUSH1 0x64 DUP3 ADD MSTORE PUSH1 0x84 ADD PUSH2 0x296 JUMP JUMPDEST PUSH1 0x0 DUP2 GT PUSH2 0x1B66 JUMPI PUSH1 0x40 MLOAD PUSH3 0x461BCD PUSH1 0xE5 SHL DUP2 MSTORE PUSH1 0x20 PUSH1 0x4 DUP3 ADD MSTORE PUSH1 0x1B PUSH1 0x24 DUP3 ADD MSTORE PUSH32 0x496E76616C696420636F6E747269627574696F6E20616D6F756E740000000000 PUSH1 0x44 DUP3 ADD MSTORE PUSH1 0x64 ADD PUSH2 0x296 JUMP JUMPDEST POP POP JUMP JUMPDEST PUSH1 0x0 PUSH2 0x1AA4 DUP3 DUP5 PUSH2 0x2011 JUMP JUMPDEST PUSH1 0x0 PUSH2 0x1AA4 DUP3 DUP5 PUSH2 0x2024 JUMP JUMPDEST PUSH1 0x0 PUSH2 0x1AA4 DUP3 DUP5 PUSH2 0x203B JUMP JUMPDEST PUSH1 0x1 SLOAD PUSH1 0x1 PUSH1 0x1 PUSH1 0xA0 SHL SUB AND CALLER EQ PUSH2 0xCDE JUMPI PUSH1 0x40 MLOAD PUSH3 0x461BCD PUSH1 0xE5 SHL DUP2 MSTORE PUSH1 0x20 PUSH1 0x4 DUP3 ADD DUP2 SWAP1 MSTORE PUSH1 0x24 DUP3 ADD MSTORE PUSH32 0x4F776E61626C653A2063616C6C6572206973206E6F7420746865206F776E6572 PUSH1 0x44 DUP3 ADD MSTORE PUSH1 0x64 ADD PUSH2 0x296 JUMP JUMPDEST PUSH1 0x2 PUSH1 0x0 SLOAD SUB PUSH2 0x1C3A JUMPI PUSH1 0x40 MLOAD PUSH3 0x461BCD PUSH1 0xE5 SHL DUP2 MSTORE PUSH1 0x20 PUSH1 0x4 DUP3 ADD MSTORE PUSH1 0x1F PUSH1 0x24 DUP3 ADD MSTORE PUSH32 0x5265656E7472616E637947756172643A207265656E7472616E742063616C6C00 PUSH1 0x44 DUP3 ADD MSTORE PUSH1 0x64 ADD PUSH2 0x296 JUMP JUMPDEST PUSH1 0x2 PUSH1 0x0 SSTORE JUMP JUMPDEST PUSH1 0xB SLOAD PUSH1 0x40 MLOAD PUSH4 0xA9059CBB PUSH1 0xE0 SHL DUP2 MSTORE PUSH1 0x1 PUSH1 0x1 PUSH1 0xA0 SHL SUB DUP5 DUP2 AND PUSH1 0x4 DUP4 ADD MSTORE PUSH1 0x24 DUP3 ADD DUP5 SWAP1 MSTORE SWAP1 SWAP2 AND SWAP1 PUSH4 0xA9059CBB SWAP1 PUSH1 0x44 ADD PUSH1 0x20 PUSH1 0x40 MLOAD DUP1 DUP4 SUB DUP2 PUSH1 0x0 DUP8 GAS CALL ISZERO DUP1 ISZERO PUSH2 0x1C94 JUMPI RETURNDATASIZE PUSH1 0x0 DUP1 RETURNDATACOPY RETURNDATASIZE PUSH1 0x0 REVERT JUMPDEST POP POP POP POP PUSH1 0x40 MLOAD RETURNDATASIZE PUSH1 0x1F NOT PUSH1 0x1F DUP3 ADD AND DUP3 ADD DUP1 PUSH1 0x40 MSTORE POP DUP2 ADD SWAP1 PUSH2 0x985 SWAP2 SWAP1 PUSH2 0x1E7B JUMP JUMPDEST PUSH1 0x1 DUP1 SLOAD PUSH1 0x1 PUSH1 0x1 PUSH1 0xA0 SHL SUB DUP4 DUP2 AND PUSH1 0x1 PUSH1 0x1 PUSH1 0xA0 SHL SUB NOT DUP4 AND DUP2 OR SWAP1 SWAP4 SSTORE PUSH1 0x40 MLOAD SWAP2 AND SWAP2 SWAP1 DUP3 SWAP1 PUSH32 0x8BE0079C531659141344CD1FD0A4F28419497F9722A3DAAFE3B4186F6B6457E0 SWAP1 PUSH1 0x0 SWAP1 LOG3 POP POP JUMP JUMPDEST DUP3 DUP1 SLOAD DUP3 DUP3 SSTORE SWAP1 PUSH1 0x0 MSTORE PUSH1 0x20 PUSH1 0x0 KECCAK256 SWAP1 PUSH1 0x2 MUL DUP2 ADD SWAP3 DUP3 ISZERO PUSH2 0x1D72 JUMPI PUSH1 0x0 MSTORE PUSH1 0x20 PUSH1 0x0 KECCAK256 SWAP2 PUSH1 0x2 MUL DUP3 ADD JUMPDEST DUP3 DUP2 GT ISZERO PUSH2 0x1D72 JUMPI DUP3 SLOAD DUP3 SLOAD PUSH1 0x1 PUSH1 0x1 PUSH1 0xA0 SHL SUB NOT AND PUSH1 0x1 PUSH1 0x1 PUSH1 0xA0 SHL SUB SWAP1 SWAP2 AND OR DUP3 SSTORE PUSH1 0x1 DUP1 DUP5 ADD SLOAD SWAP1 DUP4 ADD SSTORE PUSH1 0x2 SWAP3 DUP4 ADD SWAP3 SWAP1 SWAP2 ADD SWAP1 PUSH2 0x1D35 JUMP JUMPDEST POP PUSH2 0x1D7E SWAP3 SWAP2 POP PUSH2 0x1D82 JUMP JUMPDEST POP SWAP1 JUMP JUMPDEST JUMPDEST DUP1 DUP3 GT ISZERO PUSH2 0x1D7E JUMPI DUP1 SLOAD PUSH1 0x1 PUSH1 0x1 PUSH1 0xA0 SHL SUB NOT AND DUP2 SSTORE PUSH1 0x0 PUSH1 0x1 DUP3 ADD SSTORE PUSH1 0x2 ADD PUSH2 0x1D83 JUMP JUMPDEST PUSH1 0x0 PUSH1 0x20 DUP3 DUP5 SUB SLT ISZERO PUSH2 0x1DBA JUMPI PUSH1 0x0 DUP1 REVERT JUMPDEST DUP2 CALLDATALOAD PUSH1 0x1 PUSH1 0x1 PUSH1 0xA0 SHL SUB DUP2 AND DUP2 EQ PUSH2 0x1DD1 JUMPI PUSH1 0x0 DUP1 REVERT JUMPDEST SWAP4 SWAP3 POP POP POP JUMP JUMPDEST PUSH1 0x0 PUSH1 0x20 DUP3 DUP5 SUB SLT ISZERO PUSH2 0x1DEA JUMPI PUSH1 0x0 DUP1 REVERT JUMPDEST POP CALLDATALOAD SWAP2 SWAP1 POP JUMP JUMPDEST PUSH4 0x4E487B71 PUSH1 0xE0 SHL PUSH1 0x0 MSTORE PUSH1 0x11 PUSH1 0x4 MSTORE PUSH1 0x24 PUSH1 0x0 REVERT JUMPDEST PUSH1 0x0 PUSH1 0x1 DUP3 ADD PUSH2 0x1E19 JUMPI PUSH2 0x1E19 PUSH2 0x1DF1 JUMP JUMPDEST POP PUSH1 0x1 ADD SWAP1 JUMP JUMPDEST PUSH4 0x4E487B71 PUSH1 0xE0 SHL PUSH1 0x0 MSTORE PUSH1 0x32 PUSH1 0x4 MSTORE PUSH1 0x24 PUSH1 0x0 REVERT JUMPDEST PUSH1 0x20 DUP1 DUP3 MSTORE PUSH1 0x12 SWAP1 DUP3 ADD MSTORE PUSH18 0x49434F206D75737420626520616374697665 PUSH1 0x70 SHL PUSH1 0x40 DUP3 ADD MSTORE PUSH1 0x60 ADD SWAP1 JUMP JUMPDEST PUSH1 0x0 PUSH1 0x20 DUP3 DUP5 SUB SLT ISZERO PUSH2 0x1E74 JUMPI PUSH1 0x0 DUP1 REVERT JUMPDEST POP MLOAD SWAP2 SWAP1 POP JUMP JUMPDEST PUSH1 0x0 PUSH1 0x20 DUP3 DUP5 SUB SLT ISZERO PUSH2 0x1E8D JUMPI PUSH1 0x0 DUP1 REVERT JUMPDEST DUP2 MLOAD DUP1 ISZERO ISZERO DUP2 EQ PUSH2 0x1DD1 JUMPI PUSH1 0x0 DUP1 REVERT JUMPDEST PUSH1 0x20 DUP1 DUP3 MSTORE PUSH1 0x2B SWAP1 DUP3 ADD MSTORE PUSH32 0x49434F3A206F6E6C792041646D696E2063616E2063616C6C2074686973206675 PUSH1 0x40 DUP3 ADD MSTORE PUSH11 0x6E6374696F6E616C697479 PUSH1 0xA8 SHL PUSH1 0x60 DUP3 ADD MSTORE PUSH1 0x80 ADD SWAP1 JUMP JUMPDEST PUSH1 0x1 DUP2 DUP2 JUMPDEST DUP1 DUP6 GT ISZERO PUSH2 0x1F23 JUMPI DUP2 PUSH1 0x0 NOT DIV DUP3 GT ISZERO PUSH2 0x1F09 JUMPI PUSH2 0x1F09 PUSH2 0x1DF1 JUMP JUMPDEST DUP1 DUP6 AND ISZERO PUSH2 0x1F16 JUMPI SWAP2 DUP2 MUL SWAP2 JUMPDEST SWAP4 DUP5 SHR SWAP4 SWAP1 DUP1 MUL SWAP1 PUSH2 0x1EED JUMP JUMPDEST POP SWAP3 POP SWAP3 SWAP1 POP JUMP JUMPDEST PUSH1 0x0 DUP3 PUSH2 0x1F3A JUMPI POP PUSH1 0x1 PUSH2 0x1AA7 JUMP JUMPDEST DUP2 PUSH2 0x1F47 JUMPI POP PUSH1 0x0 PUSH2 0x1AA7 JUMP JUMPDEST DUP2 PUSH1 0x1 DUP2 EQ PUSH2 0x1F5D JUMPI PUSH1 0x2 DUP2 EQ PUSH2 0x1F67 JUMPI PUSH2 0x1F83 JUMP JUMPDEST PUSH1 0x1 SWAP2 POP POP PUSH2 0x1AA7 JUMP JUMPDEST PUSH1 0xFF DUP5 GT ISZERO PUSH2 0x1F78 JUMPI PUSH2 0x1F78 PUSH2 0x1DF1 JUMP JUMPDEST POP POP PUSH1 0x1 DUP3 SHL PUSH2 0x1AA7 JUMP JUMPDEST POP PUSH1 0x20 DUP4 LT PUSH2 0x133 DUP4 LT AND PUSH1 0x4E DUP5 LT PUSH1 0xB DUP5 LT AND OR ISZERO PUSH2 0x1FA6 JUMPI POP DUP2 DUP2 EXP PUSH2 0x1AA7 JUMP JUMPDEST PUSH2 0x1FB0 DUP4 DUP4 PUSH2 0x1EE8 JUMP JUMPDEST DUP1 PUSH1 0x0 NOT DIV DUP3 GT ISZERO PUSH2 0x1FC4 JUMPI PUSH2 0x1FC4 PUSH2 0x1DF1 JUMP JUMPDEST MUL SWAP4 SWAP3 POP POP POP JUMP JUMPDEST PUSH1 0x0 PUSH2 0x1AA4 DUP4 DUP4 PUSH2 0x1F2B JUMP JUMPDEST PUSH1 0x0 DUP2 PUSH2 0x1FE7 JUMPI PUSH2 0x1FE7 PUSH2 0x1DF1 JUMP JUMPDEST POP PUSH1 0x0 NOT ADD SWAP1 JUMP JUMPDEST PUSH1 0x0 DUP3 PUSH2 0x200C JUMPI PUSH4 0x4E487B71 PUSH1 0xE0 SHL PUSH1 0x0 MSTORE PUSH1 0x12 PUSH1 0x4 MSTORE PUSH1 0x24 PUSH1 0x0 REVERT JUMPDEST POP DIV SWAP1 JUMP JUMPDEST DUP1 DUP3 ADD DUP1 DUP3 GT ISZERO PUSH2 0x1AA7 JUMPI PUSH2 0x1AA7 PUSH2 0x1DF1 JUMP JUMPDEST DUP1 DUP3 MUL DUP2 ISZERO DUP3 DUP3 DIV DUP5 EQ OR PUSH2 0x1AA7 JUMPI PUSH2 0x1AA7 PUSH2 0x1DF1 JUMP JUMPDEST DUP2 DUP2 SUB DUP2 DUP2 GT ISZERO PUSH2 0x1AA7 JUMPI PUSH2 0x1AA7 PUSH2 0x1DF1 JUMP INVALID LOG2 PUSH5 0x6970667358 0x22 SLT KECCAK256 0x49 SDIV AND DUP16 0xBB 0x4A MSIZE 0xCB 0x1F PC 0xD1 0xAE 0x25 0xDC SWAP14 0xC2 CHAINID PUSH20 0x4E599F898D392ADB624AD269D39164736F6C6343 STOP ADDMOD GT STOP CALLER "},"methodIdentifiers":{"addAdmin(address)":"70480275","cancelPool()":"1b55b2a8","claimTokens()":"48c54b9d","contribute()":"d7bb99ba","contribute(address)":"73e888fd","emergencyWithdraw()":"db2e21bc","finalize()":"4bb278f3","getAffiliatePercentage()":"44048f23","getAnticipatedRate()":"9a7e6441","getContribution(address)":"21eff7fc","getContributors()":"af157c19","getCurrentRate()":"f7fb07b0","getCurrentRewards()":"3efe1ff9","getEndTime()":"439f5ac2","getHardCap()":"bf0a07bd","getPresaleTokens()":"56e76aa3","getRaised()":"b692c89d","getReferrerCount()":"344dad40","getRefund()":"b2d5ae44","getReward(address)":"c00007b0","getSoftCap()":"4d52a512","getStartTime()":"c828371e","getStatus()":"4e69d560","getTimeStamp()":"da235b22","getToken()":"21df0da7","getTotalRefund()":"559659fa","owner()":"8da5cb5b","removeAdmin(address)":"1785f53c","renounceOwnership()":"715018a6","setAffiliatePercentage(uint256)":"fac5dbc6","setAnticipatedRate(uint256)":"8dad18b4","setEndTime(uint256)":"ccb98ffc","setSoftCap(uint256)":"d5cf5c72","setStartTime(uint256)":"3e0a322d","takeEthers()":"638723bf","takeTokens()":"318c00fc","transferOwnership(address)":"f2fde38b","withdrawRefund()":"110f8874","withdrawTokens()":"8d8f2adb"}}}}}