{"contracts/SHRFStaking.sol":{"Staking":{"abi":[{"inputs":[{"internalType":"address","name":"_stakingToken","type":"address"}],"stateMutability":"nonpayable","type":"constructor"},{"anonymous":false,"inputs":[{"indexed":true,"internalType":"address","name":"previousOwner","type":"address"},{"indexed":true,"internalType":"address","name":"newOwner","type":"address"}],"name":"OwnershipTransferred","type":"event"},{"anonymous":false,"inputs":[{"indexed":true,"internalType":"address","name":"from","type":"address"},{"indexed":false,"internalType":"uint256","name":"value","type":"uint256"}],"name":"Recieved","type":"event"},{"anonymous":false,"inputs":[{"indexed":true,"internalType":"address","name":"account","type":"address"}],"name":"Staked","type":"event"},{"anonymous":false,"inputs":[{"indexed":true,"internalType":"address","name":"account","type":"address"}],"name":"Unstaked","type":"event"},{"inputs":[{"internalType":"address","name":"","type":"address"}],"name":"addressMap","outputs":[{"internalType":"uint256","name":"stakeTime","type":"uint256"},{"internalType":"uint256","name":"stakeAmt","type":"uint256"},{"internalType":"uint256","name":"lastUpdateTime","type":"uint256"},{"internalType":"uint256","name":"accumulatedInterestToUpdateTime","type":"uint256"},{"internalType":"uint256","name":"amtWithdrawn","type":"uint256"}],"stateMutability":"view","type":"function"},{"inputs":[],"name":"apr","outputs":[{"internalType":"uint256","name":"","type":"uint256"}],"stateMutability":"view","type":"function"},{"inputs":[{"internalType":"uint256","name":"_apr","type":"uint256"}],"name":"modifyAPR","outputs":[],"stateMutability":"nonpayable","type":"function"},{"inputs":[],"name":"owner","outputs":[{"internalType":"address","name":"","type":"address"}],"stateMutability":"view","type":"function"},{"inputs":[{"internalType":"address","name":"_address","type":"address"}],"name":"presentEarning","outputs":[{"internalType":"uint256","name":"","type":"uint256"}],"stateMutability":"view","type":"function"},{"inputs":[],"name":"renounceOwnership","outputs":[],"stateMutability":"nonpayable","type":"function"},{"inputs":[{"internalType":"uint256","name":"_stakeAmt","type":"uint256"}],"name":"stake","outputs":[],"stateMutability":"nonpayable","type":"function"},{"inputs":[],"name":"stakingAddresses","outputs":[{"internalType":"uint256","name":"","type":"uint256"}],"stateMutability":"view","type":"function"},{"inputs":[],"name":"stakingToken","outputs":[{"internalType":"contract IERC20","name":"","type":"address"}],"stateMutability":"view","type":"function"},{"inputs":[],"name":"totalAccumulatedInterest","outputs":[{"internalType":"uint256","name":"","type":"uint256"}],"stateMutability":"view","type":"function"},{"inputs":[],"name":"totalStakedAmount","outputs":[{"internalType":"uint256","name":"","type":"uint256"}],"stateMutability":"view","type":"function"},{"inputs":[],"name":"totalWithdrawals","outputs":[{"internalType":"uint256","name":"","type":"uint256"}],"stateMutability":"view","type":"function"},{"inputs":[{"internalType":"address","name":"newOwner","type":"address"}],"name":"transferOwnership","outputs":[],"stateMutability":"nonpayable","type":"function"},{"inputs":[{"internalType":"uint256","name":"_unstakeAmt","type":"uint256"}],"name":"unstake","outputs":[],"stateMutability":"nonpayable","type":"function"},{"inputs":[{"internalType":"uint256","name":"_amt","type":"uint256"}],"name":"withdrawNativeCurrency","outputs":[],"stateMutability":"nonpayable","type":"function"},{"inputs":[{"internalType":"uint256","name":"_withdrawalAmt","type":"uint256"}],"name":"withdrawReward","outputs":[],"stateMutability":"nonpayable","type":"function"},{"stateMutability":"payable","type":"receive"}],"evm":{"bytecode":{"linkReferences":{},"object":"60806040526000600555600560065560006007556502de1d71ea0060085534801561002957600080fd5b50604051611754380380611754833981016040819052610048916100cd565b60016000556100563361007b565b600280546001600160a01b0319166001600160a01b03929092169190911790556100fd565b600180546001600160a01b038381166001600160a01b0319831681179093556040519116919082907f8be0079c531659141344cd1fd0a4f28419497f9722a3daafe3b4186f6b6457e090600090a35050565b6000602082840312156100df57600080fd5b81516001600160a01b03811681146100f657600080fd5b9392505050565b6116488061010c6000396000f3fe6080604052600436106100f75760003560e01c806372f702f31161008a578063b583ea5111610059578063b583ea51146102ae578063d3cec8ba146102ce578063da5633ef146102e4578063f2fde38b1461035757600080fd5b806372f702f3146102185780638da5cb5b146102505780639668f3081461026e578063a694fc3a1461028e57600080fd5b8063567e98f9116100c6578063567e98f9146101c257806357ded9c9146101d757806360464627146101ed578063715018a61461020357600080fd5b806315f5254e146101385780632e17de781461015a5780632e82c9831461017a578063523a3f08146101a257600080fd5b366101335760405134815233907fe03f2fbffd55aceaa08b8e27b348ae6b7607e8a520dfe6a92b053c2ce0ac850a9060200160405180910390a2005b600080fd5b34801561014457600080fd5b506101586101533660046113d3565b610377565b005b34801561016657600080fd5b506101586101753660046113d3565b6103d9565b34801561018657600080fd5b5061018f610880565b6040519081526020015b60405180910390f35b3480156101ae57600080fd5b506101586101bd3660046113d3565b6108d4565b3480156101ce57600080fd5b5061018f610a8b565b3480156101e357600080fd5b5061018f60065481565b3480156101f957600080fd5b5061018f60075481565b34801561020f57600080fd5b50610158610b16565b34801561022457600080fd5b50600254610238906001600160a01b031681565b6040516001600160a01b039091168152602001610199565b34801561025c57600080fd5b506001546001600160a01b0316610238565b34801561027a57600080fd5b506101586102893660046113d3565b610b2a565b34801561029a57600080fd5b506101586102a93660046113d3565b610b3f565b3480156102ba57600080fd5b5061018f6102c93660046113ec565b610db0565b3480156102da57600080fd5b5061018f60055481565b3480156102f057600080fd5b5061032f6102ff3660046113ec565b60036020819052600091825260409091208054600182015460028301549383015460049093015491939092909185565b604080519586526020860194909452928401919091526060830152608082015260a001610199565b34801561036357600080fd5b506101586103723660046113ec565b610e50565b61037f610ec6565b804710156103a85760405162461bcd60e51b815260040161039f90611415565b60405180910390fd5b604051339082156108fc029083906000818181858888f193505050501580156103d5573d6000803e3d6000fd5b5050565b6103e1610f20565b33600090815260036020818152604092839020835160a08101855281548152600182015492810183905260028201549481019490945291820154606084015260049091015460808301528211156104865760405162461bcd60e51b815260206004820152602360248201527f5769746864726177696e67206d6f7265207468616e207374616b656420616d6f6044820152621d5b9d60ea1b606482015260840161039f565b600060085460065483604001514261049e91906114e6565b84602001516104ad91906114ff565b6104b791906114ff565b6104c19190611516565b82606001516104d09190611538565b90506000826020015184836104e591906114ff565b6104ef9190611516565b9050804710156105115760405162461bcd60e51b815260040161039f90611415565b604051339082156108fc029083906000818181858888f1935050505015801561053e573d6000803e3d6000fd5b506002546040516370a0823160e01b815230600482015285916001600160a01b0316906370a0823190602401602060405180830381865afa158015610587573d6000803e3d6000fd5b505050506040513d601f19601f820116820180604052508101906105ab919061154b565b101561066b5760405162461bcd60e51b815260206004820152607960248201527f496e73756666696369656e7420616d6f756e74206f662074686520746f6b656e60448201527f20696e207468697320636f6e747261637420746f207472616e73666572206f7560648201527f742e20506c6561736520636f6e746163742074686520636f6e7472616374206f60848201527f776e657220746f20746f702075702074686520746f6b656e2e0000000000000060a482015260c40161039f565b6002546001600160a01b031663a9059cbb336040516001600160e01b031960e084901b1681526001600160a01b039091166004820152602481018790526044016020604051808303816000875af11580156106ca573d6000803e3d6000fd5b505050506040513d601f19601f820116820180604052508101906106ee9190611564565b50806007546106fd9190611538565b600755602083015184036107b25760005b6005548110156107b057600081815260046020526040902054336001600160a01b039091160361079e5760046000600160055461074b91906114e6565b8152602080820192909252604090810160009081205484825260049093522080546001600160a01b0319166001600160a01b03909216919091179055600554610796906001906114e6565b6005556107b0565b806107a881611586565b91505061070e565b505b6040518060a00160405280846000015181526020018585602001516107d791906114e6565b81526040808601516020830152016107ef83856114e6565b81526020018285608001516108049190611538565b905233600081815260036020818152604080842086518155918601516001830155858101516002830155606086015192820192909255608090940151600490940193909355915190917f908e667f6c2b13b8062954eb100253ea804c21222b190449e40d967a3ac0ff1391a250505061087d6001600055565b50565b600080805b6005548110156108ce576000818152600460205260409020546108b0906001600160a01b0316610db0565b6108ba9083611538565b9150806108c681611586565b915050610885565b50919050565b6108dc610f20565b60006108e733610db0565b9050808211156109585760405162461bcd60e51b815260206004820152603660248201527f57697468647261776e20616d6f756e74206d757374206265206c657373207468604482015275185b881dda5d1a191c985dd8589b1948185b5bdd5b9d60521b606482015260840161039f565b33600090815260036020818152604092839020835160a08082018652825482526001830154828501908152600284015483880152948301546060808401919091526004909301546080830152855190810186528151815293519284019290925242938301939093529181016109cd85856114e6565b81526020018483608001516109e29190611538565b9052336000908152600360208181526040928390208451815590840151600182015591830151600283015560608301519082015560809091015160049091015547831115610a425760405162461bcd60e51b815260040161039f90611415565b604051339084156108fc029085906000818181858888f19350505050158015610a6f573d6000803e3d6000fd5b5082600754610a7e9190611538565b6007555050600160005550565b600080805b6005548110156108ce576000818152600460208181526040808420546001600160a01b03168452600380835293819020815160a08101835281548152600182015493810184905260028201549281019290925293840154606082015292909101546080830152610b009084611538565b9250508080610b0e90611586565b915050610a90565b610b1e610ec6565b610b286000610f79565b565b610b32610ec6565b610b3a610fcb565b600655565b610b47610f20565b60008111610ba85760405162461bcd60e51b815260206004820152602860248201527f5374616b656420616d6f756e74206e6565647320746f20626520677265617465604482015267072207468616e20360c41b606482015260840161039f565b33600090815260036020818152604092839020835160a0810185528154815260018201549281018390526002820154948101949094529182015460608401526004909101546080830152610ca4576040518060a0016040528042815260200183815260200142815260200160008152602001600081525060036000610c2a3390565b6001600160a01b031681526020808201929092526040908101600090812084518155848401516001808301919091558584015160028301556060860151600383015560809095015160049182015560058054835293522080546001600160a01b0319163317905554610c9c9190611538565b600555610d62565b6040518060a00160405280428152602001838360200151610cc59190611538565b8152602001428152602001600854600654846040015142610ce691906114e6565b8560200151610cf591906114ff565b610cff91906114ff565b610d099190611516565b8360600151610d189190611538565b815260808381015160209283015233600090815260038084526040918290208551815593850151600185015590840151600284015560608401519083015591909101516004909101555b610d7a336002546001600160a01b031690308561110c565b60405133907f77338642d9284a44296d29a273e04b8ab6b15c7d2439094cd460b7e4f0b3307490600090a25061087d6001600055565b6001600160a01b0381166000908152600360208181526040808420815160a08101835281548152600182015493810193909352600281015491830182905292830154606083015260049092015460808201526008546006549192909190610e1790426114e6565b8360200151610e2691906114ff565b610e3091906114ff565b610e3a9190611516565b8160600151610e499190611538565b9392505050565b610e58610ec6565b6001600160a01b038116610ebd5760405162461bcd60e51b815260206004820152602660248201527f4f776e61626c653a206e6577206f776e657220697320746865207a65726f206160448201526564647265737360d01b606482015260840161039f565b61087d81610f79565b6001546001600160a01b03163314610b285760405162461bcd60e51b815260206004820181905260248201527f4f776e61626c653a2063616c6c6572206973206e6f7420746865206f776e6572604482015260640161039f565b600260005403610f725760405162461bcd60e51b815260206004820152601f60248201527f5265656e7472616e637947756172643a207265656e7472616e742063616c6c00604482015260640161039f565b6002600055565b600180546001600160a01b038381166001600160a01b0319831681179093556040519116919082907f8be0079c531659141344cd1fd0a4f28419497f9722a3daafe3b4186f6b6457e090600090a35050565b60005b60055481101561087d576000818152600460208181526040808420546001600160a01b03168452600380835293819020815160a08082018452825482526001830154828601908152600284015483860190815297840154606080850191909152939096015460808301528351908101845281518152945193850193909352429184018290526008546006549551939591850193909261106d91906114e6565b856020015161107c91906114ff565b61108691906114ff565b6110909190611516565b836060015161109f9190611538565b8152608092830151602091820152600084815260048083526040808320546001600160a01b0316835260038085529281902085518155938501516001850155840151600284015560608401519183019190915591909201519101558061110481611586565b915050610fce565b604080516001600160a01b0385811660248301528416604482015260648082018490528251808303909101815260849091019091526020810180516001600160e01b03166323b872dd60e01b17905261116690859061116c565b50505050565b60006111c1826040518060400160405280602081526020017f5361666545524332303a206c6f772d6c6576656c2063616c6c206661696c6564815250856001600160a01b03166112439092919063ffffffff16565b80519091501561123e57808060200190518101906111df9190611564565b61123e5760405162461bcd60e51b815260206004820152602a60248201527f5361666545524332303a204552433230206f7065726174696f6e20646964206e6044820152691bdd081cdd58d8d9595960b21b606482015260840161039f565b505050565b6060611252848460008561125a565b949350505050565b6060824710156112bb5760405162461bcd60e51b815260206004820152602660248201527f416464726573733a20696e73756666696369656e742062616c616e636520666f6044820152651c8818d85b1b60d21b606482015260840161039f565b600080866001600160a01b031685876040516112d791906115c3565b60006040518083038185875af1925050503d8060008114611314576040519150601f19603f3d011682016040523d82523d6000602084013e611319565b606091505b509150915061132a87838387611335565b979650505050505050565b606083156113a457825160000361139d576001600160a01b0385163b61139d5760405162461bcd60e51b815260206004820152601d60248201527f416464726573733a2063616c6c20746f206e6f6e2d636f6e7472616374000000604482015260640161039f565b5081611252565b61125283838151156113b95781518083602001fd5b8060405162461bcd60e51b815260040161039f91906115df565b6000602082840312156113e557600080fd5b5035919050565b6000602082840312156113fe57600080fd5b81356001600160a01b0381168114610e4957600080fd5b60208082526089908201527f496e73756666696369656e7420616d6f756e74206f66206e617469766520637560408201527f7272656e637920696e207468697320636f6e747261637420746f207472616e7360608201527f666572206f75742e20506c6561736520636f6e746163742074686520636f6e7460808201527f72616374206f776e657220746f20746f7020757020746865206e61746976652060a08201526831bab93932b731bc9760b91b60c082015260e00190565b634e487b7160e01b600052601160045260246000fd5b818103818111156114f9576114f96114d0565b92915050565b80820281158282048414176114f9576114f96114d0565b60008261153357634e487b7160e01b600052601260045260246000fd5b500490565b808201808211156114f9576114f96114d0565b60006020828403121561155d57600080fd5b5051919050565b60006020828403121561157657600080fd5b81518015158114610e4957600080fd5b600060018201611598576115986114d0565b5060010190565b60005b838110156115ba5781810151838201526020016115a2565b50506000910152565b600082516115d581846020870161159f565b9190910192915050565b60208152600082518060208401526115fe81604085016020870161159f565b601f01601f1916919091016040019291505056fea264697066735822122066a07c4fdb0393a2ad9e26926efcd5dc2ba6302fbd761d169ddec783144c6d7564736f6c63430008110033","opcodes":"PUSH1 0x80 PUSH1 0x40 MSTORE PUSH1 0x0 PUSH1 0x5 SSTORE PUSH1 0x5 PUSH1 0x6 SSTORE PUSH1 0x0 PUSH1 0x7 SSTORE PUSH6 0x2DE1D71EA00 PUSH1 0x8 SSTORE CALLVALUE DUP1 ISZERO PUSH2 0x29 JUMPI PUSH1 0x0 DUP1 REVERT JUMPDEST POP PUSH1 0x40 MLOAD PUSH2 0x1754 CODESIZE SUB DUP1 PUSH2 0x1754 DUP4 CODECOPY DUP2 ADD PUSH1 0x40 DUP2 SWAP1 MSTORE PUSH2 0x48 SWAP2 PUSH2 0xCD JUMP JUMPDEST PUSH1 0x1 PUSH1 0x0 SSTORE PUSH2 0x56 CALLER PUSH2 0x7B JUMP JUMPDEST PUSH1 0x2 DUP1 SLOAD PUSH1 0x1 PUSH1 0x1 PUSH1 0xA0 SHL SUB NOT AND PUSH1 0x1 PUSH1 0x1 PUSH1 0xA0 SHL SUB SWAP3 SWAP1 SWAP3 AND SWAP2 SWAP1 SWAP2 OR SWAP1 SSTORE PUSH2 0xFD JUMP JUMPDEST PUSH1 0x1 DUP1 SLOAD PUSH1 0x1 PUSH1 0x1 PUSH1 0xA0 SHL SUB DUP4 DUP2 AND PUSH1 0x1 PUSH1 0x1 PUSH1 0xA0 SHL SUB NOT DUP4 AND DUP2 OR SWAP1 SWAP4 SSTORE PUSH1 0x40 MLOAD SWAP2 AND SWAP2 SWAP1 DUP3 SWAP1 PUSH32 0x8BE0079C531659141344CD1FD0A4F28419497F9722A3DAAFE3B4186F6B6457E0 SWAP1 PUSH1 0x0 SWAP1 LOG3 POP POP JUMP JUMPDEST PUSH1 0x0 PUSH1 0x20 DUP3 DUP5 SUB SLT ISZERO PUSH2 0xDF JUMPI PUSH1 0x0 DUP1 REVERT JUMPDEST DUP2 MLOAD PUSH1 0x1 PUSH1 0x1 PUSH1 0xA0 SHL SUB DUP2 AND DUP2 EQ PUSH2 0xF6 JUMPI PUSH1 0x0 DUP1 REVERT JUMPDEST SWAP4 SWAP3 POP POP POP JUMP JUMPDEST PUSH2 0x1648 DUP1 PUSH2 0x10C PUSH1 0x0 CODECOPY PUSH1 0x0 RETURN INVALID PUSH1 0x80 PUSH1 0x40 MSTORE PUSH1 0x4 CALLDATASIZE LT PUSH2 0xF7 JUMPI PUSH1 0x0 CALLDATALOAD PUSH1 0xE0 SHR DUP1 PUSH4 0x72F702F3 GT PUSH2 0x8A JUMPI DUP1 PUSH4 0xB583EA51 GT PUSH2 0x59 JUMPI DUP1 PUSH4 0xB583EA51 EQ PUSH2 0x2AE JUMPI DUP1 PUSH4 0xD3CEC8BA EQ PUSH2 0x2CE JUMPI DUP1 PUSH4 0xDA5633EF EQ PUSH2 0x2E4 JUMPI DUP1 PUSH4 0xF2FDE38B EQ PUSH2 0x357 JUMPI PUSH1 0x0 DUP1 REVERT JUMPDEST DUP1 PUSH4 0x72F702F3 EQ PUSH2 0x218 JUMPI DUP1 PUSH4 0x8DA5CB5B EQ PUSH2 0x250 JUMPI DUP1 PUSH4 0x9668F308 EQ PUSH2 0x26E JUMPI DUP1 PUSH4 0xA694FC3A EQ PUSH2 0x28E JUMPI PUSH1 0x0 DUP1 REVERT JUMPDEST DUP1 PUSH4 0x567E98F9 GT PUSH2 0xC6 JUMPI DUP1 PUSH4 0x567E98F9 EQ PUSH2 0x1C2 JUMPI DUP1 PUSH4 0x57DED9C9 EQ PUSH2 0x1D7 JUMPI DUP1 PUSH4 0x60464627 EQ PUSH2 0x1ED JUMPI DUP1 PUSH4 0x715018A6 EQ PUSH2 0x203 JUMPI PUSH1 0x0 DUP1 REVERT JUMPDEST DUP1 PUSH4 0x15F5254E EQ PUSH2 0x138 JUMPI DUP1 PUSH4 0x2E17DE78 EQ PUSH2 0x15A JUMPI DUP1 PUSH4 0x2E82C983 EQ PUSH2 0x17A JUMPI DUP1 PUSH4 0x523A3F08 EQ PUSH2 0x1A2 JUMPI PUSH1 0x0 DUP1 REVERT JUMPDEST CALLDATASIZE PUSH2 0x133 JUMPI PUSH1 0x40 MLOAD CALLVALUE DUP2 MSTORE CALLER SWAP1 PUSH32 0xE03F2FBFFD55ACEAA08B8E27B348AE6B7607E8A520DFE6A92B053C2CE0AC850A SWAP1 PUSH1 0x20 ADD PUSH1 0x40 MLOAD DUP1 SWAP2 SUB SWAP1 LOG2 STOP JUMPDEST PUSH1 0x0 DUP1 REVERT JUMPDEST CALLVALUE DUP1 ISZERO PUSH2 0x144 JUMPI PUSH1 0x0 DUP1 REVERT JUMPDEST POP PUSH2 0x158 PUSH2 0x153 CALLDATASIZE PUSH1 0x4 PUSH2 0x13D3 JUMP JUMPDEST PUSH2 0x377 JUMP JUMPDEST STOP JUMPDEST CALLVALUE DUP1 ISZERO PUSH2 0x166 JUMPI PUSH1 0x0 DUP1 REVERT JUMPDEST POP PUSH2 0x158 PUSH2 0x175 CALLDATASIZE PUSH1 0x4 PUSH2 0x13D3 JUMP JUMPDEST PUSH2 0x3D9 JUMP JUMPDEST CALLVALUE DUP1 ISZERO PUSH2 0x186 JUMPI PUSH1 0x0 DUP1 REVERT JUMPDEST POP PUSH2 0x18F PUSH2 0x880 JUMP JUMPDEST PUSH1 0x40 MLOAD SWAP1 DUP2 MSTORE PUSH1 0x20 ADD JUMPDEST PUSH1 0x40 MLOAD DUP1 SWAP2 SUB SWAP1 RETURN JUMPDEST CALLVALUE DUP1 ISZERO PUSH2 0x1AE JUMPI PUSH1 0x0 DUP1 REVERT JUMPDEST POP PUSH2 0x158 PUSH2 0x1BD CALLDATASIZE PUSH1 0x4 PUSH2 0x13D3 JUMP JUMPDEST PUSH2 0x8D4 JUMP JUMPDEST CALLVALUE DUP1 ISZERO PUSH2 0x1CE JUMPI PUSH1 0x0 DUP1 REVERT JUMPDEST POP PUSH2 0x18F PUSH2 0xA8B JUMP JUMPDEST CALLVALUE DUP1 ISZERO PUSH2 0x1E3 JUMPI PUSH1 0x0 DUP1 REVERT JUMPDEST POP PUSH2 0x18F PUSH1 0x6 SLOAD DUP2 JUMP JUMPDEST CALLVALUE DUP1 ISZERO PUSH2 0x1F9 JUMPI PUSH1 0x0 DUP1 REVERT JUMPDEST POP PUSH2 0x18F PUSH1 0x7 SLOAD DUP2 JUMP JUMPDEST CALLVALUE DUP1 ISZERO PUSH2 0x20F JUMPI PUSH1 0x0 DUP1 REVERT JUMPDEST POP PUSH2 0x158 PUSH2 0xB16 JUMP JUMPDEST CALLVALUE DUP1 ISZERO PUSH2 0x224 JUMPI PUSH1 0x0 DUP1 REVERT JUMPDEST POP PUSH1 0x2 SLOAD PUSH2 0x238 SWAP1 PUSH1 0x1 PUSH1 0x1 PUSH1 0xA0 SHL SUB AND DUP2 JUMP JUMPDEST PUSH1 0x40 MLOAD PUSH1 0x1 PUSH1 0x1 PUSH1 0xA0 SHL SUB SWAP1 SWAP2 AND DUP2 MSTORE PUSH1 0x20 ADD PUSH2 0x199 JUMP JUMPDEST CALLVALUE DUP1 ISZERO PUSH2 0x25C JUMPI PUSH1 0x0 DUP1 REVERT JUMPDEST POP PUSH1 0x1 SLOAD PUSH1 0x1 PUSH1 0x1 PUSH1 0xA0 SHL SUB AND PUSH2 0x238 JUMP JUMPDEST CALLVALUE DUP1 ISZERO PUSH2 0x27A JUMPI PUSH1 0x0 DUP1 REVERT JUMPDEST POP PUSH2 0x158 PUSH2 0x289 CALLDATASIZE PUSH1 0x4 PUSH2 0x13D3 JUMP JUMPDEST PUSH2 0xB2A JUMP JUMPDEST CALLVALUE DUP1 ISZERO PUSH2 0x29A JUMPI PUSH1 0x0 DUP1 REVERT JUMPDEST POP PUSH2 0x158 PUSH2 0x2A9 CALLDATASIZE PUSH1 0x4 PUSH2 0x13D3 JUMP JUMPDEST PUSH2 0xB3F JUMP JUMPDEST CALLVALUE DUP1 ISZERO PUSH2 0x2BA JUMPI PUSH1 0x0 DUP1 REVERT JUMPDEST POP PUSH2 0x18F PUSH2 0x2C9 CALLDATASIZE PUSH1 0x4 PUSH2 0x13EC JUMP JUMPDEST PUSH2 0xDB0 JUMP JUMPDEST CALLVALUE DUP1 ISZERO PUSH2 0x2DA JUMPI PUSH1 0x0 DUP1 REVERT JUMPDEST POP PUSH2 0x18F PUSH1 0x5 SLOAD DUP2 JUMP JUMPDEST CALLVALUE DUP1 ISZERO PUSH2 0x2F0 JUMPI PUSH1 0x0 DUP1 REVERT JUMPDEST POP PUSH2 0x32F PUSH2 0x2FF CALLDATASIZE PUSH1 0x4 PUSH2 0x13EC JUMP JUMPDEST PUSH1 0x3 PUSH1 0x20 DUP2 SWAP1 MSTORE PUSH1 0x0 SWAP2 DUP3 MSTORE PUSH1 0x40 SWAP1 SWAP2 KECCAK256 DUP1 SLOAD PUSH1 0x1 DUP3 ADD SLOAD PUSH1 0x2 DUP4 ADD SLOAD SWAP4 DUP4 ADD SLOAD PUSH1 0x4 SWAP1 SWAP4 ADD SLOAD SWAP2 SWAP4 SWAP1 SWAP3 SWAP1 SWAP2 DUP6 JUMP JUMPDEST PUSH1 0x40 DUP1 MLOAD SWAP6 DUP7 MSTORE PUSH1 0x20 DUP7 ADD SWAP5 SWAP1 SWAP5 MSTORE SWAP3 DUP5 ADD SWAP2 SWAP1 SWAP2 MSTORE PUSH1 0x60 DUP4 ADD MSTORE PUSH1 0x80 DUP3 ADD MSTORE PUSH1 0xA0 ADD PUSH2 0x199 JUMP JUMPDEST CALLVALUE DUP1 ISZERO PUSH2 0x363 JUMPI PUSH1 0x0 DUP1 REVERT JUMPDEST POP PUSH2 0x158 PUSH2 0x372 CALLDATASIZE PUSH1 0x4 PUSH2 0x13EC JUMP JUMPDEST PUSH2 0xE50 JUMP JUMPDEST PUSH2 0x37F PUSH2 0xEC6 JUMP JUMPDEST DUP1 SELFBALANCE LT ISZERO PUSH2 0x3A8 JUMPI PUSH1 0x40 MLOAD PUSH3 0x461BCD PUSH1 0xE5 SHL DUP2 MSTORE PUSH1 0x4 ADD PUSH2 0x39F SWAP1 PUSH2 0x1415 JUMP JUMPDEST PUSH1 0x40 MLOAD DUP1 SWAP2 SUB SWAP1 REVERT JUMPDEST PUSH1 0x40 MLOAD CALLER SWAP1 DUP3 ISZERO PUSH2 0x8FC MUL SWAP1 DUP4 SWAP1 PUSH1 0x0 DUP2 DUP2 DUP2 DUP6 DUP9 DUP9 CALL SWAP4 POP POP POP POP ISZERO DUP1 ISZERO PUSH2 0x3D5 JUMPI RETURNDATASIZE PUSH1 0x0 DUP1 RETURNDATACOPY RETURNDATASIZE PUSH1 0x0 REVERT JUMPDEST POP POP JUMP JUMPDEST PUSH2 0x3E1 PUSH2 0xF20 JUMP JUMPDEST CALLER PUSH1 0x0 SWAP1 DUP2 MSTORE PUSH1 0x3 PUSH1 0x20 DUP2 DUP2 MSTORE PUSH1 0x40 SWAP3 DUP4 SWAP1 KECCAK256 DUP4 MLOAD PUSH1 0xA0 DUP2 ADD DUP6 MSTORE DUP2 SLOAD DUP2 MSTORE PUSH1 0x1 DUP3 ADD SLOAD SWAP3 DUP2 ADD DUP4 SWAP1 MSTORE PUSH1 0x2 DUP3 ADD SLOAD SWAP5 DUP2 ADD SWAP5 SWAP1 SWAP5 MSTORE SWAP2 DUP3 ADD SLOAD PUSH1 0x60 DUP5 ADD MSTORE PUSH1 0x4 SWAP1 SWAP2 ADD SLOAD PUSH1 0x80 DUP4 ADD MSTORE DUP3 GT ISZERO PUSH2 0x486 JUMPI PUSH1 0x40 MLOAD PUSH3 0x461BCD PUSH1 0xE5 SHL DUP2 MSTORE PUSH1 0x20 PUSH1 0x4 DUP3 ADD MSTORE PUSH1 0x23 PUSH1 0x24 DUP3 ADD MSTORE PUSH32 0x5769746864726177696E67206D6F7265207468616E207374616B656420616D6F PUSH1 0x44 DUP3 ADD MSTORE PUSH3 0x1D5B9D PUSH1 0xEA SHL PUSH1 0x64 DUP3 ADD MSTORE PUSH1 0x84 ADD PUSH2 0x39F JUMP JUMPDEST PUSH1 0x0 PUSH1 0x8 SLOAD PUSH1 0x6 SLOAD DUP4 PUSH1 0x40 ADD MLOAD TIMESTAMP PUSH2 0x49E SWAP2 SWAP1 PUSH2 0x14E6 JUMP JUMPDEST DUP5 PUSH1 0x20 ADD MLOAD PUSH2 0x4AD SWAP2 SWAP1 PUSH2 0x14FF JUMP JUMPDEST PUSH2 0x4B7 SWAP2 SWAP1 PUSH2 0x14FF JUMP JUMPDEST PUSH2 0x4C1 SWAP2 SWAP1 PUSH2 0x1516 JUMP JUMPDEST DUP3 PUSH1 0x60 ADD MLOAD PUSH2 0x4D0 SWAP2 SWAP1 PUSH2 0x1538 JUMP JUMPDEST SWAP1 POP PUSH1 0x0 DUP3 PUSH1 0x20 ADD MLOAD DUP5 DUP4 PUSH2 0x4E5 SWAP2 SWAP1 PUSH2 0x14FF JUMP JUMPDEST PUSH2 0x4EF SWAP2 SWAP1 PUSH2 0x1516 JUMP JUMPDEST SWAP1 POP DUP1 SELFBALANCE LT ISZERO PUSH2 0x511 JUMPI PUSH1 0x40 MLOAD PUSH3 0x461BCD PUSH1 0xE5 SHL DUP2 MSTORE PUSH1 0x4 ADD PUSH2 0x39F SWAP1 PUSH2 0x1415 JUMP JUMPDEST PUSH1 0x40 MLOAD CALLER SWAP1 DUP3 ISZERO PUSH2 0x8FC MUL SWAP1 DUP4 SWAP1 PUSH1 0x0 DUP2 DUP2 DUP2 DUP6 DUP9 DUP9 CALL SWAP4 POP POP POP POP ISZERO DUP1 ISZERO PUSH2 0x53E JUMPI RETURNDATASIZE PUSH1 0x0 DUP1 RETURNDATACOPY RETURNDATASIZE PUSH1 0x0 REVERT JUMPDEST POP PUSH1 0x2 SLOAD PUSH1 0x40 MLOAD PUSH4 0x70A08231 PUSH1 0xE0 SHL DUP2 MSTORE ADDRESS PUSH1 0x4 DUP3 ADD MSTORE DUP6 SWAP2 PUSH1 0x1 PUSH1 0x1 PUSH1 0xA0 SHL SUB AND SWAP1 PUSH4 0x70A08231 SWAP1 PUSH1 0x24 ADD PUSH1 0x20 PUSH1 0x40 MLOAD DUP1 DUP4 SUB DUP2 DUP7 GAS STATICCALL ISZERO DUP1 ISZERO PUSH2 0x587 JUMPI RETURNDATASIZE PUSH1 0x0 DUP1 RETURNDATACOPY RETURNDATASIZE PUSH1 0x0 REVERT JUMPDEST POP POP POP POP PUSH1 0x40 MLOAD RETURNDATASIZE PUSH1 0x1F NOT PUSH1 0x1F DUP3 ADD AND DUP3 ADD DUP1 PUSH1 0x40 MSTORE POP DUP2 ADD SWAP1 PUSH2 0x5AB SWAP2 SWAP1 PUSH2 0x154B JUMP JUMPDEST LT ISZERO PUSH2 0x66B JUMPI PUSH1 0x40 MLOAD PUSH3 0x461BCD PUSH1 0xE5 SHL DUP2 MSTORE PUSH1 0x20 PUSH1 0x4 DUP3 ADD MSTORE PUSH1 0x79 PUSH1 0x24 DUP3 ADD MSTORE PUSH32 0x496E73756666696369656E7420616D6F756E74206F662074686520746F6B656E PUSH1 0x44 DUP3 ADD MSTORE PUSH32 0x20696E207468697320636F6E747261637420746F207472616E73666572206F75 PUSH1 0x64 DUP3 ADD MSTORE PUSH32 0x742E20506C6561736520636F6E746163742074686520636F6E7472616374206F PUSH1 0x84 DUP3 ADD MSTORE PUSH32 0x776E657220746F20746F702075702074686520746F6B656E2E00000000000000 PUSH1 0xA4 DUP3 ADD MSTORE PUSH1 0xC4 ADD PUSH2 0x39F JUMP JUMPDEST PUSH1 0x2 SLOAD PUSH1 0x1 PUSH1 0x1 PUSH1 0xA0 SHL SUB AND PUSH4 0xA9059CBB CALLER PUSH1 0x40 MLOAD PUSH1 0x1 PUSH1 0x1 PUSH1 0xE0 SHL SUB NOT PUSH1 0xE0 DUP5 SWAP1 SHL AND DUP2 MSTORE PUSH1 0x1 PUSH1 0x1 PUSH1 0xA0 SHL SUB SWAP1 SWAP2 AND PUSH1 0x4 DUP3 ADD MSTORE PUSH1 0x24 DUP2 ADD DUP8 SWAP1 MSTORE PUSH1 0x44 ADD PUSH1 0x20 PUSH1 0x40 MLOAD DUP1 DUP4 SUB DUP2 PUSH1 0x0 DUP8 GAS CALL ISZERO DUP1 ISZERO PUSH2 0x6CA JUMPI RETURNDATASIZE PUSH1 0x0 DUP1 RETURNDATACOPY RETURNDATASIZE PUSH1 0x0 REVERT JUMPDEST POP POP POP POP PUSH1 0x40 MLOAD RETURNDATASIZE PUSH1 0x1F NOT PUSH1 0x1F DUP3 ADD AND DUP3 ADD DUP1 PUSH1 0x40 MSTORE POP DUP2 ADD SWAP1 PUSH2 0x6EE SWAP2 SWAP1 PUSH2 0x1564 JUMP JUMPDEST POP DUP1 PUSH1 0x7 SLOAD PUSH2 0x6FD SWAP2 SWAP1 PUSH2 0x1538 JUMP JUMPDEST PUSH1 0x7 SSTORE PUSH1 0x20 DUP4 ADD MLOAD DUP5 SUB PUSH2 0x7B2 JUMPI PUSH1 0x0 JUMPDEST PUSH1 0x5 SLOAD DUP2 LT ISZERO PUSH2 0x7B0 JUMPI PUSH1 0x0 DUP2 DUP2 MSTORE PUSH1 0x4 PUSH1 0x20 MSTORE PUSH1 0x40 SWAP1 KECCAK256 SLOAD CALLER PUSH1 0x1 PUSH1 0x1 PUSH1 0xA0 SHL SUB SWAP1 SWAP2 AND SUB PUSH2 0x79E JUMPI PUSH1 0x4 PUSH1 0x0 PUSH1 0x1 PUSH1 0x5 SLOAD PUSH2 0x74B SWAP2 SWAP1 PUSH2 0x14E6 JUMP JUMPDEST DUP2 MSTORE PUSH1 0x20 DUP1 DUP3 ADD SWAP3 SWAP1 SWAP3 MSTORE PUSH1 0x40 SWAP1 DUP2 ADD PUSH1 0x0 SWAP1 DUP2 KECCAK256 SLOAD DUP5 DUP3 MSTORE PUSH1 0x4 SWAP1 SWAP4 MSTORE KECCAK256 DUP1 SLOAD PUSH1 0x1 PUSH1 0x1 PUSH1 0xA0 SHL SUB NOT AND PUSH1 0x1 PUSH1 0x1 PUSH1 0xA0 SHL SUB SWAP1 SWAP3 AND SWAP2 SWAP1 SWAP2 OR SWAP1 SSTORE PUSH1 0x5 SLOAD PUSH2 0x796 SWAP1 PUSH1 0x1 SWAP1 PUSH2 0x14E6 JUMP JUMPDEST PUSH1 0x5 SSTORE PUSH2 0x7B0 JUMP JUMPDEST DUP1 PUSH2 0x7A8 DUP2 PUSH2 0x1586 JUMP JUMPDEST SWAP2 POP POP PUSH2 0x70E JUMP JUMPDEST POP JUMPDEST PUSH1 0x40 MLOAD DUP1 PUSH1 0xA0 ADD PUSH1 0x40 MSTORE DUP1 DUP5 PUSH1 0x0 ADD MLOAD DUP2 MSTORE PUSH1 0x20 ADD DUP6 DUP6 PUSH1 0x20 ADD MLOAD PUSH2 0x7D7 SWAP2 SWAP1 PUSH2 0x14E6 JUMP JUMPDEST DUP2 MSTORE PUSH1 0x40 DUP1 DUP7 ADD MLOAD PUSH1 0x20 DUP4 ADD MSTORE ADD PUSH2 0x7EF DUP4 DUP6 PUSH2 0x14E6 JUMP JUMPDEST DUP2 MSTORE PUSH1 0x20 ADD DUP3 DUP6 PUSH1 0x80 ADD MLOAD PUSH2 0x804 SWAP2 SWAP1 PUSH2 0x1538 JUMP JUMPDEST SWAP1 MSTORE CALLER PUSH1 0x0 DUP2 DUP2 MSTORE PUSH1 0x3 PUSH1 0x20 DUP2 DUP2 MSTORE PUSH1 0x40 DUP1 DUP5 KECCAK256 DUP7 MLOAD DUP2 SSTORE SWAP2 DUP7 ADD MLOAD PUSH1 0x1 DUP4 ADD SSTORE DUP6 DUP2 ADD MLOAD PUSH1 0x2 DUP4 ADD SSTORE PUSH1 0x60 DUP7 ADD MLOAD SWAP3 DUP3 ADD SWAP3 SWAP1 SWAP3 SSTORE PUSH1 0x80 SWAP1 SWAP5 ADD MLOAD PUSH1 0x4 SWAP1 SWAP5 ADD SWAP4 SWAP1 SWAP4 SSTORE SWAP2 MLOAD SWAP1 SWAP2 PUSH32 0x908E667F6C2B13B8062954EB100253EA804C21222B190449E40D967A3AC0FF13 SWAP2 LOG2 POP POP POP PUSH2 0x87D PUSH1 0x1 PUSH1 0x0 SSTORE JUMP JUMPDEST POP JUMP JUMPDEST PUSH1 0x0 DUP1 DUP1 JUMPDEST PUSH1 0x5 SLOAD DUP2 LT ISZERO PUSH2 0x8CE JUMPI PUSH1 0x0 DUP2 DUP2 MSTORE PUSH1 0x4 PUSH1 0x20 MSTORE PUSH1 0x40 SWAP1 KECCAK256 SLOAD PUSH2 0x8B0 SWAP1 PUSH1 0x1 PUSH1 0x1 PUSH1 0xA0 SHL SUB AND PUSH2 0xDB0 JUMP JUMPDEST PUSH2 0x8BA SWAP1 DUP4 PUSH2 0x1538 JUMP JUMPDEST SWAP2 POP DUP1 PUSH2 0x8C6 DUP2 PUSH2 0x1586 JUMP JUMPDEST SWAP2 POP POP PUSH2 0x885 JUMP JUMPDEST POP SWAP2 SWAP1 POP JUMP JUMPDEST PUSH2 0x8DC PUSH2 0xF20 JUMP JUMPDEST PUSH1 0x0 PUSH2 0x8E7 CALLER PUSH2 0xDB0 JUMP JUMPDEST SWAP1 POP DUP1 DUP3 GT ISZERO PUSH2 0x958 JUMPI PUSH1 0x40 MLOAD PUSH3 0x461BCD PUSH1 0xE5 SHL DUP2 MSTORE PUSH1 0x20 PUSH1 0x4 DUP3 ADD MSTORE PUSH1 0x36 PUSH1 0x24 DUP3 ADD MSTORE PUSH32 0x57697468647261776E20616D6F756E74206D757374206265206C657373207468 PUSH1 0x44 DUP3 ADD MSTORE PUSH22 0x185B881DDA5D1A191C985DD8589B1948185B5BDD5B9D PUSH1 0x52 SHL PUSH1 0x64 DUP3 ADD MSTORE PUSH1 0x84 ADD PUSH2 0x39F JUMP JUMPDEST CALLER PUSH1 0x0 SWAP1 DUP2 MSTORE PUSH1 0x3 PUSH1 0x20 DUP2 DUP2 MSTORE PUSH1 0x40 SWAP3 DUP4 SWAP1 KECCAK256 DUP4 MLOAD PUSH1 0xA0 DUP1 DUP3 ADD DUP7 MSTORE DUP3 SLOAD DUP3 MSTORE PUSH1 0x1 DUP4 ADD SLOAD DUP3 DUP6 ADD SWAP1 DUP2 MSTORE PUSH1 0x2 DUP5 ADD SLOAD DUP4 DUP9 ADD MSTORE SWAP5 DUP4 ADD SLOAD PUSH1 0x60 DUP1 DUP5 ADD SWAP2 SWAP1 SWAP2 MSTORE PUSH1 0x4 SWAP1 SWAP4 ADD SLOAD PUSH1 0x80 DUP4 ADD MSTORE DUP6 MLOAD SWAP1 DUP2 ADD DUP7 MSTORE DUP2 MLOAD DUP2 MSTORE SWAP4 MLOAD SWAP3 DUP5 ADD SWAP3 SWAP1 SWAP3 MSTORE TIMESTAMP SWAP4 DUP4 ADD SWAP4 SWAP1 SWAP4 MSTORE SWAP2 DUP2 ADD PUSH2 0x9CD DUP6 DUP6 PUSH2 0x14E6 JUMP JUMPDEST DUP2 MSTORE PUSH1 0x20 ADD DUP5 DUP4 PUSH1 0x80 ADD MLOAD PUSH2 0x9E2 SWAP2 SWAP1 PUSH2 0x1538 JUMP JUMPDEST SWAP1 MSTORE CALLER PUSH1 0x0 SWAP1 DUP2 MSTORE PUSH1 0x3 PUSH1 0x20 DUP2 DUP2 MSTORE PUSH1 0x40 SWAP3 DUP4 SWAP1 KECCAK256 DUP5 MLOAD DUP2 SSTORE SWAP1 DUP5 ADD MLOAD PUSH1 0x1 DUP3 ADD SSTORE SWAP2 DUP4 ADD MLOAD PUSH1 0x2 DUP4 ADD SSTORE PUSH1 0x60 DUP4 ADD MLOAD SWAP1 DUP3 ADD SSTORE PUSH1 0x80 SWAP1 SWAP2 ADD MLOAD PUSH1 0x4 SWAP1 SWAP2 ADD SSTORE SELFBALANCE DUP4 GT ISZERO PUSH2 0xA42 JUMPI PUSH1 0x40 MLOAD PUSH3 0x461BCD PUSH1 0xE5 SHL DUP2 MSTORE PUSH1 0x4 ADD PUSH2 0x39F SWAP1 PUSH2 0x1415 JUMP JUMPDEST PUSH1 0x40 MLOAD CALLER SWAP1 DUP5 ISZERO PUSH2 0x8FC MUL SWAP1 DUP6 SWAP1 PUSH1 0x0 DUP2 DUP2 DUP2 DUP6 DUP9 DUP9 CALL SWAP4 POP POP POP POP ISZERO DUP1 ISZERO PUSH2 0xA6F JUMPI RETURNDATASIZE PUSH1 0x0 DUP1 RETURNDATACOPY RETURNDATASIZE PUSH1 0x0 REVERT JUMPDEST POP DUP3 PUSH1 0x7 SLOAD PUSH2 0xA7E SWAP2 SWAP1 PUSH2 0x1538 JUMP JUMPDEST PUSH1 0x7 SSTORE POP POP PUSH1 0x1 PUSH1 0x0 SSTORE POP JUMP JUMPDEST PUSH1 0x0 DUP1 DUP1 JUMPDEST PUSH1 0x5 SLOAD DUP2 LT ISZERO PUSH2 0x8CE JUMPI PUSH1 0x0 DUP2 DUP2 MSTORE PUSH1 0x4 PUSH1 0x20 DUP2 DUP2 MSTORE PUSH1 0x40 DUP1 DUP5 KECCAK256 SLOAD PUSH1 0x1 PUSH1 0x1 PUSH1 0xA0 SHL SUB AND DUP5 MSTORE PUSH1 0x3 DUP1 DUP4 MSTORE SWAP4 DUP2 SWAP1 KECCAK256 DUP2 MLOAD PUSH1 0xA0 DUP2 ADD DUP4 MSTORE DUP2 SLOAD DUP2 MSTORE PUSH1 0x1 DUP3 ADD SLOAD SWAP4 DUP2 ADD DUP5 SWAP1 MSTORE PUSH1 0x2 DUP3 ADD SLOAD SWAP3 DUP2 ADD SWAP3 SWAP1 SWAP3 MSTORE SWAP4 DUP5 ADD SLOAD PUSH1 0x60 DUP3 ADD MSTORE SWAP3 SWAP1 SWAP2 ADD SLOAD PUSH1 0x80 DUP4 ADD MSTORE PUSH2 0xB00 SWAP1 DUP5 PUSH2 0x1538 JUMP JUMPDEST SWAP3 POP POP DUP1 DUP1 PUSH2 0xB0E SWAP1 PUSH2 0x1586 JUMP JUMPDEST SWAP2 POP POP PUSH2 0xA90 JUMP JUMPDEST PUSH2 0xB1E PUSH2 0xEC6 JUMP JUMPDEST PUSH2 0xB28 PUSH1 0x0 PUSH2 0xF79 JUMP JUMPDEST JUMP JUMPDEST PUSH2 0xB32 PUSH2 0xEC6 JUMP JUMPDEST PUSH2 0xB3A PUSH2 0xFCB JUMP JUMPDEST PUSH1 0x6 SSTORE JUMP JUMPDEST PUSH2 0xB47 PUSH2 0xF20 JUMP JUMPDEST PUSH1 0x0 DUP2 GT PUSH2 0xBA8 JUMPI PUSH1 0x40 MLOAD PUSH3 0x461BCD PUSH1 0xE5 SHL DUP2 MSTORE PUSH1 0x20 PUSH1 0x4 DUP3 ADD MSTORE PUSH1 0x28 PUSH1 0x24 DUP3 ADD MSTORE PUSH32 0x5374616B656420616D6F756E74206E6565647320746F20626520677265617465 PUSH1 0x44 DUP3 ADD MSTORE PUSH8 0x72207468616E203 PUSH1 0xC4 SHL PUSH1 0x64 DUP3 ADD MSTORE PUSH1 0x84 ADD PUSH2 0x39F JUMP JUMPDEST CALLER PUSH1 0x0 SWAP1 DUP2 MSTORE PUSH1 0x3 PUSH1 0x20 DUP2 DUP2 MSTORE PUSH1 0x40 SWAP3 DUP4 SWAP1 KECCAK256 DUP4 MLOAD PUSH1 0xA0 DUP2 ADD DUP6 MSTORE DUP2 SLOAD DUP2 MSTORE PUSH1 0x1 DUP3 ADD SLOAD SWAP3 DUP2 ADD DUP4 SWAP1 MSTORE PUSH1 0x2 DUP3 ADD SLOAD SWAP5 DUP2 ADD SWAP5 SWAP1 SWAP5 MSTORE SWAP2 DUP3 ADD SLOAD PUSH1 0x60 DUP5 ADD MSTORE PUSH1 0x4 SWAP1 SWAP2 ADD SLOAD PUSH1 0x80 DUP4 ADD MSTORE PUSH2 0xCA4 JUMPI PUSH1 0x40 MLOAD DUP1 PUSH1 0xA0 ADD PUSH1 0x40 MSTORE DUP1 TIMESTAMP DUP2 MSTORE PUSH1 0x20 ADD DUP4 DUP2 MSTORE PUSH1 0x20 ADD TIMESTAMP DUP2 MSTORE PUSH1 0x20 ADD PUSH1 0x0 DUP2 MSTORE PUSH1 0x20 ADD PUSH1 0x0 DUP2 MSTORE POP PUSH1 0x3 PUSH1 0x0 PUSH2 0xC2A CALLER SWAP1 JUMP JUMPDEST PUSH1 0x1 PUSH1 0x1 PUSH1 0xA0 SHL SUB AND DUP2 MSTORE PUSH1 0x20 DUP1 DUP3 ADD SWAP3 SWAP1 SWAP3 MSTORE PUSH1 0x40 SWAP1 DUP2 ADD PUSH1 0x0 SWAP1 DUP2 KECCAK256 DUP5 MLOAD DUP2 SSTORE DUP5 DUP5 ADD MLOAD PUSH1 0x1 DUP1 DUP4 ADD SWAP2 SWAP1 SWAP2 SSTORE DUP6 DUP5 ADD MLOAD PUSH1 0x2 DUP4 ADD SSTORE PUSH1 0x60 DUP7 ADD MLOAD PUSH1 0x3 DUP4 ADD SSTORE PUSH1 0x80 SWAP1 SWAP6 ADD MLOAD PUSH1 0x4 SWAP2 DUP3 ADD SSTORE PUSH1 0x5 DUP1 SLOAD DUP4 MSTORE SWAP4 MSTORE KECCAK256 DUP1 SLOAD PUSH1 0x1 PUSH1 0x1 PUSH1 0xA0 SHL SUB NOT AND CALLER OR SWAP1 SSTORE SLOAD PUSH2 0xC9C SWAP2 SWAP1 PUSH2 0x1538 JUMP JUMPDEST PUSH1 0x5 SSTORE PUSH2 0xD62 JUMP JUMPDEST PUSH1 0x40 MLOAD DUP1 PUSH1 0xA0 ADD PUSH1 0x40 MSTORE DUP1 TIMESTAMP DUP2 MSTORE PUSH1 0x20 ADD DUP4 DUP4 PUSH1 0x20 ADD MLOAD PUSH2 0xCC5 SWAP2 SWAP1 PUSH2 0x1538 JUMP JUMPDEST DUP2 MSTORE PUSH1 0x20 ADD TIMESTAMP DUP2 MSTORE PUSH1 0x20 ADD PUSH1 0x8 SLOAD PUSH1 0x6 SLOAD DUP5 PUSH1 0x40 ADD MLOAD TIMESTAMP PUSH2 0xCE6 SWAP2 SWAP1 PUSH2 0x14E6 JUMP JUMPDEST DUP6 PUSH1 0x20 ADD MLOAD PUSH2 0xCF5 SWAP2 SWAP1 PUSH2 0x14FF JUMP JUMPDEST PUSH2 0xCFF SWAP2 SWAP1 PUSH2 0x14FF JUMP JUMPDEST PUSH2 0xD09 SWAP2 SWAP1 PUSH2 0x1516 JUMP JUMPDEST DUP4 PUSH1 0x60 ADD MLOAD PUSH2 0xD18 SWAP2 SWAP1 PUSH2 0x1538 JUMP JUMPDEST DUP2 MSTORE PUSH1 0x80 DUP4 DUP2 ADD MLOAD PUSH1 0x20 SWAP3 DUP4 ADD MSTORE CALLER PUSH1 0x0 SWAP1 DUP2 MSTORE PUSH1 0x3 DUP1 DUP5 MSTORE PUSH1 0x40 SWAP2 DUP3 SWAP1 KECCAK256 DUP6 MLOAD DUP2 SSTORE SWAP4 DUP6 ADD MLOAD PUSH1 0x1 DUP6 ADD SSTORE SWAP1 DUP5 ADD MLOAD PUSH1 0x2 DUP5 ADD SSTORE PUSH1 0x60 DUP5 ADD MLOAD SWAP1 DUP4 ADD SSTORE SWAP2 SWAP1 SWAP2 ADD MLOAD PUSH1 0x4 SWAP1 SWAP2 ADD SSTORE JUMPDEST PUSH2 0xD7A CALLER PUSH1 0x2 SLOAD PUSH1 0x1 PUSH1 0x1 PUSH1 0xA0 SHL SUB AND SWAP1 ADDRESS DUP6 PUSH2 0x110C JUMP JUMPDEST PUSH1 0x40 MLOAD CALLER SWAP1 PUSH32 0x77338642D9284A44296D29A273E04B8AB6B15C7D2439094CD460B7E4F0B33074 SWAP1 PUSH1 0x0 SWAP1 LOG2 POP PUSH2 0x87D PUSH1 0x1 PUSH1 0x0 SSTORE JUMP JUMPDEST PUSH1 0x1 PUSH1 0x1 PUSH1 0xA0 SHL SUB DUP2 AND PUSH1 0x0 SWAP1 DUP2 MSTORE PUSH1 0x3 PUSH1 0x20 DUP2 DUP2 MSTORE PUSH1 0x40 DUP1 DUP5 KECCAK256 DUP2 MLOAD PUSH1 0xA0 DUP2 ADD DUP4 MSTORE DUP2 SLOAD DUP2 MSTORE PUSH1 0x1 DUP3 ADD SLOAD SWAP4 DUP2 ADD SWAP4 SWAP1 SWAP4 MSTORE PUSH1 0x2 DUP2 ADD SLOAD SWAP2 DUP4 ADD DUP3 SWAP1 MSTORE SWAP3 DUP4 ADD SLOAD PUSH1 0x60 DUP4 ADD MSTORE PUSH1 0x4 SWAP1 SWAP3 ADD SLOAD PUSH1 0x80 DUP3 ADD MSTORE PUSH1 0x8 SLOAD PUSH1 0x6 SLOAD SWAP2 SWAP3 SWAP1 SWAP2 SWAP1 PUSH2 0xE17 SWAP1 TIMESTAMP PUSH2 0x14E6 JUMP JUMPDEST DUP4 PUSH1 0x20 ADD MLOAD PUSH2 0xE26 SWAP2 SWAP1 PUSH2 0x14FF JUMP JUMPDEST PUSH2 0xE30 SWAP2 SWAP1 PUSH2 0x14FF JUMP JUMPDEST PUSH2 0xE3A SWAP2 SWAP1 PUSH2 0x1516 JUMP JUMPDEST DUP2 PUSH1 0x60 ADD MLOAD PUSH2 0xE49 SWAP2 SWAP1 PUSH2 0x1538 JUMP JUMPDEST SWAP4 SWAP3 POP POP POP JUMP JUMPDEST PUSH2 0xE58 PUSH2 0xEC6 JUMP JUMPDEST PUSH1 0x1 PUSH1 0x1 PUSH1 0xA0 SHL SUB DUP2 AND PUSH2 0xEBD JUMPI PUSH1 0x40 MLOAD PUSH3 0x461BCD PUSH1 0xE5 SHL DUP2 MSTORE PUSH1 0x20 PUSH1 0x4 DUP3 ADD MSTORE PUSH1 0x26 PUSH1 0x24 DUP3 ADD MSTORE PUSH32 0x4F776E61626C653A206E6577206F776E657220697320746865207A65726F2061 PUSH1 0x44 DUP3 ADD MSTORE PUSH6 0x646472657373 PUSH1 0xD0 SHL PUSH1 0x64 DUP3 ADD MSTORE PUSH1 0x84 ADD PUSH2 0x39F JUMP JUMPDEST PUSH2 0x87D DUP2 PUSH2 0xF79 JUMP JUMPDEST PUSH1 0x1 SLOAD PUSH1 0x1 PUSH1 0x1 PUSH1 0xA0 SHL SUB AND CALLER EQ PUSH2 0xB28 JUMPI PUSH1 0x40 MLOAD PUSH3 0x461BCD PUSH1 0xE5 SHL DUP2 MSTORE PUSH1 0x20 PUSH1 0x4 DUP3 ADD DUP2 SWAP1 MSTORE PUSH1 0x24 DUP3 ADD MSTORE PUSH32 0x4F776E61626C653A2063616C6C6572206973206E6F7420746865206F776E6572 PUSH1 0x44 DUP3 ADD MSTORE PUSH1 0x64 ADD PUSH2 0x39F JUMP JUMPDEST PUSH1 0x2 PUSH1 0x0 SLOAD SUB PUSH2 0xF72 JUMPI PUSH1 0x40 MLOAD PUSH3 0x461BCD PUSH1 0xE5 SHL DUP2 MSTORE PUSH1 0x20 PUSH1 0x4 DUP3 ADD MSTORE PUSH1 0x1F PUSH1 0x24 DUP3 ADD MSTORE PUSH32 0x5265656E7472616E637947756172643A207265656E7472616E742063616C6C00 PUSH1 0x44 DUP3 ADD MSTORE PUSH1 0x64 ADD PUSH2 0x39F JUMP JUMPDEST PUSH1 0x2 PUSH1 0x0 SSTORE JUMP JUMPDEST PUSH1 0x1 DUP1 SLOAD PUSH1 0x1 PUSH1 0x1 PUSH1 0xA0 SHL SUB DUP4 DUP2 AND PUSH1 0x1 PUSH1 0x1 PUSH1 0xA0 SHL SUB NOT DUP4 AND DUP2 OR SWAP1 SWAP4 SSTORE PUSH1 0x40 MLOAD SWAP2 AND SWAP2 SWAP1 DUP3 SWAP1 PUSH32 0x8BE0079C531659141344CD1FD0A4F28419497F9722A3DAAFE3B4186F6B6457E0 SWAP1 PUSH1 0x0 SWAP1 LOG3 POP POP JUMP JUMPDEST PUSH1 0x0 JUMPDEST PUSH1 0x5 SLOAD DUP2 LT ISZERO PUSH2 0x87D JUMPI PUSH1 0x0 DUP2 DUP2 MSTORE PUSH1 0x4 PUSH1 0x20 DUP2 DUP2 MSTORE PUSH1 0x40 DUP1 DUP5 KECCAK256 SLOAD PUSH1 0x1 PUSH1 0x1 PUSH1 0xA0 SHL SUB AND DUP5 MSTORE PUSH1 0x3 DUP1 DUP4 MSTORE SWAP4 DUP2 SWAP1 KECCAK256 DUP2 MLOAD PUSH1 0xA0 DUP1 DUP3 ADD DUP5 MSTORE DUP3 SLOAD DUP3 MSTORE PUSH1 0x1 DUP4 ADD SLOAD DUP3 DUP7 ADD SWAP1 DUP2 MSTORE PUSH1 0x2 DUP5 ADD SLOAD DUP4 DUP7 ADD SWAP1 DUP2 MSTORE SWAP8 DUP5 ADD SLOAD PUSH1 0x60 DUP1 DUP6 ADD SWAP2 SWAP1 SWAP2 MSTORE SWAP4 SWAP1 SWAP7 ADD SLOAD PUSH1 0x80 DUP4 ADD MSTORE DUP4 MLOAD SWAP1 DUP2 ADD DUP5 MSTORE DUP2 MLOAD DUP2 MSTORE SWAP5 MLOAD SWAP4 DUP6 ADD SWAP4 SWAP1 SWAP4 MSTORE TIMESTAMP SWAP2 DUP5 ADD DUP3 SWAP1 MSTORE PUSH1 0x8 SLOAD PUSH1 0x6 SLOAD SWAP6 MLOAD SWAP4 SWAP6 SWAP2 DUP6 ADD SWAP4 SWAP1 SWAP3 PUSH2 0x106D SWAP2 SWAP1 PUSH2 0x14E6 JUMP JUMPDEST DUP6 PUSH1 0x20 ADD MLOAD PUSH2 0x107C SWAP2 SWAP1 PUSH2 0x14FF JUMP JUMPDEST PUSH2 0x1086 SWAP2 SWAP1 PUSH2 0x14FF JUMP JUMPDEST PUSH2 0x1090 SWAP2 SWAP1 PUSH2 0x1516 JUMP JUMPDEST DUP4 PUSH1 0x60 ADD MLOAD PUSH2 0x109F SWAP2 SWAP1 PUSH2 0x1538 JUMP JUMPDEST DUP2 MSTORE PUSH1 0x80 SWAP3 DUP4 ADD MLOAD PUSH1 0x20 SWAP2 DUP3 ADD MSTORE PUSH1 0x0 DUP5 DUP2 MSTORE PUSH1 0x4 DUP1 DUP4 MSTORE PUSH1 0x40 DUP1 DUP4 KECCAK256 SLOAD PUSH1 0x1 PUSH1 0x1 PUSH1 0xA0 SHL SUB AND DUP4 MSTORE PUSH1 0x3 DUP1 DUP6 MSTORE SWAP3 DUP2 SWAP1 KECCAK256 DUP6 MLOAD DUP2 SSTORE SWAP4 DUP6 ADD MLOAD PUSH1 0x1 DUP6 ADD SSTORE DUP5 ADD MLOAD PUSH1 0x2 DUP5 ADD SSTORE PUSH1 0x60 DUP5 ADD MLOAD SWAP2 DUP4 ADD SWAP2 SWAP1 SWAP2 SSTORE SWAP2 SWAP1 SWAP3 ADD MLOAD SWAP2 ADD SSTORE DUP1 PUSH2 0x1104 DUP2 PUSH2 0x1586 JUMP JUMPDEST SWAP2 POP POP PUSH2 0xFCE JUMP JUMPDEST PUSH1 0x40 DUP1 MLOAD PUSH1 0x1 PUSH1 0x1 PUSH1 0xA0 SHL SUB DUP6 DUP2 AND PUSH1 0x24 DUP4 ADD MSTORE DUP5 AND PUSH1 0x44 DUP3 ADD MSTORE PUSH1 0x64 DUP1 DUP3 ADD DUP5 SWAP1 MSTORE DUP3 MLOAD DUP1 DUP4 SUB SWAP1 SWAP2 ADD DUP2 MSTORE PUSH1 0x84 SWAP1 SWAP2 ADD SWAP1 SWAP2 MSTORE PUSH1 0x20 DUP2 ADD DUP1 MLOAD PUSH1 0x1 PUSH1 0x1 PUSH1 0xE0 SHL SUB AND PUSH4 0x23B872DD PUSH1 0xE0 SHL OR SWAP1 MSTORE PUSH2 0x1166 SWAP1 DUP6 SWAP1 PUSH2 0x116C JUMP JUMPDEST POP POP POP POP JUMP JUMPDEST PUSH1 0x0 PUSH2 0x11C1 DUP3 PUSH1 0x40 MLOAD DUP1 PUSH1 0x40 ADD PUSH1 0x40 MSTORE DUP1 PUSH1 0x20 DUP2 MSTORE PUSH1 0x20 ADD PUSH32 0x5361666545524332303A206C6F772D6C6576656C2063616C6C206661696C6564 DUP2 MSTORE POP DUP6 PUSH1 0x1 PUSH1 0x1 PUSH1 0xA0 SHL SUB AND PUSH2 0x1243 SWAP1 SWAP3 SWAP2 SWAP1 PUSH4 0xFFFFFFFF AND JUMP JUMPDEST DUP1 MLOAD SWAP1 SWAP2 POP ISZERO PUSH2 0x123E JUMPI DUP1 DUP1 PUSH1 0x20 ADD SWAP1 MLOAD DUP2 ADD SWAP1 PUSH2 0x11DF SWAP2 SWAP1 PUSH2 0x1564 JUMP JUMPDEST PUSH2 0x123E JUMPI PUSH1 0x40 MLOAD PUSH3 0x461BCD PUSH1 0xE5 SHL DUP2 MSTORE PUSH1 0x20 PUSH1 0x4 DUP3 ADD MSTORE PUSH1 0x2A PUSH1 0x24 DUP3 ADD MSTORE PUSH32 0x5361666545524332303A204552433230206F7065726174696F6E20646964206E PUSH1 0x44 DUP3 ADD MSTORE PUSH10 0x1BDD081CDD58D8D95959 PUSH1 0xB2 SHL PUSH1 0x64 DUP3 ADD MSTORE PUSH1 0x84 ADD PUSH2 0x39F JUMP JUMPDEST POP POP POP JUMP JUMPDEST PUSH1 0x60 PUSH2 0x1252 DUP5 DUP5 PUSH1 0x0 DUP6 PUSH2 0x125A JUMP JUMPDEST SWAP5 SWAP4 POP POP POP POP JUMP JUMPDEST PUSH1 0x60 DUP3 SELFBALANCE LT ISZERO PUSH2 0x12BB JUMPI PUSH1 0x40 MLOAD PUSH3 0x461BCD PUSH1 0xE5 SHL DUP2 MSTORE PUSH1 0x20 PUSH1 0x4 DUP3 ADD MSTORE PUSH1 0x26 PUSH1 0x24 DUP3 ADD MSTORE PUSH32 0x416464726573733A20696E73756666696369656E742062616C616E636520666F PUSH1 0x44 DUP3 ADD MSTORE PUSH6 0x1C8818D85B1B PUSH1 0xD2 SHL PUSH1 0x64 DUP3 ADD MSTORE PUSH1 0x84 ADD PUSH2 0x39F JUMP JUMPDEST PUSH1 0x0 DUP1 DUP7 PUSH1 0x1 PUSH1 0x1 PUSH1 0xA0 SHL SUB AND DUP6 DUP8 PUSH1 0x40 MLOAD PUSH2 0x12D7 SWAP2 SWAP1 PUSH2 0x15C3 JUMP JUMPDEST PUSH1 0x0 PUSH1 0x40 MLOAD DUP1 DUP4 SUB DUP2 DUP6 DUP8 GAS CALL SWAP3 POP POP POP RETURNDATASIZE DUP1 PUSH1 0x0 DUP2 EQ PUSH2 0x1314 JUMPI PUSH1 0x40 MLOAD SWAP2 POP PUSH1 0x1F NOT PUSH1 0x3F RETURNDATASIZE ADD AND DUP3 ADD PUSH1 0x40 MSTORE RETURNDATASIZE DUP3 MSTORE RETURNDATASIZE PUSH1 0x0 PUSH1 0x20 DUP5 ADD RETURNDATACOPY PUSH2 0x1319 JUMP JUMPDEST PUSH1 0x60 SWAP2 POP JUMPDEST POP SWAP2 POP SWAP2 POP PUSH2 0x132A DUP8 DUP4 DUP4 DUP8 PUSH2 0x1335 JUMP JUMPDEST SWAP8 SWAP7 POP POP POP POP POP POP POP JUMP JUMPDEST PUSH1 0x60 DUP4 ISZERO PUSH2 0x13A4 JUMPI DUP3 MLOAD PUSH1 0x0 SUB PUSH2 0x139D JUMPI PUSH1 0x1 PUSH1 0x1 PUSH1 0xA0 SHL SUB DUP6 AND EXTCODESIZE PUSH2 0x139D JUMPI PUSH1 0x40 MLOAD PUSH3 0x461BCD PUSH1 0xE5 SHL DUP2 MSTORE PUSH1 0x20 PUSH1 0x4 DUP3 ADD MSTORE PUSH1 0x1D PUSH1 0x24 DUP3 ADD MSTORE PUSH32 0x416464726573733A2063616C6C20746F206E6F6E2D636F6E7472616374000000 PUSH1 0x44 DUP3 ADD MSTORE PUSH1 0x64 ADD PUSH2 0x39F JUMP JUMPDEST POP DUP2 PUSH2 0x1252 JUMP JUMPDEST PUSH2 0x1252 DUP4 DUP4 DUP2 MLOAD ISZERO PUSH2 0x13B9 JUMPI DUP2 MLOAD DUP1 DUP4 PUSH1 0x20 ADD REVERT JUMPDEST DUP1 PUSH1 0x40 MLOAD PUSH3 0x461BCD PUSH1 0xE5 SHL DUP2 MSTORE PUSH1 0x4 ADD PUSH2 0x39F SWAP2 SWAP1 PUSH2 0x15DF JUMP JUMPDEST PUSH1 0x0 PUSH1 0x20 DUP3 DUP5 SUB SLT ISZERO PUSH2 0x13E5 JUMPI PUSH1 0x0 DUP1 REVERT JUMPDEST POP CALLDATALOAD SWAP2 SWAP1 POP JUMP JUMPDEST PUSH1 0x0 PUSH1 0x20 DUP3 DUP5 SUB SLT ISZERO PUSH2 0x13FE JUMPI PUSH1 0x0 DUP1 REVERT JUMPDEST DUP2 CALLDATALOAD PUSH1 0x1 PUSH1 0x1 PUSH1 0xA0 SHL SUB DUP2 AND DUP2 EQ PUSH2 0xE49 JUMPI PUSH1 0x0 DUP1 REVERT JUMPDEST PUSH1 0x20 DUP1 DUP3 MSTORE PUSH1 0x89 SWAP1 DUP3 ADD MSTORE PUSH32 0x496E73756666696369656E7420616D6F756E74206F66206E6174697665206375 PUSH1 0x40 DUP3 ADD MSTORE PUSH32 0x7272656E637920696E207468697320636F6E747261637420746F207472616E73 PUSH1 0x60 DUP3 ADD MSTORE PUSH32 0x666572206F75742E20506C6561736520636F6E746163742074686520636F6E74 PUSH1 0x80 DUP3 ADD MSTORE PUSH32 0x72616374206F776E657220746F20746F7020757020746865206E617469766520 PUSH1 0xA0 DUP3 ADD MSTORE PUSH9 0x31BAB93932B731BC97 PUSH1 0xB9 SHL PUSH1 0xC0 DUP3 ADD MSTORE PUSH1 0xE0 ADD SWAP1 JUMP JUMPDEST PUSH4 0x4E487B71 PUSH1 0xE0 SHL PUSH1 0x0 MSTORE PUSH1 0x11 PUSH1 0x4 MSTORE PUSH1 0x24 PUSH1 0x0 REVERT JUMPDEST DUP2 DUP2 SUB DUP2 DUP2 GT ISZERO PUSH2 0x14F9 JUMPI PUSH2 0x14F9 PUSH2 0x14D0 JUMP JUMPDEST SWAP3 SWAP2 POP POP JUMP JUMPDEST DUP1 DUP3 MUL DUP2 ISZERO DUP3 DUP3 DIV DUP5 EQ OR PUSH2 0x14F9 JUMPI PUSH2 0x14F9 PUSH2 0x14D0 JUMP JUMPDEST PUSH1 0x0 DUP3 PUSH2 0x1533 JUMPI PUSH4 0x4E487B71 PUSH1 0xE0 SHL PUSH1 0x0 MSTORE PUSH1 0x12 PUSH1 0x4 MSTORE PUSH1 0x24 PUSH1 0x0 REVERT JUMPDEST POP DIV SWAP1 JUMP JUMPDEST DUP1 DUP3 ADD DUP1 DUP3 GT ISZERO PUSH2 0x14F9 JUMPI PUSH2 0x14F9 PUSH2 0x14D0 JUMP JUMPDEST PUSH1 0x0 PUSH1 0x20 DUP3 DUP5 SUB SLT ISZERO PUSH2 0x155D JUMPI PUSH1 0x0 DUP1 REVERT JUMPDEST POP MLOAD SWAP2 SWAP1 POP JUMP JUMPDEST PUSH1 0x0 PUSH1 0x20 DUP3 DUP5 SUB SLT ISZERO PUSH2 0x1576 JUMPI PUSH1 0x0 DUP1 REVERT JUMPDEST DUP2 MLOAD DUP1 ISZERO ISZERO DUP2 EQ PUSH2 0xE49 JUMPI PUSH1 0x0 DUP1 REVERT JUMPDEST PUSH1 0x0 PUSH1 0x1 DUP3 ADD PUSH2 0x1598 JUMPI PUSH2 0x1598 PUSH2 0x14D0 JUMP JUMPDEST POP PUSH1 0x1 ADD SWAP1 JUMP JUMPDEST PUSH1 0x0 JUMPDEST DUP4 DUP2 LT ISZERO PUSH2 0x15BA JUMPI DUP2 DUP2 ADD MLOAD DUP4 DUP3 ADD MSTORE PUSH1 0x20 ADD PUSH2 0x15A2 JUMP JUMPDEST POP POP PUSH1 0x0 SWAP2 ADD MSTORE JUMP JUMPDEST PUSH1 0x0 DUP3 MLOAD PUSH2 0x15D5 DUP2 DUP5 PUSH1 0x20 DUP8 ADD PUSH2 0x159F JUMP JUMPDEST SWAP2 SWAP1 SWAP2 ADD SWAP3 SWAP2 POP POP JUMP JUMPDEST PUSH1 0x20 DUP2 MSTORE PUSH1 0x0 DUP3 MLOAD DUP1 PUSH1 0x20 DUP5 ADD MSTORE PUSH2 0x15FE DUP2 PUSH1 0x40 DUP6 ADD PUSH1 0x20 DUP8 ADD PUSH2 0x159F JUMP JUMPDEST PUSH1 0x1F ADD PUSH1 0x1F NOT AND SWAP2 SWAP1 SWAP2 ADD PUSH1 0x40 ADD SWAP3 SWAP2 POP POP JUMP INVALID LOG2 PUSH5 0x6970667358 0x22 SLT KECCAK256 PUSH7 0xA07C4FDB0393A2 0xAD SWAP15 0x26 SWAP3 PUSH15 0xFCD5DC2BA6302FBD761D169DDEC783 EQ 0x4C PUSH14 0x7564736F6C634300081100330000 "},"methodIdentifiers":{"addressMap(address)":"da5633ef","apr()":"57ded9c9","modifyAPR(uint256)":"9668f308","owner()":"8da5cb5b","presentEarning(address)":"b583ea51","renounceOwnership()":"715018a6","stake(uint256)":"a694fc3a","stakingAddresses()":"d3cec8ba","stakingToken()":"72f702f3","totalAccumulatedInterest()":"2e82c983","totalStakedAmount()":"567e98f9","totalWithdrawals()":"60464627","transferOwnership(address)":"f2fde38b","unstake(uint256)":"2e17de78","withdrawNativeCurrency(uint256)":"15f5254e","withdrawReward(uint256)":"523a3f08"}}}}}