{
  "_format": "hh-sol-artifact-1",
  "contractName": "Presale",
  "sourceName": "contracts/StandardICO.sol",
  "abi": [
    {
      "inputs": [
        {
          "internalType": "address",
          "name": "_token",
          "type": "address"
        },
        {
          "internalType": "uint256",
          "name": "_decimals",
          "type": "uint256"
        },
        {
          "internalType": "uint256",
          "name": "_poolFee",
          "type": "uint256"
        },
        {
          "internalType": "uint256",
          "name": "_affiliate",
          "type": "uint256"
        },
        {
          "internalType": "uint256",
          "name": "_softCap",
          "type": "uint256"
        },
        {
          "internalType": "uint256",
          "name": "_anticipatedRate",
          "type": "uint256"
        },
        {
          "internalType": "uint256",
          "name": "_startTime",
          "type": "uint256"
        },
        {
          "internalType": "uint256",
          "name": "_endTime",
          "type": "uint256"
        },
        {
          "internalType": "uint256",
          "name": "tokens",
          "type": "uint256"
        }
      ],
      "stateMutability": "payable",
      "type": "constructor"
    },
    {
      "anonymous": false,
      "inputs": [
        {
          "indexed": false,
          "internalType": "address",
          "name": "icoContract",
          "type": "address"
        },
        {
          "indexed": false,
          "internalType": "address",
          "name": "owner",
          "type": "address"
        },
        {
          "indexed": false,
          "internalType": "uint256",
          "name": "raised",
          "type": "uint256"
        },
        {
          "indexed": false,
          "internalType": "string",
          "name": "why",
          "type": "string"
        }
      ],
      "name": "Failed",
      "type": "event"
    },
    {
      "anonymous": false,
      "inputs": [
        {
          "indexed": true,
          "internalType": "address",
          "name": "previousOwner",
          "type": "address"
        },
        {
          "indexed": true,
          "internalType": "address",
          "name": "newOwner",
          "type": "address"
        }
      ],
      "name": "OwnershipTransferred",
      "type": "event"
    },
    {
      "anonymous": false,
      "inputs": [
        {
          "indexed": false,
          "internalType": "address",
          "name": "icoContract",
          "type": "address"
        },
        {
          "indexed": false,
          "internalType": "address",
          "name": "owner",
          "type": "address"
        },
        {
          "indexed": false,
          "internalType": "uint256",
          "name": "raised",
          "type": "uint256"
        }
      ],
      "name": "Success",
      "type": "event"
    },
    {
      "inputs": [
        {
          "internalType": "address",
          "name": "_admin",
          "type": "address"
        }
      ],
      "name": "addAdmin",
      "outputs": [],
      "stateMutability": "nonpayable",
      "type": "function"
    },
    {
      "inputs": [],
      "name": "cancelPool",
      "outputs": [],
      "stateMutability": "nonpayable",
      "type": "function"
    },
    {
      "inputs": [],
      "name": "claimTokens",
      "outputs": [],
      "stateMutability": "nonpayable",
      "type": "function"
    },
    {
      "inputs": [
        {
          "internalType": "address",
          "name": "rewardAddress",
          "type": "address"
        }
      ],
      "name": "contribute",
      "outputs": [],
      "stateMutability": "payable",
      "type": "function"
    },
    {
      "inputs": [],
      "name": "contribute",
      "outputs": [],
      "stateMutability": "payable",
      "type": "function"
    },
    {
      "inputs": [],
      "name": "emergencyWithdraw",
      "outputs": [],
      "stateMutability": "nonpayable",
      "type": "function"
    },
    {
      "inputs": [],
      "name": "finalize",
      "outputs": [],
      "stateMutability": "nonpayable",
      "type": "function"
    },
    {
      "inputs": [],
      "name": "getAffiliatePercentage",
      "outputs": [
        {
          "internalType": "uint256",
          "name": "",
          "type": "uint256"
        }
      ],
      "stateMutability": "view",
      "type": "function"
    },
    {
      "inputs": [],
      "name": "getAnticipatedRate",
      "outputs": [
        {
          "internalType": "uint256",
          "name": "",
          "type": "uint256"
        }
      ],
      "stateMutability": "view",
      "type": "function"
    },
    {
      "inputs": [
        {
          "internalType": "address",
          "name": "beneficiary",
          "type": "address"
        }
      ],
      "name": "getContribution",
      "outputs": [
        {
          "internalType": "uint256",
          "name": "",
          "type": "uint256"
        }
      ],
      "stateMutability": "view",
      "type": "function"
    },
    {
      "inputs": [],
      "name": "getContributors",
      "outputs": [
        {
          "internalType": "uint256",
          "name": "",
          "type": "uint256"
        }
      ],
      "stateMutability": "view",
      "type": "function"
    },
    {
      "inputs": [],
      "name": "getCurrentRate",
      "outputs": [
        {
          "internalType": "uint256",
          "name": "",
          "type": "uint256"
        }
      ],
      "stateMutability": "view",
      "type": "function"
    },
    {
      "inputs": [],
      "name": "getCurrentRewards",
      "outputs": [
        {
          "internalType": "uint256",
          "name": "",
          "type": "uint256"
        }
      ],
      "stateMutability": "view",
      "type": "function"
    },
    {
      "inputs": [],
      "name": "getEndTime",
      "outputs": [
        {
          "internalType": "uint256",
          "name": "",
          "type": "uint256"
        }
      ],
      "stateMutability": "view",
      "type": "function"
    },
    {
      "inputs": [],
      "name": "getHardCap",
      "outputs": [
        {
          "internalType": "uint256",
          "name": "",
          "type": "uint256"
        }
      ],
      "stateMutability": "view",
      "type": "function"
    },
    {
      "inputs": [],
      "name": "getPresaleTokens",
      "outputs": [
        {
          "internalType": "uint256",
          "name": "",
          "type": "uint256"
        }
      ],
      "stateMutability": "view",
      "type": "function"
    },
    {
      "inputs": [],
      "name": "getRaised",
      "outputs": [
        {
          "internalType": "uint256",
          "name": "",
          "type": "uint256"
        }
      ],
      "stateMutability": "view",
      "type": "function"
    },
    {
      "inputs": [],
      "name": "getReferrerCount",
      "outputs": [
        {
          "internalType": "uint256",
          "name": "",
          "type": "uint256"
        }
      ],
      "stateMutability": "view",
      "type": "function"
    },
    {
      "inputs": [],
      "name": "getRefund",
      "outputs": [
        {
          "internalType": "bool",
          "name": "",
          "type": "bool"
        }
      ],
      "stateMutability": "view",
      "type": "function"
    },
    {
      "inputs": [
        {
          "internalType": "address",
          "name": "beneficiary",
          "type": "address"
        }
      ],
      "name": "getReward",
      "outputs": [
        {
          "internalType": "uint256",
          "name": "",
          "type": "uint256"
        }
      ],
      "stateMutability": "view",
      "type": "function"
    },
    {
      "inputs": [],
      "name": "getSoftCap",
      "outputs": [
        {
          "internalType": "uint256",
          "name": "",
          "type": "uint256"
        }
      ],
      "stateMutability": "view",
      "type": "function"
    },
    {
      "inputs": [],
      "name": "getStartTime",
      "outputs": [
        {
          "internalType": "uint256",
          "name": "",
          "type": "uint256"
        }
      ],
      "stateMutability": "view",
      "type": "function"
    },
    {
      "inputs": [],
      "name": "getStatus",
      "outputs": [
        {
          "internalType": "uint256",
          "name": "",
          "type": "uint256"
        }
      ],
      "stateMutability": "view",
      "type": "function"
    },
    {
      "inputs": [],
      "name": "getTimeStamp",
      "outputs": [
        {
          "internalType": "uint256",
          "name": "",
          "type": "uint256"
        }
      ],
      "stateMutability": "view",
      "type": "function"
    },
    {
      "inputs": [],
      "name": "getToken",
      "outputs": [
        {
          "internalType": "address",
          "name": "",
          "type": "address"
        }
      ],
      "stateMutability": "view",
      "type": "function"
    },
    {
      "inputs": [],
      "name": "getTotalRefund",
      "outputs": [
        {
          "internalType": "uint256",
          "name": "",
          "type": "uint256"
        }
      ],
      "stateMutability": "view",
      "type": "function"
    },
    {
      "inputs": [],
      "name": "owner",
      "outputs": [
        {
          "internalType": "address",
          "name": "",
          "type": "address"
        }
      ],
      "stateMutability": "view",
      "type": "function"
    },
    {
      "inputs": [
        {
          "internalType": "address",
          "name": "_admin",
          "type": "address"
        }
      ],
      "name": "removeAdmin",
      "outputs": [],
      "stateMutability": "nonpayable",
      "type": "function"
    },
    {
      "inputs": [],
      "name": "renounceOwnership",
      "outputs": [],
      "stateMutability": "nonpayable",
      "type": "function"
    },
    {
      "inputs": [
        {
          "internalType": "uint256",
          "name": "value",
          "type": "uint256"
        }
      ],
      "name": "setAffiliatePercentage",
      "outputs": [],
      "stateMutability": "nonpayable",
      "type": "function"
    },
    {
      "inputs": [
        {
          "internalType": "uint256",
          "name": "value",
          "type": "uint256"
        }
      ],
      "name": "setAnticipatedRate",
      "outputs": [],
      "stateMutability": "nonpayable",
      "type": "function"
    },
    {
      "inputs": [
        {
          "internalType": "uint256",
          "name": "value",
          "type": "uint256"
        }
      ],
      "name": "setEndTime",
      "outputs": [],
      "stateMutability": "nonpayable",
      "type": "function"
    },
    {
      "inputs": [
        {
          "internalType": "uint256",
          "name": "value",
          "type": "uint256"
        }
      ],
      "name": "setSoftCap",
      "outputs": [],
      "stateMutability": "nonpayable",
      "type": "function"
    },
    {
      "inputs": [
        {
          "internalType": "uint256",
          "name": "value",
          "type": "uint256"
        }
      ],
      "name": "setStartTime",
      "outputs": [],
      "stateMutability": "nonpayable",
      "type": "function"
    },
    {
      "inputs": [],
      "name": "takeEthers",
      "outputs": [],
      "stateMutability": "nonpayable",
      "type": "function"
    },
    {
      "inputs": [],
      "name": "takeTokens",
      "outputs": [],
      "stateMutability": "nonpayable",
      "type": "function"
    },
    {
      "inputs": [
        {
          "internalType": "address",
          "name": "newOwner",
          "type": "address"
        }
      ],
      "name": "transferOwnership",
      "outputs": [],
      "stateMutability": "nonpayable",
      "type": "function"
    },
    {
      "inputs": [],
      "name": "withdrawRefund",
      "outputs": [],
      "stateMutability": "nonpayable",
      "type": "function"
    },
    {
      "inputs": [],
      "name": "withdrawTokens",
      "outputs": [],
      "stateMutability": "nonpayable",
      "type": "function"
    },
    {
      "stateMutability": "payable",
      "type": "receive"
    }
  ],
  "bytecode": "0x608060408190526015805460ff191690556200230c388190039081908339810160408190526200002f91620001f6565b60016000556200003f33620001a4565b6001600160a01b038916620000a75760405162461bcd60e51b815260206004820152602360248201527f5072652d53616c653a20746f6b656e20697320746865207a65726f206164647260448201526265737360e81b60648201526084015b60405180910390fd5b60003411620000ee5760405162461bcd60e51b8152602060048201526012602482015271496e73756666696369656e742046756e647360701b60448201526064016200009e565b6040517375280424f429fef999c56eb0c2cc2f9095c0cf05903480156108fc02916000818181858888f193505050501580156200012f573d6000803e3d6000fd5b50600c8054336001600160a01b031991821617909155600b80549091166001600160a01b039a8b16179055600d97909755600e95909555600f93909355601091909155601355601155601255601455600180549091166000908152600260205260409020805460ff1916909117905562000278565b600180546001600160a01b038381166001600160a01b0319831681179093556040519116919082907f8be0079c531659141344cd1fd0a4f28419497f9722a3daafe3b4186f6b6457e090600090a35050565b60008060008060008060008060006101208a8c0312156200021657600080fd5b89516001600160a01b03811681146200022e57600080fd5b8099505060208a0151975060408a0151965060608a0151955060808a0151945060a08a0151935060c08a0151925060e08a015191506101008a015190509295985092959850929598565b61208480620002886000396000f3fe6080604052600436106102345760003560e01c8063715018a61161012e578063c00007b0116100ab578063da235b221161006f578063da235b221461062a578063db2e21bc1461063d578063f2fde38b14610652578063f7fb07b014610672578063fac5dbc61461068757600080fd5b8063c00007b014610597578063c828371e146105cd578063ccb98ffc146105e2578063d5cf5c7214610602578063d7bb99ba1461062257600080fd5b80639a7e6441116100f25780639a7e644114610520578063af157c1914610535578063b2d5ae441461054a578063b692c89d1461056d578063bf0a07bd1461058257600080fd5b8063715018a6146104a557806373e888fd146104ba5780638d8f2adb146104cd5780638da5cb5b146104e25780638dad18b41461050057600080fd5b8063439f5ac2116101bc5780634e69d560116101805780634e69d56014610431578063559659fa1461044657806356e76aa31461045b578063638723bf14610470578063704802751461048557600080fd5b8063439f5ac2146103c857806344048f23146103dd57806348c54b9d146103f25780634bb278f3146104075780634d52a5121461041c57600080fd5b806321eff7fc1161020357806321eff7fc14610325578063318c00fc14610369578063344dad401461037e5780633e0a322d146103935780633efe1ff9146103b357600080fd5b8063110f8874146102a45780631785f53c146102b95780631b55b2a8146102d957806321df0da7146102ee57600080fd5b3661029f576102416106a7565b6002036102615761025f335b6001546001600160a01b0316346106f9565b005b60405162461bcd60e51b815260206004820152600e60248201526d49434f204e6f742041637469766560901b60448201526064015b60405180910390fd5b600080fd5b3480156102b057600080fd5b5061025f61098a565b3480156102c557600080fd5b5061025f6102d4366004611da8565b610aad565b3480156102e557600080fd5b5061025f610b1e565b3480156102fa57600080fd5b50600b546001600160a01b03165b6040516001600160a01b0390911681526020015b60405180910390f35b34801561033157600080fd5b5061035b610340366004611da8565b6001600160a01b031660009081526003602052604090205490565b60405190815260200161031c565b34801561037557600080fd5b5061025f610ce0565b34801561038a57600080fd5b5060095461035b565b34801561039f57600080fd5b5061025f6103ae366004611dd8565b610eba565b3480156103bf57600080fd5b50600a5461035b565b3480156103d457600080fd5b5060125461035b565b3480156103e957600080fd5b50600f5461035b565b3480156103fe57600080fd5b5061025f610f39565b34801561041357600080fd5b5061025f611083565b34801561042857600080fd5b5060105461035b565b34801561043d57600080fd5b5061035b6106a7565b34801561045257600080fd5b5060065461035b565b34801561046757600080fd5b5060145461035b565b34801561047c57600080fd5b5061025f611234565b34801561049157600080fd5b5061025f6104a0366004611da8565b6112eb565b3480156104b157600080fd5b5061025f61135f565b61025f6104c8366004611da8565b611371565b3480156104d957600080fd5b5061025f6113b5565b3480156104ee57600080fd5b506001546001600160a01b0316610308565b34801561050c57600080fd5b5061025f61051b366004611dd8565b61159b565b34801561052c57600080fd5b5060135461035b565b34801561054157600080fd5b5060045461035b565b34801561055657600080fd5b5060155460ff16604051901515815260200161031c565b34801561057957600080fd5b5060055461035b565b34801561058e57600080fd5b5061035b6115cf565b3480156105a357600080fd5b5061035b6105b2366004611da8565b6001600160a01b031660009081526007602052604090205490565b3480156105d957600080fd5b5060115461035b565b3480156105ee57600080fd5b5061025f6105fd366004611dd8565b6115ed565b34801561060e57600080fd5b5061025f61061d366004611dd8565b611621565b61025f611655565b34801561063657600080fd5b504261035b565b34801561064957600080fd5b5061025f611697565b34801561065e57600080fd5b5061025f61066d366004611da8565b6119cb565b34801561067e57600080fd5b5061035b611a41565b34801561069357600080fd5b5061025f6106a2366004611dd8565b611a64565b60155460009060ff16156106bb5750600490565b6011546106ca906103e8611a98565b4210156106d75750600190565b6012546106e6906103e8611a98565b4210156106f35750600290565b50600390565b6107038382611aad565b6001600160a01b038316600090815260036020526040902054610736576004805490600061073083611e07565b91905055505b6005546107439082611b6a565b6005556001600160a01b0383166000908152600360205260409020546107699082611b6a565b6001600160a01b038416600090815260036020526040902055600f5415610985576001600160a01b0382166000908152600760205260409020546107bd57600980549060006107b783611e07565b91905055505b60006107df60646107d9600f5485611b7690919063ffffffff16565b90611a98565b6001600160a01b0384166000908152600760205260409020549091506108059082611b6a565b6001600160a01b038085166000908152600760209081526040808320949094559187168152600890915290812090805b82548110156108ed57856001600160a01b031683828154811061085a5761085a611e20565b60009182526020909120600290910201546001600160a01b0316036108db576108af8584838154811061088f5761088f611e20565b906000526020600020906002020160010154611b6a90919063ffffffff16565b8382815481106108c1576108c1611e20565b906000526020600020906002020160010181905550600191505b806108e581611e07565b915050610835565b508061094a57604080518082019091526001600160a01b03868116825260208083018781528554600180820188556000888152939093209451600290910290940180546001600160a01b0319169490931693909317825591519101555b6001600160a01b0386166000908152600860205260409020825461097091908490611d0a565b50600a5461097e9084611b6a565b600a555050505b505050565b60155460ff16806109c2575061099e6106a7565b60031480156109c257506010546109bd90670de0b6b3a7640000611b76565b600554105b610a035760405162461bcd60e51b81526020600482015260126024820152711499599d5b99081b9bdd081cdd185c9d195960721b6044820152606401610296565b3360009081526003602052604090205480610a565760405162461bcd60e51b81526020600482015260136024820152724e6f20526566756e6420417661696c61626c6560681b6044820152606401610296565b804710610aaa5733600081815260036020526040808220829055516108fc84150291849190818181858888f19350505050158015610a98573d6000803e3d6000fd5b50600654610aa69082611b82565b6006555b50565b610ab5611b8e565b6001600160a01b038116610afd5760405162461bcd60e51b815260206004820152600f60248201526e61646472657373206973207a65726f60881b6044820152606401610296565b6001600160a01b03166000908152600260205260409020805460ff19169055565b610b26611be8565b610b2e6106a7565b600214610b4d5760405162461bcd60e51b815260040161029690611e36565b610b55611b8e565b6005546006556015805460ff191660011790556000601255600b546040516370a0823160e01b81523060048201526001600160a01b039091169063a9059cbb90339083906370a0823190602401602060405180830381865afa158015610bbf573d6000803e3d6000fd5b505050506040513d601f19601f82011682018060405250810190610be39190611e62565b6040516001600160e01b031960e085901b1681526001600160a01b03909216600483015260248201526044016020604051808303816000875af1158015610c2e573d6000803e3d6000fd5b505050506040513d601f19601f82011682018060405250810190610c529190611e7b565b507f6f9aa0523f9d8c5443c3c3ff14e19708756d32d385962578a1f60a8adcfa617030610c876001546001600160a01b031690565b600654604080516001600160a01b039485168152939092166020840152908201526080606082018190526009908201526810d85b98d95b1b195960ba1b60a082015260c00160405180910390a1610cde6001600055565b565b337375280424f429fef999c56eb0c2cc2f9095c0cf0514610d2f5760405162461bcd60e51b81526020600482015260096024820152684f6e6c7920426f737360b81b6044820152606401610296565b600b546040516370a0823160e01b81523060048201526000916001600160a01b0316906370a0823190602401602060405180830381865afa158015610d78573d6000803e3d6000fd5b505050506040513d601f19601f82011682018060405250810190610d9c9190611e62565b11610dd55760405162461bcd60e51b81526020600482015260096024820152684e6f20546f6b656e7360b81b6044820152606401610296565b600b546040516370a0823160e01b81523060048201526001600160a01b039091169063a9059cbb90339083906370a0823190602401602060405180830381865afa158015610e27573d6000803e3d6000fd5b505050506040513d601f19601f82011682018060405250810190610e4b9190611e62565b6040516001600160e01b031960e085901b1681526001600160a01b03909216600483015260248201526044016020604051808303816000875af1158015610e96573d6000803e3d6000fd5b505050506040513d601f19601f82011682018060405250810190610aaa9190611e7b565b3360009081526002602052604090205460ff16610ee95760405162461bcd60e51b815260040161029690611e9d565b610ef16106a7565b600114610f345760405162461bcd60e51b815260206004820152601160248201527024a1a79030b63932b0b23c903132b3b0b760791b6044820152606401610296565b601155565b610f41611be8565b610f496106a7565b600314610f8c5760405162461bcd60e51b815260206004820152601160248201527024b73b30b634b21027b832b930ba34b7b760791b6044820152606401610296565b601054610fa190670de0b6b3a7640000611b76565b6005541015610fe85760405162461bcd60e51b815260206004820152601360248201527214dbd99d18d85c081b9bdd081c995858da1959606a1b6044820152606401610296565b3360009081526003602052604090205461103c5760405162461bcd60e51b8152602060048201526015602482015274139bc818dbdb9d1c9a589d5d1a5bdb88199bdd5b99605a1b6044820152606401610296565b33600090815260036020526040812054611054611a41565b61105e9190611fcc565b905061106a3382611c41565b5033600090815260036020526040812081905560019055565b61108b6106a7565b6003146110ce5760405162461bcd60e51b815260206004820152601160248201527024b73b30b634b21027b832b930ba34b7b760791b6044820152606401610296565b6010546110e390670de0b6b3a7640000611b76565b600554101561112a5760405162461bcd60e51b815260206004820152601360248201527214dbd99d18d85c081b9bdd081c995858da1959606a1b6044820152606401610296565b611132611b8e565b600061115060646107d9600554600e54611b7690919063ffffffff16565b6040519091507375280424f429fef999c56eb0c2cc2f9095c0cf059082156108fc029083906000818181858888f19350505050158015611194573d6000803e3d6000fd5b5060055433906108fc906111a89084611b82565b6040518115909202916000818181858888f193505050501580156111d0573d6000803e3d6000fd5b507f874f886a60392abb180676546b433d61143fdc5753868148c3ec0edf699cda7e306112056001546001600160a01b031690565b600554604080516001600160a01b0394851681529390921660208401529082015260600160405180910390a150565b337375280424f429fef999c56eb0c2cc2f9095c0cf05146112835760405162461bcd60e51b81526020600482015260096024820152684f6e6c7920426f737360b81b6044820152606401610296565b600047116112bf5760405162461bcd60e51b81526020600482015260096024820152684e6f2045746865727360b81b6044820152606401610296565b60405133904780156108fc02916000818181858888f19350505050158015610aaa573d6000803e3d6000fd5b6112f3611b8e565b6001600160a01b03811661133b5760405162461bcd60e51b815260206004820152600f60248201526e61646472657373206973207a65726f60881b6044820152606401610296565b6001600160a01b03166000908152600260205260409020805460ff19166001179055565b611367611b8e565b610cde6000611cb8565b611379611be8565b6113816106a7565b6002146113a05760405162461bcd60e51b815260040161029690611e36565b6113ab3382346106f9565b610aaa6001600055565b60155460ff16806113ed57506113c96106a7565b60031480156113ed57506010546113e890670de0b6b3a7640000611b76565b600554105b61142e5760405162461bcd60e51b81526020600482015260126024820152711499599d5b99081b9bdd081cdd185c9d195960721b6044820152606401610296565b611436611b8e565b600b546040516370a0823160e01b81523060048201526001600160a01b039091169063a9059cbb90339083906370a0823190602401602060405180830381865afa158015611488573d6000803e3d6000fd5b505050506040513d601f19601f820116820180604052508101906114ac9190611e62565b6040516001600160e01b031960e085901b1681526001600160a01b03909216600483015260248201526044016020604051808303816000875af11580156114f7573d6000803e3d6000fd5b505050506040513d601f19601f8201168201806040525081019061151b9190611e7b565b507f6f9aa0523f9d8c5443c3c3ff14e19708756d32d385962578a1f60a8adcfa6170306115506001546001600160a01b031690565b600654604080516001600160a01b0394851681529390921660208401529082015260806060820181905260059082015264115b99195960da1b60a082015260c00160405180910390a1565b3360009081526002602052604090205460ff166115ca5760405162461bcd60e51b815260040161029690611e9d565b601355565b60006115e8601354601454611a9890919063ffffffff16565b905090565b3360009081526002602052604090205460ff1661161c5760405162461bcd60e51b815260040161029690611e9d565b601255565b3360009081526002602052604090205460ff166116505760405162461bcd60e51b815260040161029690611e9d565b601055565b61165d611be8565b6116656106a7565b6002146116845760405162461bcd60e51b815260040161029690611e36565b61168d3361024d565b610cde6001600055565b61169f611be8565b6116a76106a7565b6002146116c65760405162461bcd60e51b815260040161029690611e36565b3360009081526003602052604090205461171a5760405162461bcd60e51b8152602060048201526015602482015274139bc818dbdb9d1c9a589d5d1a5bdb88199bdd5b99605a1b6044820152606401610296565b336000908152600360205260408120549061173b60646107d9600a85611b76565b905060006117498383611b82565b6040519091507375280424f429fef999c56eb0c2cc2f9095c0cf059083156108fc029084906000818181858888f1935050505015801561178d573d6000803e3d6000fd5b50604051339082156108fc029083906000818181858888f193505050501580156117bb573d6000803e3d6000fd5b50600480549060006117cc83611fd8565b90915550506005546117de9084611b82565b60055533600090815260036020526040812055600f54156119be57336000908152600860205260408120905b81548110156119745761189961185360646107d985858154811061183057611830611e20565b906000526020600020906002020160010154600f54611b7690919063ffffffff16565b6007600085858154811061186957611869611e20565b600091825260208083206002909202909101546001600160a01b0316835282019290925260400190205490611b82565b600760008484815481106118af576118af611e20565b600091825260208083206002909202909101546001600160a01b03168352820192909252604001812091909155825460079082908590859081106118f5576118f5611e20565b600091825260208083206002909202909101546001600160a01b031683528201929092526040019020541161193a576009805490600061193483611fd8565b91905055505b600082828154811061194e5761194e611e20565b60009182526020909120600160029092020101558061196c81611e07565b91505061180a565b50336000908152600860205260409020815461199291908390611d0a565b506119b96119b060646107d987600f54611b7690919063ffffffff16565b600a5490611b82565b600a55505b505050610cde6001600055565b6119d3611b8e565b6001600160a01b038116611a385760405162461bcd60e51b815260206004820152602660248201527f4f776e61626c653a206e6577206f776e657220697320746865207a65726f206160448201526564647265737360d01b6064820152608401610296565b610aaa81611cb8565b60006115e86005546107d9600d54600a611a5b9190611fcc565b60145490611b76565b3360009081526002602052604090205460ff16611a935760405162461bcd60e51b815260040161029690611e9d565b600f55565b6000611aa48284611fef565b90505b92915050565b6001600160a01b038216611b165760405162461bcd60e51b815260206004820152602a60248201527f43726f776473616c653a2062656e656669636961727920697320746865207a65604482015269726f206164647265737360b01b6064820152608401610296565b60008111611b665760405162461bcd60e51b815260206004820152601b60248201527f496e76616c696420636f6e747269627574696f6e20616d6f756e7400000000006044820152606401610296565b5050565b6000611aa48284612011565b6000611aa48284612024565b6000611aa4828461203b565b6001546001600160a01b03163314610cde5760405162461bcd60e51b815260206004820181905260248201527f4f776e61626c653a2063616c6c6572206973206e6f7420746865206f776e65726044820152606401610296565b600260005403611c3a5760405162461bcd60e51b815260206004820152601f60248201527f5265656e7472616e637947756172643a207265656e7472616e742063616c6c006044820152606401610296565b6002600055565b600b5460405163a9059cbb60e01b81526001600160a01b038481166004830152602482018490529091169063a9059cbb906044016020604051808303816000875af1158015611c94573d6000803e3d6000fd5b505050506040513d601f19601f820116820180604052508101906109859190611e7b565b600180546001600160a01b038381166001600160a01b0319831681179093556040519116919082907f8be0079c531659141344cd1fd0a4f28419497f9722a3daafe3b4186f6b6457e090600090a35050565b828054828255906000526020600020906002028101928215611d725760005260206000209160020282015b82811115611d7257825482546001600160a01b0319166001600160a01b039091161782556001808401549083015560029283019290910190611d35565b50611d7e929150611d82565b5090565b5b80821115611d7e5780546001600160a01b031916815560006001820155600201611d83565b600060208284031215611dba57600080fd5b81356001600160a01b0381168114611dd157600080fd5b9392505050565b600060208284031215611dea57600080fd5b5035919050565b634e487b7160e01b600052601160045260246000fd5b600060018201611e1957611e19611df1565b5060010190565b634e487b7160e01b600052603260045260246000fd5b60208082526012908201527149434f206d7573742062652061637469766560701b604082015260600190565b600060208284031215611e7457600080fd5b5051919050565b600060208284031215611e8d57600080fd5b81518015158114611dd157600080fd5b6020808252602b908201527f49434f3a206f6e6c792041646d696e2063616e2063616c6c207468697320667560408201526a6e6374696f6e616c69747960a81b606082015260800190565b600181815b80851115611f23578160001904821115611f0957611f09611df1565b80851615611f1657918102915b93841c9390800290611eed565b509250929050565b600082611f3a57506001611aa7565b81611f4757506000611aa7565b8160018114611f5d5760028114611f6757611f83565b6001915050611aa7565b60ff841115611f7857611f78611df1565b50506001821b611aa7565b5060208310610133831016604e8410600b8410161715611fa6575081810a611aa7565b611fb08383611ee8565b8060001904821115611fc457611fc4611df1565b029392505050565b6000611aa48383611f2b565b600081611fe757611fe7611df1565b506000190190565b60008261200c57634e487b7160e01b600052601260045260246000fd5b500490565b80820180821115611aa757611aa7611df1565b8082028115828204841417611aa757611aa7611df1565b81810381811115611aa757611aa7611df156fea26469706673582212204905168fbb4a59cb1f58d1ae25dc9dc246734e599f898d392adb624ad269d39164736f6c63430008110033",
  "linkReferences": {},
  "deployedLinkReferences": {}
}