{
  "_format": "hh-sol-artifact-1",
  "contractName": "Presale",
  "sourceName": "contracts/StandardICO.sol",
  "abi": [
    {
      "inputs": [
        {
          "internalType": "address",
          "name": "_token",
          "type": "address"
        },
        {
          "internalType": "uint256",
          "name": "_decimals",
          "type": "uint256"
        },
        {
          "internalType": "uint256",
          "name": "_poolFee",
          "type": "uint256"
        },
        {
          "internalType": "uint256",
          "name": "_affiliate",
          "type": "uint256"
        },
        {
          "internalType": "uint256",
          "name": "_softCap",
          "type": "uint256"
        },
        {
          "internalType": "uint256",
          "name": "_anticipatedRate",
          "type": "uint256"
        },
        {
          "internalType": "uint256",
          "name": "_startTime",
          "type": "uint256"
        },
        {
          "internalType": "uint256",
          "name": "_endTime",
          "type": "uint256"
        },
        {
          "internalType": "uint256",
          "name": "tokens",
          "type": "uint256"
        }
      ],
      "stateMutability": "payable",
      "type": "constructor"
    },
    {
      "anonymous": false,
      "inputs": [
        {
          "indexed": false,
          "internalType": "address",
          "name": "icoContract",
          "type": "address"
        },
        {
          "indexed": false,
          "internalType": "address",
          "name": "owner",
          "type": "address"
        },
        {
          "indexed": false,
          "internalType": "uint256",
          "name": "raised",
          "type": "uint256"
        },
        {
          "indexed": false,
          "internalType": "string",
          "name": "why",
          "type": "string"
        }
      ],
      "name": "Failed",
      "type": "event"
    },
    {
      "anonymous": false,
      "inputs": [
        {
          "indexed": true,
          "internalType": "address",
          "name": "previousOwner",
          "type": "address"
        },
        {
          "indexed": true,
          "internalType": "address",
          "name": "newOwner",
          "type": "address"
        }
      ],
      "name": "OwnershipTransferred",
      "type": "event"
    },
    {
      "anonymous": false,
      "inputs": [
        {
          "indexed": false,
          "internalType": "address",
          "name": "icoContract",
          "type": "address"
        },
        {
          "indexed": false,
          "internalType": "address",
          "name": "owner",
          "type": "address"
        },
        {
          "indexed": false,
          "internalType": "uint256",
          "name": "raised",
          "type": "uint256"
        }
      ],
      "name": "Success",
      "type": "event"
    },
    {
      "inputs": [
        {
          "internalType": "address",
          "name": "_admin",
          "type": "address"
        }
      ],
      "name": "addAdmin",
      "outputs": [],
      "stateMutability": "nonpayable",
      "type": "function"
    },
    {
      "inputs": [],
      "name": "cancelPool",
      "outputs": [],
      "stateMutability": "nonpayable",
      "type": "function"
    },
    {
      "inputs": [],
      "name": "claimTokens",
      "outputs": [],
      "stateMutability": "nonpayable",
      "type": "function"
    },
    {
      "inputs": [
        {
          "internalType": "address",
          "name": "rewardAddress",
          "type": "address"
        }
      ],
      "name": "contribute",
      "outputs": [],
      "stateMutability": "payable",
      "type": "function"
    },
    {
      "inputs": [],
      "name": "contribute",
      "outputs": [],
      "stateMutability": "payable",
      "type": "function"
    },
    {
      "inputs": [],
      "name": "emergencyWithdraw",
      "outputs": [],
      "stateMutability": "nonpayable",
      "type": "function"
    },
    {
      "inputs": [],
      "name": "finalize",
      "outputs": [],
      "stateMutability": "nonpayable",
      "type": "function"
    },
    {
      "inputs": [],
      "name": "getAffiliatePercentage",
      "outputs": [
        {
          "internalType": "uint256",
          "name": "",
          "type": "uint256"
        }
      ],
      "stateMutability": "view",
      "type": "function"
    },
    {
      "inputs": [],
      "name": "getAnticipatedRate",
      "outputs": [
        {
          "internalType": "uint256",
          "name": "",
          "type": "uint256"
        }
      ],
      "stateMutability": "view",
      "type": "function"
    },
    {
      "inputs": [
        {
          "internalType": "address",
          "name": "beneficiary",
          "type": "address"
        }
      ],
      "name": "getContribution",
      "outputs": [
        {
          "internalType": "uint256",
          "name": "",
          "type": "uint256"
        }
      ],
      "stateMutability": "view",
      "type": "function"
    },
    {
      "inputs": [],
      "name": "getContributors",
      "outputs": [
        {
          "internalType": "uint256",
          "name": "",
          "type": "uint256"
        }
      ],
      "stateMutability": "view",
      "type": "function"
    },
    {
      "inputs": [],
      "name": "getCurrentRate",
      "outputs": [
        {
          "internalType": "uint256",
          "name": "",
          "type": "uint256"
        }
      ],
      "stateMutability": "view",
      "type": "function"
    },
    {
      "inputs": [],
      "name": "getCurrentRewards",
      "outputs": [
        {
          "internalType": "uint256",
          "name": "",
          "type": "uint256"
        }
      ],
      "stateMutability": "view",
      "type": "function"
    },
    {
      "inputs": [],
      "name": "getEndTime",
      "outputs": [
        {
          "internalType": "uint256",
          "name": "",
          "type": "uint256"
        }
      ],
      "stateMutability": "view",
      "type": "function"
    },
    {
      "inputs": [],
      "name": "getHardCap",
      "outputs": [
        {
          "internalType": "uint256",
          "name": "",
          "type": "uint256"
        }
      ],
      "stateMutability": "view",
      "type": "function"
    },
    {
      "inputs": [],
      "name": "getPresaleTokens",
      "outputs": [
        {
          "internalType": "uint256",
          "name": "",
          "type": "uint256"
        }
      ],
      "stateMutability": "view",
      "type": "function"
    },
    {
      "inputs": [],
      "name": "getRaised",
      "outputs": [
        {
          "internalType": "uint256",
          "name": "",
          "type": "uint256"
        }
      ],
      "stateMutability": "view",
      "type": "function"
    },
    {
      "inputs": [],
      "name": "getReferrerCount",
      "outputs": [
        {
          "internalType": "uint256",
          "name": "",
          "type": "uint256"
        }
      ],
      "stateMutability": "view",
      "type": "function"
    },
    {
      "inputs": [],
      "name": "getRefund",
      "outputs": [
        {
          "internalType": "bool",
          "name": "",
          "type": "bool"
        }
      ],
      "stateMutability": "view",
      "type": "function"
    },
    {
      "inputs": [
        {
          "internalType": "address",
          "name": "beneficiary",
          "type": "address"
        }
      ],
      "name": "getReward",
      "outputs": [
        {
          "internalType": "uint256",
          "name": "",
          "type": "uint256"
        }
      ],
      "stateMutability": "view",
      "type": "function"
    },
    {
      "inputs": [],
      "name": "getSoftCap",
      "outputs": [
        {
          "internalType": "uint256",
          "name": "",
          "type": "uint256"
        }
      ],
      "stateMutability": "view",
      "type": "function"
    },
    {
      "inputs": [],
      "name": "getStartTime",
      "outputs": [
        {
          "internalType": "uint256",
          "name": "",
          "type": "uint256"
        }
      ],
      "stateMutability": "view",
      "type": "function"
    },
    {
      "inputs": [],
      "name": "getStatus",
      "outputs": [
        {
          "internalType": "uint256",
          "name": "",
          "type": "uint256"
        }
      ],
      "stateMutability": "view",
      "type": "function"
    },
    {
      "inputs": [],
      "name": "getTimeStamp",
      "outputs": [
        {
          "internalType": "uint256",
          "name": "",
          "type": "uint256"
        }
      ],
      "stateMutability": "view",
      "type": "function"
    },
    {
      "inputs": [],
      "name": "getToken",
      "outputs": [
        {
          "internalType": "address",
          "name": "",
          "type": "address"
        }
      ],
      "stateMutability": "view",
      "type": "function"
    },
    {
      "inputs": [],
      "name": "owner",
      "outputs": [
        {
          "internalType": "address",
          "name": "",
          "type": "address"
        }
      ],
      "stateMutability": "view",
      "type": "function"
    },
    {
      "inputs": [
        {
          "internalType": "address",
          "name": "_admin",
          "type": "address"
        }
      ],
      "name": "removeAdmin",
      "outputs": [],
      "stateMutability": "nonpayable",
      "type": "function"
    },
    {
      "inputs": [],
      "name": "renounceOwnership",
      "outputs": [],
      "stateMutability": "nonpayable",
      "type": "function"
    },
    {
      "inputs": [
        {
          "internalType": "uint256",
          "name": "value",
          "type": "uint256"
        }
      ],
      "name": "setAffiliatePercentage",
      "outputs": [],
      "stateMutability": "nonpayable",
      "type": "function"
    },
    {
      "inputs": [
        {
          "internalType": "uint256",
          "name": "value",
          "type": "uint256"
        }
      ],
      "name": "setAnticipatedRate",
      "outputs": [],
      "stateMutability": "nonpayable",
      "type": "function"
    },
    {
      "inputs": [
        {
          "internalType": "uint256",
          "name": "value",
          "type": "uint256"
        }
      ],
      "name": "setEndTime",
      "outputs": [],
      "stateMutability": "nonpayable",
      "type": "function"
    },
    {
      "inputs": [
        {
          "internalType": "uint256",
          "name": "value",
          "type": "uint256"
        }
      ],
      "name": "setSoftCap",
      "outputs": [],
      "stateMutability": "nonpayable",
      "type": "function"
    },
    {
      "inputs": [
        {
          "internalType": "uint256",
          "name": "value",
          "type": "uint256"
        }
      ],
      "name": "setStartTime",
      "outputs": [],
      "stateMutability": "nonpayable",
      "type": "function"
    },
    {
      "inputs": [],
      "name": "softReached",
      "outputs": [
        {
          "internalType": "bool",
          "name": "",
          "type": "bool"
        }
      ],
      "stateMutability": "view",
      "type": "function"
    },
    {
      "inputs": [],
      "name": "takeEthers",
      "outputs": [],
      "stateMutability": "nonpayable",
      "type": "function"
    },
    {
      "inputs": [],
      "name": "takeTokens",
      "outputs": [],
      "stateMutability": "nonpayable",
      "type": "function"
    },
    {
      "inputs": [
        {
          "internalType": "address",
          "name": "newOwner",
          "type": "address"
        }
      ],
      "name": "transferOwnership",
      "outputs": [],
      "stateMutability": "nonpayable",
      "type": "function"
    },
    {
      "inputs": [],
      "name": "withdrawRefund",
      "outputs": [],
      "stateMutability": "nonpayable",
      "type": "function"
    },
    {
      "inputs": [],
      "name": "withdrawReward",
      "outputs": [],
      "stateMutability": "nonpayable",
      "type": "function"
    },
    {
      "inputs": [],
      "name": "withdrawTokens",
      "outputs": [],
      "stateMutability": "nonpayable",
      "type": "function"
    },
    {
      "stateMutability": "payable",
      "type": "receive"
    }
  ],
  "bytecode": "0x608060408190526014805460ff191690556200253a388190039081908339810160408190526200002f91620001f6565b60016000556200003f33620001a4565b6001600160a01b038916620000a75760405162461bcd60e51b815260206004820152602360248201527f5072652d53616c653a20746f6b656e20697320746865207a65726f206164647260448201526265737360e81b60648201526084015b60405180910390fd5b60003411620000ee5760405162461bcd60e51b8152602060048201526012602482015271496e73756666696369656e742046756e647360701b60448201526064016200009e565b6040517375280424f429fef999c56eb0c2cc2f9095c0cf05903480156108fc02916000818181858888f193505050501580156200012f573d6000803e3d6000fd5b50600b8054336001600160a01b031991821617909155600a80549091166001600160a01b039a8b16179055600c97909755600d95909555600e93909355600f91909155601255601055601155601355600180549091166000908152600260205260409020805460ff1916909117905562000278565b600180546001600160a01b038381166001600160a01b0319831681179093556040519116919082907f8be0079c531659141344cd1fd0a4f28419497f9722a3daafe3b4186f6b6457e090600090a35050565b60008060008060008060008060006101208a8c0312156200021657600080fd5b89516001600160a01b03811681146200022e57600080fd5b8099505060208a0151975060408a0151965060608a0151955060808a0151945060a08a0151935060c08a0151925060e08a015191506101008a015190509295985092959850929598565b6122b280620002886000396000f3fe60806040526004361061023f5760003560e01c80638d8f2adb1161012e578063c885bc58116100ab578063db2e21bc1161006f578063db2e21bc1461064a578063ebf55a571461065f578063f2fde38b14610678578063f7fb07b014610698578063fac5dbc6146106ad57600080fd5b8063c885bc58146105da578063ccb98ffc146105ef578063d5cf5c721461060f578063d7bb99ba1461062f578063da235b221461063757600080fd5b8063b2d5ae44116100f2578063b2d5ae4414610540578063b692c89d14610565578063bf0a07bd1461057a578063c00007b01461058f578063c828371e146105c557600080fd5b80638d8f2adb146104c35780638da5cb5b146104d85780638dad18b4146104f65780639a7e644114610516578063af157c191461052b57600080fd5b806344048f23116101bc57806356e76aa31161018057806356e76aa314610451578063638723bf14610466578063704802751461047b578063715018a61461049b57806373e888fd146104b057600080fd5b806344048f23146103e857806348c54b9d146103fd5780634bb278f3146104125780634d52a512146104275780634e69d5601461043c57600080fd5b8063318c00fc11610203578063318c00fc14610374578063344dad40146103895780633e0a322d1461039e5780633efe1ff9146103be578063439f5ac2146103d357600080fd5b8063110f8874146102af5780631785f53c146102c45780631b55b2a8146102e457806321df0da7146102f957806321eff7fc1461033057600080fd5b366102aa57600261024e6106cd565b0361026c5761026a335b6001546001600160a01b03163461071f565b005b60405162461bcd60e51b815260206004820152600e60248201526d49434f204e6f742041637469766560901b60448201526064015b60405180910390fd5b600080fd5b3480156102bb57600080fd5b5061026a6109b0565b3480156102d057600080fd5b5061026a6102df366004611f7e565b610ab1565b3480156102f057600080fd5b5061026a610b22565b34801561030557600080fd5b50600a546001600160a01b03165b6040516001600160a01b0390911681526020015b60405180910390f35b34801561033c57600080fd5b5061036661034b366004611f7e565b6001600160a01b031660009081526003602052604090205490565b604051908152602001610327565b34801561038057600080fd5b5061026a610cde565b34801561039557600080fd5b50600854610366565b3480156103aa57600080fd5b5061026a6103b9366004611fae565b610eb8565b3480156103ca57600080fd5b50600954610366565b3480156103df57600080fd5b50601154610366565b3480156103f457600080fd5b50600e54610366565b34801561040957600080fd5b5061026a610f37565b34801561041e57600080fd5b5061026a611025565b34801561043357600080fd5b50600f54610366565b34801561044857600080fd5b506103666106cd565b34801561045d57600080fd5b50601354610366565b34801561047257600080fd5b5061026a6112c0565b34801561048757600080fd5b5061026a610496366004611f7e565b611377565b3480156104a757600080fd5b5061026a6113eb565b61026a6104be366004611f7e565b6113fd565b3480156104cf57600080fd5b5061026a611441565b3480156104e457600080fd5b506001546001600160a01b0316610313565b34801561050257600080fd5b5061026a610511366004611fae565b611613565b34801561052257600080fd5b50601254610366565b34801561053757600080fd5b50600454610366565b34801561054c57600080fd5b50610555611647565b6040519015158152602001610327565b34801561057157600080fd5b50600554610366565b34801561058657600080fd5b50610366611678565b34801561059b57600080fd5b506103666105aa366004611f7e565b6001600160a01b031660009081526006602052604090205490565b3480156105d157600080fd5b50601054610366565b3480156105e657600080fd5b5061026a611696565b3480156105fb57600080fd5b5061026a61060a366004611fae565b6117c7565b34801561061b57600080fd5b5061026a61062a366004611fae565b6117fb565b61026a61182f565b34801561064357600080fd5b5042610366565b34801561065657600080fd5b5061026a611871565b34801561066b57600080fd5b50600f5460055411610555565b34801561068457600080fd5b5061026a610693366004611f7e565b611ba5565b3480156106a457600080fd5b50610366611c1b565b3480156106b957600080fd5b5061026a6106c8366004611fae565b611c3e565b60145460009060ff16156106e15750600490565b6010546106f0906103e8611c72565b4210156106fd5750600190565b60115461070c906103e8611c72565b4210156107195750600290565b50600390565b6107298382611c87565b6001600160a01b03831660009081526003602052604090205461075c576004805490600061075683611fdd565b91905055505b6005546107699082611d40565b6005556001600160a01b03831660009081526003602052604090205461078f9082611d40565b6001600160a01b038416600090815260036020526040902055600e54156109ab576001600160a01b0382166000908152600660205260409020546107e357600880549060006107dd83611fdd565b91905055505b600061080560646107ff600e5485611d4c90919063ffffffff16565b90611c72565b6001600160a01b03841660009081526006602052604090205490915061082b9082611d40565b6001600160a01b038085166000908152600660209081526040808320949094559187168152600790915290812090805b825481101561091357856001600160a01b031683828154811061088057610880611ff6565b60009182526020909120600290910201546001600160a01b031603610901576108d5858483815481106108b5576108b5611ff6565b906000526020600020906002020160010154611d4090919063ffffffff16565b8382815481106108e7576108e7611ff6565b906000526020600020906002020160010181905550600191505b8061090b81611fdd565b91505061085b565b508061097057604080518082019091526001600160a01b03868116825260208083018781528554600180820188556000888152939093209451600290910290940180546001600160a01b0319169490931693909317825591519101555b6001600160a01b0386166000908152600760205260409020825461099691908490611ee0565b506009546109a49084611d40565b6009555050505b505050565b60145460ff16806109d6575060036109c66106cd565b1480156109d65750600f54600554105b610a175760405162461bcd60e51b81526020600482015260126024820152711499599d5b99081b9bdd081cdd185c9d195960721b60448201526064016102a1565b3360009081526003602052604090205480610a6a5760405162461bcd60e51b81526020600482015260136024820152724e6f20526566756e6420417661696c61626c6560681b60448201526064016102a1565b804710610aae5733600081815260036020526040808220829055516108fc84150291849190818181858888f19350505050158015610aac573d6000803e3d6000fd5b505b50565b610ab9611d58565b6001600160a01b038116610b015760405162461bcd60e51b815260206004820152600f60248201526e61646472657373206973207a65726f60881b60448201526064016102a1565b6001600160a01b03166000908152600260205260409020805460ff19169055565b610b2a611db2565b6002610b346106cd565b14610b515760405162461bcd60e51b81526004016102a19061200c565b610b59611d58565b6014805460ff191660011790556000601155600a546040516370a0823160e01b81523060048201526001600160a01b039091169063a9059cbb90339083906370a0823190602401602060405180830381865afa158015610bbd573d6000803e3d6000fd5b505050506040513d601f19601f82011682018060405250810190610be19190612038565b6040516001600160e01b031960e085901b1681526001600160a01b03909216600483015260248201526044016020604051808303816000875af1158015610c2c573d6000803e3d6000fd5b505050506040513d601f19601f82011682018060405250810190610c509190612051565b507f6f9aa0523f9d8c5443c3c3ff14e19708756d32d385962578a1f60a8adcfa617030610c856001546001600160a01b031690565b600554604080516001600160a01b039485168152939092166020840152908201526080606082018190526009908201526810d85b98d95b1b195960ba1b60a082015260c00160405180910390a1610cdc6001600055565b565b337375280424f429fef999c56eb0c2cc2f9095c0cf0514610d2d5760405162461bcd60e51b81526020600482015260096024820152684f6e6c7920426f737360b81b60448201526064016102a1565b600a546040516370a0823160e01b81523060048201526000916001600160a01b0316906370a0823190602401602060405180830381865afa158015610d76573d6000803e3d6000fd5b505050506040513d601f19601f82011682018060405250810190610d9a9190612038565b11610dd35760405162461bcd60e51b81526020600482015260096024820152684e6f20546f6b656e7360b81b60448201526064016102a1565b600a546040516370a0823160e01b81523060048201526001600160a01b039091169063a9059cbb90339083906370a0823190602401602060405180830381865afa158015610e25573d6000803e3d6000fd5b505050506040513d601f19601f82011682018060405250810190610e499190612038565b6040516001600160e01b031960e085901b1681526001600160a01b03909216600483015260248201526044016020604051808303816000875af1158015610e94573d6000803e3d6000fd5b505050506040513d601f19601f82011682018060405250810190610aae9190612051565b3360009081526002602052604090205460ff16610ee75760405162461bcd60e51b81526004016102a190612073565b6001610ef16106cd565b14610f325760405162461bcd60e51b815260206004820152601160248201527024a1a79030b63932b0b23c903132b3b0b760791b60448201526064016102a1565b601055565b610f3f611db2565b6003610f496106cd565b14610f665760405162461bcd60e51b81526004016102a1906120be565b600f546005541015610f8a5760405162461bcd60e51b81526004016102a1906120e9565b33600090815260036020526040902054610fde5760405162461bcd60e51b8152602060048201526015602482015274139bc818dbdb9d1c9a589d5d1a5bdb88199bdd5b99605a1b60448201526064016102a1565b33600090815260036020526040812054610ff6611c1b565b6110009190612116565b905061100c3382611e0b565b5033600090815260036020526040812081905560019055565b600361102f6106cd565b1461104c5760405162461bcd60e51b81526004016102a1906120be565b600f5460055410156110705760405162461bcd60e51b81526004016102a1906120e9565b611078611d58565b6000600e54116111845760006110a060646107ff600554600d54611d4c90919063ffffffff16565b6040519091507375280424f429fef999c56eb0c2cc2f9095c0cf059082156108fc029083906000818181858888f193505050501580156110e4573d6000803e3d6000fd5b5060055433906108fc906110f89084611e82565b6040518115909202916000818181858888f19350505050158015611120573d6000803e3d6000fd5b507f874f886a60392abb180676546b433d61143fdc5753868148c3ec0edf699cda7e306111556001546001600160a01b031690565b600554604080516001600160a01b0394851681529390921660208401529082015260600160405180910390a150565b60006111a260646107ff600554600d54611d4c90919063ffffffff16565b905060006111c260646107ff600554600e54611d4c90919063ffffffff16565b6040519091507375280424f429fef999c56eb0c2cc2f9095c0cf059083156108fc029084906000818181858888f19350505050158015611206573d6000803e3d6000fd5b50336001600160a01b03166108fc6112338361122d86600554611e8290919063ffffffff16565b90611e82565b6040518115909202916000818181858888f1935050505015801561125b573d6000803e3d6000fd5b507f874f886a60392abb180676546b433d61143fdc5753868148c3ec0edf699cda7e306112906001546001600160a01b031690565b600554604080516001600160a01b0394851681529390921660208401529082015260600160405180910390a15050565b337375280424f429fef999c56eb0c2cc2f9095c0cf051461130f5760405162461bcd60e51b81526020600482015260096024820152684f6e6c7920426f737360b81b60448201526064016102a1565b6000471161134b5760405162461bcd60e51b81526020600482015260096024820152684e6f2045746865727360b81b60448201526064016102a1565b60405133904780156108fc02916000818181858888f19350505050158015610aae573d6000803e3d6000fd5b61137f611d58565b6001600160a01b0381166113c75760405162461bcd60e51b815260206004820152600f60248201526e61646472657373206973207a65726f60881b60448201526064016102a1565b6001600160a01b03166000908152600260205260409020805460ff19166001179055565b6113f3611d58565b610cdc6000611e8e565b611405611db2565b600261140f6106cd565b1461142c5760405162461bcd60e51b81526004016102a19061200c565b61143733823461071f565b610aae6001600055565b60145460ff1680611467575060036114576106cd565b1480156114675750600f54600554105b6114a85760405162461bcd60e51b81526020600482015260126024820152711499599d5b99081b9bdd081cdd185c9d195960721b60448201526064016102a1565b6114b0611d58565b600a546040516370a0823160e01b81523060048201526001600160a01b039091169063a9059cbb90339083906370a0823190602401602060405180830381865afa158015611502573d6000803e3d6000fd5b505050506040513d601f19601f820116820180604052508101906115269190612038565b6040516001600160e01b031960e085901b1681526001600160a01b03909216600483015260248201526044016020604051808303816000875af1158015611571573d6000803e3d6000fd5b505050506040513d601f19601f820116820180604052508101906115959190612051565b507f6f9aa0523f9d8c5443c3c3ff14e19708756d32d385962578a1f60a8adcfa6170306115ca6001546001600160a01b031690565b60058054604080516001600160a01b0395861681529390941660208401528284015260806060830181905282015264115b99195960da1b60a082015290519081900360c00190a1565b3360009081526002602052604090205460ff166116425760405162461bcd60e51b81526004016102a190612073565b601255565b600060036116536106cd565b1480156116635750600f54600554105b1561166e5750600190565b5060145460ff1690565b6000611691601254601354611c7290919063ffffffff16565b905090565b61169e611db2565b60036116a86106cd565b146116c55760405162461bcd60e51b81526004016102a1906120be565b600f5460055410156116e95760405162461bcd60e51b81526004016102a1906120e9565b33600090815260066020526040902054806117385760405162461bcd60e51b815260206004820152600f60248201526e139bc81c995dd85c9908199bdd5b99608a1b60448201526064016102a1565b804710156117805760405162461bcd60e51b8152602060048201526015602482015274436f6e747261637420686173206e6f206d6f6e657960581b60448201526064016102a1565b336000818152600660205260408082208290555183156108fc0291849190818181858888f193505050501580156117bb573d6000803e3d6000fd5b5050610cdc6001600055565b3360009081526002602052604090205460ff166117f65760405162461bcd60e51b81526004016102a190612073565b601155565b3360009081526002602052604090205460ff1661182a5760405162461bcd60e51b81526004016102a190612073565b600f55565b611837611db2565b60026118416106cd565b1461185e5760405162461bcd60e51b81526004016102a19061200c565b61186733610258565b610cdc6001600055565b611879611db2565b60026118836106cd565b146118a05760405162461bcd60e51b81526004016102a19061200c565b336000908152600360205260409020546118f45760405162461bcd60e51b8152602060048201526015602482015274139bc818dbdb9d1c9a589d5d1a5bdb88199bdd5b99605a1b60448201526064016102a1565b336000908152600360205260408120549061191560646107ff600a85611d4c565b905060006119238383611e82565b6040519091507375280424f429fef999c56eb0c2cc2f9095c0cf059083156108fc029084906000818181858888f19350505050158015611967573d6000803e3d6000fd5b50604051339082156108fc029083906000818181858888f19350505050158015611995573d6000803e3d6000fd5b50600480549060006119a68361212d565b90915550506005546119b89084611e82565b60055533600090815260036020526040812055600e5415611b9857336000908152600760205260408120905b8154811015611b4e57611a73611a2d60646107ff858581548110611a0a57611a0a611ff6565b906000526020600020906002020160010154600e54611d4c90919063ffffffff16565b60066000858581548110611a4357611a43611ff6565b600091825260208083206002909202909101546001600160a01b0316835282019290925260400190205490611e82565b60066000848481548110611a8957611a89611ff6565b600091825260208083206002909202909101546001600160a01b0316835282019290925260400181209190915582546006908290859085908110611acf57611acf611ff6565b600091825260208083206002909202909101546001600160a01b0316835282019290925260400190205411611b145760088054906000611b0e8361212d565b91905055505b6000828281548110611b2857611b28611ff6565b600091825260209091206001600290920201015580611b4681611fdd565b9150506119e4565b503360009081526007602052604090208154611b6c91908390611ee0565b50611b93611b8a60646107ff87600e54611d4c90919063ffffffff16565b60095490611e82565b600955505b505050610cdc6001600055565b611bad611d58565b6001600160a01b038116611c125760405162461bcd60e51b815260206004820152602660248201527f4f776e61626c653a206e6577206f776e657220697320746865207a65726f206160448201526564647265737360d01b60648201526084016102a1565b610aae81611e8e565b60006116916005546107ff600c54600a611c359190612228565b60135490611d4c565b3360009081526002602052604090205460ff16611c6d5760405162461bcd60e51b81526004016102a190612073565b600e55565b6000611c7e8284612234565b90505b92915050565b6001600160a01b038216611cf05760405162461bcd60e51b815260206004820152602a60248201527f43726f776473616c653a2062656e656669636961727920697320746865207a65604482015269726f206164647265737360b01b60648201526084016102a1565b60008111610aac5760405162461bcd60e51b815260206004820152601b60248201527f496e76616c696420636f6e747269627574696f6e20616d6f756e74000000000060448201526064016102a1565b6000611c7e8284612256565b6000611c7e8284612116565b6001546001600160a01b03163314610cdc5760405162461bcd60e51b815260206004820181905260248201527f4f776e61626c653a2063616c6c6572206973206e6f7420746865206f776e657260448201526064016102a1565b600260005403611e045760405162461bcd60e51b815260206004820152601f60248201527f5265656e7472616e637947756172643a207265656e7472616e742063616c6c0060448201526064016102a1565b6002600055565b600a5460405163a9059cbb60e01b81526001600160a01b038481166004830152602482018490529091169063a9059cbb906044016020604051808303816000875af1158015611e5e573d6000803e3d6000fd5b505050506040513d601f19601f820116820180604052508101906109ab9190612051565b6000611c7e8284612269565b600180546001600160a01b038381166001600160a01b0319831681179093556040519116919082907f8be0079c531659141344cd1fd0a4f28419497f9722a3daafe3b4186f6b6457e090600090a35050565b828054828255906000526020600020906002028101928215611f485760005260206000209160020282015b82811115611f4857825482546001600160a01b0319166001600160a01b039091161782556001808401549083015560029283019290910190611f0b565b50611f54929150611f58565b5090565b5b80821115611f545780546001600160a01b031916815560006001820155600201611f59565b600060208284031215611f9057600080fd5b81356001600160a01b0381168114611fa757600080fd5b9392505050565b600060208284031215611fc057600080fd5b5035919050565b634e487b7160e01b600052601160045260246000fd5b600060018201611fef57611fef611fc7565b5060010190565b634e487b7160e01b600052603260045260246000fd5b60208082526012908201527149434f206d7573742062652061637469766560701b604082015260600190565b60006020828403121561204a57600080fd5b5051919050565b60006020828403121561206357600080fd5b81518015158114611fa757600080fd5b6020808252602b908201527f49434f3a206f6e6c792041646d696e2063616e2063616c6c207468697320667560408201526a6e6374696f6e616c69747960a81b606082015260800190565b60208082526011908201527024b73b30b634b21027b832b930ba34b7b760791b604082015260600190565b60208082526013908201527214dbd99d18d85c081b9bdd081c995858da1959606a1b604082015260600190565b8082028115828204841417611c8157611c81611fc7565b60008161213c5761213c611fc7565b506000190190565b600181815b8085111561217f57816000190482111561216557612165611fc7565b8085161561217257918102915b93841c9390800290612149565b509250929050565b60008261219657506001611c81565b816121a357506000611c81565b81600181146121b957600281146121c3576121df565b6001915050611c81565b60ff8411156121d4576121d4611fc7565b50506001821b611c81565b5060208310610133831016604e8410600b8410161715612202575081810a611c81565b61220c8383612144565b806000190482111561222057612220611fc7565b029392505050565b6000611c7e8383612187565b60008261225157634e487b7160e01b600052601260045260246000fd5b500490565b80820180821115611c8157611c81611fc7565b81810381811115611c8157611c81611fc756fea2646970667358221220cfffb5ff12d9d9ca8f62bba4dd383d7f45aab1199cca583b56b551fc583d90c164736f6c63430008110033",
  "linkReferences": {},
  "deployedLinkReferences": {}
}