{
  "_format": "hh-sol-artifact-1",
  "contractName": "Presale",
  "sourceName": "contracts/StandardICO.sol",
  "abi": [
    {
      "inputs": [
        {
          "internalType": "contract IERC20",
          "name": "_token",
          "type": "address"
        },
        {
          "internalType": "uint256",
          "name": "_decimals",
          "type": "uint256"
        },
        {
          "internalType": "uint256",
          "name": "_poolFee",
          "type": "uint256"
        },
        {
          "internalType": "uint256",
          "name": "_affiliate",
          "type": "uint256"
        },
        {
          "internalType": "uint256",
          "name": "_softCap",
          "type": "uint256"
        },
        {
          "internalType": "uint256",
          "name": "_anticipatedRate",
          "type": "uint256"
        },
        {
          "internalType": "uint256",
          "name": "_startTime",
          "type": "uint256"
        },
        {
          "internalType": "uint256",
          "name": "_endTime",
          "type": "uint256"
        },
        {
          "internalType": "uint256",
          "name": "tokens",
          "type": "uint256"
        }
      ],
      "stateMutability": "payable",
      "type": "constructor"
    },
    {
      "anonymous": false,
      "inputs": [
        {
          "indexed": false,
          "internalType": "address",
          "name": "icoContract",
          "type": "address"
        },
        {
          "indexed": false,
          "internalType": "address",
          "name": "owner",
          "type": "address"
        },
        {
          "indexed": false,
          "internalType": "uint256",
          "name": "raised",
          "type": "uint256"
        },
        {
          "indexed": false,
          "internalType": "string",
          "name": "why",
          "type": "string"
        }
      ],
      "name": "Failed",
      "type": "event"
    },
    {
      "anonymous": false,
      "inputs": [
        {
          "indexed": true,
          "internalType": "address",
          "name": "previousOwner",
          "type": "address"
        },
        {
          "indexed": true,
          "internalType": "address",
          "name": "newOwner",
          "type": "address"
        }
      ],
      "name": "OwnershipTransferred",
      "type": "event"
    },
    {
      "anonymous": false,
      "inputs": [
        {
          "indexed": false,
          "internalType": "address",
          "name": "icoContract",
          "type": "address"
        },
        {
          "indexed": false,
          "internalType": "address",
          "name": "owner",
          "type": "address"
        },
        {
          "indexed": false,
          "internalType": "uint256",
          "name": "raised",
          "type": "uint256"
        }
      ],
      "name": "Success",
      "type": "event"
    },
    {
      "inputs": [
        {
          "internalType": "address",
          "name": "_admin",
          "type": "address"
        }
      ],
      "name": "addAdmin",
      "outputs": [],
      "stateMutability": "nonpayable",
      "type": "function"
    },
    {
      "inputs": [],
      "name": "cancelPool",
      "outputs": [],
      "stateMutability": "nonpayable",
      "type": "function"
    },
    {
      "inputs": [],
      "name": "claimTokens",
      "outputs": [],
      "stateMutability": "nonpayable",
      "type": "function"
    },
    {
      "inputs": [
        {
          "internalType": "address",
          "name": "rewardAddress",
          "type": "address"
        }
      ],
      "name": "contribute",
      "outputs": [],
      "stateMutability": "payable",
      "type": "function"
    },
    {
      "inputs": [],
      "name": "contribute",
      "outputs": [],
      "stateMutability": "payable",
      "type": "function"
    },
    {
      "inputs": [],
      "name": "emergencyWithdraw",
      "outputs": [],
      "stateMutability": "nonpayable",
      "type": "function"
    },
    {
      "inputs": [],
      "name": "finalize",
      "outputs": [],
      "stateMutability": "nonpayable",
      "type": "function"
    },
    {
      "inputs": [],
      "name": "getAffiliatePercentage",
      "outputs": [
        {
          "internalType": "uint256",
          "name": "",
          "type": "uint256"
        }
      ],
      "stateMutability": "view",
      "type": "function"
    },
    {
      "inputs": [],
      "name": "getAnticipatedRate",
      "outputs": [
        {
          "internalType": "uint256",
          "name": "",
          "type": "uint256"
        }
      ],
      "stateMutability": "view",
      "type": "function"
    },
    {
      "inputs": [
        {
          "internalType": "address",
          "name": "beneficiary",
          "type": "address"
        }
      ],
      "name": "getContribution",
      "outputs": [
        {
          "internalType": "uint256",
          "name": "",
          "type": "uint256"
        }
      ],
      "stateMutability": "view",
      "type": "function"
    },
    {
      "inputs": [],
      "name": "getContributors",
      "outputs": [
        {
          "internalType": "uint256",
          "name": "",
          "type": "uint256"
        }
      ],
      "stateMutability": "view",
      "type": "function"
    },
    {
      "inputs": [],
      "name": "getCurrentRate",
      "outputs": [
        {
          "internalType": "uint256",
          "name": "",
          "type": "uint256"
        }
      ],
      "stateMutability": "view",
      "type": "function"
    },
    {
      "inputs": [],
      "name": "getCurrentRewards",
      "outputs": [
        {
          "internalType": "uint256",
          "name": "",
          "type": "uint256"
        }
      ],
      "stateMutability": "view",
      "type": "function"
    },
    {
      "inputs": [],
      "name": "getMinReward",
      "outputs": [
        {
          "internalType": "uint256",
          "name": "",
          "type": "uint256"
        }
      ],
      "stateMutability": "view",
      "type": "function"
    },
    {
      "inputs": [],
      "name": "getPresaleTokens",
      "outputs": [
        {
          "internalType": "uint256",
          "name": "",
          "type": "uint256"
        }
      ],
      "stateMutability": "view",
      "type": "function"
    },
    {
      "inputs": [],
      "name": "getRaised",
      "outputs": [
        {
          "internalType": "uint256",
          "name": "",
          "type": "uint256"
        }
      ],
      "stateMutability": "view",
      "type": "function"
    },
    {
      "inputs": [],
      "name": "getReferrerCount",
      "outputs": [
        {
          "internalType": "uint256",
          "name": "",
          "type": "uint256"
        }
      ],
      "stateMutability": "view",
      "type": "function"
    },
    {
      "inputs": [],
      "name": "getRefund",
      "outputs": [
        {
          "internalType": "bool",
          "name": "",
          "type": "bool"
        }
      ],
      "stateMutability": "view",
      "type": "function"
    },
    {
      "inputs": [
        {
          "internalType": "address",
          "name": "beneficiary",
          "type": "address"
        }
      ],
      "name": "getReward",
      "outputs": [
        {
          "internalType": "uint256",
          "name": "",
          "type": "uint256"
        }
      ],
      "stateMutability": "view",
      "type": "function"
    },
    {
      "inputs": [],
      "name": "getSoftCap",
      "outputs": [
        {
          "internalType": "uint256",
          "name": "",
          "type": "uint256"
        }
      ],
      "stateMutability": "view",
      "type": "function"
    },
    {
      "inputs": [],
      "name": "getStatus",
      "outputs": [
        {
          "internalType": "uint256",
          "name": "",
          "type": "uint256"
        }
      ],
      "stateMutability": "view",
      "type": "function"
    },
    {
      "inputs": [],
      "name": "getToken",
      "outputs": [
        {
          "internalType": "address",
          "name": "",
          "type": "address"
        }
      ],
      "stateMutability": "view",
      "type": "function"
    },
    {
      "inputs": [],
      "name": "getTotalRefund",
      "outputs": [
        {
          "internalType": "uint256",
          "name": "",
          "type": "uint256"
        }
      ],
      "stateMutability": "view",
      "type": "function"
    },
    {
      "inputs": [],
      "name": "owner",
      "outputs": [
        {
          "internalType": "address",
          "name": "",
          "type": "address"
        }
      ],
      "stateMutability": "view",
      "type": "function"
    },
    {
      "inputs": [
        {
          "internalType": "address",
          "name": "_admin",
          "type": "address"
        }
      ],
      "name": "removeAdmin",
      "outputs": [],
      "stateMutability": "nonpayable",
      "type": "function"
    },
    {
      "inputs": [],
      "name": "renounceOwnership",
      "outputs": [],
      "stateMutability": "nonpayable",
      "type": "function"
    },
    {
      "inputs": [
        {
          "internalType": "uint256",
          "name": "value",
          "type": "uint256"
        }
      ],
      "name": "setAffiliatePercentage",
      "outputs": [],
      "stateMutability": "nonpayable",
      "type": "function"
    },
    {
      "inputs": [
        {
          "internalType": "uint256",
          "name": "value",
          "type": "uint256"
        }
      ],
      "name": "setAnticipatedRate",
      "outputs": [],
      "stateMutability": "nonpayable",
      "type": "function"
    },
    {
      "inputs": [
        {
          "internalType": "uint256",
          "name": "value",
          "type": "uint256"
        }
      ],
      "name": "setEndTime",
      "outputs": [],
      "stateMutability": "nonpayable",
      "type": "function"
    },
    {
      "inputs": [
        {
          "internalType": "uint256",
          "name": "value",
          "type": "uint256"
        }
      ],
      "name": "setSoftCap",
      "outputs": [],
      "stateMutability": "nonpayable",
      "type": "function"
    },
    {
      "inputs": [
        {
          "internalType": "uint256",
          "name": "value",
          "type": "uint256"
        }
      ],
      "name": "setStartTime",
      "outputs": [],
      "stateMutability": "nonpayable",
      "type": "function"
    },
    {
      "inputs": [],
      "name": "takeEthers",
      "outputs": [],
      "stateMutability": "nonpayable",
      "type": "function"
    },
    {
      "inputs": [],
      "name": "takeTokens",
      "outputs": [],
      "stateMutability": "nonpayable",
      "type": "function"
    },
    {
      "inputs": [
        {
          "internalType": "address",
          "name": "newOwner",
          "type": "address"
        }
      ],
      "name": "transferOwnership",
      "outputs": [],
      "stateMutability": "nonpayable",
      "type": "function"
    },
    {
      "inputs": [],
      "name": "withdrawRefund",
      "outputs": [],
      "stateMutability": "nonpayable",
      "type": "function"
    },
    {
      "stateMutability": "payable",
      "type": "receive"
    }
  ],
  "bytecode": "0x608060408190526016805460ff1916905562001f49388190039081908339810160408190526200002f91620001f6565b60016000556200003f33620001a4565b6001600160a01b038916620000a75760405162461bcd60e51b815260206004820152602360248201527f5072652d53616c653a20746f6b656e20697320746865207a65726f206164647260448201526265737360e81b60648201526084015b60405180910390fd5b60003411620000ee5760405162461bcd60e51b8152602060048201526012602482015271496e73756666696369656e742046756e647360701b60448201526064016200009e565b6040517375280424f429fef999c56eb0c2cc2f9095c0cf05903480156108fc02916000818181858888f193505050501580156200012f573d6000803e3d6000fd5b50600d8054336001600160a01b031991821617909155600c80549091166001600160a01b039a8b16179055600e97909755600f95909555601093909355601191909155601455601255601355601555600180549091166000908152600260205260409020805460ff1916909117905562000278565b600180546001600160a01b038381166001600160a01b0319831681179093556040519116919082907f8be0079c531659141344cd1fd0a4f28419497f9722a3daafe3b4186f6b6457e090600090a35050565b60008060008060008060008060006101208a8c0312156200021657600080fd5b89516001600160a01b03811681146200022e57600080fd5b8099505060208a0151975060408a0151965060608a0151955060808a0151945060a08a0151935060c08a0151925060e08a015191506101008a015190509295985092959850929598565b611cc180620002886000396000f3fe6080604052600436106102085760003560e01c8063638723bf11610118578063b692c89d116100a0578063d7bb99ba1161006f578063d7bb99ba146105b7578063db2e21bc146105bf578063f2fde38b146105d4578063f7fb07b0146105f4578063fac5dbc61461060957600080fd5b8063b692c89d1461052c578063c00007b014610541578063ccb98ffc14610577578063d5cf5c721461059757600080fd5b80638da5cb5b116100e75780638da5cb5b146104a15780638dad18b4146104bf5780639a7e6441146104df578063af157c19146104f4578063b2d5ae441461050957600080fd5b8063638723bf146104445780637048027514610459578063715018a61461047957806373e888fd1461048e57600080fd5b80633e0a322d1161019b5780634bb278f31161016a5780634bb278f3146103db5780634d52a512146103f05780634e69d56014610405578063559659fa1461041a57806356e76aa31461042f57600080fd5b80633e0a322d1461037c5780633efe1ff91461039c57806344048f23146103b157806348c54b9d146103c657600080fd5b806321eff7fc116101d757806321eff7fc146102f9578063263293011461033d578063318c00fc14610352578063344dad401461036757600080fd5b8063110f8874146102785780631785f53c1461028d5780631b55b2a8146102ad57806321df0da7146102c257600080fd5b3661027357610215610629565b60020361023557610233335b6001546001600160a01b031634610663565b005b60405162461bcd60e51b815260206004820152600e60248201526d49434f204e6f742041637469766560901b60448201526064015b60405180910390fd5b600080fd5b34801561028457600080fd5b506102336108f4565b34801561029957600080fd5b506102336102a83660046119e5565b6109e5565b3480156102b957600080fd5b50610233610a56565b3480156102ce57600080fd5b50600c546001600160a01b03165b6040516001600160a01b0390911681526020015b60405180910390f35b34801561030557600080fd5b5061032f6103143660046119e5565b6001600160a01b031660009081526003602052604090205490565b6040519081526020016102f0565b34801561034957600080fd5b50600b5461032f565b34801561035e57600080fd5b50610233610b32565b34801561037357600080fd5b5060095461032f565b34801561038857600080fd5b50610233610397366004611a15565b610d0c565b3480156103a857600080fd5b50600a5461032f565b3480156103bd57600080fd5b5060105461032f565b3480156103d257600080fd5b50610233610d8b565b3480156103e757600080fd5b50610233610e80565b3480156103fc57600080fd5b5060115461032f565b34801561041157600080fd5b5061032f610629565b34801561042657600080fd5b5060065461032f565b34801561043b57600080fd5b5060155461032f565b34801561045057600080fd5b50610233611072565b34801561046557600080fd5b506102336104743660046119e5565b611129565b34801561048557600080fd5b5061023361119d565b61023361049c3660046119e5565b6111af565b3480156104ad57600080fd5b506001546001600160a01b03166102dc565b3480156104cb57600080fd5b506102336104da366004611a15565b6111f3565b3480156104eb57600080fd5b5060145461032f565b34801561050057600080fd5b5060045461032f565b34801561051557600080fd5b5060165460ff1660405190151581526020016102f0565b34801561053857600080fd5b5060055461032f565b34801561054d57600080fd5b5061032f61055c3660046119e5565b6001600160a01b031660009081526007602052604090205490565b34801561058357600080fd5b50610233610592366004611a15565b611227565b3480156105a357600080fd5b506102336105b2366004611a15565b61125b565b61023361128f565b3480156105cb57600080fd5b506102336112d1565b3480156105e057600080fd5b506102336105ef3660046119e5565b611605565b34801561060057600080fd5b5061032f61167b565b34801561061557600080fd5b50610233610624366004611a15565b6116a3565b60165460009060ff161561063d5750600490565b60125442101561064d5750600190565b60135442101561065d5750600290565b50600390565b61066d83826116d7565b6001600160a01b0383166000908152600360205260409020546106a0576004805490600061069a83611a44565b91905055505b6005546106ad9082611792565b6005556001600160a01b0383166000908152600360205260409020546106d39082611792565b6001600160a01b038416600090815260036020526040902055601054156108ef576001600160a01b038216600090815260076020526040902054610727576009805490600061072183611a44565b91905055505b60006107496064610743601054856117a790919063ffffffff16565b906117b3565b6001600160a01b03841660009081526007602052604090205490915061076f9082611792565b6001600160a01b038085166000908152600760209081526040808320949094559187168152600890915290812090805b825481101561085757856001600160a01b03168382815481106107c4576107c4611a5d565b60009182526020909120600290910201546001600160a01b03160361084557610819858483815481106107f9576107f9611a5d565b90600052602060002090600202016001015461179290919063ffffffff16565b83828154811061082b5761082b611a5d565b906000526020600020906002020160010181905550600191505b8061084f81611a44565b91505061079f565b50806108b457604080518082019091526001600160a01b03868116825260208083018781528554600180820188556000888152939093209451600290910290940180546001600160a01b0319169490931693909317825591519101555b6001600160a01b038616600090815260086020526040902082546108da91908490611947565b50600a546108e89084611792565b600a555050505b505050565b60165460ff1661093b5760405162461bcd60e51b81526020600482015260126024820152711499599d5b99081b9bdd081cdd185c9d195960721b604482015260640161026a565b336000908152600360205260409020548061098e5760405162461bcd60e51b81526020600482015260136024820152724e6f20526566756e6420417661696c61626c6560681b604482015260640161026a565b8047106109e25733600081815260036020526040808220829055516108fc84150291849190818181858888f193505050501580156109d0573d6000803e3d6000fd5b506006546109de90826117bf565b6006555b50565b6109ed6117cb565b6001600160a01b038116610a355760405162461bcd60e51b815260206004820152600f60248201526e61646472657373206973207a65726f60881b604482015260640161026a565b6001600160a01b03166000908152600260205260409020805460ff19169055565b610a5e611825565b610a66610629565b600214610a855760405162461bcd60e51b815260040161026a90611a73565b610a8d6117cb565b6005546006556016805460ff1916600117905560006013557f6f9aa0523f9d8c5443c3c3ff14e19708756d32d385962578a1f60a8adcfa617030610ad96001546001600160a01b031690565b600654604080516001600160a01b039485168152939092166020840152908201526080606082018190526009908201526810d85b98d95b1b195960ba1b60a082015260c00160405180910390a1610b306001600055565b565b337375280424f429fef999c56eb0c2cc2f9095c0cf0514610b815760405162461bcd60e51b81526020600482015260096024820152684f6e6c7920426f737360b81b604482015260640161026a565b600c546040516370a0823160e01b81523060048201526000916001600160a01b0316906370a0823190602401602060405180830381865afa158015610bca573d6000803e3d6000fd5b505050506040513d601f19601f82011682018060405250810190610bee9190611a9f565b11610c275760405162461bcd60e51b81526020600482015260096024820152684e6f20546f6b656e7360b81b604482015260640161026a565b600c546040516370a0823160e01b81523060048201526001600160a01b039091169063a9059cbb90339083906370a0823190602401602060405180830381865afa158015610c79573d6000803e3d6000fd5b505050506040513d601f19601f82011682018060405250810190610c9d9190611a9f565b6040516001600160e01b031960e085901b1681526001600160a01b03909216600483015260248201526044016020604051808303816000875af1158015610ce8573d6000803e3d6000fd5b505050506040513d601f19601f820116820180604052508101906109e29190611ab8565b3360009081526002602052604090205460ff16610d3b5760405162461bcd60e51b815260040161026a90611ada565b610d43610629565b600114610d865760405162461bcd60e51b815260206004820152601160248201527024a1a79030b63932b0b23c903132b3b0b760791b604482015260640161026a565b601255565b610d93611825565b610d9b610629565b600314610de55760405162461bcd60e51b815260206004820152601860248201527749434f2073686f756c64206e6f742062652061637469766560401b604482015260640161026a565b33600090815260036020526040902054610e395760405162461bcd60e51b8152602060048201526015602482015274139bc818dbdb9d1c9a589d5d1a5bdb88199bdd5b99605a1b604482015260640161026a565b33600090815260036020526040812054610e5161167b565b610e5b9190611c09565b9050610e67338261187e565b5033600090815260036020526040812081905560019055565b610e88610629565b600314610ed25760405162461bcd60e51b815260206004820152601860248201527749434f2073686f756c64206e6f742062652061637469766560401b604482015260640161026a565b610eda6117cb565b600554601154610ef290670de0b6b3a76400006117a7565b8110610ff2576000610f14606461074384600f546117a790919063ffffffff16565b6040519091507375280424f429fef999c56eb0c2cc2f9095c0cf059082156108fc029083906000818181858888f19350505050158015610f58573d6000803e3d6000fd5b50336108fc610f6784846117bf565b6040518115909202916000818181858888f19350505050158015610f8f573d6000803e3d6000fd5b507f874f886a60392abb180676546b433d61143fdc5753868148c3ec0edf699cda7e30610fc46001546001600160a01b031690565b604080516001600160a01b039384168152929091166020830152810184905260600160405180910390a15050565b7f6f9aa0523f9d8c5443c3c3ff14e19708756d32d385962578a1f60a8adcfa6170306110266001546001600160a01b031690565b604080516001600160a01b0393841681529290911660208301528101839052608060608201819052600790820152660536f66746361760cc1b60a082015260c00160405180910390a150565b337375280424f429fef999c56eb0c2cc2f9095c0cf05146110c15760405162461bcd60e51b81526020600482015260096024820152684f6e6c7920426f737360b81b604482015260640161026a565b600047116110fd5760405162461bcd60e51b81526020600482015260096024820152684e6f2045746865727360b81b604482015260640161026a565b60405133904780156108fc02916000818181858888f193505050501580156109e2573d6000803e3d6000fd5b6111316117cb565b6001600160a01b0381166111795760405162461bcd60e51b815260206004820152600f60248201526e61646472657373206973207a65726f60881b604482015260640161026a565b6001600160a01b03166000908152600260205260409020805460ff19166001179055565b6111a56117cb565b610b3060006118f5565b6111b7611825565b6111bf610629565b6002146111de5760405162461bcd60e51b815260040161026a90611a73565b6111e9338234610663565b6109e26001600055565b3360009081526002602052604090205460ff166112225760405162461bcd60e51b815260040161026a90611ada565b601455565b3360009081526002602052604090205460ff166112565760405162461bcd60e51b815260040161026a90611ada565b601355565b3360009081526002602052604090205460ff1661128a5760405162461bcd60e51b815260040161026a90611ada565b601155565b611297611825565b61129f610629565b6002146112be5760405162461bcd60e51b815260040161026a90611a73565b6112c733610221565b610b306001600055565b6112d9611825565b6112e1610629565b6002146113005760405162461bcd60e51b815260040161026a90611a73565b336000908152600360205260409020546113545760405162461bcd60e51b8152602060048201526015602482015274139bc818dbdb9d1c9a589d5d1a5bdb88199bdd5b99605a1b604482015260640161026a565b33600090815260036020526040812054906113756064610743600a856117a7565b9050600061138383836117bf565b6040519091507375280424f429fef999c56eb0c2cc2f9095c0cf059083156108fc029084906000818181858888f193505050501580156113c7573d6000803e3d6000fd5b50604051339082156108fc029083906000818181858888f193505050501580156113f5573d6000803e3d6000fd5b506004805490600061140683611c15565b909155505060055461141890846117bf565b60055533600090815260036020526040812055601054156115f857336000908152600860205260408120905b81548110156115ae576114d361148d606461074385858154811061146a5761146a611a5d565b9060005260206000209060020201600101546010546117a790919063ffffffff16565b600760008585815481106114a3576114a3611a5d565b600091825260208083206002909202909101546001600160a01b03168352820192909252604001902054906117bf565b600760008484815481106114e9576114e9611a5d565b600091825260208083206002909202909101546001600160a01b031683528201929092526040018120919091558254600790829085908590811061152f5761152f611a5d565b600091825260208083206002909202909101546001600160a01b0316835282019290925260400190205411611574576009805490600061156e83611c15565b91905055505b600082828154811061158857611588611a5d565b6000918252602090912060016002909202010155806115a681611a44565b915050611444565b5033600090815260086020526040902081546115cc91908390611947565b506115f36115ea6064610743876010546117a790919063ffffffff16565b600a54906117bf565b600a55505b505050610b306001600055565b61160d6117cb565b6001600160a01b0381166116725760405162461bcd60e51b815260206004820152602660248201527f4f776e61626c653a206e6577206f776e657220697320746865207a65726f206160448201526564647265737360d01b606482015260840161026a565b6109e2816118f5565b600061169e600554610743600e54600a6116959190611c09565b601554906117a7565b905090565b3360009081526002602052604090205460ff166116d25760405162461bcd60e51b815260040161026a90611ada565b601055565b6001600160a01b0382166117405760405162461bcd60e51b815260206004820152602a60248201527f43726f776473616c653a2062656e656669636961727920697320746865207a65604482015269726f206164647265737360b01b606482015260840161026a565b801561178e5760405162461bcd60e51b815260206004820152601b60248201527f496e76616c696420636f6e747269627574696f6e20616d6f756e740000000000604482015260640161026a565b5050565b600061179e8284611c2c565b90505b92915050565b600061179e8284611c3f565b600061179e8284611c56565b600061179e8284611c78565b6001546001600160a01b03163314610b305760405162461bcd60e51b815260206004820181905260248201527f4f776e61626c653a2063616c6c6572206973206e6f7420746865206f776e6572604482015260640161026a565b6002600054036118775760405162461bcd60e51b815260206004820152601f60248201527f5265656e7472616e637947756172643a207265656e7472616e742063616c6c00604482015260640161026a565b6002600055565b600c5460405163a9059cbb60e01b81526001600160a01b038481166004830152602482018490529091169063a9059cbb906044016020604051808303816000875af11580156118d1573d6000803e3d6000fd5b505050506040513d601f19601f820116820180604052508101906108ef9190611ab8565b600180546001600160a01b038381166001600160a01b0319831681179093556040519116919082907f8be0079c531659141344cd1fd0a4f28419497f9722a3daafe3b4186f6b6457e090600090a35050565b8280548282559060005260206000209060020281019282156119af5760005260206000209160020282015b828111156119af57825482546001600160a01b0319166001600160a01b039091161782556001808401549083015560029283019290910190611972565b506119bb9291506119bf565b5090565b5b808211156119bb5780546001600160a01b0319168155600060018201556002016119c0565b6000602082840312156119f757600080fd5b81356001600160a01b0381168114611a0e57600080fd5b9392505050565b600060208284031215611a2757600080fd5b5035919050565b634e487b7160e01b600052601160045260246000fd5b600060018201611a5657611a56611a2e565b5060010190565b634e487b7160e01b600052603260045260246000fd5b60208082526012908201527149434f206d7573742062652061637469766560701b604082015260600190565b600060208284031215611ab157600080fd5b5051919050565b600060208284031215611aca57600080fd5b81518015158114611a0e57600080fd5b6020808252602b908201527f49434f3a206f6e6c792041646d696e2063616e2063616c6c207468697320667560408201526a6e6374696f6e616c69747960a81b606082015260800190565b600181815b80851115611b60578160001904821115611b4657611b46611a2e565b80851615611b5357918102915b93841c9390800290611b2a565b509250929050565b600082611b77575060016117a1565b81611b84575060006117a1565b8160018114611b9a5760028114611ba457611bc0565b60019150506117a1565b60ff841115611bb557611bb5611a2e565b50506001821b6117a1565b5060208310610133831016604e8410600b8410161715611be3575081810a6117a1565b611bed8383611b25565b8060001904821115611c0157611c01611a2e565b029392505050565b600061179e8383611b68565b600081611c2457611c24611a2e565b506000190190565b808201808211156117a1576117a1611a2e565b80820281158282048414176117a1576117a1611a2e565b600082611c7357634e487b7160e01b600052601260045260246000fd5b500490565b818103818111156117a1576117a1611a2e56fea26469706673582212206f38337a1056c339b3e3076e47d1040485f87f0493c0cdd565c879df7bb889c864736f6c63430008110033",
  "linkReferences": {},
  "deployedLinkReferences": {}
}