{
  "_format": "hh-sol-artifact-1",
  "contractName": "Presale",
  "sourceName": "contracts/StandardICO.sol",
  "abi": [
    {
      "inputs": [
        {
          "internalType": "address",
          "name": "_token",
          "type": "address"
        },
        {
          "internalType": "uint256",
          "name": "_decimals",
          "type": "uint256"
        },
        {
          "internalType": "uint256",
          "name": "_poolFee",
          "type": "uint256"
        },
        {
          "internalType": "uint256",
          "name": "_affiliate",
          "type": "uint256"
        },
        {
          "internalType": "uint256",
          "name": "_softCap",
          "type": "uint256"
        },
        {
          "internalType": "uint256",
          "name": "_anticipatedRate",
          "type": "uint256"
        },
        {
          "internalType": "uint256",
          "name": "_startTime",
          "type": "uint256"
        },
        {
          "internalType": "uint256",
          "name": "_endTime",
          "type": "uint256"
        },
        {
          "internalType": "uint256",
          "name": "tokens",
          "type": "uint256"
        }
      ],
      "stateMutability": "payable",
      "type": "constructor"
    },
    {
      "anonymous": false,
      "inputs": [
        {
          "indexed": false,
          "internalType": "address",
          "name": "icoContract",
          "type": "address"
        },
        {
          "indexed": false,
          "internalType": "address",
          "name": "owner",
          "type": "address"
        },
        {
          "indexed": false,
          "internalType": "uint256",
          "name": "raised",
          "type": "uint256"
        },
        {
          "indexed": false,
          "internalType": "string",
          "name": "why",
          "type": "string"
        }
      ],
      "name": "Failed",
      "type": "event"
    },
    {
      "anonymous": false,
      "inputs": [
        {
          "indexed": true,
          "internalType": "address",
          "name": "previousOwner",
          "type": "address"
        },
        {
          "indexed": true,
          "internalType": "address",
          "name": "newOwner",
          "type": "address"
        }
      ],
      "name": "OwnershipTransferred",
      "type": "event"
    },
    {
      "anonymous": false,
      "inputs": [
        {
          "indexed": false,
          "internalType": "address",
          "name": "icoContract",
          "type": "address"
        },
        {
          "indexed": false,
          "internalType": "address",
          "name": "owner",
          "type": "address"
        },
        {
          "indexed": false,
          "internalType": "uint256",
          "name": "raised",
          "type": "uint256"
        }
      ],
      "name": "Success",
      "type": "event"
    },
    {
      "inputs": [
        {
          "internalType": "address",
          "name": "_admin",
          "type": "address"
        }
      ],
      "name": "addAdmin",
      "outputs": [],
      "stateMutability": "nonpayable",
      "type": "function"
    },
    {
      "inputs": [],
      "name": "cancelPool",
      "outputs": [],
      "stateMutability": "nonpayable",
      "type": "function"
    },
    {
      "inputs": [],
      "name": "claimTokens",
      "outputs": [],
      "stateMutability": "nonpayable",
      "type": "function"
    },
    {
      "inputs": [
        {
          "internalType": "address",
          "name": "rewardAddress",
          "type": "address"
        }
      ],
      "name": "contribute",
      "outputs": [],
      "stateMutability": "payable",
      "type": "function"
    },
    {
      "inputs": [],
      "name": "contribute",
      "outputs": [],
      "stateMutability": "payable",
      "type": "function"
    },
    {
      "inputs": [],
      "name": "emergencyWithdraw",
      "outputs": [],
      "stateMutability": "nonpayable",
      "type": "function"
    },
    {
      "inputs": [],
      "name": "finalize",
      "outputs": [],
      "stateMutability": "nonpayable",
      "type": "function"
    },
    {
      "inputs": [],
      "name": "getAffiliatePercentage",
      "outputs": [
        {
          "internalType": "uint256",
          "name": "",
          "type": "uint256"
        }
      ],
      "stateMutability": "view",
      "type": "function"
    },
    {
      "inputs": [],
      "name": "getAnticipatedRate",
      "outputs": [
        {
          "internalType": "uint256",
          "name": "",
          "type": "uint256"
        }
      ],
      "stateMutability": "view",
      "type": "function"
    },
    {
      "inputs": [
        {
          "internalType": "address",
          "name": "beneficiary",
          "type": "address"
        }
      ],
      "name": "getContribution",
      "outputs": [
        {
          "internalType": "uint256",
          "name": "",
          "type": "uint256"
        }
      ],
      "stateMutability": "view",
      "type": "function"
    },
    {
      "inputs": [],
      "name": "getContributors",
      "outputs": [
        {
          "internalType": "uint256",
          "name": "",
          "type": "uint256"
        }
      ],
      "stateMutability": "view",
      "type": "function"
    },
    {
      "inputs": [],
      "name": "getCurrentRate",
      "outputs": [
        {
          "internalType": "uint256",
          "name": "",
          "type": "uint256"
        }
      ],
      "stateMutability": "view",
      "type": "function"
    },
    {
      "inputs": [],
      "name": "getCurrentRewards",
      "outputs": [
        {
          "internalType": "uint256",
          "name": "",
          "type": "uint256"
        }
      ],
      "stateMutability": "view",
      "type": "function"
    },
    {
      "inputs": [],
      "name": "getHardCap",
      "outputs": [
        {
          "internalType": "uint256",
          "name": "",
          "type": "uint256"
        }
      ],
      "stateMutability": "view",
      "type": "function"
    },
    {
      "inputs": [],
      "name": "getMinReward",
      "outputs": [
        {
          "internalType": "uint256",
          "name": "",
          "type": "uint256"
        }
      ],
      "stateMutability": "view",
      "type": "function"
    },
    {
      "inputs": [],
      "name": "getPresaleTokens",
      "outputs": [
        {
          "internalType": "uint256",
          "name": "",
          "type": "uint256"
        }
      ],
      "stateMutability": "view",
      "type": "function"
    },
    {
      "inputs": [],
      "name": "getRaised",
      "outputs": [
        {
          "internalType": "uint256",
          "name": "",
          "type": "uint256"
        }
      ],
      "stateMutability": "view",
      "type": "function"
    },
    {
      "inputs": [],
      "name": "getReferrerCount",
      "outputs": [
        {
          "internalType": "uint256",
          "name": "",
          "type": "uint256"
        }
      ],
      "stateMutability": "view",
      "type": "function"
    },
    {
      "inputs": [],
      "name": "getRefund",
      "outputs": [
        {
          "internalType": "bool",
          "name": "",
          "type": "bool"
        }
      ],
      "stateMutability": "view",
      "type": "function"
    },
    {
      "inputs": [
        {
          "internalType": "address",
          "name": "beneficiary",
          "type": "address"
        }
      ],
      "name": "getReward",
      "outputs": [
        {
          "internalType": "uint256",
          "name": "",
          "type": "uint256"
        }
      ],
      "stateMutability": "view",
      "type": "function"
    },
    {
      "inputs": [],
      "name": "getSoftCap",
      "outputs": [
        {
          "internalType": "uint256",
          "name": "",
          "type": "uint256"
        }
      ],
      "stateMutability": "view",
      "type": "function"
    },
    {
      "inputs": [],
      "name": "getStatus",
      "outputs": [
        {
          "internalType": "uint256",
          "name": "",
          "type": "uint256"
        }
      ],
      "stateMutability": "view",
      "type": "function"
    },
    {
      "inputs": [],
      "name": "getToken",
      "outputs": [
        {
          "internalType": "address",
          "name": "",
          "type": "address"
        }
      ],
      "stateMutability": "view",
      "type": "function"
    },
    {
      "inputs": [],
      "name": "getTotalRefund",
      "outputs": [
        {
          "internalType": "uint256",
          "name": "",
          "type": "uint256"
        }
      ],
      "stateMutability": "view",
      "type": "function"
    },
    {
      "inputs": [],
      "name": "owner",
      "outputs": [
        {
          "internalType": "address",
          "name": "",
          "type": "address"
        }
      ],
      "stateMutability": "view",
      "type": "function"
    },
    {
      "inputs": [
        {
          "internalType": "address",
          "name": "_admin",
          "type": "address"
        }
      ],
      "name": "removeAdmin",
      "outputs": [],
      "stateMutability": "nonpayable",
      "type": "function"
    },
    {
      "inputs": [],
      "name": "renounceOwnership",
      "outputs": [],
      "stateMutability": "nonpayable",
      "type": "function"
    },
    {
      "inputs": [
        {
          "internalType": "uint256",
          "name": "value",
          "type": "uint256"
        }
      ],
      "name": "setAffiliatePercentage",
      "outputs": [],
      "stateMutability": "nonpayable",
      "type": "function"
    },
    {
      "inputs": [
        {
          "internalType": "uint256",
          "name": "value",
          "type": "uint256"
        }
      ],
      "name": "setAnticipatedRate",
      "outputs": [],
      "stateMutability": "nonpayable",
      "type": "function"
    },
    {
      "inputs": [
        {
          "internalType": "uint256",
          "name": "value",
          "type": "uint256"
        }
      ],
      "name": "setEndTime",
      "outputs": [],
      "stateMutability": "nonpayable",
      "type": "function"
    },
    {
      "inputs": [
        {
          "internalType": "uint256",
          "name": "value",
          "type": "uint256"
        }
      ],
      "name": "setSoftCap",
      "outputs": [],
      "stateMutability": "nonpayable",
      "type": "function"
    },
    {
      "inputs": [
        {
          "internalType": "uint256",
          "name": "value",
          "type": "uint256"
        }
      ],
      "name": "setStartTime",
      "outputs": [],
      "stateMutability": "nonpayable",
      "type": "function"
    },
    {
      "inputs": [],
      "name": "takeEthers",
      "outputs": [],
      "stateMutability": "nonpayable",
      "type": "function"
    },
    {
      "inputs": [],
      "name": "takeTokens",
      "outputs": [],
      "stateMutability": "nonpayable",
      "type": "function"
    },
    {
      "inputs": [
        {
          "internalType": "address",
          "name": "newOwner",
          "type": "address"
        }
      ],
      "name": "transferOwnership",
      "outputs": [],
      "stateMutability": "nonpayable",
      "type": "function"
    },
    {
      "inputs": [],
      "name": "withdrawRefund",
      "outputs": [],
      "stateMutability": "nonpayable",
      "type": "function"
    },
    {
      "stateMutability": "payable",
      "type": "receive"
    }
  ],
  "bytecode": "0x608060408190526016805460ff1916905562001f82388190039081908339810160408190526200002f91620001f6565b60016000556200003f33620001a4565b6001600160a01b038916620000a75760405162461bcd60e51b815260206004820152602360248201527f5072652d53616c653a20746f6b656e20697320746865207a65726f206164647260448201526265737360e81b60648201526084015b60405180910390fd5b60003411620000ee5760405162461bcd60e51b8152602060048201526012602482015271496e73756666696369656e742046756e647360701b60448201526064016200009e565b6040517375280424f429fef999c56eb0c2cc2f9095c0cf05903480156108fc02916000818181858888f193505050501580156200012f573d6000803e3d6000fd5b50600d8054336001600160a01b031991821617909155600c80549091166001600160a01b039a8b16179055600e97909755600f95909555601093909355601191909155601455601255601355601555600180549091166000908152600260205260409020805460ff1916909117905562000278565b600180546001600160a01b038381166001600160a01b0319831681179093556040519116919082907f8be0079c531659141344cd1fd0a4f28419497f9722a3daafe3b4186f6b6457e090600090a35050565b60008060008060008060008060006101208a8c0312156200021657600080fd5b89516001600160a01b03811681146200022e57600080fd5b8099505060208a0151975060408a0151965060608a0151955060808a0151945060a08a0151935060c08a0151925060e08a015191506101008a015190509295985092959850929598565b611cfa80620002886000396000f3fe6080604052600436106102135760003560e01c80637048027511610118578063bf0a07bd116100a0578063d7bb99ba1161006f578063d7bb99ba146105d7578063db2e21bc146105df578063f2fde38b146105f4578063f7fb07b014610614578063fac5dbc61461062957600080fd5b8063bf0a07bd1461054c578063c00007b014610561578063ccb98ffc14610597578063d5cf5c72146105b757600080fd5b80638dad18b4116100e75780638dad18b4146104ca5780639a7e6441146104ea578063af157c19146104ff578063b2d5ae4414610514578063b692c89d1461053757600080fd5b80637048027514610464578063715018a61461048457806373e888fd146104995780638da5cb5b146104ac57600080fd5b80633efe1ff91161019b5780634d52a5121161016a5780634d52a512146103fb5780634e69d56014610410578063559659fa1461042557806356e76aa31461043a578063638723bf1461044f57600080fd5b80633efe1ff9146103a757806344048f23146103bc57806348c54b9d146103d15780634bb278f3146103e657600080fd5b806321eff7fc116101e257806321eff7fc146103045780632632930114610348578063318c00fc1461035d578063344dad40146103725780633e0a322d1461038757600080fd5b8063110f8874146102835780631785f53c146102985780631b55b2a8146102b857806321df0da7146102cd57600080fd5b3661027e57610220610649565b6002036102405761023e335b6001546001600160a01b031634610683565b005b60405162461bcd60e51b815260206004820152600e60248201526d49434f204e6f742041637469766560901b60448201526064015b60405180910390fd5b600080fd5b34801561028f57600080fd5b5061023e610914565b3480156102a457600080fd5b5061023e6102b3366004611a1e565b610a05565b3480156102c457600080fd5b5061023e610a76565b3480156102d957600080fd5b50600c546001600160a01b03165b6040516001600160a01b0390911681526020015b60405180910390f35b34801561031057600080fd5b5061033a61031f366004611a1e565b6001600160a01b031660009081526003602052604090205490565b6040519081526020016102fb565b34801561035457600080fd5b50600b5461033a565b34801561036957600080fd5b5061023e610b52565b34801561037e57600080fd5b5060095461033a565b34801561039357600080fd5b5061023e6103a2366004611a4e565b610d2c565b3480156103b357600080fd5b50600a5461033a565b3480156103c857600080fd5b5060105461033a565b3480156103dd57600080fd5b5061023e610dab565b3480156103f257600080fd5b5061023e610ea0565b34801561040757600080fd5b5060115461033a565b34801561041c57600080fd5b5061033a610649565b34801561043157600080fd5b5060065461033a565b34801561044657600080fd5b5060155461033a565b34801561045b57600080fd5b5061023e611092565b34801561047057600080fd5b5061023e61047f366004611a1e565b611149565b34801561049057600080fd5b5061023e6111bd565b61023e6104a7366004611a1e565b6111cf565b3480156104b857600080fd5b506001546001600160a01b03166102e7565b3480156104d657600080fd5b5061023e6104e5366004611a4e565b611213565b3480156104f657600080fd5b5060145461033a565b34801561050b57600080fd5b5060045461033a565b34801561052057600080fd5b5060165460ff1660405190151581526020016102fb565b34801561054357600080fd5b5060055461033a565b34801561055857600080fd5b5061033a611247565b34801561056d57600080fd5b5061033a61057c366004611a1e565b6001600160a01b031660009081526007602052604090205490565b3480156105a357600080fd5b5061023e6105b2366004611a4e565b611265565b3480156105c357600080fd5b5061023e6105d2366004611a4e565b611299565b61023e6112cd565b3480156105eb57600080fd5b5061023e61130f565b34801561060057600080fd5b5061023e61060f366004611a1e565b611643565b34801561062057600080fd5b5061033a6116b9565b34801561063557600080fd5b5061023e610644366004611a4e565b6116dc565b60165460009060ff161561065d5750600490565b60125442101561066d5750600190565b60135442101561067d5750600290565b50600390565b61068d8382611710565b6001600160a01b0383166000908152600360205260409020546106c057600480549060006106ba83611a7d565b91905055505b6005546106cd90826117cb565b6005556001600160a01b0383166000908152600360205260409020546106f390826117cb565b6001600160a01b0384166000908152600360205260409020556010541561090f576001600160a01b038216600090815260076020526040902054610747576009805490600061074183611a7d565b91905055505b60006107696064610763601054856117e090919063ffffffff16565b906117ec565b6001600160a01b03841660009081526007602052604090205490915061078f90826117cb565b6001600160a01b038085166000908152600760209081526040808320949094559187168152600890915290812090805b825481101561087757856001600160a01b03168382815481106107e4576107e4611a96565b60009182526020909120600290910201546001600160a01b031603610865576108398584838154811061081957610819611a96565b9060005260206000209060020201600101546117cb90919063ffffffff16565b83828154811061084b5761084b611a96565b906000526020600020906002020160010181905550600191505b8061086f81611a7d565b9150506107bf565b50806108d457604080518082019091526001600160a01b03868116825260208083018781528554600180820188556000888152939093209451600290910290940180546001600160a01b0319169490931693909317825591519101555b6001600160a01b038616600090815260086020526040902082546108fa91908490611980565b50600a5461090890846117cb565b600a555050505b505050565b60165460ff1661095b5760405162461bcd60e51b81526020600482015260126024820152711499599d5b99081b9bdd081cdd185c9d195960721b6044820152606401610275565b33600090815260036020526040902054806109ae5760405162461bcd60e51b81526020600482015260136024820152724e6f20526566756e6420417661696c61626c6560681b6044820152606401610275565b804710610a025733600081815260036020526040808220829055516108fc84150291849190818181858888f193505050501580156109f0573d6000803e3d6000fd5b506006546109fe90826117f8565b6006555b50565b610a0d611804565b6001600160a01b038116610a555760405162461bcd60e51b815260206004820152600f60248201526e61646472657373206973207a65726f60881b6044820152606401610275565b6001600160a01b03166000908152600260205260409020805460ff19169055565b610a7e61185e565b610a86610649565b600214610aa55760405162461bcd60e51b815260040161027590611aac565b610aad611804565b6005546006556016805460ff1916600117905560006013557f6f9aa0523f9d8c5443c3c3ff14e19708756d32d385962578a1f60a8adcfa617030610af96001546001600160a01b031690565b600654604080516001600160a01b039485168152939092166020840152908201526080606082018190526009908201526810d85b98d95b1b195960ba1b60a082015260c00160405180910390a1610b506001600055565b565b337375280424f429fef999c56eb0c2cc2f9095c0cf0514610ba15760405162461bcd60e51b81526020600482015260096024820152684f6e6c7920426f737360b81b6044820152606401610275565b600c546040516370a0823160e01b81523060048201526000916001600160a01b0316906370a0823190602401602060405180830381865afa158015610bea573d6000803e3d6000fd5b505050506040513d601f19601f82011682018060405250810190610c0e9190611ad8565b11610c475760405162461bcd60e51b81526020600482015260096024820152684e6f20546f6b656e7360b81b6044820152606401610275565b600c546040516370a0823160e01b81523060048201526001600160a01b039091169063a9059cbb90339083906370a0823190602401602060405180830381865afa158015610c99573d6000803e3d6000fd5b505050506040513d601f19601f82011682018060405250810190610cbd9190611ad8565b6040516001600160e01b031960e085901b1681526001600160a01b03909216600483015260248201526044016020604051808303816000875af1158015610d08573d6000803e3d6000fd5b505050506040513d601f19601f82011682018060405250810190610a029190611af1565b3360009081526002602052604090205460ff16610d5b5760405162461bcd60e51b815260040161027590611b13565b610d63610649565b600114610da65760405162461bcd60e51b815260206004820152601160248201527024a1a79030b63932b0b23c903132b3b0b760791b6044820152606401610275565b601255565b610db361185e565b610dbb610649565b600314610e055760405162461bcd60e51b815260206004820152601860248201527749434f2073686f756c64206e6f742062652061637469766560401b6044820152606401610275565b33600090815260036020526040902054610e595760405162461bcd60e51b8152602060048201526015602482015274139bc818dbdb9d1c9a589d5d1a5bdb88199bdd5b99605a1b6044820152606401610275565b33600090815260036020526040812054610e716116b9565b610e7b9190611c42565b9050610e8733826118b7565b5033600090815260036020526040812081905560019055565b610ea8610649565b600314610ef25760405162461bcd60e51b815260206004820152601860248201527749434f2073686f756c64206e6f742062652061637469766560401b6044820152606401610275565b610efa611804565b600554601154610f1290670de0b6b3a76400006117e0565b8110611012576000610f34606461076384600f546117e090919063ffffffff16565b6040519091507375280424f429fef999c56eb0c2cc2f9095c0cf059082156108fc029083906000818181858888f19350505050158015610f78573d6000803e3d6000fd5b50336108fc610f8784846117f8565b6040518115909202916000818181858888f19350505050158015610faf573d6000803e3d6000fd5b507f874f886a60392abb180676546b433d61143fdc5753868148c3ec0edf699cda7e30610fe46001546001600160a01b031690565b604080516001600160a01b039384168152929091166020830152810184905260600160405180910390a15050565b7f6f9aa0523f9d8c5443c3c3ff14e19708756d32d385962578a1f60a8adcfa6170306110466001546001600160a01b031690565b604080516001600160a01b0393841681529290911660208301528101839052608060608201819052600790820152660536f66746361760cc1b60a082015260c00160405180910390a150565b337375280424f429fef999c56eb0c2cc2f9095c0cf05146110e15760405162461bcd60e51b81526020600482015260096024820152684f6e6c7920426f737360b81b6044820152606401610275565b6000471161111d5760405162461bcd60e51b81526020600482015260096024820152684e6f2045746865727360b81b6044820152606401610275565b60405133904780156108fc02916000818181858888f19350505050158015610a02573d6000803e3d6000fd5b611151611804565b6001600160a01b0381166111995760405162461bcd60e51b815260206004820152600f60248201526e61646472657373206973207a65726f60881b6044820152606401610275565b6001600160a01b03166000908152600260205260409020805460ff19166001179055565b6111c5611804565b610b50600061192e565b6111d761185e565b6111df610649565b6002146111fe5760405162461bcd60e51b815260040161027590611aac565b611209338234610683565b610a026001600055565b3360009081526002602052604090205460ff166112425760405162461bcd60e51b815260040161027590611b13565b601455565b60006112606014546015546117ec90919063ffffffff16565b905090565b3360009081526002602052604090205460ff166112945760405162461bcd60e51b815260040161027590611b13565b601355565b3360009081526002602052604090205460ff166112c85760405162461bcd60e51b815260040161027590611b13565b601155565b6112d561185e565b6112dd610649565b6002146112fc5760405162461bcd60e51b815260040161027590611aac565b6113053361022c565b610b506001600055565b61131761185e565b61131f610649565b60021461133e5760405162461bcd60e51b815260040161027590611aac565b336000908152600360205260409020546113925760405162461bcd60e51b8152602060048201526015602482015274139bc818dbdb9d1c9a589d5d1a5bdb88199bdd5b99605a1b6044820152606401610275565b33600090815260036020526040812054906113b36064610763600a856117e0565b905060006113c183836117f8565b6040519091507375280424f429fef999c56eb0c2cc2f9095c0cf059083156108fc029084906000818181858888f19350505050158015611405573d6000803e3d6000fd5b50604051339082156108fc029083906000818181858888f19350505050158015611433573d6000803e3d6000fd5b506004805490600061144483611c4e565b909155505060055461145690846117f8565b600555336000908152600360205260408120556010541561163657336000908152600860205260408120905b81548110156115ec576115116114cb60646107638585815481106114a8576114a8611a96565b9060005260206000209060020201600101546010546117e090919063ffffffff16565b600760008585815481106114e1576114e1611a96565b600091825260208083206002909202909101546001600160a01b03168352820192909252604001902054906117f8565b6007600084848154811061152757611527611a96565b600091825260208083206002909202909101546001600160a01b031683528201929092526040018120919091558254600790829085908590811061156d5761156d611a96565b600091825260208083206002909202909101546001600160a01b03168352820192909252604001902054116115b257600980549060006115ac83611c4e565b91905055505b60008282815481106115c6576115c6611a96565b6000918252602090912060016002909202010155806115e481611a7d565b915050611482565b50336000908152600860205260409020815461160a91908390611980565b506116316116286064610763876010546117e090919063ffffffff16565b600a54906117f8565b600a55505b505050610b506001600055565b61164b611804565b6001600160a01b0381166116b05760405162461bcd60e51b815260206004820152602660248201527f4f776e61626c653a206e6577206f776e657220697320746865207a65726f206160448201526564647265737360d01b6064820152608401610275565b610a028161192e565b6000611260600554610763600e54600a6116d39190611c42565b601554906117e0565b3360009081526002602052604090205460ff1661170b5760405162461bcd60e51b815260040161027590611b13565b601055565b6001600160a01b0382166117795760405162461bcd60e51b815260206004820152602a60248201527f43726f776473616c653a2062656e656669636961727920697320746865207a65604482015269726f206164647265737360b01b6064820152608401610275565b80156117c75760405162461bcd60e51b815260206004820152601b60248201527f496e76616c696420636f6e747269627574696f6e20616d6f756e7400000000006044820152606401610275565b5050565b60006117d78284611c65565b90505b92915050565b60006117d78284611c78565b60006117d78284611c8f565b60006117d78284611cb1565b6001546001600160a01b03163314610b505760405162461bcd60e51b815260206004820181905260248201527f4f776e61626c653a2063616c6c6572206973206e6f7420746865206f776e65726044820152606401610275565b6002600054036118b05760405162461bcd60e51b815260206004820152601f60248201527f5265656e7472616e637947756172643a207265656e7472616e742063616c6c006044820152606401610275565b6002600055565b600c5460405163a9059cbb60e01b81526001600160a01b038481166004830152602482018490529091169063a9059cbb906044016020604051808303816000875af115801561190a573d6000803e3d6000fd5b505050506040513d601f19601f8201168201806040525081019061090f9190611af1565b600180546001600160a01b038381166001600160a01b0319831681179093556040519116919082907f8be0079c531659141344cd1fd0a4f28419497f9722a3daafe3b4186f6b6457e090600090a35050565b8280548282559060005260206000209060020281019282156119e85760005260206000209160020282015b828111156119e857825482546001600160a01b0319166001600160a01b0390911617825560018084015490830155600292830192909101906119ab565b506119f49291506119f8565b5090565b5b808211156119f45780546001600160a01b0319168155600060018201556002016119f9565b600060208284031215611a3057600080fd5b81356001600160a01b0381168114611a4757600080fd5b9392505050565b600060208284031215611a6057600080fd5b5035919050565b634e487b7160e01b600052601160045260246000fd5b600060018201611a8f57611a8f611a67565b5060010190565b634e487b7160e01b600052603260045260246000fd5b60208082526012908201527149434f206d7573742062652061637469766560701b604082015260600190565b600060208284031215611aea57600080fd5b5051919050565b600060208284031215611b0357600080fd5b81518015158114611a4757600080fd5b6020808252602b908201527f49434f3a206f6e6c792041646d696e2063616e2063616c6c207468697320667560408201526a6e6374696f6e616c69747960a81b606082015260800190565b600181815b80851115611b99578160001904821115611b7f57611b7f611a67565b80851615611b8c57918102915b93841c9390800290611b63565b509250929050565b600082611bb0575060016117da565b81611bbd575060006117da565b8160018114611bd35760028114611bdd57611bf9565b60019150506117da565b60ff841115611bee57611bee611a67565b50506001821b6117da565b5060208310610133831016604e8410600b8410161715611c1c575081810a6117da565b611c268383611b5e565b8060001904821115611c3a57611c3a611a67565b029392505050565b60006117d78383611ba1565b600081611c5d57611c5d611a67565b506000190190565b808201808211156117da576117da611a67565b80820281158282048414176117da576117da611a67565b600082611cac57634e487b7160e01b600052601260045260246000fd5b500490565b818103818111156117da576117da611a6756fea2646970667358221220e36dfe526101bdfcd5e56e187d09f71b2992cdfcb297e66c7768067e9f0f185264736f6c63430008110033",
  "linkReferences": {},
  "deployedLinkReferences": {}
}