{
  "_format": "hh-sol-artifact-1",
  "contractName": "Presale",
  "sourceName": "contracts/StandardICO.sol",
  "abi": [
    {
      "inputs": [
        {
          "internalType": "address",
          "name": "_token",
          "type": "address"
        },
        {
          "internalType": "uint256",
          "name": "_decimals",
          "type": "uint256"
        },
        {
          "internalType": "uint256",
          "name": "_poolFee",
          "type": "uint256"
        },
        {
          "internalType": "uint256",
          "name": "_affiliate",
          "type": "uint256"
        },
        {
          "internalType": "uint256",
          "name": "_softCap",
          "type": "uint256"
        },
        {
          "internalType": "uint256",
          "name": "_anticipatedRate",
          "type": "uint256"
        },
        {
          "internalType": "uint256",
          "name": "_startTime",
          "type": "uint256"
        },
        {
          "internalType": "uint256",
          "name": "_endTime",
          "type": "uint256"
        },
        {
          "internalType": "uint256",
          "name": "tokens",
          "type": "uint256"
        }
      ],
      "stateMutability": "payable",
      "type": "constructor"
    },
    {
      "anonymous": false,
      "inputs": [
        {
          "indexed": false,
          "internalType": "address",
          "name": "icoContract",
          "type": "address"
        },
        {
          "indexed": false,
          "internalType": "address",
          "name": "owner",
          "type": "address"
        },
        {
          "indexed": false,
          "internalType": "uint256",
          "name": "raised",
          "type": "uint256"
        },
        {
          "indexed": false,
          "internalType": "string",
          "name": "why",
          "type": "string"
        }
      ],
      "name": "Failed",
      "type": "event"
    },
    {
      "anonymous": false,
      "inputs": [
        {
          "indexed": true,
          "internalType": "address",
          "name": "previousOwner",
          "type": "address"
        },
        {
          "indexed": true,
          "internalType": "address",
          "name": "newOwner",
          "type": "address"
        }
      ],
      "name": "OwnershipTransferred",
      "type": "event"
    },
    {
      "anonymous": false,
      "inputs": [
        {
          "indexed": false,
          "internalType": "address",
          "name": "icoContract",
          "type": "address"
        },
        {
          "indexed": false,
          "internalType": "address",
          "name": "owner",
          "type": "address"
        },
        {
          "indexed": false,
          "internalType": "uint256",
          "name": "raised",
          "type": "uint256"
        }
      ],
      "name": "Success",
      "type": "event"
    },
    {
      "inputs": [
        {
          "internalType": "address",
          "name": "_admin",
          "type": "address"
        }
      ],
      "name": "addAdmin",
      "outputs": [],
      "stateMutability": "nonpayable",
      "type": "function"
    },
    {
      "inputs": [],
      "name": "cancelPool",
      "outputs": [],
      "stateMutability": "nonpayable",
      "type": "function"
    },
    {
      "inputs": [],
      "name": "claimTokens",
      "outputs": [],
      "stateMutability": "nonpayable",
      "type": "function"
    },
    {
      "inputs": [
        {
          "internalType": "address",
          "name": "rewardAddress",
          "type": "address"
        }
      ],
      "name": "contribute",
      "outputs": [],
      "stateMutability": "payable",
      "type": "function"
    },
    {
      "inputs": [],
      "name": "contribute",
      "outputs": [],
      "stateMutability": "payable",
      "type": "function"
    },
    {
      "inputs": [],
      "name": "emergencyWithdraw",
      "outputs": [],
      "stateMutability": "nonpayable",
      "type": "function"
    },
    {
      "inputs": [],
      "name": "finalize",
      "outputs": [],
      "stateMutability": "nonpayable",
      "type": "function"
    },
    {
      "inputs": [],
      "name": "getAffiliatePercentage",
      "outputs": [
        {
          "internalType": "uint256",
          "name": "",
          "type": "uint256"
        }
      ],
      "stateMutability": "view",
      "type": "function"
    },
    {
      "inputs": [],
      "name": "getAnticipatedRate",
      "outputs": [
        {
          "internalType": "uint256",
          "name": "",
          "type": "uint256"
        }
      ],
      "stateMutability": "view",
      "type": "function"
    },
    {
      "inputs": [
        {
          "internalType": "address",
          "name": "beneficiary",
          "type": "address"
        }
      ],
      "name": "getContribution",
      "outputs": [
        {
          "internalType": "uint256",
          "name": "",
          "type": "uint256"
        }
      ],
      "stateMutability": "view",
      "type": "function"
    },
    {
      "inputs": [],
      "name": "getContributors",
      "outputs": [
        {
          "internalType": "uint256",
          "name": "",
          "type": "uint256"
        }
      ],
      "stateMutability": "view",
      "type": "function"
    },
    {
      "inputs": [],
      "name": "getCurrentRate",
      "outputs": [
        {
          "internalType": "uint256",
          "name": "",
          "type": "uint256"
        }
      ],
      "stateMutability": "view",
      "type": "function"
    },
    {
      "inputs": [],
      "name": "getCurrentRewards",
      "outputs": [
        {
          "internalType": "uint256",
          "name": "",
          "type": "uint256"
        }
      ],
      "stateMutability": "view",
      "type": "function"
    },
    {
      "inputs": [],
      "name": "getEndTime",
      "outputs": [
        {
          "internalType": "uint256",
          "name": "",
          "type": "uint256"
        }
      ],
      "stateMutability": "view",
      "type": "function"
    },
    {
      "inputs": [],
      "name": "getHardCap",
      "outputs": [
        {
          "internalType": "uint256",
          "name": "",
          "type": "uint256"
        }
      ],
      "stateMutability": "view",
      "type": "function"
    },
    {
      "inputs": [],
      "name": "getMinReward",
      "outputs": [
        {
          "internalType": "uint256",
          "name": "",
          "type": "uint256"
        }
      ],
      "stateMutability": "view",
      "type": "function"
    },
    {
      "inputs": [],
      "name": "getPresaleTokens",
      "outputs": [
        {
          "internalType": "uint256",
          "name": "",
          "type": "uint256"
        }
      ],
      "stateMutability": "view",
      "type": "function"
    },
    {
      "inputs": [],
      "name": "getRaised",
      "outputs": [
        {
          "internalType": "uint256",
          "name": "",
          "type": "uint256"
        }
      ],
      "stateMutability": "view",
      "type": "function"
    },
    {
      "inputs": [],
      "name": "getReferrerCount",
      "outputs": [
        {
          "internalType": "uint256",
          "name": "",
          "type": "uint256"
        }
      ],
      "stateMutability": "view",
      "type": "function"
    },
    {
      "inputs": [],
      "name": "getRefund",
      "outputs": [
        {
          "internalType": "bool",
          "name": "",
          "type": "bool"
        }
      ],
      "stateMutability": "view",
      "type": "function"
    },
    {
      "inputs": [
        {
          "internalType": "address",
          "name": "beneficiary",
          "type": "address"
        }
      ],
      "name": "getReward",
      "outputs": [
        {
          "internalType": "uint256",
          "name": "",
          "type": "uint256"
        }
      ],
      "stateMutability": "view",
      "type": "function"
    },
    {
      "inputs": [],
      "name": "getSoftCap",
      "outputs": [
        {
          "internalType": "uint256",
          "name": "",
          "type": "uint256"
        }
      ],
      "stateMutability": "view",
      "type": "function"
    },
    {
      "inputs": [],
      "name": "getStartTime",
      "outputs": [
        {
          "internalType": "uint256",
          "name": "",
          "type": "uint256"
        }
      ],
      "stateMutability": "view",
      "type": "function"
    },
    {
      "inputs": [],
      "name": "getStatus",
      "outputs": [
        {
          "internalType": "uint256",
          "name": "",
          "type": "uint256"
        }
      ],
      "stateMutability": "view",
      "type": "function"
    },
    {
      "inputs": [],
      "name": "getToken",
      "outputs": [
        {
          "internalType": "address",
          "name": "",
          "type": "address"
        }
      ],
      "stateMutability": "view",
      "type": "function"
    },
    {
      "inputs": [],
      "name": "getTotalRefund",
      "outputs": [
        {
          "internalType": "uint256",
          "name": "",
          "type": "uint256"
        }
      ],
      "stateMutability": "view",
      "type": "function"
    },
    {
      "inputs": [],
      "name": "owner",
      "outputs": [
        {
          "internalType": "address",
          "name": "",
          "type": "address"
        }
      ],
      "stateMutability": "view",
      "type": "function"
    },
    {
      "inputs": [
        {
          "internalType": "address",
          "name": "_admin",
          "type": "address"
        }
      ],
      "name": "removeAdmin",
      "outputs": [],
      "stateMutability": "nonpayable",
      "type": "function"
    },
    {
      "inputs": [],
      "name": "renounceOwnership",
      "outputs": [],
      "stateMutability": "nonpayable",
      "type": "function"
    },
    {
      "inputs": [
        {
          "internalType": "uint256",
          "name": "value",
          "type": "uint256"
        }
      ],
      "name": "setAffiliatePercentage",
      "outputs": [],
      "stateMutability": "nonpayable",
      "type": "function"
    },
    {
      "inputs": [
        {
          "internalType": "uint256",
          "name": "value",
          "type": "uint256"
        }
      ],
      "name": "setAnticipatedRate",
      "outputs": [],
      "stateMutability": "nonpayable",
      "type": "function"
    },
    {
      "inputs": [
        {
          "internalType": "uint256",
          "name": "value",
          "type": "uint256"
        }
      ],
      "name": "setEndTime",
      "outputs": [],
      "stateMutability": "nonpayable",
      "type": "function"
    },
    {
      "inputs": [
        {
          "internalType": "uint256",
          "name": "value",
          "type": "uint256"
        }
      ],
      "name": "setSoftCap",
      "outputs": [],
      "stateMutability": "nonpayable",
      "type": "function"
    },
    {
      "inputs": [
        {
          "internalType": "uint256",
          "name": "value",
          "type": "uint256"
        }
      ],
      "name": "setStartTime",
      "outputs": [],
      "stateMutability": "nonpayable",
      "type": "function"
    },
    {
      "inputs": [],
      "name": "takeEthers",
      "outputs": [],
      "stateMutability": "nonpayable",
      "type": "function"
    },
    {
      "inputs": [],
      "name": "takeTokens",
      "outputs": [],
      "stateMutability": "nonpayable",
      "type": "function"
    },
    {
      "inputs": [
        {
          "internalType": "address",
          "name": "newOwner",
          "type": "address"
        }
      ],
      "name": "transferOwnership",
      "outputs": [],
      "stateMutability": "nonpayable",
      "type": "function"
    },
    {
      "inputs": [],
      "name": "withdrawRefund",
      "outputs": [],
      "stateMutability": "nonpayable",
      "type": "function"
    },
    {
      "stateMutability": "payable",
      "type": "receive"
    }
  ],
  "bytecode": "0x608060408190526016805460ff1916905562001fc2388190039081908339810160408190526200002f91620001f6565b60016000556200003f33620001a4565b6001600160a01b038916620000a75760405162461bcd60e51b815260206004820152602360248201527f5072652d53616c653a20746f6b656e20697320746865207a65726f206164647260448201526265737360e81b60648201526084015b60405180910390fd5b60003411620000ee5760405162461bcd60e51b8152602060048201526012602482015271496e73756666696369656e742046756e647360701b60448201526064016200009e565b6040517375280424f429fef999c56eb0c2cc2f9095c0cf05903480156108fc02916000818181858888f193505050501580156200012f573d6000803e3d6000fd5b50600d8054336001600160a01b031991821617909155600c80549091166001600160a01b039a8b16179055600e97909755600f95909555601093909355601191909155601455601255601355601555600180549091166000908152600260205260409020805460ff1916909117905562000278565b600180546001600160a01b038381166001600160a01b0319831681179093556040519116919082907f8be0079c531659141344cd1fd0a4f28419497f9722a3daafe3b4186f6b6457e090600090a35050565b60008060008060008060008060006101208a8c0312156200021657600080fd5b89516001600160a01b03811681146200022e57600080fd5b8099505060208a0151975060408a0151965060608a0151955060808a0151945060a08a0151935060c08a0151925060e08a015191506101008a015190509295985092959850929598565b611d3a80620002886000396000f3fe6080604052600436106102295760003560e01c80637048027511610123578063bf0a07bd116100ab578063d7bb99ba1161006f578063d7bb99ba14610617578063db2e21bc1461061f578063f2fde38b14610634578063f7fb07b014610654578063fac5dbc61461066957600080fd5b8063bf0a07bd14610577578063c00007b01461058c578063c828371e146105c2578063ccb98ffc146105d7578063d5cf5c72146105f757600080fd5b80638dad18b4116100f25780638dad18b4146104f55780639a7e644114610515578063af157c191461052a578063b2d5ae441461053f578063b692c89d1461056257600080fd5b8063704802751461048f578063715018a6146104af57806373e888fd146104c45780638da5cb5b146104d757600080fd5b80633efe1ff9116101b15780634d52a512116101755780634d52a512146104265780634e69d5601461043b578063559659fa1461045057806356e76aa314610465578063638723bf1461047a57600080fd5b80633efe1ff9146103bd578063439f5ac2146103d257806344048f23146103e757806348c54b9d146103fc5780634bb278f31461041157600080fd5b806321eff7fc116101f857806321eff7fc1461031a578063263293011461035e578063318c00fc14610373578063344dad40146103885780633e0a322d1461039d57600080fd5b8063110f8874146102995780631785f53c146102ae5780631b55b2a8146102ce57806321df0da7146102e357600080fd5b3661029457610236610689565b60020361025657610254335b6001546001600160a01b0316346106c3565b005b60405162461bcd60e51b815260206004820152600e60248201526d49434f204e6f742041637469766560901b60448201526064015b60405180910390fd5b600080fd5b3480156102a557600080fd5b50610254610954565b3480156102ba57600080fd5b506102546102c9366004611a5e565b610a45565b3480156102da57600080fd5b50610254610ab6565b3480156102ef57600080fd5b50600c546001600160a01b03165b6040516001600160a01b0390911681526020015b60405180910390f35b34801561032657600080fd5b50610350610335366004611a5e565b6001600160a01b031660009081526003602052604090205490565b604051908152602001610311565b34801561036a57600080fd5b50600b54610350565b34801561037f57600080fd5b50610254610b92565b34801561039457600080fd5b50600954610350565b3480156103a957600080fd5b506102546103b8366004611a8e565b610d6c565b3480156103c957600080fd5b50600a54610350565b3480156103de57600080fd5b50601354610350565b3480156103f357600080fd5b50601054610350565b34801561040857600080fd5b50610254610deb565b34801561041d57600080fd5b50610254610ee0565b34801561043257600080fd5b50601154610350565b34801561044757600080fd5b50610350610689565b34801561045c57600080fd5b50600654610350565b34801561047157600080fd5b50601554610350565b34801561048657600080fd5b506102546110d2565b34801561049b57600080fd5b506102546104aa366004611a5e565b611189565b3480156104bb57600080fd5b506102546111fd565b6102546104d2366004611a5e565b61120f565b3480156104e357600080fd5b506001546001600160a01b03166102fd565b34801561050157600080fd5b50610254610510366004611a8e565b611253565b34801561052157600080fd5b50601454610350565b34801561053657600080fd5b50600454610350565b34801561054b57600080fd5b5060165460ff166040519015158152602001610311565b34801561056e57600080fd5b50600554610350565b34801561058357600080fd5b50610350611287565b34801561059857600080fd5b506103506105a7366004611a5e565b6001600160a01b031660009081526007602052604090205490565b3480156105ce57600080fd5b50601254610350565b3480156105e357600080fd5b506102546105f2366004611a8e565b6112a5565b34801561060357600080fd5b50610254610612366004611a8e565b6112d9565b61025461130d565b34801561062b57600080fd5b5061025461134f565b34801561064057600080fd5b5061025461064f366004611a5e565b611683565b34801561066057600080fd5b506103506116f9565b34801561067557600080fd5b50610254610684366004611a8e565b61171c565b60165460009060ff161561069d5750600490565b6012544210156106ad5750600190565b6013544210156106bd5750600290565b50600390565b6106cd8382611750565b6001600160a01b03831660009081526003602052604090205461070057600480549060006106fa83611abd565b91905055505b60055461070d908261180b565b6005556001600160a01b038316600090815260036020526040902054610733908261180b565b6001600160a01b0384166000908152600360205260409020556010541561094f576001600160a01b038216600090815260076020526040902054610787576009805490600061078183611abd565b91905055505b60006107a960646107a36010548561182090919063ffffffff16565b9061182c565b6001600160a01b0384166000908152600760205260409020549091506107cf908261180b565b6001600160a01b038085166000908152600760209081526040808320949094559187168152600890915290812090805b82548110156108b757856001600160a01b031683828154811061082457610824611ad6565b60009182526020909120600290910201546001600160a01b0316036108a5576108798584838154811061085957610859611ad6565b90600052602060002090600202016001015461180b90919063ffffffff16565b83828154811061088b5761088b611ad6565b906000526020600020906002020160010181905550600191505b806108af81611abd565b9150506107ff565b508061091457604080518082019091526001600160a01b03868116825260208083018781528554600180820188556000888152939093209451600290910290940180546001600160a01b0319169490931693909317825591519101555b6001600160a01b0386166000908152600860205260409020825461093a919084906119c0565b50600a54610948908461180b565b600a555050505b505050565b60165460ff1661099b5760405162461bcd60e51b81526020600482015260126024820152711499599d5b99081b9bdd081cdd185c9d195960721b604482015260640161028b565b33600090815260036020526040902054806109ee5760405162461bcd60e51b81526020600482015260136024820152724e6f20526566756e6420417661696c61626c6560681b604482015260640161028b565b804710610a425733600081815260036020526040808220829055516108fc84150291849190818181858888f19350505050158015610a30573d6000803e3d6000fd5b50600654610a3e9082611838565b6006555b50565b610a4d611844565b6001600160a01b038116610a955760405162461bcd60e51b815260206004820152600f60248201526e61646472657373206973207a65726f60881b604482015260640161028b565b6001600160a01b03166000908152600260205260409020805460ff19169055565b610abe61189e565b610ac6610689565b600214610ae55760405162461bcd60e51b815260040161028b90611aec565b610aed611844565b6005546006556016805460ff1916600117905560006013557f6f9aa0523f9d8c5443c3c3ff14e19708756d32d385962578a1f60a8adcfa617030610b396001546001600160a01b031690565b600654604080516001600160a01b039485168152939092166020840152908201526080606082018190526009908201526810d85b98d95b1b195960ba1b60a082015260c00160405180910390a1610b906001600055565b565b337375280424f429fef999c56eb0c2cc2f9095c0cf0514610be15760405162461bcd60e51b81526020600482015260096024820152684f6e6c7920426f737360b81b604482015260640161028b565b600c546040516370a0823160e01b81523060048201526000916001600160a01b0316906370a0823190602401602060405180830381865afa158015610c2a573d6000803e3d6000fd5b505050506040513d601f19601f82011682018060405250810190610c4e9190611b18565b11610c875760405162461bcd60e51b81526020600482015260096024820152684e6f20546f6b656e7360b81b604482015260640161028b565b600c546040516370a0823160e01b81523060048201526001600160a01b039091169063a9059cbb90339083906370a0823190602401602060405180830381865afa158015610cd9573d6000803e3d6000fd5b505050506040513d601f19601f82011682018060405250810190610cfd9190611b18565b6040516001600160e01b031960e085901b1681526001600160a01b03909216600483015260248201526044016020604051808303816000875af1158015610d48573d6000803e3d6000fd5b505050506040513d601f19601f82011682018060405250810190610a429190611b31565b3360009081526002602052604090205460ff16610d9b5760405162461bcd60e51b815260040161028b90611b53565b610da3610689565b600114610de65760405162461bcd60e51b815260206004820152601160248201527024a1a79030b63932b0b23c903132b3b0b760791b604482015260640161028b565b601255565b610df361189e565b610dfb610689565b600314610e455760405162461bcd60e51b815260206004820152601860248201527749434f2073686f756c64206e6f742062652061637469766560401b604482015260640161028b565b33600090815260036020526040902054610e995760405162461bcd60e51b8152602060048201526015602482015274139bc818dbdb9d1c9a589d5d1a5bdb88199bdd5b99605a1b604482015260640161028b565b33600090815260036020526040812054610eb16116f9565b610ebb9190611c82565b9050610ec733826118f7565b5033600090815260036020526040812081905560019055565b610ee8610689565b600314610f325760405162461bcd60e51b815260206004820152601860248201527749434f2073686f756c64206e6f742062652061637469766560401b604482015260640161028b565b610f3a611844565b600554601154610f5290670de0b6b3a7640000611820565b8110611052576000610f7460646107a384600f5461182090919063ffffffff16565b6040519091507375280424f429fef999c56eb0c2cc2f9095c0cf059082156108fc029083906000818181858888f19350505050158015610fb8573d6000803e3d6000fd5b50336108fc610fc78484611838565b6040518115909202916000818181858888f19350505050158015610fef573d6000803e3d6000fd5b507f874f886a60392abb180676546b433d61143fdc5753868148c3ec0edf699cda7e306110246001546001600160a01b031690565b604080516001600160a01b039384168152929091166020830152810184905260600160405180910390a15050565b7f6f9aa0523f9d8c5443c3c3ff14e19708756d32d385962578a1f60a8adcfa6170306110866001546001600160a01b031690565b604080516001600160a01b0393841681529290911660208301528101839052608060608201819052600790820152660536f66746361760cc1b60a082015260c00160405180910390a150565b337375280424f429fef999c56eb0c2cc2f9095c0cf05146111215760405162461bcd60e51b81526020600482015260096024820152684f6e6c7920426f737360b81b604482015260640161028b565b6000471161115d5760405162461bcd60e51b81526020600482015260096024820152684e6f2045746865727360b81b604482015260640161028b565b60405133904780156108fc02916000818181858888f19350505050158015610a42573d6000803e3d6000fd5b611191611844565b6001600160a01b0381166111d95760405162461bcd60e51b815260206004820152600f60248201526e61646472657373206973207a65726f60881b604482015260640161028b565b6001600160a01b03166000908152600260205260409020805460ff19166001179055565b611205611844565b610b90600061196e565b61121761189e565b61121f610689565b60021461123e5760405162461bcd60e51b815260040161028b90611aec565b6112493382346106c3565b610a426001600055565b3360009081526002602052604090205460ff166112825760405162461bcd60e51b815260040161028b90611b53565b601455565b60006112a060145460155461182c90919063ffffffff16565b905090565b3360009081526002602052604090205460ff166112d45760405162461bcd60e51b815260040161028b90611b53565b601355565b3360009081526002602052604090205460ff166113085760405162461bcd60e51b815260040161028b90611b53565b601155565b61131561189e565b61131d610689565b60021461133c5760405162461bcd60e51b815260040161028b90611aec565b61134533610242565b610b906001600055565b61135761189e565b61135f610689565b60021461137e5760405162461bcd60e51b815260040161028b90611aec565b336000908152600360205260409020546113d25760405162461bcd60e51b8152602060048201526015602482015274139bc818dbdb9d1c9a589d5d1a5bdb88199bdd5b99605a1b604482015260640161028b565b33600090815260036020526040812054906113f360646107a3600a85611820565b905060006114018383611838565b6040519091507375280424f429fef999c56eb0c2cc2f9095c0cf059083156108fc029084906000818181858888f19350505050158015611445573d6000803e3d6000fd5b50604051339082156108fc029083906000818181858888f19350505050158015611473573d6000803e3d6000fd5b506004805490600061148483611c8e565b90915550506005546114969084611838565b600555336000908152600360205260408120556010541561167657336000908152600860205260408120905b815481101561162c5761155161150b60646107a38585815481106114e8576114e8611ad6565b90600052602060002090600202016001015460105461182090919063ffffffff16565b6007600085858154811061152157611521611ad6565b600091825260208083206002909202909101546001600160a01b0316835282019290925260400190205490611838565b6007600084848154811061156757611567611ad6565b600091825260208083206002909202909101546001600160a01b03168352820192909252604001812091909155825460079082908590859081106115ad576115ad611ad6565b600091825260208083206002909202909101546001600160a01b03168352820192909252604001902054116115f257600980549060006115ec83611c8e565b91905055505b600082828154811061160657611606611ad6565b60009182526020909120600160029092020101558061162481611abd565b9150506114c2565b50336000908152600860205260409020815461164a919083906119c0565b5061167161166860646107a38760105461182090919063ffffffff16565b600a5490611838565b600a55505b505050610b906001600055565b61168b611844565b6001600160a01b0381166116f05760405162461bcd60e51b815260206004820152602660248201527f4f776e61626c653a206e6577206f776e657220697320746865207a65726f206160448201526564647265737360d01b606482015260840161028b565b610a428161196e565b60006112a06005546107a3600e54600a6117139190611c82565b60155490611820565b3360009081526002602052604090205460ff1661174b5760405162461bcd60e51b815260040161028b90611b53565b601055565b6001600160a01b0382166117b95760405162461bcd60e51b815260206004820152602a60248201527f43726f776473616c653a2062656e656669636961727920697320746865207a65604482015269726f206164647265737360b01b606482015260840161028b565b80156118075760405162461bcd60e51b815260206004820152601b60248201527f496e76616c696420636f6e747269627574696f6e20616d6f756e740000000000604482015260640161028b565b5050565b60006118178284611ca5565b90505b92915050565b60006118178284611cb8565b60006118178284611ccf565b60006118178284611cf1565b6001546001600160a01b03163314610b905760405162461bcd60e51b815260206004820181905260248201527f4f776e61626c653a2063616c6c6572206973206e6f7420746865206f776e6572604482015260640161028b565b6002600054036118f05760405162461bcd60e51b815260206004820152601f60248201527f5265656e7472616e637947756172643a207265656e7472616e742063616c6c00604482015260640161028b565b6002600055565b600c5460405163a9059cbb60e01b81526001600160a01b038481166004830152602482018490529091169063a9059cbb906044016020604051808303816000875af115801561194a573d6000803e3d6000fd5b505050506040513d601f19601f8201168201806040525081019061094f9190611b31565b600180546001600160a01b038381166001600160a01b0319831681179093556040519116919082907f8be0079c531659141344cd1fd0a4f28419497f9722a3daafe3b4186f6b6457e090600090a35050565b828054828255906000526020600020906002028101928215611a285760005260206000209160020282015b82811115611a2857825482546001600160a01b0319166001600160a01b0390911617825560018084015490830155600292830192909101906119eb565b50611a34929150611a38565b5090565b5b80821115611a345780546001600160a01b031916815560006001820155600201611a39565b600060208284031215611a7057600080fd5b81356001600160a01b0381168114611a8757600080fd5b9392505050565b600060208284031215611aa057600080fd5b5035919050565b634e487b7160e01b600052601160045260246000fd5b600060018201611acf57611acf611aa7565b5060010190565b634e487b7160e01b600052603260045260246000fd5b60208082526012908201527149434f206d7573742062652061637469766560701b604082015260600190565b600060208284031215611b2a57600080fd5b5051919050565b600060208284031215611b4357600080fd5b81518015158114611a8757600080fd5b6020808252602b908201527f49434f3a206f6e6c792041646d696e2063616e2063616c6c207468697320667560408201526a6e6374696f6e616c69747960a81b606082015260800190565b600181815b80851115611bd9578160001904821115611bbf57611bbf611aa7565b80851615611bcc57918102915b93841c9390800290611ba3565b509250929050565b600082611bf05750600161181a565b81611bfd5750600061181a565b8160018114611c135760028114611c1d57611c39565b600191505061181a565b60ff841115611c2e57611c2e611aa7565b50506001821b61181a565b5060208310610133831016604e8410600b8410161715611c5c575081810a61181a565b611c668383611b9e565b8060001904821115611c7a57611c7a611aa7565b029392505050565b60006118178383611be1565b600081611c9d57611c9d611aa7565b506000190190565b8082018082111561181a5761181a611aa7565b808202811582820484141761181a5761181a611aa7565b600082611cec57634e487b7160e01b600052601260045260246000fd5b500490565b8181038181111561181a5761181a611aa756fea264697066735822122005094ef5d751c4386a12a5b5040c67b7c8e42ae74975e1a181412570b9a5da9064736f6c63430008110033",
  "linkReferences": {},
  "deployedLinkReferences": {}
}