{
  "_format": "hh-sol-artifact-1",
  "contractName": "Presale",
  "sourceName": "contracts/Presale.sol",
  "abi": [
    {
      "inputs": [
        {
          "internalType": "address payable",
          "name": "wallet",
          "type": "address"
        },
        {
          "internalType": "contract IERC20",
          "name": "token",
          "type": "address"
        }
      ],
      "stateMutability": "nonpayable",
      "type": "constructor"
    },
    {
      "anonymous": false,
      "inputs": [
        {
          "indexed": true,
          "internalType": "address",
          "name": "previousOwner",
          "type": "address"
        },
        {
          "indexed": true,
          "internalType": "address",
          "name": "newOwner",
          "type": "address"
        }
      ],
      "name": "OwnershipTransferred",
      "type": "event"
    },
    {
      "anonymous": false,
      "inputs": [
        {
          "indexed": false,
          "internalType": "address",
          "name": "recipient",
          "type": "address"
        },
        {
          "indexed": false,
          "internalType": "uint256",
          "name": "amount",
          "type": "uint256"
        }
      ],
      "name": "Refund",
      "type": "event"
    },
    {
      "anonymous": false,
      "inputs": [
        {
          "indexed": false,
          "internalType": "address",
          "name": "purchaser",
          "type": "address"
        },
        {
          "indexed": false,
          "internalType": "address",
          "name": "beneficiary",
          "type": "address"
        },
        {
          "indexed": false,
          "internalType": "uint256",
          "name": "value",
          "type": "uint256"
        },
        {
          "indexed": false,
          "internalType": "uint256",
          "name": "amount",
          "type": "uint256"
        }
      ],
      "name": "TokensPurchased",
      "type": "event"
    },
    {
      "inputs": [],
      "name": "_rate",
      "outputs": [
        {
          "internalType": "uint256",
          "name": "",
          "type": "uint256"
        }
      ],
      "stateMutability": "view",
      "type": "function"
    },
    {
      "inputs": [],
      "name": "_token",
      "outputs": [
        {
          "internalType": "contract IERC20",
          "name": "",
          "type": "address"
        }
      ],
      "stateMutability": "view",
      "type": "function"
    },
    {
      "inputs": [],
      "name": "_weiRaised",
      "outputs": [
        {
          "internalType": "uint256",
          "name": "",
          "type": "uint256"
        }
      ],
      "stateMutability": "view",
      "type": "function"
    },
    {
      "inputs": [],
      "name": "activateRefund",
      "outputs": [],
      "stateMutability": "nonpayable",
      "type": "function"
    },
    {
      "inputs": [
        {
          "internalType": "uint256",
          "name": "tokenAmount",
          "type": "uint256"
        },
        {
          "internalType": "uint256",
          "name": "ethAmount",
          "type": "uint256"
        }
      ],
      "name": "addLiquidity",
      "outputs": [],
      "stateMutability": "nonpayable",
      "type": "function"
    },
    {
      "inputs": [],
      "name": "availableTokensICO",
      "outputs": [
        {
          "internalType": "uint256",
          "name": "",
          "type": "uint256"
        }
      ],
      "stateMutability": "view",
      "type": "function"
    },
    {
      "inputs": [
        {
          "internalType": "address",
          "name": "beneficiary",
          "type": "address"
        }
      ],
      "name": "buyTokens",
      "outputs": [],
      "stateMutability": "payable",
      "type": "function"
    },
    {
      "inputs": [
        {
          "internalType": "address",
          "name": "addr",
          "type": "address"
        }
      ],
      "name": "checkContribution",
      "outputs": [
        {
          "internalType": "uint256",
          "name": "",
          "type": "uint256"
        }
      ],
      "stateMutability": "view",
      "type": "function"
    },
    {
      "inputs": [
        {
          "internalType": "address",
          "name": "addr",
          "type": "address"
        }
      ],
      "name": "checkTokens",
      "outputs": [
        {
          "internalType": "uint256",
          "name": "",
          "type": "uint256"
        }
      ],
      "stateMutability": "view",
      "type": "function"
    },
    {
      "inputs": [],
      "name": "claimTokens",
      "outputs": [],
      "stateMutability": "nonpayable",
      "type": "function"
    },
    {
      "inputs": [],
      "name": "endICO",
      "outputs": [
        {
          "internalType": "uint256",
          "name": "",
          "type": "uint256"
        }
      ],
      "stateMutability": "view",
      "type": "function"
    },
    {
      "inputs": [],
      "name": "forwards",
      "outputs": [],
      "stateMutability": "nonpayable",
      "type": "function"
    },
    {
      "inputs": [],
      "name": "getHardCap",
      "outputs": [
        {
          "internalType": "uint256",
          "name": "",
          "type": "uint256"
        }
      ],
      "stateMutability": "view",
      "type": "function"
    },
    {
      "inputs": [],
      "name": "getRate",
      "outputs": [
        {
          "internalType": "uint256",
          "name": "",
          "type": "uint256"
        }
      ],
      "stateMutability": "view",
      "type": "function"
    },
    {
      "inputs": [],
      "name": "getSoftCap",
      "outputs": [
        {
          "internalType": "uint256",
          "name": "",
          "type": "uint256"
        }
      ],
      "stateMutability": "view",
      "type": "function"
    },
    {
      "inputs": [],
      "name": "hardCap",
      "outputs": [
        {
          "internalType": "uint256",
          "name": "",
          "type": "uint256"
        }
      ],
      "stateMutability": "view",
      "type": "function"
    },
    {
      "inputs": [],
      "name": "maxPurchase",
      "outputs": [
        {
          "internalType": "uint256",
          "name": "",
          "type": "uint256"
        }
      ],
      "stateMutability": "view",
      "type": "function"
    },
    {
      "inputs": [],
      "name": "minPurchase",
      "outputs": [
        {
          "internalType": "uint256",
          "name": "",
          "type": "uint256"
        }
      ],
      "stateMutability": "view",
      "type": "function"
    },
    {
      "inputs": [],
      "name": "owner",
      "outputs": [
        {
          "internalType": "address",
          "name": "",
          "type": "address"
        }
      ],
      "stateMutability": "view",
      "type": "function"
    },
    {
      "inputs": [],
      "name": "refundMe",
      "outputs": [],
      "stateMutability": "nonpayable",
      "type": "function"
    },
    {
      "inputs": [],
      "name": "renounceOwnership",
      "outputs": [],
      "stateMutability": "nonpayable",
      "type": "function"
    },
    {
      "inputs": [
        {
          "internalType": "address",
          "name": "_admin",
          "type": "address"
        }
      ],
      "name": "setAdmin",
      "outputs": [],
      "stateMutability": "nonpayable",
      "type": "function"
    },
    {
      "inputs": [
        {
          "internalType": "uint256",
          "name": "amount",
          "type": "uint256"
        }
      ],
      "name": "setAvailableTokens",
      "outputs": [],
      "stateMutability": "nonpayable",
      "type": "function"
    },
    {
      "inputs": [
        {
          "internalType": "uint256",
          "name": "value",
          "type": "uint256"
        }
      ],
      "name": "setHardCap",
      "outputs": [],
      "stateMutability": "nonpayable",
      "type": "function"
    },
    {
      "inputs": [
        {
          "internalType": "uint256",
          "name": "value",
          "type": "uint256"
        }
      ],
      "name": "setMaxPurchase",
      "outputs": [],
      "stateMutability": "nonpayable",
      "type": "function"
    },
    {
      "inputs": [
        {
          "internalType": "uint256",
          "name": "value",
          "type": "uint256"
        }
      ],
      "name": "setMinPurchase",
      "outputs": [],
      "stateMutability": "nonpayable",
      "type": "function"
    },
    {
      "inputs": [
        {
          "internalType": "uint256",
          "name": "newRate",
          "type": "uint256"
        }
      ],
      "name": "setRate",
      "outputs": [],
      "stateMutability": "nonpayable",
      "type": "function"
    },
    {
      "inputs": [
        {
          "internalType": "uint256",
          "name": "value",
          "type": "uint256"
        }
      ],
      "name": "setSoftCap",
      "outputs": [],
      "stateMutability": "nonpayable",
      "type": "function"
    },
    {
      "inputs": [
        {
          "internalType": "address payable",
          "name": "newWallet",
          "type": "address"
        }
      ],
      "name": "setWalletReceiver",
      "outputs": [],
      "stateMutability": "nonpayable",
      "type": "function"
    },
    {
      "inputs": [],
      "name": "softCap",
      "outputs": [
        {
          "internalType": "uint256",
          "name": "",
          "type": "uint256"
        }
      ],
      "stateMutability": "view",
      "type": "function"
    },
    {
      "inputs": [
        {
          "internalType": "uint256",
          "name": "endDate",
          "type": "uint256"
        }
      ],
      "name": "startICO",
      "outputs": [],
      "stateMutability": "nonpayable",
      "type": "function"
    },
    {
      "inputs": [],
      "name": "startRefund",
      "outputs": [
        {
          "internalType": "bool",
          "name": "",
          "type": "bool"
        }
      ],
      "stateMutability": "view",
      "type": "function"
    },
    {
      "inputs": [],
      "name": "stopICO",
      "outputs": [],
      "stateMutability": "nonpayable",
      "type": "function"
    },
    {
      "inputs": [
        {
          "internalType": "contract IERC20",
          "name": "tokenAddress",
          "type": "address"
        }
      ],
      "name": "takeTokens",
      "outputs": [],
      "stateMutability": "nonpayable",
      "type": "function"
    },
    {
      "inputs": [
        {
          "internalType": "address",
          "name": "newOwner",
          "type": "address"
        }
      ],
      "name": "transferOwnership",
      "outputs": [],
      "stateMutability": "nonpayable",
      "type": "function"
    },
    {
      "inputs": [],
      "name": "weiRaised",
      "outputs": [
        {
          "internalType": "uint256",
          "name": "",
          "type": "uint256"
        }
      ],
      "stateMutability": "view",
      "type": "function"
    },
    {
      "stateMutability": "payable",
      "type": "receive"
    }
  ],
  "bytecode": "0x6080604052604051620000129062000299565b604051809103906000f0801580156200002f573d6000803e3d6000fd5b50600280546001600160a01b0319166001600160a01b03929092169190911790556012600755600a60095565018731db2c20600b5567016345785d8a0000600c55683635c9adc5dea00000600d55620f4240600e55620249f0600f556a084595161401484a000000601055601180546001600160a81b0319167410ed43c718714eb63d5aa57b78b54704e256024e00179055348015620000ce57600080fd5b5060405162001daa38038062001daa833981016040819052620000f191620002c0565b6001600055620001013362000247565b6001600160a01b038216620001695760405162461bcd60e51b8152602060048201526024808201527f5072652d53616c653a2077616c6c657420697320746865207a65726f206164646044820152637265737360e01b60648201526084015b60405180910390fd5b6001600160a01b038116620001cd5760405162461bcd60e51b815260206004820152602360248201527f5072652d53616c653a20746f6b656e20697320746865207a65726f206164647260448201526265737360e81b606482015260840162000160565b600880546001600160a01b038085166001600160a01b0319928316179092556006805492841692909116919091179055600160056000620002166001546001600160a01b031690565b6001600160a01b031681526020810191909152604001600020805460ff191691151591909117905550620002ff9050565b600180546001600160a01b038381166001600160a01b0319831681179093556040519116919082907f8be0079c531659141344cd1fd0a4f28419497f9722a3daafe3b4186f6b6457e090600090a35050565b6101e18062001bc983390190565b6001600160a01b0381168114620002bd57600080fd5b50565b60008060408385031215620002d457600080fd5b8251620002e181620002a7565b6020840151909250620002f481620002a7565b809150509250929050565b6118ba806200030f6000396000f3fe6080604052600436106102135760003560e01c80639cd441da11610118578063d572d5f7116100a0578063ec8ac4d81161006f578063ec8ac4d81461060e578063ecd0c0c31461061c578063f2fde38b1461063c578063f6d893ec1461065c578063fb86a4041461067c57600080fd5b8063d572d5f71461058e578063d5cf5c72146105ae578063e3cef7a1146105ce578063e8307d00146105ee57600080fd5b8063ab0ced0e116100e7578063ab0ced0e146104e4578063adf4a1441461051a578063bf0a07bd14610544578063c8e569a814610559578063d18d944b1461056e57600080fd5b80639cd441da14610463578063a38e2a3214610483578063a41a028b14610498578063a91c3f83146104ae57600080fd5b8063704b6c021161019b5780638da5cb5b1161016a5780638da5cb5b146103cf578063906a26e01461040157806394a5aa8d14610417578063977b055b1461042d57806398180dde1461044357600080fd5b8063704b6c02146103645780637118974214610384578063715018a6146103a457806383bebced146103b957600080fd5b806348c54b9d116101e257806348c54b9d146102fa5780634d52a5121461030f5780634f248409146103245780635a9e426b1461033a578063679aefce1461034f57600080fd5b806333b5b62e1461028757806334fcf437146102b05780633cdb3aa6146102d05780634042b66f146102e557600080fd5b36610282576000600b5411801561022b5750600b5442105b156102405761023e33610692565b610692565b005b60405162461bcd60e51b8152602060048201526012602482015271141c994b54d85b19481a5cc818db1bdcd95960721b60448201526064015b60405180910390fd5b600080fd5b34801561029357600080fd5b5061029d600c5481565b6040519081526020015b60405180910390f35b3480156102bc57600080fd5b5061023e6102cb366004611687565b6107ea565b3480156102dc57600080fd5b5061023e610885565b3480156102f157600080fd5b50600a5461029d565b34801561030657600080fd5b5061023e610900565b34801561031b57600080fd5b5061029d61095f565b34801561033057600080fd5b5061029d600b5481565b34801561034657600080fd5b5061023e6109e9565b34801561035b57600080fd5b5061029d610af1565b34801561037057600080fd5b5061023e61037f3660046116b5565b610b76565b34801561039057600080fd5b5061023e61039f366004611687565b610bea565b3480156103b057600080fd5b5061023e610c1e565b3480156103c557600080fd5b5061029d60095481565b3480156103db57600080fd5b506001546001600160a01b03165b6040516001600160a01b0390911681526020016102a7565b34801561040d57600080fd5b5061029d600f5481565b34801561042357600080fd5b5061029d600a5481565b34801561043957600080fd5b5061029d600d5481565b34801561044f57600080fd5b5061023e61045e366004611687565b610c30565b34801561046f57600080fd5b5061023e61047e3660046116d2565b610cd2565b34801561048f57600080fd5b5061023e610df7565b3480156104a457600080fd5b5061029d60105481565b3480156104ba57600080fd5b5061029d6104c93660046116b5565b6001600160a01b031660009081526004602052604090205490565b3480156104f057600080fd5b5061029d6104ff3660046116b5565b6001600160a01b031660009081526003602052604090205490565b34801561052657600080fd5b506011546105349060ff1681565b60405190151581526020016102a7565b34801561055057600080fd5b5061029d610eb7565b34801561056557600080fd5b5061023e610f3c565b34801561057a57600080fd5b5061023e610589366004611687565b610faf565b34801561059a57600080fd5b5061023e6105a93660046116b5565b610fe3565b3480156105ba57600080fd5b5061023e6105c9366004611687565b611034565b3480156105da57600080fd5b5061023e6105e93660046116b5565b611068565b3480156105fa57600080fd5b5061023e610609366004611687565b6111ea565b61023e6102393660046116b5565b34801561062857600080fd5b506006546103e9906001600160a01b031681565b34801561064857600080fd5b5061023e6106573660046116b5565b61121e565b34801561066857600080fd5b5061023e610677366004611687565b611294565b34801561068857600080fd5b5061029d600e5481565b61069a6112e9565b6000600b541180156106ad5750600b5442105b80156106bb57506000601054115b6106d75760405162461bcd60e51b8152600401610279906116f4565b346106e28282611342565b60006106ed82611510565b6001600160a01b038416600090815260046020526040902054909150610713908261152a565b6001600160a01b038416600090815260046020526040902055600a54610739908361152a565b600a5560105461074a908290611736565b6010556001600160a01b038316600090815260036020526040902054610770908361152a565b6001600160a01b0384166000908152600360205260409020557f6faf93231a456e552dbc9961f58d9713ee4f2e69d15f1975b050ef0911053a7b33604080516001600160a01b039283168152918616602083015281018490526060810183905260800160405180910390a150506107e76001600055565b50565b3360009081526005602052604090205460ff166108195760405162461bcd60e51b815260040161027990611749565b42600b541061083a5760405162461bcd60e51b815260040161027990611798565b600081116108805760405162461bcd60e51b815260206004820152601360248201527205072652d53616c653a2072617465206973203606c1b6044820152606401610279565b600955565b3360009081526005602052604090205460ff166108b45760405162461bcd60e51b815260040161027990611749565b6000600b541180156108c75750600b5442105b80156108d557506000601054115b6108f15760405162461bcd60e51b8152600401610279906116f4565b6011805460ff19166001179055565b6109086112e9565b42600b54106109295760405162461bcd60e51b815260040161027990611798565b3360008181526004602052604090205490610944908261153d565b5033600090815260046020526040812081905560019055565b565b60006109e4600260009054906101000a90046001600160a01b03166001600160a01b0316633b79fdd96040518163ffffffff1660e01b8152600401602060405180830381865afa1580156109b7573d6000803e3d6000fd5b505050506040513d601f19601f820116820180604052508101906109db91906117cf565b600f5490611547565b905090565b42600b5410610a0a5760405162461bcd60e51b815260040161027990611798565b60115460ff161515600114610a575760405162461bcd60e51b81526020600482015260136024820152726e6f20726566756e6420617661696c61626c6560681b6044820152606401610279565b336000908152600360205260409020544781116107e7573360009081526003602052604081205580156107e7576040513390819083156108fc029084906000818181858888f19350505050158015610ab3573d6000803e3d6000fd5b5060408051338152602081018490527fbb28353e4598c3b9199101a66e0989549b659a59a54d2c27fbb183f1932c8e6d910160405180910390a15050565b60006109e4600954600260009054906101000a90046001600160a01b03166001600160a01b0316633b79fdd96040518163ffffffff1660e01b8152600401602060405180830381865afa158015610b4c573d6000803e3d6000fd5b505050506040513d601f19601f82011682018060405250810190610b7091906117cf565b90611553565b610b7e61155f565b6001600160a01b038116610bc65760405162461bcd60e51b815260206004820152600f60248201526e61646472657373206973207a65726f60881b6044820152606401610279565b6001600160a01b03166000908152600560205260409020805460ff19166001179055565b3360009081526005602052604090205460ff16610c195760405162461bcd60e51b815260040161027990611749565b600d55565b610c2661155f565b61095d60006115b9565b3360009081526005602052604090205460ff16610c5f5760405162461bcd60e51b815260040161027990611749565b42600b5410610c805760405162461bcd60e51b815260040161027990611798565b428111610cc85760405162461bcd60e51b815260206004820152601660248201527506475726174696f6e2073686f756c64206265203e20360541b6044820152606401610279565b600b556000600a55565b60065460115460405163095ea7b360e01b81526001600160a01b03610100909204821660048201526024810185905291169063095ea7b3906044016020604051808303816000875af1158015610d2c573d6000803e3d6000fd5b505050506040513d601f19601f82011682018060405250810190610d5091906117e8565b5060115460065460085460405163f305d71960e01b81526001600160a01b03928316600482015260248101869052600060448201819052606482015290821660848201524260a4820152610100909204169063f305d71990839060c40160606040518083038185885af1158015610dcb573d6000803e3d6000fd5b50505050506040513d601f19601f82011682018060405250810190610df0919061180a565b5050505050565b3360009081526005602052604090205460ff16610e265760405162461bcd60e51b815260040161027990611749565b60115460ff1615610e3657600080fd5b60004711610e7e5760405162461bcd60e51b8152602060048201526015602482015274436f6e747261637420686173206e6f206d6f6e657960581b6044820152606401610279565b6008546040516001600160a01b03909116904780156108fc02916000818181858888f193505050501580156107e7573d6000803e3d6000fd5b60006109e4600260009054906101000a90046001600160a01b03166001600160a01b0316633b79fdd96040518163ffffffff1660e01b8152600401602060405180830381865afa158015610f0f573d6000803e3d6000fd5b505050506040513d601f19601f82011682018060405250810190610f3391906117cf565b600e5490611547565b3360009081526005602052604090205460ff16610f6b5760405162461bcd60e51b815260040161027990611749565b6000600b54118015610f7e5750600b5442105b8015610f8c57506000601054115b610fa85760405162461bcd60e51b8152600401610279906116f4565b6000600b55565b3360009081526005602052604090205460ff16610fde5760405162461bcd60e51b815260040161027990611749565b600e55565b3360009081526005602052604090205460ff166110125760405162461bcd60e51b815260040161027990611749565b600880546001600160a01b0319166001600160a01b0392909216919091179055565b3360009081526005602052604090205460ff166110635760405162461bcd60e51b815260040161027990611749565b600f55565b3360009081526005602052604090205460ff166110975760405162461bcd60e51b815260040161027990611749565b42600b54106110b85760405162461bcd60e51b815260040161027990611798565b6040516370a0823160e01b815230600482015281906000906001600160a01b038316906370a0823190602401602060405180830381865afa158015611101573d6000803e3d6000fd5b505050506040513d601f19601f8201168201806040525081019061112591906117cf565b90506000811161116d5760405162461bcd60e51b815260206004820152601360248201527204245502d32302062616c616e6365206973203606c1b6044820152606401610279565b60085460405163a9059cbb60e01b81526001600160a01b039182166004820152602481018390529083169063a9059cbb906044016020604051808303816000875af11580156111c0573d6000803e3d6000fd5b505050506040513d601f19601f820116820180604052508101906111e491906117e8565b50505050565b3360009081526005602052604090205460ff166112195760405162461bcd60e51b815260040161027990611749565b600c55565b61122661155f565b6001600160a01b03811661128b5760405162461bcd60e51b815260206004820152602660248201527f4f776e61626c653a206e6577206f776e657220697320746865207a65726f206160448201526564647265737360d01b6064820152608401610279565b6107e7816115b9565b3360009081526005602052604090205460ff166112c35760405162461bcd60e51b815260040161027990611749565b42600b54106112e45760405162461bcd60e51b815260040161027990611798565b601055565b60026000540361133b5760405162461bcd60e51b815260206004820152601f60248201527f5265656e7472616e637947756172643a207265656e7472616e742063616c6c006044820152606401610279565b6002600055565b6001600160a01b0382166113ab5760405162461bcd60e51b815260206004820152602a60248201527f43726f776473616c653a2062656e656669636961727920697320746865207a65604482015269726f206164647265737360b01b6064820152608401610279565b600c548110156114085760405162461bcd60e51b815260206004820152602260248201527f6861766520746f2073656e64206174206c656173743a206d696e507572636861604482015261736560f01b6064820152608401610279565b600d5481111561145a5760405162461bcd60e51b815260206004820152601d60248201527f6861766520746f2073656e64206d61783a206d617850757263686173650000006044820152606401610279565b61146e670de0b6b3a7640000610b70610eb7565b81600a5461147c9190611838565b106114bc5760405162461bcd60e51b815260206004820152601060248201526f12185c990810d85c081c995858da195960821b6044820152606401610279565b8060000361150c5760405162461bcd60e51b815260206004820152601960248201527f43726f776473616c653a20776569416d6f756e742069732030000000000000006044820152606401610279565b5050565b600061152461151d610af1565b8390611553565b92915050565b60006115368284611838565b9392505050565b61150c828261160b565b6000611536828461184b565b6000611536828461186d565b6001546001600160a01b0316331461095d5760405162461bcd60e51b815260206004820181905260248201527f4f776e61626c653a2063616c6c6572206973206e6f7420746865206f776e65726044820152606401610279565b600180546001600160a01b038381166001600160a01b0319831681179093556040519116919082907f8be0079c531659141344cd1fd0a4f28419497f9722a3daafe3b4186f6b6457e090600090a35050565b60065460405163a9059cbb60e01b81526001600160a01b038481166004830152602482018490529091169063a9059cbb906044016020604051808303816000875af115801561165e573d6000803e3d6000fd5b505050506040513d601f19601f8201168201806040525081019061168291906117e8565b505050565b60006020828403121561169957600080fd5b5035919050565b6001600160a01b03811681146107e757600080fd5b6000602082840312156116c757600080fd5b8135611536816116a0565b600080604083850312156116e557600080fd5b50508035926020909101359150565b60208082526012908201527149434f206d7573742062652061637469766560701b604082015260600190565b634e487b7160e01b600052601160045260246000fd5b8181038181111561152457611524611720565b6020808252602f908201527f50726573616c653a206f6e6c792041646d696e2063616e2063616c6c2074686960408201526e732066756e6374696f6e616c69747960881b606082015260800190565b60208082526018908201527f49434f2073686f756c64206e6f74206265206163746976650000000000000000604082015260600190565b6000602082840312156117e157600080fd5b5051919050565b6000602082840312156117fa57600080fd5b8151801515811461153657600080fd5b60008060006060848603121561181f57600080fd5b8351925060208401519150604084015190509250925092565b8082018082111561152457611524611720565b60008261186857634e487b7160e01b600052601260045260246000fd5b500490565b80820281158282048414176115245761152461172056fea26469706673582212203a93685be9ef070675ea69d18aa8bb69638524001964cf783992646716d7037664736f6c63430008110033608060405234801561001057600080fd5b50600080546001600160a01b031916730567f2323251f0aab15c8dfb1967e4e8a7d42aee17905561019b806100466000396000f3fe608060405234801561001057600080fd5b506004361061002b5760003560e01c80633b79fdd914610030575b600080fd5b61003861004a565b60405190815260200160405180910390f35b6000805460408051633fabe5a360e21b8152905183926001600160a01b03169163feaf968c9160048083019260a09291908290030181865afa158015610094573d6000803e3d6000fd5b505050506040513d601f19601f820116820180604052508101906100b891906100f3565b5050509150506305f5e100816100ce9190610143565b91505090565b805169ffffffffffffffffffff811681146100ee57600080fd5b919050565b600080600080600060a0868803121561010b57600080fd5b610114866100d4565b9450602086015193506040860151925060608601519150610137608087016100d4565b90509295509295909350565b60008261016057634e487b7160e01b600052601260045260246000fd5b50049056fea26469706673582212201124a98b3389b1cfd4f4d3cca585a83751d512968d34407301c11b7ccec39bee64736f6c63430008110033",
  "linkReferences": {},
  "deployedLinkReferences": {}
}