{
  "_format": "hh-sol-artifact-1",
  "contractName": "Presale",
  "sourceName": "contracts/Presale.sol",
  "abi": [
    {
      "inputs": [
        {
          "internalType": "address payable",
          "name": "wallet",
          "type": "address"
        },
        {
          "internalType": "contract IERC20",
          "name": "token",
          "type": "address"
        }
      ],
      "stateMutability": "nonpayable",
      "type": "constructor"
    },
    {
      "anonymous": false,
      "inputs": [
        {
          "indexed": true,
          "internalType": "address",
          "name": "previousOwner",
          "type": "address"
        },
        {
          "indexed": true,
          "internalType": "address",
          "name": "newOwner",
          "type": "address"
        }
      ],
      "name": "OwnershipTransferred",
      "type": "event"
    },
    {
      "anonymous": false,
      "inputs": [
        {
          "indexed": false,
          "internalType": "address",
          "name": "recipient",
          "type": "address"
        },
        {
          "indexed": false,
          "internalType": "uint256",
          "name": "amount",
          "type": "uint256"
        }
      ],
      "name": "Refund",
      "type": "event"
    },
    {
      "anonymous": false,
      "inputs": [
        {
          "indexed": false,
          "internalType": "address",
          "name": "purchaser",
          "type": "address"
        },
        {
          "indexed": false,
          "internalType": "address",
          "name": "beneficiary",
          "type": "address"
        },
        {
          "indexed": false,
          "internalType": "uint256",
          "name": "value",
          "type": "uint256"
        },
        {
          "indexed": false,
          "internalType": "uint256",
          "name": "amount",
          "type": "uint256"
        }
      ],
      "name": "TokensPurchased",
      "type": "event"
    },
    {
      "inputs": [
        {
          "internalType": "address",
          "name": "",
          "type": "address"
        }
      ],
      "name": "_contributions",
      "outputs": [
        {
          "internalType": "uint256",
          "name": "",
          "type": "uint256"
        }
      ],
      "stateMutability": "view",
      "type": "function"
    },
    {
      "inputs": [],
      "name": "_rate",
      "outputs": [
        {
          "internalType": "uint256",
          "name": "",
          "type": "uint256"
        }
      ],
      "stateMutability": "view",
      "type": "function"
    },
    {
      "inputs": [],
      "name": "_token",
      "outputs": [
        {
          "internalType": "contract IERC20",
          "name": "",
          "type": "address"
        }
      ],
      "stateMutability": "view",
      "type": "function"
    },
    {
      "inputs": [],
      "name": "_wallet",
      "outputs": [
        {
          "internalType": "address payable",
          "name": "",
          "type": "address"
        }
      ],
      "stateMutability": "view",
      "type": "function"
    },
    {
      "inputs": [],
      "name": "_weiRaised",
      "outputs": [
        {
          "internalType": "uint256",
          "name": "",
          "type": "uint256"
        }
      ],
      "stateMutability": "view",
      "type": "function"
    },
    {
      "inputs": [],
      "name": "availableTokensICO",
      "outputs": [
        {
          "internalType": "uint256",
          "name": "",
          "type": "uint256"
        }
      ],
      "stateMutability": "view",
      "type": "function"
    },
    {
      "inputs": [
        {
          "internalType": "address",
          "name": "beneficiary",
          "type": "address"
        }
      ],
      "name": "buyTokens",
      "outputs": [],
      "stateMutability": "payable",
      "type": "function"
    },
    {
      "inputs": [
        {
          "internalType": "address",
          "name": "addr",
          "type": "address"
        }
      ],
      "name": "checkContribution",
      "outputs": [
        {
          "internalType": "uint256",
          "name": "",
          "type": "uint256"
        }
      ],
      "stateMutability": "view",
      "type": "function"
    },
    {
      "inputs": [],
      "name": "claimTokens",
      "outputs": [],
      "stateMutability": "nonpayable",
      "type": "function"
    },
    {
      "inputs": [],
      "name": "endICO",
      "outputs": [
        {
          "internalType": "uint256",
          "name": "",
          "type": "uint256"
        }
      ],
      "stateMutability": "view",
      "type": "function"
    },
    {
      "inputs": [],
      "name": "forwards",
      "outputs": [],
      "stateMutability": "nonpayable",
      "type": "function"
    },
    {
      "inputs": [],
      "name": "getLiquidityToken",
      "outputs": [
        {
          "internalType": "uint256",
          "name": "",
          "type": "uint256"
        }
      ],
      "stateMutability": "view",
      "type": "function"
    },
    {
      "inputs": [],
      "name": "hardCap",
      "outputs": [
        {
          "internalType": "uint256",
          "name": "",
          "type": "uint256"
        }
      ],
      "stateMutability": "view",
      "type": "function"
    },
    {
      "inputs": [],
      "name": "maxPurchase",
      "outputs": [
        {
          "internalType": "uint256",
          "name": "",
          "type": "uint256"
        }
      ],
      "stateMutability": "view",
      "type": "function"
    },
    {
      "inputs": [],
      "name": "minPurchase",
      "outputs": [
        {
          "internalType": "uint256",
          "name": "",
          "type": "uint256"
        }
      ],
      "stateMutability": "view",
      "type": "function"
    },
    {
      "inputs": [],
      "name": "owner",
      "outputs": [
        {
          "internalType": "address",
          "name": "",
          "type": "address"
        }
      ],
      "stateMutability": "view",
      "type": "function"
    },
    {
      "inputs": [],
      "name": "refundMe",
      "outputs": [],
      "stateMutability": "nonpayable",
      "type": "function"
    },
    {
      "inputs": [],
      "name": "renounceOwnership",
      "outputs": [],
      "stateMutability": "nonpayable",
      "type": "function"
    },
    {
      "inputs": [
        {
          "internalType": "address",
          "name": "_admin",
          "type": "address"
        }
      ],
      "name": "setAdmin",
      "outputs": [],
      "stateMutability": "nonpayable",
      "type": "function"
    },
    {
      "inputs": [
        {
          "internalType": "uint256",
          "name": "amount",
          "type": "uint256"
        }
      ],
      "name": "setAvailableTokens",
      "outputs": [],
      "stateMutability": "nonpayable",
      "type": "function"
    },
    {
      "inputs": [
        {
          "internalType": "uint256",
          "name": "value",
          "type": "uint256"
        }
      ],
      "name": "setHardCap",
      "outputs": [],
      "stateMutability": "nonpayable",
      "type": "function"
    },
    {
      "inputs": [
        {
          "internalType": "uint256",
          "name": "value",
          "type": "uint256"
        }
      ],
      "name": "setMaxPurchase",
      "outputs": [],
      "stateMutability": "nonpayable",
      "type": "function"
    },
    {
      "inputs": [
        {
          "internalType": "uint256",
          "name": "value",
          "type": "uint256"
        }
      ],
      "name": "setMinPurchase",
      "outputs": [],
      "stateMutability": "nonpayable",
      "type": "function"
    },
    {
      "inputs": [
        {
          "internalType": "uint256",
          "name": "newRate",
          "type": "uint256"
        }
      ],
      "name": "setRate",
      "outputs": [],
      "stateMutability": "nonpayable",
      "type": "function"
    },
    {
      "inputs": [
        {
          "internalType": "uint256",
          "name": "value",
          "type": "uint256"
        }
      ],
      "name": "setSoftCap",
      "outputs": [],
      "stateMutability": "nonpayable",
      "type": "function"
    },
    {
      "inputs": [
        {
          "internalType": "address payable",
          "name": "newWallet",
          "type": "address"
        }
      ],
      "name": "setWalletReceiver",
      "outputs": [],
      "stateMutability": "nonpayable",
      "type": "function"
    },
    {
      "inputs": [],
      "name": "softCap",
      "outputs": [
        {
          "internalType": "uint256",
          "name": "",
          "type": "uint256"
        }
      ],
      "stateMutability": "view",
      "type": "function"
    },
    {
      "inputs": [
        {
          "internalType": "uint256",
          "name": "endDate",
          "type": "uint256"
        }
      ],
      "name": "startICO",
      "outputs": [],
      "stateMutability": "nonpayable",
      "type": "function"
    },
    {
      "inputs": [],
      "name": "startRefund",
      "outputs": [
        {
          "internalType": "bool",
          "name": "",
          "type": "bool"
        }
      ],
      "stateMutability": "view",
      "type": "function"
    },
    {
      "inputs": [],
      "name": "stopICO",
      "outputs": [],
      "stateMutability": "nonpayable",
      "type": "function"
    },
    {
      "inputs": [
        {
          "internalType": "contract IERC20",
          "name": "tokenAddress",
          "type": "address"
        }
      ],
      "name": "takeTokens",
      "outputs": [],
      "stateMutability": "nonpayable",
      "type": "function"
    },
    {
      "inputs": [
        {
          "internalType": "address",
          "name": "newOwner",
          "type": "address"
        }
      ],
      "name": "transferOwnership",
      "outputs": [],
      "stateMutability": "nonpayable",
      "type": "function"
    },
    {
      "inputs": [],
      "name": "weiRaised",
      "outputs": [
        {
          "internalType": "uint256",
          "name": "",
          "type": "uint256"
        }
      ],
      "stateMutability": "view",
      "type": "function"
    },
    {
      "stateMutability": "payable",
      "type": "receive"
    }
  ],
  "bytecode": "0x608060405260126005556108986007556503782dace9d9600a55681b1ae4d6e2ef500000600b5569010f0cf064dd59200000600c55685150ae84a8cdf00000600d556a084595161401484a000000600e55600f80546001600160a81b0319167410ed43c718714eb63d5aa57b78b54704e256024e001790553480156200008457600080fd5b506040516200198b3803806200198b833981016040819052620000a79162000268565b6001600055620000b733620001fd565b6001600160a01b0382166200011f5760405162461bcd60e51b8152602060048201526024808201527f5072652d53616c653a2077616c6c657420697320746865207a65726f206164646044820152637265737360e01b60648201526084015b60405180910390fd5b6001600160a01b038116620001835760405162461bcd60e51b815260206004820152602360248201527f5072652d53616c653a20746f6b656e20697320746865207a65726f206164647260448201526265737360e81b606482015260840162000116565b600680546001600160a01b038085166001600160a01b0319928316179092556004805492841692909116919091179055600160036000620001cc6001546001600160a01b031690565b6001600160a01b031681526020810191909152604001600020805460ff191691151591909117905550620002a79050565b600180546001600160a01b038381166001600160a01b0319831681179093556040519116919082907f8be0079c531659141344cd1fd0a4f28419497f9722a3daafe3b4186f6b6457e090600090a35050565b6001600160a01b03811681146200026557600080fd5b50565b600080604083850312156200027c57600080fd5b825162000289816200024f565b60208401519092506200029c816200024f565b809150509250929050565b6116d480620002b76000396000f3fe6080604052600436106101f25760003560e01c8063977b055b1161010d578063d572d5f7116100a0578063ec8ac4d81161006f578063ec8ac4d8146105a9578063ecd0c0c3146105b7578063f2fde38b146105d7578063f6d893ec146105f7578063fb86a4041461061757600080fd5b8063d572d5f714610529578063d5cf5c7214610549578063e3cef7a114610569578063e8307d001461058957600080fd5b8063ab0ced0e116100dc578063ab0ced0e14610494578063adf4a144146104ca578063c8e569a8146104f4578063d18d944b1461050957600080fd5b8063977b055b1461043357806398180dde14610449578063a38e2a3214610469578063a41a028b1461047e57600080fd5b8063644e44df1161018557806383bebced1161015457806383bebced146103d35780638da5cb5b146103e9578063906a26e01461040757806394a5aa8d1461041d57600080fd5b8063644e44df14610369578063704b6c021461037e578063711897421461039e578063715018a6146103be57600080fd5b806348c54b9d116101c157806348c54b9d146102f15780634f248409146103065780635a9e426b1461031c578063610757e41461033157600080fd5b80631e6a610d1461026657806333b5b62e146102a657806334fcf437146102bc5780634042b66f146102dc57600080fd5b3661026157600060095411801561020a575060095442105b1561021f5761021d3361062d565b61062d565b005b60405162461bcd60e51b8152602060048201526012602482015271141c994b54d85b19481a5cc818db1bdcd95960721b60448201526064015b60405180910390fd5b600080fd5b34801561027257600080fd5b50610293610281366004611504565b60026020526000908152604090205481565b6040519081526020015b60405180910390f35b3480156102b257600080fd5b50610293600a5481565b3480156102c857600080fd5b5061021d6102d7366004611521565b61076e565b3480156102e857600080fd5b50600854610293565b3480156102fd57600080fd5b5061021d610809565b34801561031257600080fd5b5061029360095481565b34801561032857600080fd5b5061021d610872565b34801561033d57600080fd5b50600654610351906001600160a01b031681565b6040516001600160a01b03909116815260200161029d565b34801561037557600080fd5b5061029361097a565b34801561038a57600080fd5b5061021d610399366004611504565b6109c6565b3480156103aa57600080fd5b5061021d6103b9366004611521565b610a3a565b3480156103ca57600080fd5b5061021d610a6e565b3480156103df57600080fd5b5061029360075481565b3480156103f557600080fd5b506001546001600160a01b0316610351565b34801561041357600080fd5b50610293600d5481565b34801561042957600080fd5b5061029360085481565b34801561043f57600080fd5b50610293600b5481565b34801561045557600080fd5b5061021d610464366004611521565b610a80565b34801561047557600080fd5b5061021d610b22565b34801561048a57600080fd5b50610293600e5481565b3480156104a057600080fd5b506102936104af366004611504565b6001600160a01b031660009081526002602052604090205490565b3480156104d657600080fd5b50600f546104e49060ff1681565b604051901515815260200161029d565b34801561050057600080fd5b5061021d610be2565b34801561051557600080fd5b5061021d610524366004611521565b610c9a565b34801561053557600080fd5b5061021d610544366004611504565b610cce565b34801561055557600080fd5b5061021d610564366004611521565b610d1f565b34801561057557600080fd5b5061021d610584366004611504565b610d53565b34801561059557600080fd5b5061021d6105a4366004611521565b610ed5565b61021d610218366004611504565b3480156105c357600080fd5b50600454610351906001600160a01b031681565b3480156105e357600080fd5b5061021d6105f2366004611504565b610f09565b34801561060357600080fd5b5061021d610612366004611521565b610f7f565b34801561062357600080fd5b50610293600c5481565b610635610fd4565b6000600954118015610648575060095442105b801561065657506000600e54115b6106975760405162461bcd60e51b815260206004820152601260248201527149434f206d7573742062652061637469766560701b6044820152606401610258565b346106a2828261102d565b60006106ad826111ea565b6008549091506106bd9083611207565b600855600e546106ce908290611550565b600e556001600160a01b0383166000908152600260205260409020546106f49083611207565b6001600160a01b0384166000908152600260205260409020557f6faf93231a456e552dbc9961f58d9713ee4f2e69d15f1975b050ef0911053a7b33604080516001600160a01b039283168152918616602083015281018490526060810183905260800160405180910390a1505061076b6001600055565b50565b3360009081526003602052604090205460ff1661079d5760405162461bcd60e51b815260040161025890611563565b42600954106107be5760405162461bcd60e51b8152600401610258906115b2565b600081116108045760405162461bcd60e51b815260206004820152601360248201527205072652d53616c653a2072617465206973203606c1b6044820152606401610258565b600755565b610811610fd4565b42600954106108325760405162461bcd60e51b8152600401610258906115b2565b3360009081526002602052604081205461084b906111ea565b9050610857338261121a565b5033600090815260026020526040812081905560019055565b565b42600954106108935760405162461bcd60e51b8152600401610258906115b2565b600f5460ff1615156001146108e05760405162461bcd60e51b81526020600482015260136024820152726e6f20726566756e6420617661696c61626c6560681b6044820152606401610258565b3360009081526002602052604090205447811161076b5733600090815260026020526040812055801561076b576040513390819083156108fc029084906000818181858888f1935050505015801561093c573d6000803e3d6000fd5b5060408051338152602081018490527fbb28353e4598c3b9199101a66e0989549b659a59a54d2c27fbb183f1932c8e6d910160405180910390a15050565b60006109a96109a0606461099a601460075461122490919063ffffffff16565b90611230565b60075490611207565b6008546109b7906002611230565b6109c191906115e9565b905090565b6109ce61123c565b6001600160a01b038116610a165760405162461bcd60e51b815260206004820152600f60248201526e61646472657373206973207a65726f60881b6044820152606401610258565b6001600160a01b03166000908152600360205260409020805460ff19166001179055565b3360009081526003602052604090205460ff16610a695760405162461bcd60e51b815260040161025890611563565b600b55565b610a7661123c565b6108706000611296565b3360009081526003602052604090205460ff16610aaf5760405162461bcd60e51b815260040161025890611563565b4260095410610ad05760405162461bcd60e51b8152600401610258906115b2565b428111610b185760405162461bcd60e51b815260206004820152601660248201527506475726174696f6e2073686f756c64206265203e20360541b6044820152606401610258565b6009556000600855565b3360009081526003602052604090205460ff16610b515760405162461bcd60e51b815260040161025890611563565b600f5460ff1615610b6157600080fd5b60004711610ba95760405162461bcd60e51b8152602060048201526015602482015274436f6e747261637420686173206e6f206d6f6e657960581b6044820152606401610258565b6006546040516001600160a01b03909116904780156108fc02916000818181858888f1935050505015801561076b573d6000803e3d6000fd5b3360009081526003602052604090205460ff16610c115760405162461bcd60e51b815260040161025890611563565b6000600954118015610c24575060095442105b8015610c3257506000600e54115b610c735760405162461bcd60e51b815260206004820152601260248201527149434f206d7573742062652061637469766560701b6044820152606401610258565b6000600955600d5460085410610c8b576108706112e8565b600f805460ff19166001179055565b3360009081526003602052604090205460ff16610cc95760405162461bcd60e51b815260040161025890611563565b600c55565b3360009081526003602052604090205460ff16610cfd5760405162461bcd60e51b815260040161025890611563565b600680546001600160a01b0319166001600160a01b0392909216919091179055565b3360009081526003602052604090205460ff16610d4e5760405162461bcd60e51b815260040161025890611563565b600d55565b3360009081526003602052604090205460ff16610d825760405162461bcd60e51b815260040161025890611563565b4260095410610da35760405162461bcd60e51b8152600401610258906115b2565b6040516370a0823160e01b815230600482015281906000906001600160a01b038316906370a0823190602401602060405180830381865afa158015610dec573d6000803e3d6000fd5b505050506040513d601f19601f82011682018060405250810190610e109190611600565b905060008111610e585760405162461bcd60e51b815260206004820152601360248201527204245502d32302062616c616e6365206973203606c1b6044820152606401610258565b60065460405163a9059cbb60e01b81526001600160a01b039182166004820152602481018390529083169063a9059cbb906044016020604051808303816000875af1158015610eab573d6000803e3d6000fd5b505050506040513d601f19601f82011682018060405250810190610ecf9190611619565b50505050565b3360009081526003602052604090205460ff16610f045760405162461bcd60e51b815260040161025890611563565b600a55565b610f1161123c565b6001600160a01b038116610f765760405162461bcd60e51b815260206004820152602660248201527f4f776e61626c653a206e6577206f776e657220697320746865207a65726f206160448201526564647265737360d01b6064820152608401610258565b61076b81611296565b3360009081526003602052604090205460ff16610fae5760405162461bcd60e51b815260040161025890611563565b4260095410610fcf5760405162461bcd60e51b8152600401610258906115b2565b600e55565b6002600054036110265760405162461bcd60e51b815260206004820152601f60248201527f5265656e7472616e637947756172643a207265656e7472616e742063616c6c006044820152606401610258565b6002600055565b6001600160a01b0382166110965760405162461bcd60e51b815260206004820152602a60248201527f43726f776473616c653a2062656e656669636961727920697320746865207a65604482015269726f206164647265737360b01b6064820152608401610258565b600a548110156110f35760405162461bcd60e51b815260206004820152602260248201527f6861766520746f2073656e64206174206c656173743a206d696e507572636861604482015261736560f01b6064820152608401610258565b600b548111156111455760405162461bcd60e51b815260206004820152601d60248201527f6861766520746f2073656e64206d61783a206d617850757263686173650000006044820152606401610258565b600c5481600854611156919061163b565b106111965760405162461bcd60e51b815260206004820152601060248201526f12185c990810d85c081c995858da195960821b6044820152606401610258565b806000036111e65760405162461bcd60e51b815260206004820152601960248201527f43726f776473616c653a20776569416d6f756e742069732030000000000000006044820152606401610258565b5050565b60006112016007548361122490919063ffffffff16565b92915050565b6000611213828461163b565b9392505050565b6111e68282611346565b600061121382846115e9565b6000611213828461164e565b6001546001600160a01b031633146108705760405162461bcd60e51b815260206004820181905260248201527f4f776e61626c653a2063616c6c6572206973206e6f7420746865206f776e65726044820152606401610258565b600180546001600160a01b038381166001600160a01b0319831681179093556040519116919082907f8be0079c531659141344cd1fd0a4f28419497f9722a3daafe3b4186f6b6457e090600090a35050565b60006112fa606461099a476032611224565b905061130d61130761097a565b826113c4565b6006546040516001600160a01b03909116904780156108fc02916000818181858888f193505050501580156111e6573d6000803e3d6000fd5b6004805460405163a9059cbb60e01b81526001600160a01b03858116938201939093526024810184905291169063a9059cbb906044016020604051808303816000875af115801561139b573d6000803e3d6000fd5b505050506040513d601f19601f820116820180604052508101906113bf9190611619565b505050565b60048054600f5460405163095ea7b360e01b81526001600160a01b0361010090920482169381019390935260248301859052169063095ea7b3906044016020604051808303816000875af1158015611420573d6000803e3d6000fd5b505050506040513d601f19601f820116820180604052508101906114449190611619565b50600f546004805460065460405163f305d71960e01b81526001600160a01b0392831693810193909352602483018690526000604484018190526064840152811660848301524260a48301526101009092049091169063f305d71990839060c40160606040518083038185885af11580156114c3573d6000803e3d6000fd5b50505050506040513d601f19601f820116820180604052508101906114e89190611670565b5050505050565b6001600160a01b038116811461076b57600080fd5b60006020828403121561151657600080fd5b8135611213816114ef565b60006020828403121561153357600080fd5b5035919050565b634e487b7160e01b600052601160045260246000fd5b818103818111156112015761120161153a565b6020808252602f908201527f50726573616c653a206f6e6c792041646d696e2063616e2063616c6c2074686960408201526e732066756e6374696f6e616c69747960881b606082015260800190565b60208082526018908201527f49434f2073686f756c64206e6f74206265206163746976650000000000000000604082015260600190565b80820281158282048414176112015761120161153a565b60006020828403121561161257600080fd5b5051919050565b60006020828403121561162b57600080fd5b8151801515811461121357600080fd5b808201808211156112015761120161153a565b60008261166b57634e487b7160e01b600052601260045260246000fd5b500490565b60008060006060848603121561168557600080fd5b835192506020840151915060408401519050925092509256fea264697066735822122075888fb79ee45a1335f42ee8427be4064759fc0d408b766c94c7e9f7c4e3215364736f6c63430008110033",
  "linkReferences": {},
  "deployedLinkReferences": {}
}