{
  "_format": "hh-sol-artifact-1",
  "contractName": "Presale",
  "sourceName": "contracts/Presale.sol",
  "abi": [
    {
      "inputs": [
        {
          "internalType": "address payable",
          "name": "wallet",
          "type": "address"
        },
        {
          "internalType": "contract IERC20",
          "name": "token",
          "type": "address"
        }
      ],
      "stateMutability": "nonpayable",
      "type": "constructor"
    },
    {
      "anonymous": false,
      "inputs": [
        {
          "indexed": true,
          "internalType": "address",
          "name": "previousOwner",
          "type": "address"
        },
        {
          "indexed": true,
          "internalType": "address",
          "name": "newOwner",
          "type": "address"
        }
      ],
      "name": "OwnershipTransferred",
      "type": "event"
    },
    {
      "anonymous": false,
      "inputs": [
        {
          "indexed": false,
          "internalType": "address",
          "name": "recipient",
          "type": "address"
        },
        {
          "indexed": false,
          "internalType": "uint256",
          "name": "amount",
          "type": "uint256"
        }
      ],
      "name": "Refund",
      "type": "event"
    },
    {
      "anonymous": false,
      "inputs": [
        {
          "indexed": false,
          "internalType": "address",
          "name": "purchaser",
          "type": "address"
        },
        {
          "indexed": false,
          "internalType": "address",
          "name": "beneficiary",
          "type": "address"
        },
        {
          "indexed": false,
          "internalType": "uint256",
          "name": "value",
          "type": "uint256"
        },
        {
          "indexed": false,
          "internalType": "uint256",
          "name": "amount",
          "type": "uint256"
        }
      ],
      "name": "TokensPurchased",
      "type": "event"
    },
    {
      "inputs": [],
      "name": "_rate",
      "outputs": [
        {
          "internalType": "uint256",
          "name": "",
          "type": "uint256"
        }
      ],
      "stateMutability": "view",
      "type": "function"
    },
    {
      "inputs": [],
      "name": "_token",
      "outputs": [
        {
          "internalType": "contract IERC20",
          "name": "",
          "type": "address"
        }
      ],
      "stateMutability": "view",
      "type": "function"
    },
    {
      "inputs": [],
      "name": "_wallet",
      "outputs": [
        {
          "internalType": "address payable",
          "name": "",
          "type": "address"
        }
      ],
      "stateMutability": "view",
      "type": "function"
    },
    {
      "inputs": [],
      "name": "_weiRaised",
      "outputs": [
        {
          "internalType": "uint256",
          "name": "",
          "type": "uint256"
        }
      ],
      "stateMutability": "view",
      "type": "function"
    },
    {
      "inputs": [],
      "name": "activateRefund",
      "outputs": [],
      "stateMutability": "nonpayable",
      "type": "function"
    },
    {
      "inputs": [
        {
          "internalType": "uint256",
          "name": "tokenAmount",
          "type": "uint256"
        },
        {
          "internalType": "uint256",
          "name": "ethAmount",
          "type": "uint256"
        }
      ],
      "name": "addLiquidity",
      "outputs": [],
      "stateMutability": "nonpayable",
      "type": "function"
    },
    {
      "inputs": [],
      "name": "availableTokensICO",
      "outputs": [
        {
          "internalType": "uint256",
          "name": "",
          "type": "uint256"
        }
      ],
      "stateMutability": "view",
      "type": "function"
    },
    {
      "inputs": [
        {
          "internalType": "address",
          "name": "beneficiary",
          "type": "address"
        }
      ],
      "name": "buyTokens",
      "outputs": [],
      "stateMutability": "payable",
      "type": "function"
    },
    {
      "inputs": [
        {
          "internalType": "address",
          "name": "addr",
          "type": "address"
        }
      ],
      "name": "checkContribution",
      "outputs": [
        {
          "internalType": "uint256",
          "name": "",
          "type": "uint256"
        }
      ],
      "stateMutability": "view",
      "type": "function"
    },
    {
      "inputs": [
        {
          "internalType": "address",
          "name": "addr",
          "type": "address"
        }
      ],
      "name": "checkTokens",
      "outputs": [
        {
          "internalType": "uint256",
          "name": "",
          "type": "uint256"
        }
      ],
      "stateMutability": "view",
      "type": "function"
    },
    {
      "inputs": [],
      "name": "claimTokens",
      "outputs": [],
      "stateMutability": "nonpayable",
      "type": "function"
    },
    {
      "inputs": [],
      "name": "endICO",
      "outputs": [
        {
          "internalType": "uint256",
          "name": "",
          "type": "uint256"
        }
      ],
      "stateMutability": "view",
      "type": "function"
    },
    {
      "inputs": [],
      "name": "forwards",
      "outputs": [],
      "stateMutability": "nonpayable",
      "type": "function"
    },
    {
      "inputs": [],
      "name": "getHardCap",
      "outputs": [
        {
          "internalType": "uint256",
          "name": "",
          "type": "uint256"
        }
      ],
      "stateMutability": "view",
      "type": "function"
    },
    {
      "inputs": [],
      "name": "getRate",
      "outputs": [
        {
          "internalType": "uint256",
          "name": "",
          "type": "uint256"
        }
      ],
      "stateMutability": "view",
      "type": "function"
    },
    {
      "inputs": [],
      "name": "getSoftCap",
      "outputs": [
        {
          "internalType": "uint256",
          "name": "",
          "type": "uint256"
        }
      ],
      "stateMutability": "view",
      "type": "function"
    },
    {
      "inputs": [],
      "name": "hardCap",
      "outputs": [
        {
          "internalType": "uint256",
          "name": "",
          "type": "uint256"
        }
      ],
      "stateMutability": "view",
      "type": "function"
    },
    {
      "inputs": [],
      "name": "maxPurchase",
      "outputs": [
        {
          "internalType": "uint256",
          "name": "",
          "type": "uint256"
        }
      ],
      "stateMutability": "view",
      "type": "function"
    },
    {
      "inputs": [],
      "name": "minPurchase",
      "outputs": [
        {
          "internalType": "uint256",
          "name": "",
          "type": "uint256"
        }
      ],
      "stateMutability": "view",
      "type": "function"
    },
    {
      "inputs": [],
      "name": "owner",
      "outputs": [
        {
          "internalType": "address",
          "name": "",
          "type": "address"
        }
      ],
      "stateMutability": "view",
      "type": "function"
    },
    {
      "inputs": [],
      "name": "refundMe",
      "outputs": [],
      "stateMutability": "nonpayable",
      "type": "function"
    },
    {
      "inputs": [],
      "name": "renounceOwnership",
      "outputs": [],
      "stateMutability": "nonpayable",
      "type": "function"
    },
    {
      "inputs": [
        {
          "internalType": "address",
          "name": "_admin",
          "type": "address"
        }
      ],
      "name": "setAdmin",
      "outputs": [],
      "stateMutability": "nonpayable",
      "type": "function"
    },
    {
      "inputs": [
        {
          "internalType": "uint256",
          "name": "amount",
          "type": "uint256"
        }
      ],
      "name": "setAvailableTokens",
      "outputs": [],
      "stateMutability": "nonpayable",
      "type": "function"
    },
    {
      "inputs": [
        {
          "internalType": "uint256",
          "name": "value",
          "type": "uint256"
        }
      ],
      "name": "setHardCap",
      "outputs": [],
      "stateMutability": "nonpayable",
      "type": "function"
    },
    {
      "inputs": [
        {
          "internalType": "uint256",
          "name": "value",
          "type": "uint256"
        }
      ],
      "name": "setMaxPurchase",
      "outputs": [],
      "stateMutability": "nonpayable",
      "type": "function"
    },
    {
      "inputs": [
        {
          "internalType": "uint256",
          "name": "value",
          "type": "uint256"
        }
      ],
      "name": "setMinPurchase",
      "outputs": [],
      "stateMutability": "nonpayable",
      "type": "function"
    },
    {
      "inputs": [
        {
          "internalType": "uint256",
          "name": "newRate",
          "type": "uint256"
        }
      ],
      "name": "setRate",
      "outputs": [],
      "stateMutability": "nonpayable",
      "type": "function"
    },
    {
      "inputs": [
        {
          "internalType": "uint256",
          "name": "value",
          "type": "uint256"
        }
      ],
      "name": "setSoftCap",
      "outputs": [],
      "stateMutability": "nonpayable",
      "type": "function"
    },
    {
      "inputs": [
        {
          "internalType": "address payable",
          "name": "newWallet",
          "type": "address"
        }
      ],
      "name": "setWalletReceiver",
      "outputs": [],
      "stateMutability": "nonpayable",
      "type": "function"
    },
    {
      "inputs": [],
      "name": "softCap",
      "outputs": [
        {
          "internalType": "uint256",
          "name": "",
          "type": "uint256"
        }
      ],
      "stateMutability": "view",
      "type": "function"
    },
    {
      "inputs": [
        {
          "internalType": "uint256",
          "name": "endDate",
          "type": "uint256"
        }
      ],
      "name": "startICO",
      "outputs": [],
      "stateMutability": "nonpayable",
      "type": "function"
    },
    {
      "inputs": [],
      "name": "startRefund",
      "outputs": [
        {
          "internalType": "bool",
          "name": "",
          "type": "bool"
        }
      ],
      "stateMutability": "view",
      "type": "function"
    },
    {
      "inputs": [],
      "name": "stopICO",
      "outputs": [],
      "stateMutability": "nonpayable",
      "type": "function"
    },
    {
      "inputs": [
        {
          "internalType": "contract IERC20",
          "name": "tokenAddress",
          "type": "address"
        }
      ],
      "name": "takeTokens",
      "outputs": [],
      "stateMutability": "nonpayable",
      "type": "function"
    },
    {
      "inputs": [
        {
          "internalType": "address",
          "name": "newOwner",
          "type": "address"
        }
      ],
      "name": "transferOwnership",
      "outputs": [],
      "stateMutability": "nonpayable",
      "type": "function"
    },
    {
      "inputs": [],
      "name": "weiRaised",
      "outputs": [
        {
          "internalType": "uint256",
          "name": "",
          "type": "uint256"
        }
      ],
      "stateMutability": "view",
      "type": "function"
    },
    {
      "stateMutability": "payable",
      "type": "receive"
    }
  ],
  "bytecode": "0x608060405260405162000012906200028f565b604051809103906000f0801580156200002f573d6000803e3d6000fd5b50600280546001600160a01b0319166001600160a01b03929092169190911790556012600755600a60095567016345785d8a0000600c55683635c9adc5dea00000600d55620f4240600e55620249f0600f556a084595161401484a000000601055601180546001600160a81b0319167410ed43c718714eb63d5aa57b78b54704e256024e00179055348015620000c457600080fd5b5060405162001dcf38038062001dcf833981016040819052620000e791620002b6565b6001600055620000f7336200023d565b6001600160a01b0382166200015f5760405162461bcd60e51b8152602060048201526024808201527f5072652d53616c653a2077616c6c657420697320746865207a65726f206164646044820152637265737360e01b60648201526084015b60405180910390fd5b6001600160a01b038116620001c35760405162461bcd60e51b815260206004820152602360248201527f5072652d53616c653a20746f6b656e20697320746865207a65726f206164647260448201526265737360e81b606482015260840162000156565b600880546001600160a01b038085166001600160a01b03199283161790925560068054928416929091169190911790556001600560006200020c6001546001600160a01b031690565b6001600160a01b031681526020810191909152604001600020805460ff191691151591909117905550620002f59050565b600180546001600160a01b038381166001600160a01b0319831681179093556040519116919082907f8be0079c531659141344cd1fd0a4f28419497f9722a3daafe3b4186f6b6457e090600090a35050565b6101e18062001bee83390190565b6001600160a01b0381168114620002b357600080fd5b50565b60008060408385031215620002ca57600080fd5b8251620002d7816200029d565b6020840151909250620002ea816200029d565b809150509250929050565b6118e980620003056000396000f3fe60806040526004361061021e5760003560e01c806398180dde11610123578063d18d944b116100ab578063ec8ac4d81161006f578063ec8ac4d81461063d578063ecd0c0c31461064b578063f2fde38b1461066b578063f6d893ec1461068b578063fb86a404146106ab57600080fd5b8063d18d944b1461059d578063d572d5f7146105bd578063d5cf5c72146105dd578063e3cef7a1146105fd578063e8307d001461061d57600080fd5b8063a91c3f83116100f2578063a91c3f83146104dd578063ab0ced0e14610513578063adf4a14414610549578063bf0a07bd14610573578063c8e569a81461058857600080fd5b806398180dde146104725780639cd441da14610492578063a38e2a32146104b2578063a41a028b146104c757600080fd5b8063679aefce116101a657806383bebced1161017557806383bebced146103fc5780638da5cb5b14610412578063906a26e01461043057806394a5aa8d14610446578063977b055b1461045c57600080fd5b8063679aefce14610392578063704b6c02146103a757806371189742146103c7578063715018a6146103e757600080fd5b806348c54b9d116101ed57806348c54b9d146103055780634d52a5121461031a5780634f2484091461032f5780635a9e426b14610345578063610757e41461035a57600080fd5b806333b5b62e1461029257806334fcf437146102bb5780633cdb3aa6146102db5780634042b66f146102f057600080fd5b3661028d576000600b541180156102365750600b5442105b1561024b57610249336106c1565b6106c1565b005b60405162461bcd60e51b8152602060048201526012602482015271141c994b54d85b19481a5cc818db1bdcd95960721b60448201526064015b60405180910390fd5b600080fd5b34801561029e57600080fd5b506102a8600c5481565b6040519081526020015b60405180910390f35b3480156102c757600080fd5b506102496102d63660046116b6565b610819565b3480156102e757600080fd5b506102496108b4565b3480156102fc57600080fd5b50600a546102a8565b34801561031157600080fd5b5061024961092f565b34801561032657600080fd5b506102a861098e565b34801561033b57600080fd5b506102a8600b5481565b34801561035157600080fd5b50610249610a18565b34801561036657600080fd5b5060085461037a906001600160a01b031681565b6040516001600160a01b0390911681526020016102b2565b34801561039e57600080fd5b506102a8610b20565b3480156103b357600080fd5b506102496103c23660046116e4565b610ba5565b3480156103d357600080fd5b506102496103e23660046116b6565b610c19565b3480156103f357600080fd5b50610249610c4d565b34801561040857600080fd5b506102a860095481565b34801561041e57600080fd5b506001546001600160a01b031661037a565b34801561043c57600080fd5b506102a8600f5481565b34801561045257600080fd5b506102a8600a5481565b34801561046857600080fd5b506102a8600d5481565b34801561047e57600080fd5b5061024961048d3660046116b6565b610c5f565b34801561049e57600080fd5b506102496104ad366004611701565b610d01565b3480156104be57600080fd5b50610249610e26565b3480156104d357600080fd5b506102a860105481565b3480156104e957600080fd5b506102a86104f83660046116e4565b6001600160a01b031660009081526004602052604090205490565b34801561051f57600080fd5b506102a861052e3660046116e4565b6001600160a01b031660009081526003602052604090205490565b34801561055557600080fd5b506011546105639060ff1681565b60405190151581526020016102b2565b34801561057f57600080fd5b506102a8610ee6565b34801561059457600080fd5b50610249610f6b565b3480156105a957600080fd5b506102496105b83660046116b6565b610fde565b3480156105c957600080fd5b506102496105d83660046116e4565b611012565b3480156105e957600080fd5b506102496105f83660046116b6565b611063565b34801561060957600080fd5b506102496106183660046116e4565b611097565b34801561062957600080fd5b506102496106383660046116b6565b611219565b6102496102443660046116e4565b34801561065757600080fd5b5060065461037a906001600160a01b031681565b34801561067757600080fd5b506102496106863660046116e4565b61124d565b34801561069757600080fd5b506102496106a63660046116b6565b6112c3565b3480156106b757600080fd5b506102a8600e5481565b6106c9611318565b6000600b541180156106dc5750600b5442105b80156106ea57506000601054115b6107065760405162461bcd60e51b815260040161028490611723565b346107118282611371565b600061071c8261153f565b6001600160a01b0384166000908152600460205260409020549091506107429082611559565b6001600160a01b038416600090815260046020526040902055600a546107689083611559565b600a55601054610779908290611765565b6010556001600160a01b03831660009081526003602052604090205461079f9083611559565b6001600160a01b0384166000908152600360205260409020557f6faf93231a456e552dbc9961f58d9713ee4f2e69d15f1975b050ef0911053a7b33604080516001600160a01b039283168152918616602083015281018490526060810183905260800160405180910390a150506108166001600055565b50565b3360009081526005602052604090205460ff166108485760405162461bcd60e51b815260040161028490611778565b42600b54106108695760405162461bcd60e51b8152600401610284906117c7565b600081116108af5760405162461bcd60e51b815260206004820152601360248201527205072652d53616c653a2072617465206973203606c1b6044820152606401610284565b600955565b3360009081526005602052604090205460ff166108e35760405162461bcd60e51b815260040161028490611778565b6000600b541180156108f65750600b5442105b801561090457506000601054115b6109205760405162461bcd60e51b815260040161028490611723565b6011805460ff19166001179055565b610937611318565b42600b54106109585760405162461bcd60e51b8152600401610284906117c7565b3360008181526004602052604090205490610973908261156c565b5033600090815260046020526040812081905560019055565b565b6000610a13600260009054906101000a90046001600160a01b03166001600160a01b0316633b79fdd96040518163ffffffff1660e01b8152600401602060405180830381865afa1580156109e6573d6000803e3d6000fd5b505050506040513d601f19601f82011682018060405250810190610a0a91906117fe565b600f5490611576565b905090565b42600b5410610a395760405162461bcd60e51b8152600401610284906117c7565b60115460ff161515600114610a865760405162461bcd60e51b81526020600482015260136024820152726e6f20726566756e6420617661696c61626c6560681b6044820152606401610284565b3360009081526003602052604090205447811161081657336000908152600360205260408120558015610816576040513390819083156108fc029084906000818181858888f19350505050158015610ae2573d6000803e3d6000fd5b5060408051338152602081018490527fbb28353e4598c3b9199101a66e0989549b659a59a54d2c27fbb183f1932c8e6d910160405180910390a15050565b6000610a13600954600260009054906101000a90046001600160a01b03166001600160a01b0316633b79fdd96040518163ffffffff1660e01b8152600401602060405180830381865afa158015610b7b573d6000803e3d6000fd5b505050506040513d601f19601f82011682018060405250810190610b9f91906117fe565b90611582565b610bad61158e565b6001600160a01b038116610bf55760405162461bcd60e51b815260206004820152600f60248201526e61646472657373206973207a65726f60881b6044820152606401610284565b6001600160a01b03166000908152600560205260409020805460ff19166001179055565b3360009081526005602052604090205460ff16610c485760405162461bcd60e51b815260040161028490611778565b600d55565b610c5561158e565b61098c60006115e8565b3360009081526005602052604090205460ff16610c8e5760405162461bcd60e51b815260040161028490611778565b42600b5410610caf5760405162461bcd60e51b8152600401610284906117c7565b428111610cf75760405162461bcd60e51b815260206004820152601660248201527506475726174696f6e2073686f756c64206265203e20360541b6044820152606401610284565b600b556000600a55565b60065460115460405163095ea7b360e01b81526001600160a01b03610100909204821660048201526024810185905291169063095ea7b3906044016020604051808303816000875af1158015610d5b573d6000803e3d6000fd5b505050506040513d601f19601f82011682018060405250810190610d7f9190611817565b5060115460065460085460405163f305d71960e01b81526001600160a01b03928316600482015260248101869052600060448201819052606482015290821660848201524260a4820152610100909204169063f305d71990839060c40160606040518083038185885af1158015610dfa573d6000803e3d6000fd5b50505050506040513d601f19601f82011682018060405250810190610e1f9190611839565b5050505050565b3360009081526005602052604090205460ff16610e555760405162461bcd60e51b815260040161028490611778565b60115460ff1615610e6557600080fd5b60004711610ead5760405162461bcd60e51b8152602060048201526015602482015274436f6e747261637420686173206e6f206d6f6e657960581b6044820152606401610284565b6008546040516001600160a01b03909116904780156108fc02916000818181858888f19350505050158015610816573d6000803e3d6000fd5b6000610a13600260009054906101000a90046001600160a01b03166001600160a01b0316633b79fdd96040518163ffffffff1660e01b8152600401602060405180830381865afa158015610f3e573d6000803e3d6000fd5b505050506040513d601f19601f82011682018060405250810190610f6291906117fe565b600e5490611576565b3360009081526005602052604090205460ff16610f9a5760405162461bcd60e51b815260040161028490611778565b6000600b54118015610fad5750600b5442105b8015610fbb57506000601054115b610fd75760405162461bcd60e51b815260040161028490611723565b6000600b55565b3360009081526005602052604090205460ff1661100d5760405162461bcd60e51b815260040161028490611778565b600e55565b3360009081526005602052604090205460ff166110415760405162461bcd60e51b815260040161028490611778565b600880546001600160a01b0319166001600160a01b0392909216919091179055565b3360009081526005602052604090205460ff166110925760405162461bcd60e51b815260040161028490611778565b600f55565b3360009081526005602052604090205460ff166110c65760405162461bcd60e51b815260040161028490611778565b42600b54106110e75760405162461bcd60e51b8152600401610284906117c7565b6040516370a0823160e01b815230600482015281906000906001600160a01b038316906370a0823190602401602060405180830381865afa158015611130573d6000803e3d6000fd5b505050506040513d601f19601f8201168201806040525081019061115491906117fe565b90506000811161119c5760405162461bcd60e51b815260206004820152601360248201527204245502d32302062616c616e6365206973203606c1b6044820152606401610284565b60085460405163a9059cbb60e01b81526001600160a01b039182166004820152602481018390529083169063a9059cbb906044016020604051808303816000875af11580156111ef573d6000803e3d6000fd5b505050506040513d601f19601f820116820180604052508101906112139190611817565b50505050565b3360009081526005602052604090205460ff166112485760405162461bcd60e51b815260040161028490611778565b600c55565b61125561158e565b6001600160a01b0381166112ba5760405162461bcd60e51b815260206004820152602660248201527f4f776e61626c653a206e6577206f776e657220697320746865207a65726f206160448201526564647265737360d01b6064820152608401610284565b610816816115e8565b3360009081526005602052604090205460ff166112f25760405162461bcd60e51b815260040161028490611778565b42600b54106113135760405162461bcd60e51b8152600401610284906117c7565b601055565b60026000540361136a5760405162461bcd60e51b815260206004820152601f60248201527f5265656e7472616e637947756172643a207265656e7472616e742063616c6c006044820152606401610284565b6002600055565b6001600160a01b0382166113da5760405162461bcd60e51b815260206004820152602a60248201527f43726f776473616c653a2062656e656669636961727920697320746865207a65604482015269726f206164647265737360b01b6064820152608401610284565b600c548110156114375760405162461bcd60e51b815260206004820152602260248201527f6861766520746f2073656e64206174206c656173743a206d696e507572636861604482015261736560f01b6064820152608401610284565b600d548111156114895760405162461bcd60e51b815260206004820152601d60248201527f6861766520746f2073656e64206d61783a206d617850757263686173650000006044820152606401610284565b61149d670de0b6b3a7640000610b9f610ee6565b81600a546114ab9190611867565b106114eb5760405162461bcd60e51b815260206004820152601060248201526f12185c990810d85c081c995858da195960821b6044820152606401610284565b8060000361153b5760405162461bcd60e51b815260206004820152601960248201527f43726f776473616c653a20776569416d6f756e742069732030000000000000006044820152606401610284565b5050565b600061155361154c610b20565b8390611582565b92915050565b60006115658284611867565b9392505050565b61153b828261163a565b6000611565828461187a565b6000611565828461189c565b6001546001600160a01b0316331461098c5760405162461bcd60e51b815260206004820181905260248201527f4f776e61626c653a2063616c6c6572206973206e6f7420746865206f776e65726044820152606401610284565b600180546001600160a01b038381166001600160a01b0319831681179093556040519116919082907f8be0079c531659141344cd1fd0a4f28419497f9722a3daafe3b4186f6b6457e090600090a35050565b60065460405163a9059cbb60e01b81526001600160a01b038481166004830152602482018490529091169063a9059cbb906044016020604051808303816000875af115801561168d573d6000803e3d6000fd5b505050506040513d601f19601f820116820180604052508101906116b19190611817565b505050565b6000602082840312156116c857600080fd5b5035919050565b6001600160a01b038116811461081657600080fd5b6000602082840312156116f657600080fd5b8135611565816116cf565b6000806040838503121561171457600080fd5b50508035926020909101359150565b60208082526012908201527149434f206d7573742062652061637469766560701b604082015260600190565b634e487b7160e01b600052601160045260246000fd5b818103818111156115535761155361174f565b6020808252602f908201527f50726573616c653a206f6e6c792041646d696e2063616e2063616c6c2074686960408201526e732066756e6374696f6e616c69747960881b606082015260800190565b60208082526018908201527f49434f2073686f756c64206e6f74206265206163746976650000000000000000604082015260600190565b60006020828403121561181057600080fd5b5051919050565b60006020828403121561182957600080fd5b8151801515811461156557600080fd5b60008060006060848603121561184e57600080fd5b8351925060208401519150604084015190509250925092565b808201808211156115535761155361174f565b60008261189757634e487b7160e01b600052601260045260246000fd5b500490565b80820281158282048414176115535761155361174f56fea2646970667358221220b69fc58d1ef2ab1108e67454291b1b8ab85d5188792ab1064e8c50871a92829a64736f6c63430008110033608060405234801561001057600080fd5b50600080546001600160a01b031916732514895c72f50d8bd4b4f9b1110f0d6bd2c9752617905561019b806100466000396000f3fe608060405234801561001057600080fd5b506004361061002b5760003560e01c80633b79fdd914610030575b600080fd5b61003861004a565b60405190815260200160405180910390f35b6000805460408051633fabe5a360e21b8152905183926001600160a01b03169163feaf968c9160048083019260a09291908290030181865afa158015610094573d6000803e3d6000fd5b505050506040513d601f19601f820116820180604052508101906100b891906100f3565b5050509150506305f5e100816100ce9190610143565b91505090565b805169ffffffffffffffffffff811681146100ee57600080fd5b919050565b600080600080600060a0868803121561010b57600080fd5b610114866100d4565b9450602086015193506040860151925060608601519150610137608087016100d4565b90509295509295909350565b60008261016057634e487b7160e01b600052601260045260246000fd5b50049056fea2646970667358221220036b35d2ff1304a2dd510ca9fe0ac95e56c2b7b037134a95362f305ae8461e9a64736f6c63430008110033",
  "linkReferences": {},
  "deployedLinkReferences": {}
}