{
  "_format": "hh-sol-artifact-1",
  "contractName": "Presale",
  "sourceName": "contracts/Presale.sol",
  "abi": [
    {
      "inputs": [
        {
          "internalType": "address payable",
          "name": "wallet",
          "type": "address"
        },
        {
          "internalType": "contract IERC20",
          "name": "saleToken",
          "type": "address"
        }
      ],
      "stateMutability": "nonpayable",
      "type": "constructor"
    },
    {
      "anonymous": false,
      "inputs": [
        {
          "indexed": true,
          "internalType": "address",
          "name": "previousOwner",
          "type": "address"
        },
        {
          "indexed": true,
          "internalType": "address",
          "name": "newOwner",
          "type": "address"
        }
      ],
      "name": "OwnershipTransferred",
      "type": "event"
    },
    {
      "anonymous": false,
      "inputs": [
        {
          "indexed": false,
          "internalType": "address",
          "name": "recipient",
          "type": "address"
        },
        {
          "indexed": false,
          "internalType": "uint256",
          "name": "amount",
          "type": "uint256"
        }
      ],
      "name": "Refund",
      "type": "event"
    },
    {
      "anonymous": false,
      "inputs": [
        {
          "indexed": false,
          "internalType": "address",
          "name": "purchaser",
          "type": "address"
        },
        {
          "indexed": false,
          "internalType": "address",
          "name": "beneficiary",
          "type": "address"
        },
        {
          "indexed": false,
          "internalType": "uint256",
          "name": "value",
          "type": "uint256"
        },
        {
          "indexed": false,
          "internalType": "uint256",
          "name": "amount",
          "type": "uint256"
        }
      ],
      "name": "TokensPurchased",
      "type": "event"
    },
    {
      "inputs": [],
      "name": "activateRefund",
      "outputs": [],
      "stateMutability": "nonpayable",
      "type": "function"
    },
    {
      "inputs": [],
      "name": "availableTokensICO",
      "outputs": [
        {
          "internalType": "uint256",
          "name": "",
          "type": "uint256"
        }
      ],
      "stateMutability": "view",
      "type": "function"
    },
    {
      "inputs": [
        {
          "internalType": "address",
          "name": "beneficiary",
          "type": "address"
        }
      ],
      "name": "buyTokens",
      "outputs": [],
      "stateMutability": "payable",
      "type": "function"
    },
    {
      "inputs": [
        {
          "internalType": "address",
          "name": "addr",
          "type": "address"
        }
      ],
      "name": "checkContribution",
      "outputs": [
        {
          "internalType": "uint256",
          "name": "",
          "type": "uint256"
        }
      ],
      "stateMutability": "view",
      "type": "function"
    },
    {
      "inputs": [
        {
          "internalType": "address",
          "name": "addr",
          "type": "address"
        }
      ],
      "name": "checkTokens",
      "outputs": [
        {
          "internalType": "uint256",
          "name": "",
          "type": "uint256"
        }
      ],
      "stateMutability": "view",
      "type": "function"
    },
    {
      "inputs": [],
      "name": "claimTokens",
      "outputs": [],
      "stateMutability": "nonpayable",
      "type": "function"
    },
    {
      "inputs": [],
      "name": "endICO",
      "outputs": [
        {
          "internalType": "uint256",
          "name": "",
          "type": "uint256"
        }
      ],
      "stateMutability": "view",
      "type": "function"
    },
    {
      "inputs": [],
      "name": "forwards",
      "outputs": [],
      "stateMutability": "nonpayable",
      "type": "function"
    },
    {
      "inputs": [],
      "name": "getHardCap",
      "outputs": [
        {
          "internalType": "uint256",
          "name": "",
          "type": "uint256"
        }
      ],
      "stateMutability": "view",
      "type": "function"
    },
    {
      "inputs": [],
      "name": "getRate",
      "outputs": [
        {
          "internalType": "uint256",
          "name": "",
          "type": "uint256"
        }
      ],
      "stateMutability": "view",
      "type": "function"
    },
    {
      "inputs": [],
      "name": "getSoftCap",
      "outputs": [
        {
          "internalType": "uint256",
          "name": "",
          "type": "uint256"
        }
      ],
      "stateMutability": "view",
      "type": "function"
    },
    {
      "inputs": [],
      "name": "maxPurchase",
      "outputs": [
        {
          "internalType": "uint256",
          "name": "",
          "type": "uint256"
        }
      ],
      "stateMutability": "view",
      "type": "function"
    },
    {
      "inputs": [],
      "name": "minPurchase",
      "outputs": [
        {
          "internalType": "uint256",
          "name": "",
          "type": "uint256"
        }
      ],
      "stateMutability": "view",
      "type": "function"
    },
    {
      "inputs": [],
      "name": "owner",
      "outputs": [
        {
          "internalType": "address",
          "name": "",
          "type": "address"
        }
      ],
      "stateMutability": "view",
      "type": "function"
    },
    {
      "inputs": [],
      "name": "refundMe",
      "outputs": [],
      "stateMutability": "nonpayable",
      "type": "function"
    },
    {
      "inputs": [],
      "name": "renounceOwnership",
      "outputs": [],
      "stateMutability": "nonpayable",
      "type": "function"
    },
    {
      "inputs": [
        {
          "internalType": "address",
          "name": "_admin",
          "type": "address"
        }
      ],
      "name": "setAdmin",
      "outputs": [],
      "stateMutability": "nonpayable",
      "type": "function"
    },
    {
      "inputs": [
        {
          "internalType": "uint256",
          "name": "amount",
          "type": "uint256"
        }
      ],
      "name": "setAvailableTokens",
      "outputs": [],
      "stateMutability": "nonpayable",
      "type": "function"
    },
    {
      "inputs": [
        {
          "internalType": "uint256",
          "name": "value",
          "type": "uint256"
        }
      ],
      "name": "setHardCap",
      "outputs": [],
      "stateMutability": "nonpayable",
      "type": "function"
    },
    {
      "inputs": [
        {
          "internalType": "uint256",
          "name": "value",
          "type": "uint256"
        }
      ],
      "name": "setMaxPurchase",
      "outputs": [],
      "stateMutability": "nonpayable",
      "type": "function"
    },
    {
      "inputs": [
        {
          "internalType": "uint256",
          "name": "value",
          "type": "uint256"
        }
      ],
      "name": "setMinPurchase",
      "outputs": [],
      "stateMutability": "nonpayable",
      "type": "function"
    },
    {
      "inputs": [
        {
          "internalType": "uint256",
          "name": "newRate",
          "type": "uint256"
        }
      ],
      "name": "setRate",
      "outputs": [],
      "stateMutability": "nonpayable",
      "type": "function"
    },
    {
      "inputs": [
        {
          "internalType": "uint256",
          "name": "value",
          "type": "uint256"
        }
      ],
      "name": "setSoftCap",
      "outputs": [],
      "stateMutability": "nonpayable",
      "type": "function"
    },
    {
      "inputs": [
        {
          "internalType": "address payable",
          "name": "newWallet",
          "type": "address"
        }
      ],
      "name": "setWalletReceiver",
      "outputs": [],
      "stateMutability": "nonpayable",
      "type": "function"
    },
    {
      "inputs": [
        {
          "internalType": "uint256",
          "name": "endDate",
          "type": "uint256"
        }
      ],
      "name": "startICO",
      "outputs": [],
      "stateMutability": "nonpayable",
      "type": "function"
    },
    {
      "inputs": [],
      "name": "startRefund",
      "outputs": [
        {
          "internalType": "bool",
          "name": "",
          "type": "bool"
        }
      ],
      "stateMutability": "view",
      "type": "function"
    },
    {
      "inputs": [],
      "name": "stopICO",
      "outputs": [],
      "stateMutability": "nonpayable",
      "type": "function"
    },
    {
      "inputs": [
        {
          "internalType": "contract IERC20",
          "name": "tokenAddress",
          "type": "address"
        }
      ],
      "name": "takeTokens",
      "outputs": [],
      "stateMutability": "nonpayable",
      "type": "function"
    },
    {
      "inputs": [],
      "name": "token",
      "outputs": [
        {
          "internalType": "address",
          "name": "",
          "type": "address"
        }
      ],
      "stateMutability": "view",
      "type": "function"
    },
    {
      "inputs": [
        {
          "internalType": "address",
          "name": "newOwner",
          "type": "address"
        }
      ],
      "name": "transferOwnership",
      "outputs": [],
      "stateMutability": "nonpayable",
      "type": "function"
    },
    {
      "inputs": [],
      "name": "weiRaised",
      "outputs": [
        {
          "internalType": "uint256",
          "name": "",
          "type": "uint256"
        }
      ],
      "stateMutability": "view",
      "type": "function"
    },
    {
      "stateMutability": "payable",
      "type": "receive"
    }
  ],
  "bytecode": "0x6080604052604051620000129062000278565b604051809103906000f0801580156200002f573d6000803e3d6000fd5b50600280546001600160a01b0319166001600160a01b0392909216919091179055600a600881905565018731db2c20905567016345785d8a0000600b55683635c9adc5dea00000600c55620f4240600d55620249f0600e556a084595161401484a000000600f556010805460ff19169055348015620000ad57600080fd5b5060405162001b3738038062001b37833981016040819052620000d0916200029f565b6001600055620000e03362000226565b6001600160a01b038216620001485760405162461bcd60e51b8152602060048201526024808201527f5072652d53616c653a2077616c6c657420697320746865207a65726f206164646044820152637265737360e01b60648201526084015b60405180910390fd5b6001600160a01b038116620001ac5760405162461bcd60e51b815260206004820152602360248201527f5072652d53616c653a20746f6b656e20697320746865207a65726f206164647260448201526265737360e81b60648201526084016200013f565b600780546001600160a01b038085166001600160a01b0319928316179092556006805492841692909116919091179055600160056000620001f56001546001600160a01b031690565b6001600160a01b031681526020810191909152604001600020805460ff191691151591909117905550620002de9050565b600180546001600160a01b038381166001600160a01b0319831681179093556040519116919082907f8be0079c531659141344cd1fd0a4f28419497f9722a3daafe3b4186f6b6457e090600090a35050565b6101e1806200195683390190565b6001600160a01b03811681146200029c57600080fd5b50565b60008060408385031215620002b357600080fd5b8251620002c08162000286565b6020840151909250620002d38162000286565b809150509250929050565b61166880620002ee6000396000f3fe6080604052600436106101dc5760003560e01c8063a38e2a3211610102578063d572d5f711610095578063ec8ac4d811610064578063ec8ac4d81461056e578063f2fde38b1461057c578063f6d893ec1461059c578063fc0c546a146105bc57600080fd5b8063d572d5f7146104ee578063d5cf5c721461050e578063e3cef7a11461052e578063e8307d001461054e57600080fd5b8063adf4a144116100d1578063adf4a1441461047a578063bf0a07bd146104a4578063c8e569a8146104b9578063d18d944b146104ce57600080fd5b8063a38e2a32146103e3578063a41a028b146103f8578063a91c3f831461040e578063ab0ced0e1461044457600080fd5b80635a9e426b1161017a578063715018a611610149578063715018a6146103675780638da5cb5b1461037c578063977b055b146103ae57806398180dde146103c357600080fd5b80635a9e426b146102fd578063679aefce14610312578063704b6c0214610327578063711897421461034757600080fd5b80634042b66f116101b65780634042b66f146102a957806348c54b9d146102be5780634d52a512146102d35780634f248409146102e857600080fd5b806333b5b62e1461025057806334fcf437146102745780633cdb3aa61461029457600080fd5b3661024b576000600a541180156101f45750600a5442105b1561020957610207336105da565b6105da565b005b60405162461bcd60e51b8152602060048201526012602482015271141c994b54d85b19481a5cc818db1bdcd95960721b60448201526064015b60405180910390fd5b600080fd5b34801561025c57600080fd5b50600b545b6040519081526020015b60405180910390f35b34801561028057600080fd5b5061020761028f366004611489565b610732565b3480156102a057600080fd5b506102076107cd565b3480156102b557600080fd5b50600954610261565b3480156102ca57600080fd5b50610207610848565b3480156102df57600080fd5b50610261610886565b3480156102f457600080fd5b50600a54610261565b34801561030957600080fd5b50610207610910565b34801561031e57600080fd5b50610261610a18565b34801561033357600080fd5b506102076103423660046114b7565b610a9d565b34801561035357600080fd5b50610207610362366004611489565b610b11565b34801561037357600080fd5b50610207610b45565b34801561038857600080fd5b506001546001600160a01b03165b6040516001600160a01b03909116815260200161026b565b3480156103ba57600080fd5b50600c54610261565b3480156103cf57600080fd5b506102076103de366004611489565b610b57565b3480156103ef57600080fd5b50610207610bf9565b34801561040457600080fd5b50610261600f5481565b34801561041a57600080fd5b506102616104293660046114b7565b6001600160a01b031660009081526004602052604090205490565b34801561045057600080fd5b5061026161045f3660046114b7565b6001600160a01b031660009081526003602052604090205490565b34801561048657600080fd5b506010546104949060ff1681565b604051901515815260200161026b565b3480156104b057600080fd5b50610261610cb9565b3480156104c557600080fd5b50610207610d3e565b3480156104da57600080fd5b506102076104e9366004611489565b610db1565b3480156104fa57600080fd5b506102076105093660046114b7565b610de5565b34801561051a57600080fd5b50610207610529366004611489565b610e36565b34801561053a57600080fd5b506102076105493660046114b7565b610e6a565b34801561055a57600080fd5b50610207610569366004611489565b610fec565b6102076102023660046114b7565b34801561058857600080fd5b506102076105973660046114b7565b611020565b3480156105a857600080fd5b506102076105b7366004611489565b611096565b3480156105c857600080fd5b506006546001600160a01b0316610396565b6105e26110eb565b6000600a541180156105f55750600a5442105b801561060357506000600f54115b61061f5760405162461bcd60e51b8152600401610242906114d4565b3461062a8282611144565b600061063582611312565b6001600160a01b03841660009081526004602052604090205490915061065b908261132c565b6001600160a01b038416600090815260046020526040902055600954610681908361132c565b600955600f54610692908290611516565b600f556001600160a01b0383166000908152600360205260409020546106b8908361132c565b6001600160a01b0384166000908152600360205260409020557f6faf93231a456e552dbc9961f58d9713ee4f2e69d15f1975b050ef0911053a7b33604080516001600160a01b039283168152918616602083015281018490526060810183905260800160405180910390a1505061072f6001600055565b50565b3360009081526005602052604090205460ff166107615760405162461bcd60e51b815260040161024290611529565b42600a54106107825760405162461bcd60e51b815260040161024290611574565b600081116107c85760405162461bcd60e51b815260206004820152601360248201527205072652d53616c653a2072617465206973203606c1b6044820152606401610242565b600855565b3360009081526005602052604090205460ff166107fc5760405162461bcd60e51b815260040161024290611529565b6000600a5411801561080f5750600a5442105b801561081d57506000600f54115b6108395760405162461bcd60e51b8152600401610242906114d4565b6010805460ff19166001179055565b6108506110eb565b336000818152600460205260409020549061086b908261133f565b5033600090815260046020526040812081905560019055565b565b600061090b600260009054906101000a90046001600160a01b03166001600160a01b0316633b79fdd96040518163ffffffff1660e01b8152600401602060405180830381865afa1580156108de573d6000803e3d6000fd5b505050506040513d601f19601f8201168201806040525081019061090291906115ab565b600e5490611349565b905090565b42600a54106109315760405162461bcd60e51b815260040161024290611574565b60105460ff16151560011461097e5760405162461bcd60e51b81526020600482015260136024820152726e6f20726566756e6420617661696c61626c6560681b6044820152606401610242565b3360009081526003602052604090205447811161072f5733600090815260036020526040812055801561072f576040513390819083156108fc029084906000818181858888f193505050501580156109da573d6000803e3d6000fd5b5060408051338152602081018490527fbb28353e4598c3b9199101a66e0989549b659a59a54d2c27fbb183f1932c8e6d910160405180910390a15050565b600061090b600854600260009054906101000a90046001600160a01b03166001600160a01b0316633b79fdd96040518163ffffffff1660e01b8152600401602060405180830381865afa158015610a73573d6000803e3d6000fd5b505050506040513d601f19601f82011682018060405250810190610a9791906115ab565b90611355565b610aa5611361565b6001600160a01b038116610aed5760405162461bcd60e51b815260206004820152600f60248201526e61646472657373206973207a65726f60881b6044820152606401610242565b6001600160a01b03166000908152600560205260409020805460ff19166001179055565b3360009081526005602052604090205460ff16610b405760405162461bcd60e51b815260040161024290611529565b600c55565b610b4d611361565b61088460006113bb565b3360009081526005602052604090205460ff16610b865760405162461bcd60e51b815260040161024290611529565b42600a5410610ba75760405162461bcd60e51b815260040161024290611574565b428111610bef5760405162461bcd60e51b815260206004820152601660248201527506475726174696f6e2073686f756c64206265203e20360541b6044820152606401610242565b600a556000600955565b3360009081526005602052604090205460ff16610c285760405162461bcd60e51b815260040161024290611529565b60105460ff1615610c3857600080fd5b60004711610c805760405162461bcd60e51b8152602060048201526015602482015274436f6e747261637420686173206e6f206d6f6e657960581b6044820152606401610242565b6007546040516001600160a01b03909116904780156108fc02916000818181858888f1935050505015801561072f573d6000803e3d6000fd5b600061090b600260009054906101000a90046001600160a01b03166001600160a01b0316633b79fdd96040518163ffffffff1660e01b8152600401602060405180830381865afa158015610d11573d6000803e3d6000fd5b505050506040513d601f19601f82011682018060405250810190610d3591906115ab565b600d5490611349565b3360009081526005602052604090205460ff16610d6d5760405162461bcd60e51b815260040161024290611529565b6000600a54118015610d805750600a5442105b8015610d8e57506000600f54115b610daa5760405162461bcd60e51b8152600401610242906114d4565b6000600a55565b3360009081526005602052604090205460ff16610de05760405162461bcd60e51b815260040161024290611529565b600d55565b3360009081526005602052604090205460ff16610e145760405162461bcd60e51b815260040161024290611529565b600780546001600160a01b0319166001600160a01b0392909216919091179055565b3360009081526005602052604090205460ff16610e655760405162461bcd60e51b815260040161024290611529565b600e55565b3360009081526005602052604090205460ff16610e995760405162461bcd60e51b815260040161024290611529565b42600a5410610eba5760405162461bcd60e51b815260040161024290611574565b6040516370a0823160e01b815230600482015281906000906001600160a01b038316906370a0823190602401602060405180830381865afa158015610f03573d6000803e3d6000fd5b505050506040513d601f19601f82011682018060405250810190610f2791906115ab565b905060008111610f6f5760405162461bcd60e51b815260206004820152601360248201527204245502d32302062616c616e6365206973203606c1b6044820152606401610242565b60075460405163a9059cbb60e01b81526001600160a01b039182166004820152602481018390529083169063a9059cbb906044016020604051808303816000875af1158015610fc2573d6000803e3d6000fd5b505050506040513d601f19601f82011682018060405250810190610fe691906115c4565b50505050565b3360009081526005602052604090205460ff1661101b5760405162461bcd60e51b815260040161024290611529565b600b55565b611028611361565b6001600160a01b03811661108d5760405162461bcd60e51b815260206004820152602660248201527f4f776e61626c653a206e6577206f776e657220697320746865207a65726f206160448201526564647265737360d01b6064820152608401610242565b61072f816113bb565b3360009081526005602052604090205460ff166110c55760405162461bcd60e51b815260040161024290611529565b42600a54106110e65760405162461bcd60e51b815260040161024290611574565b600f55565b60026000540361113d5760405162461bcd60e51b815260206004820152601f60248201527f5265656e7472616e637947756172643a207265656e7472616e742063616c6c006044820152606401610242565b6002600055565b6001600160a01b0382166111ad5760405162461bcd60e51b815260206004820152602a60248201527f43726f776473616c653a2062656e656669636961727920697320746865207a65604482015269726f206164647265737360b01b6064820152608401610242565b600b5481101561120a5760405162461bcd60e51b815260206004820152602260248201527f6861766520746f2073656e64206174206c656173743a206d696e507572636861604482015261736560f01b6064820152608401610242565b600c5481111561125c5760405162461bcd60e51b815260206004820152601d60248201527f6861766520746f2073656e64206d61783a206d617850757263686173650000006044820152606401610242565b611270670de0b6b3a7640000610a97610cb9565b8160095461127e91906115e6565b106112be5760405162461bcd60e51b815260206004820152601060248201526f12185c990810d85c081c995858da195960821b6044820152606401610242565b8060000361130e5760405162461bcd60e51b815260206004820152601960248201527f43726f776473616c653a20776569416d6f756e742069732030000000000000006044820152606401610242565b5050565b600061132661131f610a18565b8390611355565b92915050565b600061133882846115e6565b9392505050565b61130e828261140d565b600061133882846115f9565b6000611338828461161b565b6001546001600160a01b031633146108845760405162461bcd60e51b815260206004820181905260248201527f4f776e61626c653a2063616c6c6572206973206e6f7420746865206f776e65726044820152606401610242565b600180546001600160a01b038381166001600160a01b0319831681179093556040519116919082907f8be0079c531659141344cd1fd0a4f28419497f9722a3daafe3b4186f6b6457e090600090a35050565b60065460405163a9059cbb60e01b81526001600160a01b038481166004830152602482018490529091169063a9059cbb906044016020604051808303816000875af1158015611460573d6000803e3d6000fd5b505050506040513d601f19601f8201168201806040525081019061148491906115c4565b505050565b60006020828403121561149b57600080fd5b5035919050565b6001600160a01b038116811461072f57600080fd5b6000602082840312156114c957600080fd5b8135611338816114a2565b60208082526012908201527149434f206d7573742062652061637469766560701b604082015260600190565b634e487b7160e01b600052601160045260246000fd5b8181038181111561132657611326611500565b6020808252602b908201527f49434f3a206f6e6c792041646d696e2063616e2063616c6c207468697320667560408201526a6e6374696f6e616c69747960a81b606082015260800190565b60208082526018908201527f49434f2073686f756c64206e6f74206265206163746976650000000000000000604082015260600190565b6000602082840312156115bd57600080fd5b5051919050565b6000602082840312156115d657600080fd5b8151801515811461133857600080fd5b8082018082111561132657611326611500565b60008261161657634e487b7160e01b600052601260045260246000fd5b500490565b80820281158282048414176113265761132661150056fea26469706673582212206c2cbd57f63a25ad16cb77745ceddbb10bde6ad78dab337193f514f535db9a1d64736f6c63430008110033608060405234801561001057600080fd5b50600080546001600160a01b031916730567f2323251f0aab15c8dfb1967e4e8a7d42aee17905561019b806100466000396000f3fe608060405234801561001057600080fd5b506004361061002b5760003560e01c80633b79fdd914610030575b600080fd5b61003861004a565b60405190815260200160405180910390f35b6000805460408051633fabe5a360e21b8152905183926001600160a01b03169163feaf968c9160048083019260a09291908290030181865afa158015610094573d6000803e3d6000fd5b505050506040513d601f19601f820116820180604052508101906100b891906100f3565b5050509150506305f5e100816100ce9190610143565b91505090565b805169ffffffffffffffffffff811681146100ee57600080fd5b919050565b600080600080600060a0868803121561010b57600080fd5b610114866100d4565b9450602086015193506040860151925060608601519150610137608087016100d4565b90509295509295909350565b60008261016057634e487b7160e01b600052601260045260246000fd5b50049056fea26469706673582212201124a98b3389b1cfd4f4d3cca585a83751d512968d34407301c11b7ccec39bee64736f6c63430008110033",
  "linkReferences": {},
  "deployedLinkReferences": {}
}